{
  "_format": "hh-sol-artifact-1",
  "contractName": "Forward721Upgradeable",
  "sourceName": "contracts/forward/Forward721Upgradeable.sol",
  "abi": [
    {
      "anonymous": false,
      "inputs": [
        {
          "indexed": false,
          "internalType": "uint256",
          "name": "orderId",
          "type": "uint256"
        }
      ],
      "name": "CancelOrder",
      "type": "event"
    },
    {
      "anonymous": false,
      "inputs": [
        {
          "indexed": false,
          "internalType": "uint256",
          "name": "orderId",
          "type": "uint256"
        }
      ],
      "name": "CreateOrder",
      "type": "event"
    },
    {
      "anonymous": false,
      "inputs": [
        {
          "indexed": false,
          "internalType": "uint256",
          "name": "orderId",
          "type": "uint256"
        }
      ],
      "name": "Delivery",
      "type": "event"
    },
    {
      "anonymous": false,
      "inputs": [
        {
          "indexed": false,
          "internalType": "uint256",
          "name": "orderId",
          "type": "uint256"
        }
      ],
      "name": "Settle",
      "type": "event"
    },
    {
      "anonymous": false,
      "inputs": [
        {
          "indexed": false,
          "internalType": "uint256",
          "name": "orderId",
          "type": "uint256"
        }
      ],
      "name": "TakeOrder",
      "type": "event"
    },
    {
      "inputs": [
        {
          "internalType": "address",
          "name": "_want",
          "type": "address"
        },
        {
          "internalType": "address",
          "name": "_margin",
          "type": "address"
        }
      ],
      "name": "__BaseForward__init",
      "outputs": [],
      "stateMutability": "nonpayable",
      "type": "function"
    },
    {
      "inputs": [
        {
          "internalType": "address",
          "name": "_want",
          "type": "address"
        },
        {
          "internalType": "uint256",
          "name": "_poolType",
          "type": "uint256"
        },
        {
          "internalType": "address",
          "name": "_margin",
          "type": "address"
        }
      ],
      "name": "__Forward721Upgradeable__init",
      "outputs": [],
      "stateMutability": "nonpayable",
      "type": "function"
    },
    {
      "inputs": [],
      "name": "available",
      "outputs": [
        {
          "internalType": "uint256",
          "name": "",
          "type": "uint256"
        }
      ],
      "stateMutability": "view",
      "type": "function"
    },
    {
      "inputs": [],
      "name": "balance",
      "outputs": [
        {
          "internalType": "uint256",
          "name": "",
          "type": "uint256"
        }
      ],
      "stateMutability": "view",
      "type": "function"
    },
    {
      "inputs": [],
      "name": "balanceSavingsInFVault",
      "outputs": [
        {
          "internalType": "uint256",
          "name": "",
          "type": "uint256"
        }
      ],
      "stateMutability": "view",
      "type": "function"
    },
    {
      "inputs": [
        {
          "internalType": "uint256",
          "name": "_orderId",
          "type": "uint256"
        }
      ],
      "name": "cancelOrder",
      "outputs": [],
      "stateMutability": "nonpayable",
      "type": "function"
    },
    {
      "inputs": [],
      "name": "cfee",
      "outputs": [
        {
          "internalType": "uint256",
          "name": "",
          "type": "uint256"
        }
      ],
      "stateMutability": "view",
      "type": "function"
    },
    {
      "inputs": [
        {
          "internalType": "uint256",
          "name": "_orderId",
          "type": "uint256"
        }
      ],
      "name": "checkOrderState",
      "outputs": [
        {
          "internalType": "enum BaseForwardUpgradeable.State",
          "name": "",
          "type": "uint8"
        }
      ],
      "stateMutability": "view",
      "type": "function"
    },
    {
      "inputs": [
        {
          "internalType": "address",
          "name": "_to",
          "type": "address"
        }
      ],
      "name": "collectFee",
      "outputs": [],
      "stateMutability": "nonpayable",
      "type": "function"
    },
    {
      "inputs": [
        {
          "internalType": "address",
          "name": "_creator",
          "type": "address"
        },
        {
          "internalType": "uint256[]",
          "name": "_tokenIds",
          "type": "uint256[]"
        },
        {
          "internalType": "uint256[]",
          "name": "_times",
          "type": "uint256[]"
        },
        {
          "internalType": "uint256[]",
          "name": "_prices",
          "type": "uint256[]"
        },
        {
          "internalType": "address[]",
          "name": "_takerWhiteList",
          "type": "address[]"
        },
        {
          "internalType": "bool",
          "name": "_deposit",
          "type": "bool"
        },
        {
          "internalType": "bool",
          "name": "_isSeller",
          "type": "bool"
        }
      ],
      "name": "createOrderFor",
      "outputs": [],
      "stateMutability": "nonpayable",
      "type": "function"
    },
    {
      "inputs": [
        {
          "internalType": "address",
          "name": "_deliverer",
          "type": "address"
        },
        {
          "internalType": "uint256",
          "name": "_orderId",
          "type": "uint256"
        }
      ],
      "name": "deliverFor",
      "outputs": [],
      "stateMutability": "nonpayable",
      "type": "function"
    },
    {
      "inputs": [],
      "name": "eth",
      "outputs": [
        {
          "internalType": "address",
          "name": "",
          "type": "address"
        }
      ],
      "stateMutability": "view",
      "type": "function"
    },
    {
      "inputs": [],
      "name": "fVault",
      "outputs": [
        {
          "internalType": "address",
          "name": "",
          "type": "address"
        }
      ],
      "stateMutability": "view",
      "type": "function"
    },
    {
      "inputs": [],
      "name": "factory",
      "outputs": [
        {
          "internalType": "address",
          "name": "",
          "type": "address"
        }
      ],
      "stateMutability": "view",
      "type": "function"
    },
    {
      "inputs": [
        {
          "internalType": "uint256",
          "name": "_orderId",
          "type": "uint256"
        }
      ],
      "name": "getBuyerAmountToDeliver",
      "outputs": [
        {
          "internalType": "uint256",
          "name": "price",
          "type": "uint256"
        }
      ],
      "stateMutability": "view",
      "type": "function"
    },
    {
      "inputs": [
        {
          "internalType": "uint256",
          "name": "_orderId",
          "type": "uint256"
        }
      ],
      "name": "getOrder",
      "outputs": [
        {
          "components": [
            {
              "internalType": "uint128",
              "name": "buyerMargin",
              "type": "uint128"
            },
            {
              "internalType": "uint128",
              "name": "sellerMargin",
              "type": "uint128"
            },
            {
              "internalType": "uint128",
              "name": "buyerShare",
              "type": "uint128"
            },
            {
              "internalType": "uint128",
              "name": "sellerShare",
              "type": "uint128"
            },
            {
              "internalType": "uint128",
              "name": "deliveryPrice",
              "type": "uint128"
            },
            {
              "internalType": "uint40",
              "name": "validTill",
              "type": "uint40"
            },
            {
              "internalType": "uint40",
              "name": "deliverStart",
              "type": "uint40"
            },
            {
              "internalType": "uint40",
              "name": "expireStart",
              "type": "uint40"
            },
            {
              "internalType": "address",
              "name": "buyer",
              "type": "address"
            },
            {
              "internalType": "address",
              "name": "seller",
              "type": "address"
            },
            {
              "internalType": "bool",
              "name": "buyerDelivered",
              "type": "bool"
            },
            {
              "internalType": "bool",
              "name": "sellerDelivered",
              "type": "bool"
            },
            {
              "internalType": "enum BaseForwardUpgradeable.State",
              "name": "state",
              "type": "uint8"
            },
            {
              "internalType": "address[]",
              "name": "takerWhiteList",
              "type": "address[]"
            }
          ],
          "internalType": "struct BaseForwardUpgradeable.Order",
          "name": "order",
          "type": "tuple"
        }
      ],
      "stateMutability": "view",
      "type": "function"
    },
    {
      "inputs": [],
      "name": "getPricePerFullShare",
      "outputs": [
        {
          "internalType": "uint256",
          "name": "",
          "type": "uint256"
        }
      ],
      "stateMutability": "view",
      "type": "function"
    },
    {
      "inputs": [],
      "name": "margin",
      "outputs": [
        {
          "internalType": "address",
          "name": "",
          "type": "address"
        }
      ],
      "stateMutability": "view",
      "type": "function"
    },
    {
      "inputs": [
        {
          "internalType": "address",
          "name": "",
          "type": "address"
        },
        {
          "internalType": "address",
          "name": "",
          "type": "address"
        },
        {
          "internalType": "uint256",
          "name": "",
          "type": "uint256"
        },
        {
          "internalType": "bytes",
          "name": "",
          "type": "bytes"
        }
      ],
      "name": "onERC721Received",
      "outputs": [
        {
          "internalType": "bytes4",
          "name": "",
          "type": "bytes4"
        }
      ],
      "stateMutability": "nonpayable",
      "type": "function"
    },
    {
      "inputs": [
        {
          "internalType": "uint256",
          "name": "",
          "type": "uint256"
        }
      ],
      "name": "orders",
      "outputs": [
        {
          "internalType": "uint128",
          "name": "buyerMargin",
          "type": "uint128"
        },
        {
          "internalType": "uint128",
          "name": "sellerMargin",
          "type": "uint128"
        },
        {
          "internalType": "uint128",
          "name": "buyerShare",
          "type": "uint128"
        },
        {
          "internalType": "uint128",
          "name": "sellerShare",
          "type": "uint128"
        },
        {
          "internalType": "uint128",
          "name": "deliveryPrice",
          "type": "uint128"
        },
        {
          "internalType": "uint40",
          "name": "validTill",
          "type": "uint40"
        },
        {
          "internalType": "uint40",
          "name": "deliverStart",
          "type": "uint40"
        },
        {
          "internalType": "uint40",
          "name": "expireStart",
          "type": "uint40"
        },
        {
          "internalType": "address",
          "name": "buyer",
          "type": "address"
        },
        {
          "internalType": "address",
          "name": "seller",
          "type": "address"
        },
        {
          "internalType": "bool",
          "name": "buyerDelivered",
          "type": "bool"
        },
        {
          "internalType": "bool",
          "name": "sellerDelivered",
          "type": "bool"
        },
        {
          "internalType": "enum BaseForwardUpgradeable.State",
          "name": "state",
          "type": "uint8"
        }
      ],
      "stateMutability": "view",
      "type": "function"
    },
    {
      "inputs": [],
      "name": "ordersLength",
      "outputs": [
        {
          "internalType": "uint256",
          "name": "",
          "type": "uint256"
        }
      ],
      "stateMutability": "view",
      "type": "function"
    },
    {
      "inputs": [],
      "name": "pause",
      "outputs": [],
      "stateMutability": "nonpayable",
      "type": "function"
    },
    {
      "inputs": [],
      "name": "paused",
      "outputs": [
        {
          "internalType": "bool",
          "name": "",
          "type": "bool"
        }
      ],
      "stateMutability": "view",
      "type": "function"
    },
    {
      "inputs": [],
      "name": "ratio",
      "outputs": [
        {
          "internalType": "uint256",
          "name": "",
          "type": "uint256"
        }
      ],
      "stateMutability": "view",
      "type": "function"
    },
    {
      "inputs": [
        {
          "internalType": "address",
          "name": "_fVault",
          "type": "address"
        }
      ],
      "name": "setForwardVault",
      "outputs": [],
      "stateMutability": "nonpayable",
      "type": "function"
    },
    {
      "inputs": [
        {
          "internalType": "uint256",
          "name": "_orderId",
          "type": "uint256"
        }
      ],
      "name": "settle",
      "outputs": [],
      "stateMutability": "nonpayable",
      "type": "function"
    },
    {
      "inputs": [
        {
          "internalType": "address",
          "name": "_taker",
          "type": "address"
        },
        {
          "internalType": "uint256",
          "name": "_orderId",
          "type": "uint256"
        }
      ],
      "name": "takeOrderFor",
      "outputs": [],
      "stateMutability": "nonpayable",
      "type": "function"
    },
    {
      "inputs": [
        {
          "internalType": "uint256",
          "name": "_orderId",
          "type": "uint256"
        }
      ],
      "name": "underlyingAssets",
      "outputs": [
        {
          "internalType": "uint256[]",
          "name": "",
          "type": "uint256[]"
        }
      ],
      "stateMutability": "view",
      "type": "function"
    },
    {
      "inputs": [],
      "name": "unpause",
      "outputs": [],
      "stateMutability": "nonpayable",
      "type": "function"
    },
    {
      "inputs": [],
      "name": "version",
      "outputs": [
        {
          "internalType": "string",
          "name": "",
          "type": "string"
        }
      ],
      "stateMutability": "view",
      "type": "function"
    },
    {
      "inputs": [],
      "name": "want",
      "outputs": [
        {
          "internalType": "address",
          "name": "",
          "type": "address"
        }
      ],
      "stateMutability": "view",
      "type": "function"
    },
    {
      "inputs": [
        {
          "internalType": "address",
          "name": "_token",
          "type": "address"
        },
        {
          "internalType": "address",
          "name": "_to",
          "type": "address"
        }
      ],
      "name": "withdrawOther",
      "outputs": [],
      "stateMutability": "nonpayable",
      "type": "function"
    }
  ],
  "bytecode": "0x608060405234801561001057600080fd5b50614c6b806100206000396000f3fe608060405234801561001057600080fd5b50600436106101f05760003560e01c806378fc53d81161010f578063a85c38ef116100a2578063c45a015511610071578063c45a0155146104d2578063d09ef241146104eb578063e16e2d661461050b578063f2bfea621461051e57600080fd5b8063a85c38ef146103ed578063b48985c8146104ae578063b69ef8a8146104c1578063be8acd3f146104c957600080fd5b80638c7c9e0c116100de5780638c7c9e0c146103a15780638df82800146103b45780638f76691a146103c7578063a15e5fd9146103da57600080fd5b806378fc53d8146103605780637b7e6f8d146103735780637e9a152c146103865780638456cb591461039957600080fd5b806348a0d754116101875780635c975abb116101565780635c975abb1461031f57806369b59e751461033c57806371ca337d1461034f57806377c7b8fc1461035857600080fd5b806348a0d754146102d6578063514fcac7146102de57806352781173146102f157806354fd4d50146102f957600080fd5b80633235029e116101c35780633235029e14610284578063383730901461029b5780633b50c4d1146102ae5780633f4ba83a146102ce57600080fd5b80631045bfc1146101f5578063150b7a021461020a5780631f1fcd51146102465780632358a38314610271575b600080fd5b6102086102033660046144d0565b61053e565b005b610228610218366004614508565b630a85bd0160e11b949350505050565b6040516001600160e01b031990911681526020015b60405180910390f35b600154610259906001600160a01b031681565b6040516001600160a01b03909116815260200161023d565b61020861027f3660046146c9565b6106c6565b61028d60055481565b60405190815260200161023d565b6102086102a936600461469e565b610779565b6102c16102bc366004614726565b6107f2565b60405161023d919061481e565b610208610854565b61028d610868565b6102086102ec366004614726565b6108e9565b61028d61095c565b6040805180820182526004815263076312e360e41b6020820152905161023d9190614870565b60085461032c9060ff1681565b604051901515815260200161023d565b61020861034a366004614498565b610a92565b61028d60065481565b61028d610b8c565b61020861036e36600461469e565b610c45565b6102086103813660046145c4565b610cb8565b61028d610394366004614726565b610d71565b610208610ff0565b600454610259906001600160a01b031681565b6102086103c2366004614726565b611007565b600254610259906001600160a01b031681565b6102086103e8366004614498565b61107c565b6104956103fb366004614726565b600960205260009081526040902080546001820154600283015460038401546004909401546001600160801b0380851695600160801b95869004821695858316958190048316949283169364ffffffffff918404821693600160a81b808204841694600160d01b909204909316926001600160a01b03918216929182169160ff600160a01b82048116928204811691600160b01b9004168d565b60405161023d9d9c9b9a99989796959493929190614a37565b600354610259906001600160a01b031681565b61028d6116bc565b61028d60075481565b600054610259906201000090046001600160a01b031681565b6104fe6104f9366004614726565b6116d7565b60405161023d91906148f1565b6102086105193660046144d0565b6118df565b61053161052c366004614726565b611aa6565b60405161023d9190614862565b600054610100900460ff1680610557575060005460ff16155b61057c5760405162461bcd60e51b8152600401610573906148a3565b60405180910390fd5b600054610100900460ff1615801561059e576000805461ffff19166101011790555b6000805462010000600160b01b0319163362010000908102919091179182905560405163efb5f11360e01b81526001600160a01b038581166004830152919092041690819063efb5f1139060240160206040518083038186803b15801561060457600080fd5b505afa158015610618573d6000803e3d6000fd5b505050506040513d601f19601f8201168201806040525081019061063c919061470a565b6106725760405162461bcd60e51b815260206004820152600760248201526610b6b0b933b4b760c91b6044820152606401610573565b50600180546001600160a01b038086166001600160a01b0319928316179092556002805492851692909116919091179055670de0b6b3a764000060065580156106c1576000805461ff00191690555b505050565b600054610100900460ff16806106df575060005460ff16155b6106fb5760405162461bcd60e51b8152600401610573906148a3565b600054610100900460ff1615801561071d576000805461ffff19166101011790555b610727848361053e565b826102d1146107615760405162461bcd60e51b8152600401610573906020808252600490820152632137323160e01b604082015260600190565b8015610773576000805461ff00191690555b50505050565b610781611da8565b600461078c82611aa6565b60078111156107ab57634e487b7160e01b600052602160045260246000fd5b146107e45760405162461bcd60e51b81526020600482015260096024820152682164656c697665727960b81b6044820152606401610573565b6107ee8282611de6565b5050565b6000818152603c602090815260409182902080548351818402810184019094528084526060939283018282801561084857602002820191906000526020600020905b815481526020019060010190808311610834575b50505050509050919050565b61085c6121c8565b6008805460ff19169055565b6002546040516370a0823160e01b81523060048201526000916001600160a01b0316906370a082319060240160206040518083038186803b1580156108ac57600080fd5b505afa1580156108c0573d6000803e3d6000fd5b505050506040513d601f19601f820116820180604052508101906108e4919061473e565b905090565b6108f1611da8565b60036108fc82611aa6565b600781111561091b57634e487b7160e01b600052602160045260246000fd5b146109505760405162461bcd60e51b8152602060048201526005602482015264085919585960da1b6044820152606401610573565b61095981612213565b50565b6003546000906001600160a01b031615610a8c576108e4670de0b6b3a7640000610a86600360009054906101000a90046001600160a01b03166001600160a01b03166377c7b8fc6040518163ffffffff1660e01b815260040160206040518083038186803b1580156109cd57600080fd5b505afa1580156109e1573d6000803e3d6000fd5b505050506040513d601f19601f82011682018060405250810190610a05919061473e565b6003546040516370a0823160e01b81523060048201526001600160a01b03909116906370a082319060240160206040518083038186803b158015610a4857600080fd5b505afa158015610a5c573d6000803e3d6000fd5b505050506040513d601f19601f82011682018060405250810190610a80919061473e565b906124e1565b906124f6565b50600090565b60008060029054906101000a90046001600160a01b03166001600160a01b031663c415b95c6040518163ffffffff1660e01b815260040160206040518083038186803b158015610ae157600080fd5b505afa158015610af5573d6000803e3d6000fd5b505050506040513d601f19601f82011682018060405250810190610b1991906144b4565b6000549091506201000090046001600160a01b0316331480610b435750336001600160a01b038216145b610b775760405162461bcd60e51b8152602060048201526005602482015264042c2eae8d60db1b6044820152606401610573565b610b8382600554612502565b50506000600555565b6003546000906001600160a01b031615610c3e576108e4670de0b6b3a7640000610a86600360009054906101000a90046001600160a01b03166001600160a01b03166377c7b8fc6040518163ffffffff1660e01b815260040160206040518083038186803b158015610bfd57600080fd5b505afa158015610c11573d6000803e3d6000fd5b505050506040513d601f19601f82011682018060405250810190610c35919061473e565b600654906124e1565b5060065490565b610c4d611da8565b6001610c5882611aa6565b6007811115610c7757634e487b7160e01b600052602160045260246000fd5b14610cae5760405162461bcd60e51b81526020600482015260076024820152662161637469766560c81b6044820152606401610573565b6107ee82826125e6565b610cc0611da8565b818015610cca5750805b15610cd857610cd8866129b5565b610ce6878686868686612a17565b60006001600754610cf79190614b88565b905060005b8751811015610d66576000828152603c602052604090208851899083908110610d3557634e487b7160e01b600052603260045260246000fd5b6020908102919091018101518254600181018455600093845291909220015580610d5e81614bcb565b915050610cfc565b505050505050505050565b600081815260096020908152604080832081516101c08101835281546001600160801b038082168352600160801b9182900481169583019590955260018301548086169483019490945292839004841660608201526002820154938416608082015264ffffffffff928404831660a0820152600160a81b808504841660c0830152600160d01b90940490921660e083015260038101546001600160a01b03908116610100840152600482015490811661012084015260ff600160a01b820481161515610140850152938104841615156101608401528493610180840191600160b01b9004166007811115610e7557634e487b7160e01b600052602160045260246000fd5b6007811115610e9457634e487b7160e01b600052602160045260246000fd5b815260200160058201805480602002602001604051908101604052809291908181526020018280548015610ef157602002820191906000526020600020905b81546001600160a01b03168152600190910190602001808311610ed3575b5050505050815250509050806101400151610fea57600080546040805163ec2c65c160e01b8152815184936201000090046001600160a01b03169263ec2c65c19260048082019391829003018186803b158015610f4d57600080fd5b505afa158015610f61573d6000803e3d6000fd5b505050506040513d601f19601f82011682018060405250810190610f859190614756565b915091506000610fb382610a8686608001516001600160801b0316610a80868861329c90919063ffffffff16565b9050610fe4610fdd670de0b6b3a7640000610a8687604001516001600160801b0316610a80610b8c565b82906132a8565b94505050505b50919050565b610ff86121c8565b6008805460ff19166001179055565b61100f611da8565b600561101a82611aa6565b600781111561103957634e487b7160e01b600052602160045260246000fd5b146110715760405162461bcd60e51b815260206004820152600860248201526708595e1c1a5c995960c21b6044820152606401610573565b6109598160016132b4565b6110846121c8565b6003546001600160a01b03161580156110a557506001600160a01b03811615155b15611196576000816001600160a01b0316631f1fcd516040518163ffffffff1660e01b815260040160206040518083038186803b1580156110e557600080fd5b505afa1580156110f9573d6000803e3d6000fd5b505050506040513d601f19601f8201168201806040525081019061111d91906144b4565b6002549091506001600160a01b038083169116146111655760405162461bcd60e51b8152602060048201526005602482015264085dd85b9d60da1b6044820152606401610573565b61117a6001600160a01b0382168360006137fc565b6111906001600160a01b038216836000196137fc565b5061169a565b6003546001600160a01b0316158015906111b857506001600160a01b03811615155b15611475576000816001600160a01b0316631f1fcd516040518163ffffffff1660e01b815260040160206040518083038186803b1580156111f857600080fd5b505afa15801561120c573d6000803e3d6000fd5b505050506040513d601f19601f8201168201806040525081019061123091906144b4565b6002549091506001600160a01b038083169116146112785760405162461bcd60e51b8152602060048201526005602482015264085dd85b9d60da1b6044820152606401610573565b6003546040516370a0823160e01b81523060048201526000916001600160a01b0316906370a082319060240160206040518083038186803b1580156112bc57600080fd5b505afa1580156112d0573d6000803e3d6000fd5b505050506040513d601f19601f820116820180604052508101906112f4919061473e565b90506000808211611306576000611384565b600354604051632e1a7d4d60e01b8152600481018490526001600160a01b0390911690632e1a7d4d90602401602060405180830381600087803b15801561134c57600080fd5b505af1158015611360573d6000803e3d6000fd5b505050506040513d601f19601f82011682018060405250810190611384919061473e565b6003549091506113a2906001600160a01b03858116911660006137fc565b6113b76001600160a01b0384168560006137fc565b6113cd6001600160a01b038416856000196137fc565b811561146d5760405163b6b55f2560e01b8152600481018290526000906001600160a01b0386169063b6b55f2590602401602060405180830381600087803b15801561141857600080fd5b505af115801561142c573d6000803e3d6000fd5b505050506040513d601f19601f82011682018060405250810190611450919061473e565b905061146883610a8683670de0b6b3a76400006124e1565b600655505b50505061169a565b6003546001600160a01b03161580159061149657506001600160a01b038116155b15611667576003546040516370a0823160e01b81523060048201526000916001600160a01b0316906370a082319060240160206040518083038186803b1580156114df57600080fd5b505afa1580156114f3573d6000803e3d6000fd5b505050506040513d601f19601f82011682018060405250810190611517919061473e565b905060008082116115295760006115a7565b600354604051632e1a7d4d60e01b8152600481018490526001600160a01b0390911690632e1a7d4d90602401602060405180830381600087803b15801561156f57600080fd5b505af1158015611583573d6000803e3d6000fd5b505050506040513d601f19601f820116820180604052508101906115a7919061473e565b60035460408051631f1fcd5160e01b81529051929350611640926001600160a01b03909216916000918391631f1fcd5191600480820192602092909190829003018186803b1580156115f857600080fd5b505afa15801561160c573d6000803e3d6000fd5b505050506040513d601f19601f8201168201806040525081019061163091906144b4565b6001600160a01b031691906137fc565b81156116605761165c82610a8683670de0b6b3a76400006124e1565b6006555b505061169a565b60405162461bcd60e51b81526020600482015260086024820152676e6f6e73656e736560c01b6044820152606401610573565b600380546001600160a01b0319166001600160a01b0392909216919091179055565b60006108e46116c961095c565b6116d1610868565b9061329c565b61174e604080516101c081018252600080825260208201819052918101829052606081018290526080810182905260a0810182905260c0810182905260e081018290526101008101829052610120810182905261014081018290526101608101829052906101808201908152602001606081525090565b60008281526009602090815260409182902082516101c08101845281546001600160801b038082168352600160801b9182900481169483019490945260018301548085169583019590955293849004831660608201526002820154928316608082015264ffffffffff938304841660a0820152600160a81b808404851660c0830152600160d01b90930490931660e084015260038101546001600160a01b03908116610100850152600482015490811661012085015260ff600160a01b820481161515610140860152928104831615156101608501529091610180840191600160b01b900416600781111561185357634e487b7160e01b600052602160045260246000fd5b600781111561187257634e487b7160e01b600052602160045260246000fd5b8152602001600582018054806020026020016040519081016040528092919081815260200182805480156118cf57602002820191906000526020600020905b81546001600160a01b031681526001909101906020018083116118b1575b5050505050815250509050919050565b60008060029054906101000a90046001600160a01b03166001600160a01b031663c415b95c6040518163ffffffff1660e01b815260040160206040518083038186803b15801561192e57600080fd5b505afa158015611942573d6000803e3d6000fd5b505050506040513d601f19601f8201168201806040525081019061196691906144b4565b6000549091506201000090046001600160a01b03163314806119905750336001600160a01b038216145b6119c45760405162461bcd60e51b8152602060048201526005602482015264042c2eae8d60db1b6044820152606401610573565b6119cd83613953565b6004546001600160a01b0384811691161415611a18576040516001600160a01b038316904780156108fc02916000818181858888f19350505050158015610773573d6000803e3d6000fd5b6040516370a0823160e01b81523060048201526106c19083906001600160a01b038616906370a082319060240160206040518083038186803b158015611a5d57600080fd5b505afa158015611a71573d6000803e3d6000fd5b505050506040513d601f19601f82011682018060405250810190611a95919061473e565b6001600160a01b03861691906139e3565b600081815260096020908152604080832081516101c08101835281546001600160801b038082168352600160801b9182900481169583019590955260018301548086169483019490945292839004841660608201526002820154938416608082015264ffffffffff928404831660a0820152600160a81b808504841660c0830152600160d01b90940490921660e083015260038101546001600160a01b03908116610100840152600482015490811661012084015260ff600160a01b820481161515610140850152938104841615156101608401528493610180840191600160b01b9004166007811115611baa57634e487b7160e01b600052602160045260246000fd5b6007811115611bc957634e487b7160e01b600052602160045260246000fd5b815260200160058201805480602002602001604051908101604052809291908181526020018280548015611c2657602002820191906000526020600020905b81546001600160a01b03168152600190910190602001808311611c08575b50505050508152505090508060a0015164ffffffffff1660001415611c4e5750600092915050565b60078161018001516007811115611c7557634e487b7160e01b600052602160045260246000fd5b1415611c845750600792915050565b60a0810151429064ffffffffff168111611cd85760028261018001516007811115611cbf57634e487b7160e01b600052602160045260246000fd5b14611cce575060019392505050565b5060029392505050565b8160c0015164ffffffffff168111611d205760028261018001516007811115611d1157634e487b7160e01b600052602160045260246000fd5b14611cce575060039392505050565b8160e0015164ffffffffff168111611d725760068261018001516007811115611d5957634e487b7160e01b600052602160045260246000fd5b14611d68575060049392505050565b5060069392505050565b60068261018001516007811115611d9957634e487b7160e01b600052602160045260246000fd5b14611d68575060059392505050565b60085460ff1615611de45760405162461bcd60e51b81526020600482015260066024820152651c185d5cd95960d21b6044820152606401610573565b565b600081815260096020908152604080832081516101c08101835281546001600160801b038082168352600160801b9182900481169583019590955260018301548086169483019490945292839004841660608201526002820154938416608082015264ffffffffff928404831660a0820152600160a81b808504841660c0830152600160d01b90940490921660e083015260038101546001600160a01b03908116610100840152600482015490811661012084015260ff600160a01b8204811615156101408501529381048416151561016084015291929091610180840191600160b01b909104166007811115611eed57634e487b7160e01b600052602160045260246000fd5b6007811115611f0c57634e487b7160e01b600052602160045260246000fd5b815260200160058201805480602002602001604051908101604052809291908181526020018280548015611f6957602002820191906000526020600020905b81546001600160a01b03168152600190910190602001808311611f4b575b50505050508152505090508061012001516001600160a01b0316836001600160a01b0316148015611f9d5750806101600151155b1561200c57611fab82613a13565b60008281526009602052604090819020600401805460ff60a81b1916600160a81b179055517f87d76474b59c8a84b66fbd93991a1e3760b806cc4761ad4a08e39d96d4398f6a90611fff9084815260200190565b60405180910390a16121bd565b8061010001516001600160a01b0316836001600160a01b03161480156120355750806101400151155b1561218757600080546040805163ec2c65c160e01b8152815184936201000090046001600160a01b03169263ec2c65c19260048082019391829003018186803b15801561208157600080fd5b505afa158015612095573d6000803e3d6000fd5b505050506040513d601f19601f820116820180604052508101906120b99190614756565b9150915060006120e782610a8686608001516001600160801b0316610a80868861329c90919063ffffffff16565b905061212261211b612114670de0b6b3a7640000610a8688604001516001600160801b0316610a80610b8c565b83906132a8565b6000613a74565b5060008581526009602052604090819020600401805460ff60a01b1916600160a01b179055517f87d76474b59c8a84b66fbd93991a1e3760b806cc4761ad4a08e39d96d4398f6a906121779087815260200190565b60405180910390a15050506121bd565b60405162461bcd60e51b815260206004820152600b60248201526a64656c697665722062756760a81b6044820152606401610573565b6106c18260006132b4565b6000546201000090046001600160a01b03163314611de45760405162461bcd60e51b815260206004820152600860248201526721666163746f727960c01b6044820152606401610573565b600081815260096020908152604080832081516101c08101835281546001600160801b038082168352600160801b9182900481169583019590955260018301548086169483019490945292839004841660608201526002820154938416608082015264ffffffffff928404831660a0820152600160a81b808504841660c0830152600160d01b90940490921660e083015260038101546001600160a01b03908116610100840152600482015490811661012084015260ff600160a01b8204811615156101408501529381048416151561016084015291929091610180840191600160b01b90910416600781111561231a57634e487b7160e01b600052602160045260246000fd5b600781111561233957634e487b7160e01b600052602160045260246000fd5b81526020016005820180548060200260200160405190810160405280929190818152602001828054801561239657602002820191906000526020600020905b81546001600160a01b03168152600190910190602001808311612378575b505050919092525050506101008101519091506001600160a01b0316156123ef576123ea8161010001516123e5670de0b6b3a7640000610a8685604001516001600160801b0316610a80610b8c565b612502565b612485565b6101208101516001600160a01b03161561244b576124318161012001516123e5670de0b6b3a7640000610a8685606001516001600160801b0316610a80610b8c565b806101600151156123ea576123ea82826101200151613b42565b60405162461bcd60e51b815260206004820152600f60248201526e63616e63656c4f726465722062756760881b6044820152606401610573565b6000828152600960209081526040918290206004018054600760b01b60ff60b01b1990911617905590518381527f935c9ad2f1fda9d7eae0d2a512f1521cb7190ee06165414e722366a65975fb6b910160405180910390a15050565b60006124ed8284614b69565b90505b92915050565b60006124ed8284614b49565b600061250c610868565b9050818110801561252757506003546001600160a01b031615155b156125c3576003546001600160a01b0316632e1a7d4d61254784846132a8565b6040518263ffffffff1660e01b815260040161256591815260200190565b602060405180830381600087803b15801561257f57600080fd5b505af1158015612593573d6000803e3d6000fd5b505050506040513d601f19601f820116820180604052508101906125b7919061473e565b506125c0610868565b90505b808211156125cf578091505b6002546106c1906001600160a01b03168484613ba4565b600081815260096020908152604080832081516101c08101835281546001600160801b038082168352600160801b9182900481169583019590955260018301548086169483019490945292839004841660608201526002820154938416608082015264ffffffffff928404831660a0820152600160a81b808504841660c0830152600160d01b90940490921660e083015260038101546001600160a01b03908116610100840152600482015490811661012084015260ff600160a01b8204811615156101408501529381048416151561016084015291929091610180840191600160b01b9091041660078111156126ed57634e487b7160e01b600052602160045260246000fd5b600781111561270c57634e487b7160e01b600052602160045260246000fd5b81526020016005820180548060200260200160405190810160405280929190818152602001828054801561276957602002820191906000526020600020905b81546001600160a01b0316815260019091019060200180831161274b575b50505050508152505090506000816101a001515111156127cb5761279283826101a00151613bb8565b6127cb5760405162461bcd60e51b815260206004820152600a602482015269085dda1a5d195b1a5cdd60b21b6044820152606401610573565b60008281526009602052604081206004015461283c906001600160a01b03161561280c576000848152600960205260409020546001600160801b031661282c565b600084815260096020526040902054600160801b90046001600160801b03165b6001600160801b03166001613a74565b6000848152600960205260409020600301549091506001600160a01b03166128b35760008381526009602052604090206003810180546001600160a01b0319166001600160a01b03871617905560010180546fffffffffffffffffffffffffffffffff19166001600160801b038316179055612957565b6000838152600960205260409020600401546001600160a01b031661291f5760008381526009602052604090206004810180546001600160a01b0387166001600160a01b031990911617905560010180546001600160801b03808416600160801b029116179055612957565b60405162461bcd60e51b815260206004820152600d60248201526c74616b654f726465722062756760981b6044820152606401610573565b6000838152600960209081526040918290206004018054600160b11b60ff60b01b1990911617905590518481527fa64977328523eb0f63a4533b049270f420fee1180e091714b7a91b5bc956f2ab910160405180910390a150505050565b60005b81518110156107ee576001548251612a05916001600160a01b031690339030908690869081106129f857634e487b7160e01b600052603260045260246000fd5b6020026020010151613c2c565b80612a0f81614bcb565b9150506129b8565b6001600160801b03801684600081518110612a4257634e487b7160e01b600052603260045260246000fd5b6020026020010151108015612a8757506001600160801b03801684600181518110612a7d57634e487b7160e01b600052603260045260246000fd5b6020026020010151105b8015612ac357506001600160801b03801684600281518110612ab957634e487b7160e01b600052603260045260246000fd5b6020026020010151105b612afa5760405162461bcd60e51b81526020600482015260086024820152676f766572666c6f7760c01b6044820152606401610573565b6001600160801b038016612b6785600281518110612b2857634e487b7160e01b600052603260045260246000fd5b602002602001015186600181518110612b5157634e487b7160e01b600052603260045260246000fd5b602002602001015161329c90919063ffffffff16565b10612bab5760405162461bcd60e51b815260206004820152601460248201527364656c69766572206d6179206f766572666c6f7760601b6044820152606401610573565b64ffffffffff8016612c0086600281518110612bd757634e487b7160e01b600052603260045260246000fd5b602002602001015187600181518110612b5157634e487b7160e01b600052603260045260246000fd5b108015612c66575084600181518110612c2957634e487b7160e01b600052603260045260246000fd5b6020026020010151612c6486600081518110612c5557634e487b7160e01b600052603260045260246000fd5b60200260200101516116d14290565b105b612c9a5760405162461bcd60e51b81526020600482015260056024820152642174696d6560d81b6044820152606401610573565b6000828015612ca7575081155b15612d8557600080546040805163ec2c65c160e01b8152815184936201000090046001600160a01b03169263ec2c65c19260048082019391829003018186803b158015612cf357600080fd5b505afa158015612d07573d6000803e3d6000fd5b505050506040513d601f19601f82011682018060405250810190612d2b9190614756565b91509150612d7c612d7582610a868a600081518110612d5a57634e487b7160e01b600052603260045260246000fd5b6020026020010151610a80868861329c90919063ffffffff16565b6001613a74565b92505050612dee565b612deb82612dbb5785600181518110612dae57634e487b7160e01b600052603260045260246000fd5b6020026020010151612d75565b85600281518110612ddc57634e487b7160e01b600052603260045260246000fd5b60200260200101516001613a74565b90505b6007805460009182612dff83614bcb565b919050559050604051806101c0016040528087600181518110612e3257634e487b7160e01b600052603260045260246000fd5b60200260200101516001600160801b0316815260200187600281518110612e6957634e487b7160e01b600052603260045260246000fd5b60200260200101516001600160801b0316815260200184612e8a5783612e8d565b60005b6001600160801b0316815260200184612ea7576000612ea9565b835b6001600160801b0316815260200187600081518110612ed857634e487b7160e01b600052603260045260246000fd5b60200260200101516001600160801b03168152602001612f1289600081518110612c5557634e487b7160e01b600052603260045260246000fd5b64ffffffffff16815260200188600181518110612f3f57634e487b7160e01b600052603260045260246000fd5b602002602001015164ffffffffff168152602001612fa089600281518110612f7757634e487b7160e01b600052603260045260246000fd5b60200260200101518a600181518110612b5157634e487b7160e01b600052603260045260246000fd5b64ffffffffff16815260200184612fb75789612fba565b60005b6001600160a01b0316815260200184612fd4576000612fd6565b895b6001600160a01b03168152602001858015612fef575084155b151581526020018580156130005750845b15158152602001600181526020016000604051908082528060200260200182016040528015613039578160200160208202803683370190505b5090526000828152600960209081526040918290208351918401516001600160801b03928316600160801b91841682021782559284015160608501519083169083168402176001820155608084015160028201805460a087015160c088015160e0890151949096166001600160a81b03199283161764ffffffffff9182169097029690961769ffffffffffffffffffff60a81b1916600160a81b958716860264ffffffffff60d01b191617600160d01b96909316959095029190911790556101008401516003820180546001600160a01b0319166001600160a01b0392831617905561012085015160048301805461014088015161016089015193909416961695909517600160a01b921515929092029190911760ff60a81b19811691151590930290811784556101808501519193919261ffff60a81b191660ff60b01b1990911617600160b01b8360078111156131a157634e487b7160e01b600052602160045260246000fd5b02179055506101a082015180516131c291600584019160209091019061432e565b5050855115905061325e5760005b855181101561325c576009600083815260200190815260200160002060050186828151811061320f57634e487b7160e01b600052603260045260246000fd5b60209081029190910181015182546001810184556000938452919092200180546001600160a01b0319166001600160a01b039092169190911790558061325481614bcb565b9150506131d0565b505b6040518181527f2f539bcf68b0eef24f9fef1ae5ad7dd5a37f80a2fab34f406ad2b92c779d6064906020015b60405180910390a15050505050505050565b60006124ed8284614b31565b60006124ed8284614b88565b600080546040805163ec2c65c160e01b8152815184936201000090046001600160a01b03169263ec2c65c19260048082019391829003018186803b1580156132fb57600080fd5b505afa15801561330f573d6000803e3d6000fd5b505050506040513d601f19601f820116820180604052508101906133339190614756565b600086815260096020908152604080832081516101c08101835281546001600160801b038082168352600160801b9182900481169583019590955260018301548086169483019490945292839004841660608201526002820154938416608082015264ffffffffff928404831660a0820152600160a81b808504841660c0830152600160d01b90940490921660e083015260038101546001600160a01b03908116610100840152600482015490811661012084015260ff600160a01b820481161515610140850152938104841615156101608401529597509395509193919291610180840191600160b01b90910416600781111561344157634e487b7160e01b600052602160045260246000fd5b600781111561346057634e487b7160e01b600052602160045260246000fd5b8152602001600582018054806020026020016040519081016040528092919081815260200182805480156134bd57602002820191906000526020600020905b81546001600160a01b0316815260019091019060200180831161349f575b505050505081525050905080610160015180156134dc57508061014001515b15613655576134f085826101000151613b42565b600061351683610a8684608001516001600160801b0316876124e190919063ffffffff16565b9050600061353f670de0b6b3a7640000610a8685604001516001600160801b0316610a80610b8c565b905061356183608001516001600160801b03168361329c90919063ffffffff16565b81111561359b5761359b8361010001516123e58461359587608001516001600160801b0316866132a890919063ffffffff16565b906132a8565b60006135d78361359586608001516001600160801b03166116d1670de0b6b3a7640000610a868a606001516001600160801b0316610a80610b8c565b90506135e884610120015182612502565b6135ff6135f68460026124e1565b6005549061329c565b600555600088815260096020908152604091829020600401805460ff60b01b1916600360b11b17905590518981527f2a45eee61b61ef4932e2d79b32be61a1a538cbe00381faffb4d1cf3b1268c46b910161328a565b83156137f5578061016001516136f657600061368b83610a8684602001516001600160801b0316876124e190919063ffffffff16565b60055490915061369b908261329c565b6005556101008201516136f0906123e583613595670de0b6b3a7640000610a866136c3610b8c565b610a808a606001516001600160801b03168b604001516001600160801b031661329c90919063ffffffff16565b5061379c565b80610140015161379c57600061372683610a8684600001516001600160801b0316876124e190919063ffffffff16565b600554909150613736908261329c565b60055561012082015161378b906123e583613595670de0b6b3a7640000610a8661375e610b8c565b610a808a604001516001600160801b03168b606001516001600160801b031661329c90919063ffffffff16565b61379a86836101200151613b42565b505b6000858152600960209081526040918290206004018054600360b11b60ff60b01b1990911617905590518681527f2a45eee61b61ef4932e2d79b32be61a1a538cbe00381faffb4d1cf3b1268c46b910160405180910390a15b5050505050565b8015806138855750604051636eb1769f60e11b81523060048201526001600160a01b03838116602483015284169063dd62ed3e9060440160206040518083038186803b15801561384b57600080fd5b505afa15801561385f573d6000803e3d6000fd5b505050506040513d601f19601f82011682018060405250810190613883919061473e565b155b6138f05760405162461bcd60e51b815260206004820152603660248201527f5361666545524332303a20617070726f76652066726f6d206e6f6e2d7a65726f60448201527520746f206e6f6e2d7a65726f20616c6c6f77616e636560501b6064820152608401610573565b6040516001600160a01b0383166024820152604481018290526106c190849063095ea7b360e01b906064015b60408051601f198184030181529190526020810180516001600160e01b03166001600160e01b031990931692909217909152613f7b565b6002546001600160a01b038281169116141561399b5760405162461bcd60e51b815260206004820152600760248201526610b6b0b933b4b760c91b6044820152606401610573565b6003546001600160a01b03828116911614156109595760405162461bcd60e51b8152602060048201526007602482015266085995985d5b1d60ca1b6044820152606401610573565b6040516001600160a01b0383166024820152604481018290526106c190849063a9059cbb60e01b9060640161391c565b6000818152603c602090815260409182902080548351818402810184019094528084526109599392830182828015613a6a57602002820191906000526020600020905b815481526020019060010190808311613a56575b50505050506129b5565b600254600090613a8d906001600160a01b03168461404d565b6000828015613aa657506003546001600160a01b031615155b613acc57613ac7613ab5610b8c565b610a8686670de0b6b3a76400006124e1565b613b3a565b60065460035460405163b6b55f2560e01b815260048101879052613b3a9291610a8691670de0b6b3a7640000916001600160a01b03169063b6b55f2590602401602060405180830381600087803b158015613b2657600080fd5b505af1158015610a5c573d6000803e3d6000fd5b949350505050565b6000828152603c602090815260409182902080548351818402810184019094528084526107ee9392830182828015613b9957602002820191906000526020600020905b815481526020019060010190808311613b85575b505050505082614062565b6106c16001600160a01b03841683836139e3565b6000805b8251811015613c2257828181518110613be557634e487b7160e01b600052603260045260246000fd5b60200260200101516001600160a01b0316846001600160a01b03161415613c105760019150506124f0565b80613c1a81614bcb565b915050613bbc565b5060009392505050565b7306012c8cf97bead5deae237070f9587f8e7a266d73b47e3cd837ddf8e4c57f05d70ab865de6e193bbb7379986af15539de2db9a5086382daeda917a9cf0c732a46f2ffd99e19a89476e2f62270e0a35bbf075660606001600160a01b038916851415613ce0576323b872dd888888604051602401613cad939291906147fa565b6040516020818303038152906040529060e01b6020820180516001600160e01b0383818316178352505050509050613ef7565b836001600160a01b0316896001600160a01b03161415613e5e576000808a6001600160a01b0316635817816889604051602401613d1f91815260200190565b6040516020818303038152906040529060e01b6020820180516001600160e01b038381831617835250505050604051613d5891906147de565b600060405180830381855afa9150503d8060008114613d93576040519150601f19603f3d011682016040523d82523d6000602084013e613d98565b606091505b5091509150600081806020019051810190613db391906144b4565b9050828015613dd357508a6001600160a01b0316816001600160a01b0316145b613e105760405162461bcd60e51b815260206004820152600e60248201526d383ab636103737ba1037bbb732b960911b6044820152606401610573565b638264fe9889604051602401613e2891815260200190565b6040516020818303038152906040529060e01b6020820180516001600160e01b0383818316178352505050509350505050613ef7565b826001600160a01b0316896001600160a01b03161480613e8f5750816001600160a01b0316896001600160a01b0316145b15613eae576323b872dd888888604051602401613cad939291906147fa565b6342842e0e888888604051602401613ec8939291906147fa565b6040516020818303038152906040529060e01b6020820180516001600160e01b03838183161783525050505090505b6000808a6001600160a01b031683604051613f1291906147de565b6000604051808303816000865af19150503d8060008114613f4f576040519150601f19603f3d011682016040523d82523d6000602084013e613f54565b606091505b5091509150818015613f6557508051155b613f6e57600080fd5b5050505050505050505050565b6000613fd0826040518060400160405280602081526020017f5361666545524332303a206c6f772d6c6576656c2063616c6c206661696c6564815250856001600160a01b03166140c49092919063ffffffff16565b8051909150156106c15780806020019051810190613fee919061470a565b6106c15760405162461bcd60e51b815260206004820152602a60248201527f5361666545524332303a204552433230206f7065726174696f6e20646964206e6044820152691bdd081cdd58d8d9595960b21b6064820152608401610573565b6107ee6001600160a01b0383163330846140dd565b60005b82518110156106c15760015483516140b2916001600160a01b031690309085908790869081106140a557634e487b7160e01b600052603260045260246000fd5b60200260200101516140fe565b806140bc81614bcb565b915050614065565b60606140d384846000856141cd565b90505b9392505050565b610773846323b872dd60e01b85858560405160240161391c939291906147fa565b7306012c8cf97bead5deae237070f9587f8e7a266d73b47e3cd837ddf8e4c57f05d70ab865de6e193bbb7379986af15539de2db9a5086382daeda917a9cf0c732a46f2ffd99e19a89476e2f62270e0a35bbf075660606001600160a01b03891685141561418c576040516001600160a01b03881660248201526044810187905263a9059cbb90606401613cad565b836001600160a01b0316896001600160a01b03161415613e5e576040516001600160a01b038816602482015260448101879052638b72a2ec90606401613cad565b60608247101561422e5760405162461bcd60e51b815260206004820152602660248201527f416464726573733a20696e73756666696369656e742062616c616e636520666f6044820152651c8818d85b1b60d21b6064820152608401610573565b843b61427c5760405162461bcd60e51b815260206004820152601d60248201527f416464726573733a2063616c6c20746f206e6f6e2d636f6e74726163740000006044820152606401610573565b600080866001600160a01b0316858760405161429891906147de565b60006040518083038185875af1925050503d80600081146142d5576040519150601f19603f3d011682016040523d82523d6000602084013e6142da565b606091505b50915091506142ea8282866142f5565b979650505050505050565b606083156143045750816140d6565b8251156143145782518084602001fd5b8160405162461bcd60e51b81526004016105739190614870565b828054828255906000526020600020908101928215614383579160200282015b8281111561438357825182546001600160a01b0319166001600160a01b0390911617825560209092019160019091019061434e565b5061438f929150614393565b5090565b5b8082111561438f5760008155600101614394565b80356143b381614c12565b919050565b600082601f8301126143c8578081fd5b813560206143dd6143d883614b0d565b614adc565b80838252828201915082860187848660051b89010111156143fc578586fd5b855b8581101561442357813561441181614c12565b845292840192908401906001016143fe565b5090979650505050505050565b600082601f830112614440578081fd5b813560206144506143d883614b0d565b80838252828201915082860187848660051b890101111561446f578586fd5b855b8581101561442357813584529284019290840190600101614471565b80356143b381614c27565b6000602082840312156144a9578081fd5b81356140d681614c12565b6000602082840312156144c5578081fd5b81516140d681614c12565b600080604083850312156144e2578081fd5b82356144ed81614c12565b915060208301356144fd81614c12565b809150509250929050565b6000806000806080858703121561451d578182fd5b843561452881614c12565b935060208581013561453981614c12565b935060408601359250606086013567ffffffffffffffff8082111561455c578384fd5b818801915088601f83011261456f578384fd5b81358181111561458157614581614bfc565b614593601f8201601f19168501614adc565b915080825289848285010111156145a8578485fd5b8084840185840137810190920192909252939692955090935050565b600080600080600080600060e0888a0312156145de578283fd5b6145e7886143a8565b9650602088013567ffffffffffffffff80821115614603578485fd5b61460f8b838c01614430565b975060408a0135915080821115614624578485fd5b6146308b838c01614430565b965060608a0135915080821115614645578485fd5b6146518b838c01614430565b955060808a0135915080821115614666578485fd5b506146738a828b016143b8565b93505061468260a0890161448d565b915061469060c0890161448d565b905092959891949750929550565b600080604083850312156146b0578182fd5b82356146bb81614c12565b946020939093013593505050565b6000806000606084860312156146dd578283fd5b83356146e881614c12565b92506020840135915060408401356146ff81614c12565b809150509250925092565b60006020828403121561471b578081fd5b81516140d681614c27565b600060208284031215614737578081fd5b5035919050565b60006020828403121561474f578081fd5b5051919050565b60008060408385031215614768578182fd5b505080516020909101519092909150565b6000815180845260208085019450808401835b838110156147b15781516001600160a01b03168752958201959082019060010161478c565b509495945050505050565b600881106147da57634e487b7160e01b600052602160045260246000fd5b9052565b600082516147f0818460208701614b9f565b9190910192915050565b6001600160a01b039384168152919092166020820152604081019190915260600190565b6020808252825182820181905260009190848201906040850190845b818110156148565783518352928401929184019160010161483a565b50909695505050505050565b602081016124f082846147bc565b602081526000825180602084015261488f816040850160208701614b9f565b601f01601f19169190910160400192915050565b6020808252602e908201527f496e697469616c697a61626c653a20636f6e747261637420697320616c72656160408201526d191e481a5b9a5d1a585b1a5e995960921b606082015260800190565b6020815261490b6020820183516001600160801b03169052565b6000602083015161492760408401826001600160801b03169052565b5060408301516001600160801b03811660608401525060608301516001600160801b03811660808401525060808301516001600160801b03811660a08401525060a083015164ffffffffff811660c08401525060c083015164ffffffffff811660e08401525060e08301516101006149a78185018364ffffffffff169052565b84015190506101206149c3848201836001600160a01b03169052565b84015190506101406149df848201836001600160a01b03169052565b84015190506101606149f48482018315159052565b8401519050610180614a098482018315159052565b84015190506101a0614a1d848201836147bc565b8401516101c0848101529050613b3a6101e0840182614779565b6001600160801b038e811682528d811660208301528c811660408301528b811660608301528a16608082015264ffffffffff89811660a0830152881660c08201526101a0810164ffffffffff881660e08301526001600160a01b0387166101008301526001600160a01b038616610120830152841515610140830152831515610160830152614aca6101808301846147bc565b9e9d5050505050505050505050505050565b604051601f8201601f1916810167ffffffffffffffff81118282101715614b0557614b05614bfc565b604052919050565b600067ffffffffffffffff821115614b2757614b27614bfc565b5060051b60200190565b60008219821115614b4457614b44614be6565b500190565b600082614b6457634e487b7160e01b81526012600452602481fd5b500490565b6000816000190483118215151615614b8357614b83614be6565b500290565b600082821015614b9a57614b9a614be6565b500390565b60005b83811015614bba578181015183820152602001614ba2565b838111156107735750506000910152565b6000600019821415614bdf57614bdf614be6565b5060010190565b634e487b7160e01b600052601160045260246000fd5b634e487b7160e01b600052604160045260246000fd5b6001600160a01b038116811461095957600080fd5b801515811461095957600080fdfea2646970667358221220a986587d4812f844a3b2e542eab90c5e35f9756fb5d8c1531e98e4d37dd9b13864736f6c63430008040033",
  "linkReferences": {},
  "deployedLinkReferences": {}
}