{
  "_format": "hh-sol-artifact-1",
  "contractName": "Forward1155Upgradeable",
  "sourceName": "contracts/forward/Forward1155Upgradeable.sol",
  "abi": [
    {
      "anonymous": false,
      "inputs": [
        {
          "indexed": false,
          "internalType": "uint256",
          "name": "orderId",
          "type": "uint256"
        }
      ],
      "name": "CancelOrder",
      "type": "event"
    },
    {
      "anonymous": false,
      "inputs": [
        {
          "indexed": false,
          "internalType": "uint256",
          "name": "orderId",
          "type": "uint256"
        }
      ],
      "name": "CreateOrder",
      "type": "event"
    },
    {
      "anonymous": false,
      "inputs": [
        {
          "indexed": false,
          "internalType": "uint256",
          "name": "orderId",
          "type": "uint256"
        }
      ],
      "name": "Delivery",
      "type": "event"
    },
    {
      "anonymous": false,
      "inputs": [
        {
          "indexed": false,
          "internalType": "uint256",
          "name": "orderId",
          "type": "uint256"
        }
      ],
      "name": "Settle",
      "type": "event"
    },
    {
      "anonymous": false,
      "inputs": [
        {
          "indexed": false,
          "internalType": "uint256",
          "name": "orderId",
          "type": "uint256"
        }
      ],
      "name": "TakeOrder",
      "type": "event"
    },
    {
      "inputs": [
        {
          "internalType": "address",
          "name": "_want",
          "type": "address"
        },
        {
          "internalType": "address",
          "name": "_margin",
          "type": "address"
        }
      ],
      "name": "__BaseForward__init",
      "outputs": [],
      "stateMutability": "nonpayable",
      "type": "function"
    },
    {
      "inputs": [
        {
          "internalType": "address",
          "name": "_want",
          "type": "address"
        },
        {
          "internalType": "uint256",
          "name": "_poolType",
          "type": "uint256"
        },
        {
          "internalType": "address",
          "name": "_margin",
          "type": "address"
        }
      ],
      "name": "__Forward1155Upgradeable__init",
      "outputs": [],
      "stateMutability": "nonpayable",
      "type": "function"
    },
    {
      "inputs": [],
      "name": "available",
      "outputs": [
        {
          "internalType": "uint256",
          "name": "",
          "type": "uint256"
        }
      ],
      "stateMutability": "view",
      "type": "function"
    },
    {
      "inputs": [],
      "name": "balance",
      "outputs": [
        {
          "internalType": "uint256",
          "name": "",
          "type": "uint256"
        }
      ],
      "stateMutability": "view",
      "type": "function"
    },
    {
      "inputs": [],
      "name": "balanceSavingsInFVault",
      "outputs": [
        {
          "internalType": "uint256",
          "name": "",
          "type": "uint256"
        }
      ],
      "stateMutability": "view",
      "type": "function"
    },
    {
      "inputs": [
        {
          "internalType": "uint256",
          "name": "_orderId",
          "type": "uint256"
        }
      ],
      "name": "cancelOrder",
      "outputs": [],
      "stateMutability": "nonpayable",
      "type": "function"
    },
    {
      "inputs": [],
      "name": "cfee",
      "outputs": [
        {
          "internalType": "uint256",
          "name": "",
          "type": "uint256"
        }
      ],
      "stateMutability": "view",
      "type": "function"
    },
    {
      "inputs": [
        {
          "internalType": "uint256",
          "name": "_orderId",
          "type": "uint256"
        }
      ],
      "name": "checkOrderState",
      "outputs": [
        {
          "internalType": "enum BaseForwardUpgradeable.State",
          "name": "",
          "type": "uint8"
        }
      ],
      "stateMutability": "view",
      "type": "function"
    },
    {
      "inputs": [
        {
          "internalType": "address",
          "name": "_to",
          "type": "address"
        }
      ],
      "name": "collectFee",
      "outputs": [],
      "stateMutability": "nonpayable",
      "type": "function"
    },
    {
      "inputs": [
        {
          "internalType": "address",
          "name": "_creator",
          "type": "address"
        },
        {
          "internalType": "uint256[]",
          "name": "_ids",
          "type": "uint256[]"
        },
        {
          "internalType": "uint256[]",
          "name": "_amounts",
          "type": "uint256[]"
        },
        {
          "internalType": "uint256[]",
          "name": "_times",
          "type": "uint256[]"
        },
        {
          "internalType": "uint256[]",
          "name": "_prices",
          "type": "uint256[]"
        },
        {
          "internalType": "address[]",
          "name": "_takerWhiteList",
          "type": "address[]"
        },
        {
          "internalType": "bool",
          "name": "_deposit",
          "type": "bool"
        },
        {
          "internalType": "bool",
          "name": "_isSeller",
          "type": "bool"
        }
      ],
      "name": "createOrderFor",
      "outputs": [],
      "stateMutability": "nonpayable",
      "type": "function"
    },
    {
      "inputs": [
        {
          "internalType": "address",
          "name": "_deliverer",
          "type": "address"
        },
        {
          "internalType": "uint256",
          "name": "_orderId",
          "type": "uint256"
        }
      ],
      "name": "deliverFor",
      "outputs": [],
      "stateMutability": "nonpayable",
      "type": "function"
    },
    {
      "inputs": [],
      "name": "eth",
      "outputs": [
        {
          "internalType": "address",
          "name": "",
          "type": "address"
        }
      ],
      "stateMutability": "view",
      "type": "function"
    },
    {
      "inputs": [],
      "name": "fVault",
      "outputs": [
        {
          "internalType": "address",
          "name": "",
          "type": "address"
        }
      ],
      "stateMutability": "view",
      "type": "function"
    },
    {
      "inputs": [],
      "name": "factory",
      "outputs": [
        {
          "internalType": "address",
          "name": "",
          "type": "address"
        }
      ],
      "stateMutability": "view",
      "type": "function"
    },
    {
      "inputs": [
        {
          "internalType": "uint256",
          "name": "_orderId",
          "type": "uint256"
        }
      ],
      "name": "getBuyerAmountToDeliver",
      "outputs": [
        {
          "internalType": "uint256",
          "name": "price",
          "type": "uint256"
        }
      ],
      "stateMutability": "view",
      "type": "function"
    },
    {
      "inputs": [
        {
          "internalType": "uint256",
          "name": "_orderId",
          "type": "uint256"
        }
      ],
      "name": "getOrder",
      "outputs": [
        {
          "components": [
            {
              "internalType": "uint128",
              "name": "buyerMargin",
              "type": "uint128"
            },
            {
              "internalType": "uint128",
              "name": "sellerMargin",
              "type": "uint128"
            },
            {
              "internalType": "uint128",
              "name": "buyerShare",
              "type": "uint128"
            },
            {
              "internalType": "uint128",
              "name": "sellerShare",
              "type": "uint128"
            },
            {
              "internalType": "uint128",
              "name": "deliveryPrice",
              "type": "uint128"
            },
            {
              "internalType": "uint40",
              "name": "validTill",
              "type": "uint40"
            },
            {
              "internalType": "uint40",
              "name": "deliverStart",
              "type": "uint40"
            },
            {
              "internalType": "uint40",
              "name": "expireStart",
              "type": "uint40"
            },
            {
              "internalType": "address",
              "name": "buyer",
              "type": "address"
            },
            {
              "internalType": "address",
              "name": "seller",
              "type": "address"
            },
            {
              "internalType": "bool",
              "name": "buyerDelivered",
              "type": "bool"
            },
            {
              "internalType": "bool",
              "name": "sellerDelivered",
              "type": "bool"
            },
            {
              "internalType": "enum BaseForwardUpgradeable.State",
              "name": "state",
              "type": "uint8"
            },
            {
              "internalType": "address[]",
              "name": "takerWhiteList",
              "type": "address[]"
            }
          ],
          "internalType": "struct BaseForwardUpgradeable.Order",
          "name": "order",
          "type": "tuple"
        }
      ],
      "stateMutability": "view",
      "type": "function"
    },
    {
      "inputs": [],
      "name": "getPricePerFullShare",
      "outputs": [
        {
          "internalType": "uint256",
          "name": "",
          "type": "uint256"
        }
      ],
      "stateMutability": "view",
      "type": "function"
    },
    {
      "inputs": [],
      "name": "margin",
      "outputs": [
        {
          "internalType": "address",
          "name": "",
          "type": "address"
        }
      ],
      "stateMutability": "view",
      "type": "function"
    },
    {
      "inputs": [
        {
          "internalType": "address",
          "name": "",
          "type": "address"
        },
        {
          "internalType": "address",
          "name": "",
          "type": "address"
        },
        {
          "internalType": "uint256[]",
          "name": "",
          "type": "uint256[]"
        },
        {
          "internalType": "uint256[]",
          "name": "",
          "type": "uint256[]"
        },
        {
          "internalType": "bytes",
          "name": "",
          "type": "bytes"
        }
      ],
      "name": "onERC1155BatchReceived",
      "outputs": [
        {
          "internalType": "bytes4",
          "name": "",
          "type": "bytes4"
        }
      ],
      "stateMutability": "nonpayable",
      "type": "function"
    },
    {
      "inputs": [
        {
          "internalType": "address",
          "name": "",
          "type": "address"
        },
        {
          "internalType": "address",
          "name": "",
          "type": "address"
        },
        {
          "internalType": "uint256",
          "name": "",
          "type": "uint256"
        },
        {
          "internalType": "uint256",
          "name": "",
          "type": "uint256"
        },
        {
          "internalType": "bytes",
          "name": "",
          "type": "bytes"
        }
      ],
      "name": "onERC1155Received",
      "outputs": [
        {
          "internalType": "bytes4",
          "name": "",
          "type": "bytes4"
        }
      ],
      "stateMutability": "nonpayable",
      "type": "function"
    },
    {
      "inputs": [
        {
          "internalType": "uint256",
          "name": "",
          "type": "uint256"
        }
      ],
      "name": "orders",
      "outputs": [
        {
          "internalType": "uint128",
          "name": "buyerMargin",
          "type": "uint128"
        },
        {
          "internalType": "uint128",
          "name": "sellerMargin",
          "type": "uint128"
        },
        {
          "internalType": "uint128",
          "name": "buyerShare",
          "type": "uint128"
        },
        {
          "internalType": "uint128",
          "name": "sellerShare",
          "type": "uint128"
        },
        {
          "internalType": "uint128",
          "name": "deliveryPrice",
          "type": "uint128"
        },
        {
          "internalType": "uint40",
          "name": "validTill",
          "type": "uint40"
        },
        {
          "internalType": "uint40",
          "name": "deliverStart",
          "type": "uint40"
        },
        {
          "internalType": "uint40",
          "name": "expireStart",
          "type": "uint40"
        },
        {
          "internalType": "address",
          "name": "buyer",
          "type": "address"
        },
        {
          "internalType": "address",
          "name": "seller",
          "type": "address"
        },
        {
          "internalType": "bool",
          "name": "buyerDelivered",
          "type": "bool"
        },
        {
          "internalType": "bool",
          "name": "sellerDelivered",
          "type": "bool"
        },
        {
          "internalType": "enum BaseForwardUpgradeable.State",
          "name": "state",
          "type": "uint8"
        }
      ],
      "stateMutability": "view",
      "type": "function"
    },
    {
      "inputs": [],
      "name": "ordersLength",
      "outputs": [
        {
          "internalType": "uint256",
          "name": "",
          "type": "uint256"
        }
      ],
      "stateMutability": "view",
      "type": "function"
    },
    {
      "inputs": [],
      "name": "pause",
      "outputs": [],
      "stateMutability": "nonpayable",
      "type": "function"
    },
    {
      "inputs": [],
      "name": "paused",
      "outputs": [
        {
          "internalType": "bool",
          "name": "",
          "type": "bool"
        }
      ],
      "stateMutability": "view",
      "type": "function"
    },
    {
      "inputs": [],
      "name": "ratio",
      "outputs": [
        {
          "internalType": "uint256",
          "name": "",
          "type": "uint256"
        }
      ],
      "stateMutability": "view",
      "type": "function"
    },
    {
      "inputs": [
        {
          "internalType": "address",
          "name": "_fVault",
          "type": "address"
        }
      ],
      "name": "setForwardVault",
      "outputs": [],
      "stateMutability": "nonpayable",
      "type": "function"
    },
    {
      "inputs": [
        {
          "internalType": "uint256",
          "name": "_orderId",
          "type": "uint256"
        }
      ],
      "name": "settle",
      "outputs": [],
      "stateMutability": "nonpayable",
      "type": "function"
    },
    {
      "inputs": [
        {
          "internalType": "bytes4",
          "name": "interfaceId",
          "type": "bytes4"
        }
      ],
      "name": "supportsInterface",
      "outputs": [
        {
          "internalType": "bool",
          "name": "",
          "type": "bool"
        }
      ],
      "stateMutability": "view",
      "type": "function"
    },
    {
      "inputs": [
        {
          "internalType": "address",
          "name": "_taker",
          "type": "address"
        },
        {
          "internalType": "uint256",
          "name": "_orderId",
          "type": "uint256"
        }
      ],
      "name": "takeOrderFor",
      "outputs": [],
      "stateMutability": "nonpayable",
      "type": "function"
    },
    {
      "inputs": [
        {
          "internalType": "uint256",
          "name": "_orderId",
          "type": "uint256"
        }
      ],
      "name": "underlyingAssets",
      "outputs": [
        {
          "internalType": "uint256[]",
          "name": "",
          "type": "uint256[]"
        },
        {
          "internalType": "uint256[]",
          "name": "",
          "type": "uint256[]"
        }
      ],
      "stateMutability": "view",
      "type": "function"
    },
    {
      "inputs": [],
      "name": "unpause",
      "outputs": [],
      "stateMutability": "nonpayable",
      "type": "function"
    },
    {
      "inputs": [],
      "name": "version",
      "outputs": [
        {
          "internalType": "string",
          "name": "",
          "type": "string"
        }
      ],
      "stateMutability": "view",
      "type": "function"
    },
    {
      "inputs": [],
      "name": "want",
      "outputs": [
        {
          "internalType": "address",
          "name": "",
          "type": "address"
        }
      ],
      "stateMutability": "view",
      "type": "function"
    },
    {
      "inputs": [
        {
          "internalType": "address",
          "name": "_token",
          "type": "address"
        },
        {
          "internalType": "address",
          "name": "_to",
          "type": "address"
        }
      ],
      "name": "withdrawOther",
      "outputs": [],
      "stateMutability": "nonpayable",
      "type": "function"
    }
  ],
  "bytecode": "0x608060405234801561001057600080fd5b50614c42806100206000396000f3fe608060405234801561001057600080fd5b50600436106102065760003560e01c80638456cb591161011a578063bc197c81116100ad578063dfd35f801161007c578063dfd35f8014610510578063e16e2d6614610523578063e7e6569914610536578063f23a6e6114610549578063f2bfea621461056857600080fd5b8063bc197c8114610496578063be8acd3f146104ce578063c45a0155146104d7578063d09ef241146104f057600080fd5b8063a15e5fd9116100e9578063a15e5fd9146103a7578063a85c38ef146103ba578063b48985c81461047b578063b69ef8a81461048e57600080fd5b80638456cb59146103665780638c7c9e0c1461036e5780638df82800146103815780638f76691a1461039457600080fd5b8063514fcac71161019d57806369b59e751161016c57806369b59e751461031c57806371ca337d1461032f57806377c7b8fc1461033857806378fc53d8146103405780637e9a152c1461035357600080fd5b8063514fcac7146102ce57806352781173146102e157806354fd4d50146102e95780635c975abb1461030f57600080fd5b806338373090116101d9578063383730901461028a5780633b50c4d11461029d5780633f4ba83a146102be57806348a0d754146102c657600080fd5b806301ffc9a71461020b5780631045bfc1146102335780631f1fcd51146102485780633235029e14610273575b600080fd5b61021e610219366004614669565b610588565b60405190151581526020015b60405180910390f35b61024661024136600461439a565b6105bf565b005b60015461025b906001600160a01b031681565b6040516001600160a01b03909116815260200161022a565b61027c60055481565b60405190815260200161022a565b6102466102983660046145e1565b610747565b6102b06102ab366004614691565b6107c0565b60405161022a9291906147ec565b61024661089b565b61027c6108af565b6102466102dc366004614691565b610930565b61027c6109a3565b6040805180820182526004815263076312e360e41b6020820152905161022a9190614828565b60085461021e9060ff1681565b61024661032a366004614362565b610ad9565b61027c60065481565b61027c610bd3565b61024661034e3660046145e1565b610c8c565b61027c610361366004614691565b610cff565b610246610f7e565b60045461025b906001600160a01b031681565b61024661038f366004614691565b610f95565b60025461025b906001600160a01b031681565b6102466103b5366004614362565b61100a565b6104626103c8366004614691565b600960205260009081526040902080546001820154600283015460038401546004909401546001600160801b0380851695600160801b95869004821695858316958190048316949283169364ffffffffff918404821693600160a81b808204841694600160d01b909204909316926001600160a01b03918216929182169160ff600160a01b82048116928204811691600160b01b9004168d565b60405161022a9d9c9b9a99989796959493929190614a0e565b60035461025b906001600160a01b031681565b61027c61161a565b6104b56104a43660046143d2565b63bc197c8160e01b95945050505050565b6040516001600160e01b0319909116815260200161022a565b61027c60075481565b60005461025b906201000090046001600160a01b031681565b6105036104fe366004614691565b611635565b60405161022a91906148c8565b61024661051e3660046144e3565b61183d565b61024661053136600461439a565b611988565b61024661054436600461460c565b611b55565b6104b561055736600461447c565b63f23a6e6160e01b95945050505050565b61057b610576366004614691565b611c06565b60405161022a919061481a565b60006001600160e01b03198216630271189760e51b14806105b957506301ffc9a760e01b6001600160e01b03198316145b92915050565b600054610100900460ff16806105d8575060005460ff16155b6105fd5760405162461bcd60e51b81526004016105f49061487a565b60405180910390fd5b600054610100900460ff1615801561061f576000805461ffff19166101011790555b6000805462010000600160b01b0319163362010000908102919091179182905560405163efb5f11360e01b81526001600160a01b038581166004830152919092041690819063efb5f1139060240160206040518083038186803b15801561068557600080fd5b505afa158015610699573d6000803e3d6000fd5b505050506040513d601f19601f820116820180604052508101906106bd919061464d565b6106f35760405162461bcd60e51b815260206004820152600760248201526610b6b0b933b4b760c91b60448201526064016105f4565b50600180546001600160a01b038086166001600160a01b0319928316179092556002805492851692909116919091179055670de0b6b3a76400006006558015610742576000805461ff00191690555b505050565b61074f611f08565b600461075a82611c06565b600781111561077957634e487b7160e01b600052602160045260246000fd5b146107b25760405162461bcd60e51b81526020600482015260096024820152682164656c697665727960b81b60448201526064016105f4565b6107bc8282611f46565b5050565b600081815260a06020908152604080832081518154938402810160609081018452928101848152929485949093919291839183908388018282801561082457602002820191906000526020600020905b815481526020019060010190808311610810575b505050505081526020016001820180548060200260200160405190810160405280929190818152602001828054801561087c57602002820191906000526020600020905b815481526020019060010190808311610868575b5050505050815250509050806000015181602001519250925050915091565b6108a3612328565b6008805460ff19169055565b6002546040516370a0823160e01b81523060048201526000916001600160a01b0316906370a082319060240160206040518083038186803b1580156108f357600080fd5b505afa158015610907573d6000803e3d6000fd5b505050506040513d601f19601f8201168201806040525081019061092b91906146a9565b905090565b610938611f08565b600361094382611c06565b600781111561096257634e487b7160e01b600052602160045260246000fd5b146109975760405162461bcd60e51b8152602060048201526005602482015264085919585960da1b60448201526064016105f4565b6109a081612373565b50565b6003546000906001600160a01b031615610ad35761092b670de0b6b3a7640000610acd600360009054906101000a90046001600160a01b03166001600160a01b03166377c7b8fc6040518163ffffffff1660e01b815260040160206040518083038186803b158015610a1457600080fd5b505afa158015610a28573d6000803e3d6000fd5b505050506040513d601f19601f82011682018060405250810190610a4c91906146a9565b6003546040516370a0823160e01b81523060048201526001600160a01b03909116906370a082319060240160206040518083038186803b158015610a8f57600080fd5b505afa158015610aa3573d6000803e3d6000fd5b505050506040513d601f19601f82011682018060405250810190610ac791906146a9565b90612641565b90612654565b50600090565b60008060029054906101000a90046001600160a01b03166001600160a01b031663c415b95c6040518163ffffffff1660e01b815260040160206040518083038186803b158015610b2857600080fd5b505afa158015610b3c573d6000803e3d6000fd5b505050506040513d601f19601f82011682018060405250810190610b60919061437e565b6000549091506201000090046001600160a01b0316331480610b8a5750336001600160a01b038216145b610bbe5760405162461bcd60e51b8152602060048201526005602482015264042c2eae8d60db1b60448201526064016105f4565b610bca82600554612660565b50506000600555565b6003546000906001600160a01b031615610c855761092b670de0b6b3a7640000610acd600360009054906101000a90046001600160a01b03166001600160a01b03166377c7b8fc6040518163ffffffff1660e01b815260040160206040518083038186803b158015610c4457600080fd5b505afa158015610c58573d6000803e3d6000fd5b505050506040513d601f19601f82011682018060405250810190610c7c91906146a9565b60065490612641565b5060065490565b610c94611f08565b6001610c9f82611c06565b6007811115610cbe57634e487b7160e01b600052602160045260246000fd5b14610cf55760405162461bcd60e51b81526020600482015260076024820152662161637469766560c81b60448201526064016105f4565b6107bc8282612744565b600081815260096020908152604080832081516101c08101835281546001600160801b038082168352600160801b9182900481169583019590955260018301548086169483019490945292839004841660608201526002820154938416608082015264ffffffffff928404831660a0820152600160a81b808504841660c0830152600160d01b90940490921660e083015260038101546001600160a01b03908116610100840152600482015490811661012084015260ff600160a01b820481161515610140850152938104841615156101608401528493610180840191600160b01b9004166007811115610e0357634e487b7160e01b600052602160045260246000fd5b6007811115610e2257634e487b7160e01b600052602160045260246000fd5b815260200160058201805480602002602001604051908101604052809291908181526020018280548015610e7f57602002820191906000526020600020905b81546001600160a01b03168152600190910190602001808311610e61575b5050505050815250509050806101400151610f7857600080546040805163ec2c65c160e01b8152815184936201000090046001600160a01b03169263ec2c65c19260048082019391829003018186803b158015610edb57600080fd5b505afa158015610eef573d6000803e3d6000fd5b505050506040513d601f19601f82011682018060405250810190610f1391906146c1565b915091506000610f4182610acd86608001516001600160801b0316610ac78688612b1390919063ffffffff16565b9050610f72610f6b670de0b6b3a7640000610acd87604001516001600160801b0316610ac7610bd3565b8290612b1f565b94505050505b50919050565b610f86612328565b6008805460ff19166001179055565b610f9d611f08565b6005610fa882611c06565b6007811115610fc757634e487b7160e01b600052602160045260246000fd5b14610fff5760405162461bcd60e51b815260206004820152600860248201526708595e1c1a5c995960c21b60448201526064016105f4565b6109a0816001612b2b565b611012612328565b6003546001600160a01b031615801561103357506001600160a01b03811615155b1561110c576000816001600160a01b0316631f1fcd516040518163ffffffff1660e01b815260040160206040518083038186803b15801561107357600080fd5b505afa158015611087573d6000803e3d6000fd5b505050506040513d601f19601f820116820180604052508101906110ab919061437e565b6002549091506001600160a01b038083169116146110db5760405162461bcd60e51b81526004016105f49061485b565b6110f06001600160a01b038216836000613081565b6111066001600160a01b03821683600019613081565b506115f8565b6003546001600160a01b03161580159061112e57506001600160a01b03811615155b156113d3576000816001600160a01b0316631f1fcd516040518163ffffffff1660e01b815260040160206040518083038186803b15801561116e57600080fd5b505afa158015611182573d6000803e3d6000fd5b505050506040513d601f19601f820116820180604052508101906111a6919061437e565b6002549091506001600160a01b038083169116146111d65760405162461bcd60e51b81526004016105f49061485b565b6003546040516370a0823160e01b81523060048201526000916001600160a01b0316906370a082319060240160206040518083038186803b15801561121a57600080fd5b505afa15801561122e573d6000803e3d6000fd5b505050506040513d601f19601f8201168201806040525081019061125291906146a9565b905060008082116112645760006112e2565b600354604051632e1a7d4d60e01b8152600481018490526001600160a01b0390911690632e1a7d4d90602401602060405180830381600087803b1580156112aa57600080fd5b505af11580156112be573d6000803e3d6000fd5b505050506040513d601f19601f820116820180604052508101906112e291906146a9565b600354909150611300906001600160a01b0385811691166000613081565b6113156001600160a01b038416856000613081565b61132b6001600160a01b03841685600019613081565b81156113cb5760405163b6b55f2560e01b8152600481018290526000906001600160a01b0386169063b6b55f2590602401602060405180830381600087803b15801561137657600080fd5b505af115801561138a573d6000803e3d6000fd5b505050506040513d601f19601f820116820180604052508101906113ae91906146a9565b90506113c683610acd83670de0b6b3a7640000612641565b600655505b5050506115f8565b6003546001600160a01b0316158015906113f457506001600160a01b038116155b156115c5576003546040516370a0823160e01b81523060048201526000916001600160a01b0316906370a082319060240160206040518083038186803b15801561143d57600080fd5b505afa158015611451573d6000803e3d6000fd5b505050506040513d601f19601f8201168201806040525081019061147591906146a9565b90506000808211611487576000611505565b600354604051632e1a7d4d60e01b8152600481018490526001600160a01b0390911690632e1a7d4d90602401602060405180830381600087803b1580156114cd57600080fd5b505af11580156114e1573d6000803e3d6000fd5b505050506040513d601f19601f8201168201806040525081019061150591906146a9565b60035460408051631f1fcd5160e01b8152905192935061159e926001600160a01b03909216916000918391631f1fcd5191600480820192602092909190829003018186803b15801561155657600080fd5b505afa15801561156a573d6000803e3d6000fd5b505050506040513d601f19601f8201168201806040525081019061158e919061437e565b6001600160a01b03169190613081565b81156115be576115ba82610acd83670de0b6b3a7640000612641565b6006555b50506115f8565b60405162461bcd60e51b81526020600482015260086024820152676e6f6e73656e736560c01b60448201526064016105f4565b600380546001600160a01b0319166001600160a01b0392909216919091179055565b600061092b6116276109a3565b61162f6108af565b90612b13565b6116ac604080516101c081018252600080825260208201819052918101829052606081018290526080810182905260a0810182905260c0810182905260e081018290526101008101829052610120810182905261014081018290526101608101829052906101808201908152602001606081525090565b60008281526009602090815260409182902082516101c08101845281546001600160801b038082168352600160801b9182900481169483019490945260018301548085169583019590955293849004831660608201526002820154928316608082015264ffffffffff938304841660a0820152600160a81b808404851660c0830152600160d01b90930490931660e084015260038101546001600160a01b03908116610100850152600482015490811661012085015260ff600160a01b820481161515610140860152928104831615156101608501529091610180840191600160b01b90041660078111156117b157634e487b7160e01b600052602160045260246000fd5b60078111156117d057634e487b7160e01b600052602160045260246000fd5b81526020016005820180548060200260200160405190810160405280929190818152602001828054801561182d57602002820191906000526020600020905b81546001600160a01b0316815260019091019060200180831161180f575b5050505050815250509050919050565b611845611f08565b855187511461187f5760405162461bcd60e51b81526004016105f49060208082526004908201526310b632b760e11b604082015260600190565b8180156118895750805b156118985761189887876131d8565b6118a6888686868686613244565b600060016007546118b79190614b5f565b905060005b885181101561197c57600082815260a06020526040902089518a90839081106118f557634e487b7160e01b600052603260045260246000fd5b60209081029190910181015182546001818101855560009485528385209091019190915584835260a09091526040909120895191019089908390811061194b57634e487b7160e01b600052603260045260246000fd5b602090810291909101810151825460018101845560009384529190922001558061197481614ba2565b9150506118bc565b50505050505050505050565b60008060029054906101000a90046001600160a01b03166001600160a01b031663c415b95c6040518163ffffffff1660e01b815260040160206040518083038186803b1580156119d757600080fd5b505afa1580156119eb573d6000803e3d6000fd5b505050506040513d601f19601f82011682018060405250810190611a0f919061437e565b6000549091506201000090046001600160a01b0316331480611a395750336001600160a01b038216145b611a6d5760405162461bcd60e51b8152602060048201526005602482015264042c2eae8d60db1b60448201526064016105f4565b611a7683613abb565b6004546001600160a01b0384811691161415611ac7576040516001600160a01b038316904780156108fc02916000818181858888f19350505050158015611ac1573d6000803e3d6000fd5b50505050565b6040516370a0823160e01b81523060048201526107429083906001600160a01b038616906370a082319060240160206040518083038186803b158015611b0c57600080fd5b505afa158015611b20573d6000803e3d6000fd5b505050506040513d601f19601f82011682018060405250810190611b4491906146a9565b6001600160a01b0386169190613b79565b600054610100900460ff1680611b6e575060005460ff16155b611b8a5760405162461bcd60e51b81526004016105f49061487a565b600054610100900460ff16158015611bac576000805461ffff19166101011790555b611bb684836105bf565b8261048314611bef5760405162461bcd60e51b8152602060048201526005602482015264213131353560d81b60448201526064016105f4565b8015611ac1576000805461ff001916905550505050565b600081815260096020908152604080832081516101c08101835281546001600160801b038082168352600160801b9182900481169583019590955260018301548086169483019490945292839004841660608201526002820154938416608082015264ffffffffff928404831660a0820152600160a81b808504841660c0830152600160d01b90940490921660e083015260038101546001600160a01b03908116610100840152600482015490811661012084015260ff600160a01b820481161515610140850152938104841615156101608401528493610180840191600160b01b9004166007811115611d0a57634e487b7160e01b600052602160045260246000fd5b6007811115611d2957634e487b7160e01b600052602160045260246000fd5b815260200160058201805480602002602001604051908101604052809291908181526020018280548015611d8657602002820191906000526020600020905b81546001600160a01b03168152600190910190602001808311611d68575b50505050508152505090508060a0015164ffffffffff1660001415611dae5750600092915050565b60078161018001516007811115611dd557634e487b7160e01b600052602160045260246000fd5b1415611de45750600792915050565b60a0810151429064ffffffffff168111611e385760028261018001516007811115611e1f57634e487b7160e01b600052602160045260246000fd5b14611e2e575060019392505050565b5060029392505050565b8160c0015164ffffffffff168111611e805760028261018001516007811115611e7157634e487b7160e01b600052602160045260246000fd5b14611e2e575060039392505050565b8160e0015164ffffffffff168111611ed25760068261018001516007811115611eb957634e487b7160e01b600052602160045260246000fd5b14611ec8575060049392505050565b5060069392505050565b60068261018001516007811115611ef957634e487b7160e01b600052602160045260246000fd5b14611ec8575060059392505050565b60085460ff1615611f445760405162461bcd60e51b81526020600482015260066024820152651c185d5cd95960d21b60448201526064016105f4565b565b600081815260096020908152604080832081516101c08101835281546001600160801b038082168352600160801b9182900481169583019590955260018301548086169483019490945292839004841660608201526002820154938416608082015264ffffffffff928404831660a0820152600160a81b808504841660c0830152600160d01b90940490921660e083015260038101546001600160a01b03908116610100840152600482015490811661012084015260ff600160a01b8204811615156101408501529381048416151561016084015291929091610180840191600160b01b90910416600781111561204d57634e487b7160e01b600052602160045260246000fd5b600781111561206c57634e487b7160e01b600052602160045260246000fd5b8152602001600582018054806020026020016040519081016040528092919081815260200182805480156120c957602002820191906000526020600020905b81546001600160a01b031681526001909101906020018083116120ab575b50505050508152505090508061012001516001600160a01b0316836001600160a01b03161480156120fd5750806101600151155b1561216c5761210b82613ba9565b60008281526009602052604090819020600401805460ff60a81b1916600160a81b179055517f87d76474b59c8a84b66fbd93991a1e3760b806cc4761ad4a08e39d96d4398f6a9061215f9084815260200190565b60405180910390a161231d565b8061010001516001600160a01b0316836001600160a01b03161480156121955750806101400151155b156122e757600080546040805163ec2c65c160e01b8152815184936201000090046001600160a01b03169263ec2c65c19260048082019391829003018186803b1580156121e157600080fd5b505afa1580156121f5573d6000803e3d6000fd5b505050506040513d601f19601f8201168201806040525081019061221991906146c1565b91509150600061224782610acd86608001516001600160801b0316610ac78688612b1390919063ffffffff16565b905061228261227b612274670de0b6b3a7640000610acd88604001516001600160801b0316610ac7610bd3565b8390612b1f565b6000613c67565b5060008581526009602052604090819020600401805460ff60a01b1916600160a01b179055517f87d76474b59c8a84b66fbd93991a1e3760b806cc4761ad4a08e39d96d4398f6a906122d79087815260200190565b60405180910390a150505061231d565b60405162461bcd60e51b815260206004820152600b60248201526a64656c697665722062756760a81b60448201526064016105f4565b610742826000612b2b565b6000546201000090046001600160a01b03163314611f445760405162461bcd60e51b815260206004820152600860248201526721666163746f727960c01b60448201526064016105f4565b600081815260096020908152604080832081516101c08101835281546001600160801b038082168352600160801b9182900481169583019590955260018301548086169483019490945292839004841660608201526002820154938416608082015264ffffffffff928404831660a0820152600160a81b808504841660c0830152600160d01b90940490921660e083015260038101546001600160a01b03908116610100840152600482015490811661012084015260ff600160a01b8204811615156101408501529381048416151561016084015291929091610180840191600160b01b90910416600781111561247a57634e487b7160e01b600052602160045260246000fd5b600781111561249957634e487b7160e01b600052602160045260246000fd5b8152602001600582018054806020026020016040519081016040528092919081815260200182805480156124f657602002820191906000526020600020905b81546001600160a01b031681526001909101906020018083116124d8575b505050919092525050506101008101519091506001600160a01b03161561254f5761254a816101000151612545670de0b6b3a7640000610acd85604001516001600160801b0316610ac7610bd3565b612660565b6125e5565b6101208101516001600160a01b0316156125ab57612591816101200151612545670de0b6b3a7640000610acd85606001516001600160801b0316610ac7610bd3565b8061016001511561254a5761254a82826101200151613d35565b60405162461bcd60e51b815260206004820152600f60248201526e63616e63656c4f726465722062756760881b60448201526064016105f4565b6000828152600960209081526040918290206004018054600760b01b60ff60b01b1990911617905590518381527f935c9ad2f1fda9d7eae0d2a512f1521cb7190ee06165414e722366a65975fb6b910160405180910390a15050565b600061264d8284614b40565b9392505050565b600061264d8284614b20565b600061266a6108af565b9050818110801561268557506003546001600160a01b031615155b15612721576003546001600160a01b0316632e1a7d4d6126a58484612b1f565b6040518263ffffffff1660e01b81526004016126c391815260200190565b602060405180830381600087803b1580156126dd57600080fd5b505af11580156126f1573d6000803e3d6000fd5b505050506040513d601f19601f8201168201806040525081019061271591906146a9565b5061271e6108af565b90505b8082111561272d578091505b600254610742906001600160a01b03168484613e09565b600081815260096020908152604080832081516101c08101835281546001600160801b038082168352600160801b9182900481169583019590955260018301548086169483019490945292839004841660608201526002820154938416608082015264ffffffffff928404831660a0820152600160a81b808504841660c0830152600160d01b90940490921660e083015260038101546001600160a01b03908116610100840152600482015490811661012084015260ff600160a01b8204811615156101408501529381048416151561016084015291929091610180840191600160b01b90910416600781111561284b57634e487b7160e01b600052602160045260246000fd5b600781111561286a57634e487b7160e01b600052602160045260246000fd5b8152602001600582018054806020026020016040519081016040528092919081815260200182805480156128c757602002820191906000526020600020905b81546001600160a01b031681526001909101906020018083116128a9575b50505050508152505090506000816101a00151511115612929576128f083826101a00151613e1d565b6129295760405162461bcd60e51b815260206004820152600a602482015269085dda1a5d195b1a5cdd60b21b60448201526064016105f4565b60008281526009602052604081206004015461299a906001600160a01b03161561296a576000848152600960205260409020546001600160801b031661298a565b600084815260096020526040902054600160801b90046001600160801b03165b6001600160801b03166001613c67565b6000848152600960205260409020600301549091506001600160a01b0316612a115760008381526009602052604090206003810180546001600160a01b0319166001600160a01b03871617905560010180546fffffffffffffffffffffffffffffffff19166001600160801b038316179055612ab5565b6000838152600960205260409020600401546001600160a01b0316612a7d5760008381526009602052604090206004810180546001600160a01b0387166001600160a01b031990911617905560010180546001600160801b03808416600160801b029116179055612ab5565b60405162461bcd60e51b815260206004820152600d60248201526c74616b654f726465722062756760981b60448201526064016105f4565b6000838152600960209081526040918290206004018054600160b11b60ff60b01b1990911617905590518481527fa64977328523eb0f63a4533b049270f420fee1180e091714b7a91b5bc956f2ab910160405180910390a150505050565b600061264d8284614b08565b600061264d8284614b5f565b600080546040805163ec2c65c160e01b8152815184936201000090046001600160a01b03169263ec2c65c19260048082019391829003018186803b158015612b7257600080fd5b505afa158015612b86573d6000803e3d6000fd5b505050506040513d601f19601f82011682018060405250810190612baa91906146c1565b600086815260096020908152604080832081516101c08101835281546001600160801b038082168352600160801b9182900481169583019590955260018301548086169483019490945292839004841660608201526002820154938416608082015264ffffffffff928404831660a0820152600160a81b808504841660c0830152600160d01b90940490921660e083015260038101546001600160a01b03908116610100840152600482015490811661012084015260ff600160a01b820481161515610140850152938104841615156101608401529597509395509193919291610180840191600160b01b909104166007811115612cb857634e487b7160e01b600052602160045260246000fd5b6007811115612cd757634e487b7160e01b600052602160045260246000fd5b815260200160058201805480602002602001604051908101604052809291908181526020018280548015612d3457602002820191906000526020600020905b81546001600160a01b03168152600190910190602001808311612d16575b50505050508152505090508061016001518015612d5357508061014001515b15612eda57612d6785826101000151613d35565b6000612d8d83610acd84608001516001600160801b03168761264190919063ffffffff16565b90506000612db6670de0b6b3a7640000610acd85604001516001600160801b0316610ac7610bd3565b9050612dd883608001516001600160801b031683612b1390919063ffffffff16565b811115612e1257612e1283610100015161254584612e0c87608001516001600160801b031686612b1f90919063ffffffff16565b90612b1f565b6000612e4e83612e0c86608001516001600160801b031661162f670de0b6b3a7640000610acd8a606001516001600160801b0316610ac7610bd3565b9050612e5f84610120015182612660565b612e76612e6d846002612641565b60055490612b13565b600555600088815260096020908152604091829020600401805460ff60b01b1916600360b11b17905590518981527f2a45eee61b61ef4932e2d79b32be61a1a538cbe00381faffb4d1cf3b1268c46b91015b60405180910390a15050505050505050565b831561307a57806101600151612f7b576000612f1083610acd84602001516001600160801b03168761264190919063ffffffff16565b600554909150612f209082612b13565b600555610100820151612f759061254583612e0c670de0b6b3a7640000610acd612f48610bd3565b610ac78a606001516001600160801b03168b604001516001600160801b0316612b1390919063ffffffff16565b50613021565b806101400151613021576000612fab83610acd84600001516001600160801b03168761264190919063ffffffff16565b600554909150612fbb9082612b13565b6005556101208201516130109061254583612e0c670de0b6b3a7640000610acd612fe3610bd3565b610ac78a604001516001600160801b03168b606001516001600160801b0316612b1390919063ffffffff16565b61301f86836101200151613d35565b505b6000858152600960209081526040918290206004018054600360b11b60ff60b01b1990911617905590518681527f2a45eee61b61ef4932e2d79b32be61a1a538cbe00381faffb4d1cf3b1268c46b910160405180910390a15b5050505050565b80158061310a5750604051636eb1769f60e11b81523060048201526001600160a01b03838116602483015284169063dd62ed3e9060440160206040518083038186803b1580156130d057600080fd5b505afa1580156130e4573d6000803e3d6000fd5b505050506040513d601f19601f8201168201806040525081019061310891906146a9565b155b6131755760405162461bcd60e51b815260206004820152603660248201527f5361666545524332303a20617070726f76652066726f6d206e6f6e2d7a65726f60448201527520746f206e6f6e2d7a65726f20616c6c6f77616e636560501b60648201526084016105f4565b6040516001600160a01b03831660248201526044810182905261074290849063095ea7b360e01b906064015b60408051601f198184030181529190526020810180516001600160e01b03166001600160e01b031990931692909217909152613e91565b600154604051631759616b60e11b81526001600160a01b0390911690632eb2c2d69061320e903390309087908790600401614794565b600060405180830381600087803b15801561322857600080fd5b505af115801561323c573d6000803e3d6000fd5b505050505050565b6001600160801b0380168460008151811061326f57634e487b7160e01b600052603260045260246000fd5b60200260200101511080156132b457506001600160801b038016846001815181106132aa57634e487b7160e01b600052603260045260246000fd5b6020026020010151105b80156132f057506001600160801b038016846002815181106132e657634e487b7160e01b600052603260045260246000fd5b6020026020010151105b6133275760405162461bcd60e51b81526020600482015260086024820152676f766572666c6f7760c01b60448201526064016105f4565b6001600160801b0380166133948560028151811061335557634e487b7160e01b600052603260045260246000fd5b60200260200101518660018151811061337e57634e487b7160e01b600052603260045260246000fd5b6020026020010151612b1390919063ffffffff16565b106133d85760405162461bcd60e51b815260206004820152601460248201527364656c69766572206d6179206f766572666c6f7760601b60448201526064016105f4565b64ffffffffff801661342d8660028151811061340457634e487b7160e01b600052603260045260246000fd5b60200260200101518760018151811061337e57634e487b7160e01b600052603260045260246000fd5b10801561349357508460018151811061345657634e487b7160e01b600052603260045260246000fd5b60200260200101516134918660008151811061348257634e487b7160e01b600052603260045260246000fd5b602002602001015161162f4290565b105b6134c75760405162461bcd60e51b81526020600482015260056024820152642174696d6560d81b60448201526064016105f4565b60008280156134d4575081155b156135b257600080546040805163ec2c65c160e01b8152815184936201000090046001600160a01b03169263ec2c65c19260048082019391829003018186803b15801561352057600080fd5b505afa158015613534573d6000803e3d6000fd5b505050506040513d601f19601f8201168201806040525081019061355891906146c1565b915091506135a96135a282610acd8a60008151811061358757634e487b7160e01b600052603260045260246000fd5b6020026020010151610ac78688612b1390919063ffffffff16565b6001613c67565b9250505061361b565b613618826135e857856001815181106135db57634e487b7160e01b600052603260045260246000fd5b60200260200101516135a2565b8560028151811061360957634e487b7160e01b600052603260045260246000fd5b60200260200101516001613c67565b90505b600780546000918261362c83614ba2565b919050559050604051806101c001604052808760018151811061365f57634e487b7160e01b600052603260045260246000fd5b60200260200101516001600160801b031681526020018760028151811061369657634e487b7160e01b600052603260045260246000fd5b60200260200101516001600160801b03168152602001846136b757836136ba565b60005b6001600160801b03168152602001846136d45760006136d6565b835b6001600160801b031681526020018760008151811061370557634e487b7160e01b600052603260045260246000fd5b60200260200101516001600160801b0316815260200161373f8960008151811061348257634e487b7160e01b600052603260045260246000fd5b64ffffffffff1681526020018860018151811061376c57634e487b7160e01b600052603260045260246000fd5b602002602001015164ffffffffff1681526020016137cd896002815181106137a457634e487b7160e01b600052603260045260246000fd5b60200260200101518a60018151811061337e57634e487b7160e01b600052603260045260246000fd5b64ffffffffff168152602001846137e457896137e7565b60005b6001600160a01b0316815260200184613801576000613803565b895b6001600160a01b0316815260200185801561381c575084155b1515815260200185801561382d5750845b15158152602001600181526020016000604051908082528060200260200182016040528015613866578160200160208202803683370190505b5090526000828152600960209081526040918290208351918401516001600160801b03928316600160801b91841682021782559284015160608501519083169083168402176001820155608084015160028201805460a087015160c088015160e0890151949096166001600160a81b03199283161764ffffffffff9182169097029690961769ffffffffffffffffffff60a81b1916600160a81b958716860264ffffffffff60d01b191617600160d01b96909316959095029190911790556101008401516003820180546001600160a01b0319166001600160a01b0392831617905561012085015160048301805461014088015161016089015193909416961695909517600160a01b921515929092029190911760ff60a81b19811691151590930290811784556101808501519193919261ffff60a81b191660ff60b01b1990911617600160b01b8360078111156139ce57634e487b7160e01b600052602160045260246000fd5b02179055506101a082015180516139ef91600584019160209091019061418d565b50508551159050613a8b5760005b8551811015613a895760096000838152602001908152602001600020600501868281518110613a3c57634e487b7160e01b600052603260045260246000fd5b60209081029190910181015182546001810184556000938452919092200180546001600160a01b0319166001600160a01b0390921691909117905580613a8181614ba2565b9150506139fd565b505b6040518181527f2f539bcf68b0eef24f9fef1ae5ad7dd5a37f80a2fab34f406ad2b92c779d606490602001612ec8565b6001546001600160a01b0382811691161415613ae95760405162461bcd60e51b81526004016105f49061485b565b6002546001600160a01b0382811691161415613b315760405162461bcd60e51b815260206004820152600760248201526610b6b0b933b4b760c91b60448201526064016105f4565b6003546001600160a01b03828116911614156109a05760405162461bcd60e51b8152602060048201526007602482015266085995985d5b1d60ca1b60448201526064016105f4565b6040516001600160a01b03831660248201526044810182905261074290849063a9059cbb60e01b906064016131a1565b600081815260a0602090815260409182902080548351818402810184019094528084526109a09392830182828015613c0057602002820191906000526020600020905b815481526020019060010190808311613bec575b505050600085815260a0602090815260409182902060010180548351818402810184019094528084529294509250830182828015613c5d57602002820191906000526020600020905b815481526020019060010190808311613c49575b50505050506131d8565b600254600090613c80906001600160a01b031684613f63565b6000828015613c9957506003546001600160a01b031615155b613cbf57613cba613ca8610bd3565b610acd86670de0b6b3a7640000612641565b613d2d565b60065460035460405163b6b55f2560e01b815260048101879052613d2d9291610acd91670de0b6b3a7640000916001600160a01b03169063b6b55f2590602401602060405180830381600087803b158015613d1957600080fd5b505af1158015610aa3573d6000803e3d6000fd5b949350505050565b600082815260a060209081526040808320815181546060948102820185018452928101838152909391928492849190840182828015613d9357602002820191906000526020600020905b815481526020019060010190808311613d7f575b5050505050815260200160018201805480602002602001604051908101604052809291908181526020018280548015613deb57602002820191906000526020600020905b815481526020019060010190808311613dd7575b50505050508152505090506107428282600001518360200151613f78565b6107426001600160a01b0384168383613b79565b6000805b8251811015613e8757828181518110613e4a57634e487b7160e01b600052603260045260246000fd5b60200260200101516001600160a01b0316846001600160a01b03161415613e755760019150506105b9565b80613e7f81614ba2565b915050613e21565b5060009392505050565b6000613ee6826040518060400160405280602081526020017f5361666545524332303a206c6f772d6c6576656c2063616c6c206661696c6564815250856001600160a01b0316613fe59092919063ffffffff16565b8051909150156107425780806020019051810190613f04919061464d565b6107425760405162461bcd60e51b815260206004820152602a60248201527f5361666545524332303a204552433230206f7065726174696f6e20646964206e6044820152691bdd081cdd58d8d9595960b21b60648201526084016105f4565b6107bc6001600160a01b038316333084613ff4565b600154604051631759616b60e11b81526001600160a01b0390911690632eb2c2d690613fae903090879087908790600401614794565b600060405180830381600087803b158015613fc857600080fd5b505af1158015613fdc573d6000803e3d6000fd5b50505050505050565b6060613d2d848460008561402c565b6040516001600160a01b0380851660248301528316604482015260648101829052611ac19085906323b872dd60e01b906084016131a1565b60608247101561408d5760405162461bcd60e51b815260206004820152602660248201527f416464726573733a20696e73756666696369656e742062616c616e636520666f6044820152651c8818d85b1b60d21b60648201526084016105f4565b843b6140db5760405162461bcd60e51b815260206004820152601d60248201527f416464726573733a2063616c6c20746f206e6f6e2d636f6e747261637400000060448201526064016105f4565b600080866001600160a01b031685876040516140f79190614778565b60006040518083038185875af1925050503d8060008114614134576040519150601f19603f3d011682016040523d82523d6000602084013e614139565b606091505b5091509150614149828286614154565b979650505050505050565b6060831561416357508161264d565b8251156141735782518084602001fd5b8160405162461bcd60e51b81526004016105f49190614828565b8280548282559060005260206000209081019282156141e2579160200282015b828111156141e257825182546001600160a01b0319166001600160a01b039091161782556020909201916001909101906141ad565b506141ee9291506141f2565b5090565b5b808211156141ee57600081556001016141f3565b803561421281614be9565b919050565b600082601f830112614227578081fd5b8135602061423c61423783614ae4565b614ab3565b80838252828201915082860187848660051b890101111561425b578586fd5b855b8581101561428257813561427081614be9565b8452928401929084019060010161425d565b5090979650505050505050565b600082601f83011261429f578081fd5b813560206142af61423783614ae4565b80838252828201915082860187848660051b89010111156142ce578586fd5b855b85811015614282578135845292840192908401906001016142d0565b803561421281614bfe565b600082601f830112614307578081fd5b813567ffffffffffffffff81111561432157614321614bd3565b614334601f8201601f1916602001614ab3565b818152846020838601011115614348578283fd5b816020850160208301379081016020019190915292915050565b600060208284031215614373578081fd5b813561264d81614be9565b60006020828403121561438f578081fd5b815161264d81614be9565b600080604083850312156143ac578081fd5b82356143b781614be9565b915060208301356143c781614be9565b809150509250929050565b600080600080600060a086880312156143e9578081fd5b85356143f481614be9565b9450602086013561440481614be9565b9350604086013567ffffffffffffffff80821115614420578283fd5b61442c89838a0161428f565b94506060880135915080821115614441578283fd5b61444d89838a0161428f565b93506080880135915080821115614462578283fd5b5061446f888289016142f7565b9150509295509295909350565b600080600080600060a08688031215614493578081fd5b853561449e81614be9565b945060208601356144ae81614be9565b93506040860135925060608601359150608086013567ffffffffffffffff8111156144d7578182fd5b61446f888289016142f7565b600080600080600080600080610100898b0312156144ff578283fd5b61450889614207565b9750602089013567ffffffffffffffff80821115614524578485fd5b6145308c838d0161428f565b985060408b0135915080821115614545578485fd5b6145518c838d0161428f565b975060608b0135915080821115614566578485fd5b6145728c838d0161428f565b965060808b0135915080821115614587578485fd5b6145938c838d0161428f565b955060a08b01359150808211156145a8578485fd5b506145b58b828c01614217565b9350506145c460c08a016142ec565b91506145d260e08a016142ec565b90509295985092959890939650565b600080604083850312156145f3578182fd5b82356145fe81614be9565b946020939093013593505050565b600080600060608486031215614620578081fd5b833561462b81614be9565b925060208401359150604084013561464281614be9565b809150509250925092565b60006020828403121561465e578081fd5b815161264d81614bfe565b60006020828403121561467a578081fd5b81356001600160e01b03198116811461264d578182fd5b6000602082840312156146a2578081fd5b5035919050565b6000602082840312156146ba578081fd5b5051919050565b600080604083850312156146d3578182fd5b505080516020909101519092909150565b6000815180845260208085019450808401835b8381101561471c5781516001600160a01b0316875295820195908201906001016146f7565b509495945050505050565b6000815180845260208085019450808401835b8381101561471c5781518752958201959082019060010161473a565b6008811061477457634e487b7160e01b600052602160045260246000fd5b9052565b6000825161478a818460208701614b76565b9190910192915050565b6001600160a01b0385811682528416602082015260a0604082018190526000906147c090830185614727565b82810360608401526147d28185614727565b838103608090940193909352508152602001949350505050565b6040815260006147ff6040830185614727565b82810360208401526148118185614727565b95945050505050565b602081016105b98284614756565b6020815260008251806020840152614847816040850160208701614b76565b601f01601f19169190910160400192915050565b602080825260059082015264085dd85b9d60da1b604082015260600190565b6020808252602e908201527f496e697469616c697a61626c653a20636f6e747261637420697320616c72656160408201526d191e481a5b9a5d1a585b1a5e995960921b606082015260800190565b602081526148e26020820183516001600160801b03169052565b600060208301516148fe60408401826001600160801b03169052565b5060408301516001600160801b03811660608401525060608301516001600160801b03811660808401525060808301516001600160801b03811660a08401525060a083015164ffffffffff811660c08401525060c083015164ffffffffff811660e08401525060e083015161010061497e8185018364ffffffffff169052565b840151905061012061499a848201836001600160a01b03169052565b84015190506101406149b6848201836001600160a01b03169052565b84015190506101606149cb8482018315159052565b84015190506101806149e08482018315159052565b84015190506101a06149f484820183614756565b8401516101c0848101529050613d2d6101e08401826146e4565b6001600160801b038e811682528d811660208301528c811660408301528b811660608301528a16608082015264ffffffffff89811660a0830152881660c08201526101a0810164ffffffffff881660e08301526001600160a01b0387166101008301526001600160a01b038616610120830152841515610140830152831515610160830152614aa1610180830184614756565b9e9d5050505050505050505050505050565b604051601f8201601f1916810167ffffffffffffffff81118282101715614adc57614adc614bd3565b604052919050565b600067ffffffffffffffff821115614afe57614afe614bd3565b5060051b60200190565b60008219821115614b1b57614b1b614bbd565b500190565b600082614b3b57634e487b7160e01b81526012600452602481fd5b500490565b6000816000190483118215151615614b5a57614b5a614bbd565b500290565b600082821015614b7157614b71614bbd565b500390565b60005b83811015614b91578181015183820152602001614b79565b83811115611ac15750506000910152565b6000600019821415614bb657614bb6614bbd565b5060010190565b634e487b7160e01b600052601160045260246000fd5b634e487b7160e01b600052604160045260246000fd5b6001600160a01b03811681146109a057600080fd5b80151581146109a057600080fdfea2646970667358221220077859f0d173fdf6aace1c6f21f2b6caea96dd68cf9ca64296779b237e1dabcb64736f6c63430008040033",
  "linkReferences": {},
  "deployedLinkReferences": {}
}