{
  "_format": "hh-sol-artifact-1",
  "contractName": "Forward1155Upgradeable",
  "sourceName": "contracts/forward/Forward1155Upgradeable.sol",
  "abi": [
    {
      "anonymous": false,
      "inputs": [
        {
          "indexed": false,
          "internalType": "uint256",
          "name": "orderId",
          "type": "uint256"
        }
      ],
      "name": "CancelOrder",
      "type": "event"
    },
    {
      "anonymous": false,
      "inputs": [
        {
          "indexed": false,
          "internalType": "uint256",
          "name": "orderId",
          "type": "uint256"
        },
        {
          "indexed": false,
          "internalType": "address",
          "name": "maker",
          "type": "address"
        }
      ],
      "name": "CreateOrder",
      "type": "event"
    },
    {
      "anonymous": false,
      "inputs": [
        {
          "indexed": false,
          "internalType": "uint256",
          "name": "orderId",
          "type": "uint256"
        },
        {
          "indexed": false,
          "internalType": "address",
          "name": "deliver",
          "type": "address"
        }
      ],
      "name": "Delivery",
      "type": "event"
    },
    {
      "anonymous": false,
      "inputs": [
        {
          "indexed": false,
          "internalType": "uint256",
          "name": "orderId",
          "type": "uint256"
        }
      ],
      "name": "Settle",
      "type": "event"
    },
    {
      "anonymous": false,
      "inputs": [
        {
          "indexed": false,
          "internalType": "uint256",
          "name": "orderId",
          "type": "uint256"
        },
        {
          "indexed": false,
          "internalType": "address",
          "name": "taker",
          "type": "address"
        }
      ],
      "name": "TakeOrder",
      "type": "event"
    },
    {
      "inputs": [
        {
          "internalType": "address",
          "name": "_want",
          "type": "address"
        },
        {
          "internalType": "address",
          "name": "_margin",
          "type": "address"
        }
      ],
      "name": "__BaseForward__init",
      "outputs": [],
      "stateMutability": "nonpayable",
      "type": "function"
    },
    {
      "inputs": [
        {
          "internalType": "address",
          "name": "_want",
          "type": "address"
        },
        {
          "internalType": "uint256",
          "name": "_poolType",
          "type": "uint256"
        },
        {
          "internalType": "address",
          "name": "_margin",
          "type": "address"
        }
      ],
      "name": "__Forward1155Upgradeable__init",
      "outputs": [],
      "stateMutability": "nonpayable",
      "type": "function"
    },
    {
      "inputs": [],
      "name": "available",
      "outputs": [
        {
          "internalType": "uint256",
          "name": "",
          "type": "uint256"
        }
      ],
      "stateMutability": "view",
      "type": "function"
    },
    {
      "inputs": [],
      "name": "balance",
      "outputs": [
        {
          "internalType": "uint256",
          "name": "",
          "type": "uint256"
        }
      ],
      "stateMutability": "view",
      "type": "function"
    },
    {
      "inputs": [],
      "name": "balanceSavingsInFVault",
      "outputs": [
        {
          "internalType": "uint256",
          "name": "",
          "type": "uint256"
        }
      ],
      "stateMutability": "view",
      "type": "function"
    },
    {
      "inputs": [
        {
          "internalType": "uint256",
          "name": "_orderId",
          "type": "uint256"
        }
      ],
      "name": "cancelOrder",
      "outputs": [],
      "stateMutability": "nonpayable",
      "type": "function"
    },
    {
      "inputs": [],
      "name": "cfee",
      "outputs": [
        {
          "internalType": "uint256",
          "name": "",
          "type": "uint256"
        }
      ],
      "stateMutability": "view",
      "type": "function"
    },
    {
      "inputs": [
        {
          "internalType": "uint256",
          "name": "_orderId",
          "type": "uint256"
        }
      ],
      "name": "checkOrderState",
      "outputs": [
        {
          "internalType": "enum BaseForwardUpgradeable.State",
          "name": "",
          "type": "uint8"
        }
      ],
      "stateMutability": "view",
      "type": "function"
    },
    {
      "inputs": [
        {
          "internalType": "address",
          "name": "_to",
          "type": "address"
        }
      ],
      "name": "collectFee",
      "outputs": [],
      "stateMutability": "nonpayable",
      "type": "function"
    },
    {
      "inputs": [
        {
          "internalType": "address",
          "name": "_creator",
          "type": "address"
        },
        {
          "internalType": "uint256[]",
          "name": "_ids",
          "type": "uint256[]"
        },
        {
          "internalType": "uint256[]",
          "name": "_amounts",
          "type": "uint256[]"
        },
        {
          "internalType": "uint256[3]",
          "name": "_times",
          "type": "uint256[3]"
        },
        {
          "internalType": "uint256[3]",
          "name": "_prices",
          "type": "uint256[3]"
        },
        {
          "internalType": "address[]",
          "name": "_takerWhiteList",
          "type": "address[]"
        },
        {
          "internalType": "bool",
          "name": "_deposit",
          "type": "bool"
        },
        {
          "internalType": "bool",
          "name": "_isSeller",
          "type": "bool"
        }
      ],
      "name": "createOrderFor",
      "outputs": [],
      "stateMutability": "nonpayable",
      "type": "function"
    },
    {
      "inputs": [
        {
          "internalType": "address",
          "name": "_deliverer",
          "type": "address"
        },
        {
          "internalType": "uint256",
          "name": "_orderId",
          "type": "uint256"
        }
      ],
      "name": "deliverFor",
      "outputs": [],
      "stateMutability": "nonpayable",
      "type": "function"
    },
    {
      "inputs": [],
      "name": "eth",
      "outputs": [
        {
          "internalType": "address",
          "name": "",
          "type": "address"
        }
      ],
      "stateMutability": "view",
      "type": "function"
    },
    {
      "inputs": [],
      "name": "fVault",
      "outputs": [
        {
          "internalType": "address",
          "name": "",
          "type": "address"
        }
      ],
      "stateMutability": "view",
      "type": "function"
    },
    {
      "inputs": [],
      "name": "factory",
      "outputs": [
        {
          "internalType": "address",
          "name": "",
          "type": "address"
        }
      ],
      "stateMutability": "view",
      "type": "function"
    },
    {
      "inputs": [
        {
          "internalType": "uint256",
          "name": "_orderId",
          "type": "uint256"
        }
      ],
      "name": "getBuyerAmountToDeliver",
      "outputs": [
        {
          "internalType": "uint256",
          "name": "price",
          "type": "uint256"
        }
      ],
      "stateMutability": "view",
      "type": "function"
    },
    {
      "inputs": [
        {
          "internalType": "uint256",
          "name": "_orderId",
          "type": "uint256"
        }
      ],
      "name": "getOrder",
      "outputs": [
        {
          "components": [
            {
              "internalType": "uint128",
              "name": "buyerMargin",
              "type": "uint128"
            },
            {
              "internalType": "uint128",
              "name": "sellerMargin",
              "type": "uint128"
            },
            {
              "internalType": "uint128",
              "name": "buyerShare",
              "type": "uint128"
            },
            {
              "internalType": "uint128",
              "name": "sellerShare",
              "type": "uint128"
            },
            {
              "internalType": "uint128",
              "name": "deliveryPrice",
              "type": "uint128"
            },
            {
              "internalType": "uint40",
              "name": "validTill",
              "type": "uint40"
            },
            {
              "internalType": "uint40",
              "name": "deliverStart",
              "type": "uint40"
            },
            {
              "internalType": "uint40",
              "name": "expireStart",
              "type": "uint40"
            },
            {
              "internalType": "address",
              "name": "buyer",
              "type": "address"
            },
            {
              "internalType": "address",
              "name": "seller",
              "type": "address"
            },
            {
              "internalType": "bool",
              "name": "buyerDelivered",
              "type": "bool"
            },
            {
              "internalType": "bool",
              "name": "sellerDelivered",
              "type": "bool"
            },
            {
              "internalType": "enum BaseForwardUpgradeable.State",
              "name": "state",
              "type": "uint8"
            },
            {
              "internalType": "address[]",
              "name": "takerWhiteList",
              "type": "address[]"
            }
          ],
          "internalType": "struct BaseForwardUpgradeable.Order",
          "name": "order",
          "type": "tuple"
        }
      ],
      "stateMutability": "view",
      "type": "function"
    },
    {
      "inputs": [],
      "name": "getPricePerFullShare",
      "outputs": [
        {
          "internalType": "uint256",
          "name": "",
          "type": "uint256"
        }
      ],
      "stateMutability": "view",
      "type": "function"
    },
    {
      "inputs": [],
      "name": "margin",
      "outputs": [
        {
          "internalType": "address",
          "name": "",
          "type": "address"
        }
      ],
      "stateMutability": "view",
      "type": "function"
    },
    {
      "inputs": [
        {
          "internalType": "address",
          "name": "",
          "type": "address"
        },
        {
          "internalType": "address",
          "name": "",
          "type": "address"
        },
        {
          "internalType": "uint256[]",
          "name": "",
          "type": "uint256[]"
        },
        {
          "internalType": "uint256[]",
          "name": "",
          "type": "uint256[]"
        },
        {
          "internalType": "bytes",
          "name": "",
          "type": "bytes"
        }
      ],
      "name": "onERC1155BatchReceived",
      "outputs": [
        {
          "internalType": "bytes4",
          "name": "",
          "type": "bytes4"
        }
      ],
      "stateMutability": "nonpayable",
      "type": "function"
    },
    {
      "inputs": [
        {
          "internalType": "address",
          "name": "",
          "type": "address"
        },
        {
          "internalType": "address",
          "name": "",
          "type": "address"
        },
        {
          "internalType": "uint256",
          "name": "",
          "type": "uint256"
        },
        {
          "internalType": "uint256",
          "name": "",
          "type": "uint256"
        },
        {
          "internalType": "bytes",
          "name": "",
          "type": "bytes"
        }
      ],
      "name": "onERC1155Received",
      "outputs": [
        {
          "internalType": "bytes4",
          "name": "",
          "type": "bytes4"
        }
      ],
      "stateMutability": "nonpayable",
      "type": "function"
    },
    {
      "inputs": [
        {
          "internalType": "uint256",
          "name": "",
          "type": "uint256"
        }
      ],
      "name": "orders",
      "outputs": [
        {
          "internalType": "uint128",
          "name": "buyerMargin",
          "type": "uint128"
        },
        {
          "internalType": "uint128",
          "name": "sellerMargin",
          "type": "uint128"
        },
        {
          "internalType": "uint128",
          "name": "buyerShare",
          "type": "uint128"
        },
        {
          "internalType": "uint128",
          "name": "sellerShare",
          "type": "uint128"
        },
        {
          "internalType": "uint128",
          "name": "deliveryPrice",
          "type": "uint128"
        },
        {
          "internalType": "uint40",
          "name": "validTill",
          "type": "uint40"
        },
        {
          "internalType": "uint40",
          "name": "deliverStart",
          "type": "uint40"
        },
        {
          "internalType": "uint40",
          "name": "expireStart",
          "type": "uint40"
        },
        {
          "internalType": "address",
          "name": "buyer",
          "type": "address"
        },
        {
          "internalType": "address",
          "name": "seller",
          "type": "address"
        },
        {
          "internalType": "bool",
          "name": "buyerDelivered",
          "type": "bool"
        },
        {
          "internalType": "bool",
          "name": "sellerDelivered",
          "type": "bool"
        },
        {
          "internalType": "enum BaseForwardUpgradeable.State",
          "name": "state",
          "type": "uint8"
        }
      ],
      "stateMutability": "view",
      "type": "function"
    },
    {
      "inputs": [],
      "name": "ordersLength",
      "outputs": [
        {
          "internalType": "uint256",
          "name": "",
          "type": "uint256"
        }
      ],
      "stateMutability": "view",
      "type": "function"
    },
    {
      "inputs": [],
      "name": "pause",
      "outputs": [],
      "stateMutability": "nonpayable",
      "type": "function"
    },
    {
      "inputs": [],
      "name": "paused",
      "outputs": [
        {
          "internalType": "bool",
          "name": "",
          "type": "bool"
        }
      ],
      "stateMutability": "view",
      "type": "function"
    },
    {
      "inputs": [],
      "name": "ratio",
      "outputs": [
        {
          "internalType": "uint256",
          "name": "",
          "type": "uint256"
        }
      ],
      "stateMutability": "view",
      "type": "function"
    },
    {
      "inputs": [
        {
          "internalType": "address",
          "name": "_fVault",
          "type": "address"
        }
      ],
      "name": "setForwardVault",
      "outputs": [],
      "stateMutability": "nonpayable",
      "type": "function"
    },
    {
      "inputs": [
        {
          "internalType": "uint256",
          "name": "_orderId",
          "type": "uint256"
        }
      ],
      "name": "settle",
      "outputs": [],
      "stateMutability": "nonpayable",
      "type": "function"
    },
    {
      "inputs": [
        {
          "internalType": "bytes4",
          "name": "interfaceId",
          "type": "bytes4"
        }
      ],
      "name": "supportsInterface",
      "outputs": [
        {
          "internalType": "bool",
          "name": "",
          "type": "bool"
        }
      ],
      "stateMutability": "view",
      "type": "function"
    },
    {
      "inputs": [
        {
          "internalType": "address",
          "name": "_taker",
          "type": "address"
        },
        {
          "internalType": "uint256",
          "name": "_orderId",
          "type": "uint256"
        }
      ],
      "name": "takeOrderFor",
      "outputs": [],
      "stateMutability": "nonpayable",
      "type": "function"
    },
    {
      "inputs": [
        {
          "internalType": "uint256",
          "name": "_orderId",
          "type": "uint256"
        }
      ],
      "name": "underlyingAssets",
      "outputs": [
        {
          "internalType": "uint256[]",
          "name": "",
          "type": "uint256[]"
        },
        {
          "internalType": "uint256[]",
          "name": "",
          "type": "uint256[]"
        }
      ],
      "stateMutability": "view",
      "type": "function"
    },
    {
      "inputs": [],
      "name": "unpause",
      "outputs": [],
      "stateMutability": "nonpayable",
      "type": "function"
    },
    {
      "inputs": [],
      "name": "version",
      "outputs": [
        {
          "internalType": "string",
          "name": "",
          "type": "string"
        }
      ],
      "stateMutability": "view",
      "type": "function"
    },
    {
      "inputs": [],
      "name": "want",
      "outputs": [
        {
          "internalType": "address",
          "name": "",
          "type": "address"
        }
      ],
      "stateMutability": "view",
      "type": "function"
    },
    {
      "inputs": [
        {
          "internalType": "address",
          "name": "_token",
          "type": "address"
        },
        {
          "internalType": "address",
          "name": "_to",
          "type": "address"
        }
      ],
      "name": "withdrawOther",
      "outputs": [],
      "stateMutability": "nonpayable",
      "type": "function"
    }
  ],
  "bytecode": "0x608060405234801561001057600080fd5b50614ab2806100206000396000f3fe608060405234801561001057600080fd5b50600436106102065760003560e01c80637e9a152c1161011a578063b69ef8a8116100ad578063d09ef2411161007c578063d09ef24114610503578063e16e2d6614610523578063e7e6569914610536578063f23a6e6114610549578063f2bfea621461056857600080fd5b8063b69ef8a8146104a1578063bc197c81146104a9578063be8acd3f146104e1578063c45a0155146104ea57600080fd5b80638f76691a116100e95780638f76691a146103a7578063a15e5fd9146103ba578063a85c38ef146103cd578063b48985c81461048e57600080fd5b80637e9a152c146103665780638456cb59146103795780638c7c9e0c146103815780638df828001461039457600080fd5b806348a0d7541161019d5780635c975abb1161016c5780635c975abb1461032257806369b59e751461032f57806371ca337d1461034257806377c7b8fc1461034b57806378fc53d81461035357600080fd5b806348a0d754146102d9578063514fcac7146102e157806352781173146102f457806354fd4d50146102fc57600080fd5b806338373090116101d9578063383730901461028a5780633b50c4d11461029d5780633f4ba83a146102be57806347dfc80a146102c657600080fd5b806301ffc9a71461020b5780631045bfc1146102335780631f1fcd51146102485780633235029e14610273575b600080fd5b61021e610219366004614527565b610588565b60405190151581526020015b60405180910390f35b610246610241366004614279565b6105bf565b005b60015461025b906001600160a01b031681565b6040516001600160a01b03909116815260200161022a565b61027c60055481565b60405190815260200161022a565b61024661029836600461449f565b61073e565b6102b06102ab36600461454f565b6107b7565b60405161022a9291906146aa565b610246610892565b6102466102d43660046143c2565b6108a6565b61027c6109f1565b6102466102ef36600461454f565b610a72565b61027c610ae5565b6040805180820182526004815263076312e360e41b6020820152905161022a91906146e6565b60085461021e9060ff1681565b61024661033d366004614241565b610c1b565b61027c60065481565b61027c610d15565b61024661036136600461449f565b610dce565b61027c61037436600461454f565b610e41565b6102466110c0565b60045461025b906001600160a01b031681565b6102466103a236600461454f565b6110d7565b60025461025b906001600160a01b031681565b6102466103c8366004614241565b61114c565b6104756103db36600461454f565b600960205260009081526040902080546001820154600283015460038401546004909401546001600160801b0380851695600160801b95869004821695858316958190048316949283169364ffffffffff918404821693600160a81b808204841694600160d01b909204909316926001600160a01b03918216929182169160ff600160a01b82048116928204811691600160b01b9004168d565b60405161022a9d9c9b9a9998979695949392919061487e565b60035461025b906001600160a01b031681565b61027c61175c565b6104c86104b73660046142b1565b63bc197c8160e01b95945050505050565b6040516001600160e01b0319909116815260200161022a565b61027c60075481565b60005461025b906201000090046001600160a01b031681565b61051661051136600461454f565b611777565b60405161022a9190614738565b610246610531366004614279565b61197f565b6102466105443660046144ca565b611b51565b6104c861055736600461435b565b63f23a6e6160e01b95945050505050565b61057b61057636600461454f565b611c4f565b60405161022a91906146d8565b60006001600160e01b03198216630271189760e51b14806105b957506301ffc9a760e01b6001600160e01b03198316145b92915050565b600054610100900460ff1661062f5760405162461bcd60e51b815260206004820152602b60248201527f496e697469616c697a61626c653a20636f6e7472616374206973206e6f74206960448201526a6e697469616c697a696e6760a81b60648201526084015b60405180910390fd5b6000805462010000600160b01b0319163362010000908102919091179182905560405163efb5f11360e01b81526001600160a01b038481166004830152919092041690819063efb5f1139060240160206040518083038186803b15801561069557600080fd5b505afa1580156106a9573d6000803e3d6000fd5b505050506040513d601f19601f820116820180604052508101906106cd919061450b565b6107035760405162461bcd60e51b815260206004820152600760248201526610b6b0b933b4b760c91b6044820152606401610626565b50600180546001600160a01b039384166001600160a01b03199182161790915560028054929093169116179055670de0b6b3a7640000600655565b610746611f88565b600461075182611c4f565b600781111561077057634e487b7160e01b600052602160045260246000fd5b146107a95760405162461bcd60e51b81526020600482015260096024820152682164656c697665727960b81b6044820152606401610626565b6107b38282611fc6565b5050565b600081815260a06020908152604080832081518154938402810160609081018452928101848152929485949093919291839183908388018282801561081b57602002820191906000526020600020905b815481526020019060010190808311610807575b505050505081526020016001820180548060200260200160405190810160405280929190818152602001828054801561087357602002820191906000526020600020905b81548152602001906001019080831161085f575b5050505050815250509050806000015181602001519250925050915091565b61089a6123cc565b6008805460ff19169055565b6108ae611f88565b85518751146108e85760405162461bcd60e51b81526004016106269060208082526004908201526310b632b760e11b604082015260600190565b8180156108f25750805b15610901576109018787612417565b61090f888686868686612483565b6000600160075461092091906149cf565b905060005b88518110156109e557600082815260a06020526040902089518a908390811061095e57634e487b7160e01b600052603260045260246000fd5b60209081029190910181015182546001818101855560009485528385209091019190915584835260a0909152604090912089519101908990839081106109b457634e487b7160e01b600052603260045260246000fd5b60209081029190910181015182546001810184556000938452919092200155806109dd81614a12565b915050610925565b50505050505050505050565b6002546040516370a0823160e01b81523060048201526000916001600160a01b0316906370a082319060240160206040518083038186803b158015610a3557600080fd5b505afa158015610a49573d6000803e3d6000fd5b505050506040513d601f19601f82011682018060405250810190610a6d9190614567565b905090565b610a7a611f88565b6003610a8582611c4f565b6007811115610aa457634e487b7160e01b600052602160045260246000fd5b14610ad95760405162461bcd60e51b8152602060048201526005602482015264085919585960da1b6044820152606401610626565b610ae281612ab8565b50565b6003546000906001600160a01b031615610c1557610a6d670de0b6b3a7640000610c0f600360009054906101000a90046001600160a01b03166001600160a01b03166377c7b8fc6040518163ffffffff1660e01b815260040160206040518083038186803b158015610b5657600080fd5b505afa158015610b6a573d6000803e3d6000fd5b505050506040513d601f19601f82011682018060405250810190610b8e9190614567565b6003546040516370a0823160e01b81523060048201526001600160a01b03909116906370a082319060240160206040518083038186803b158015610bd157600080fd5b505afa158015610be5573d6000803e3d6000fd5b505050506040513d601f19601f82011682018060405250810190610c099190614567565b90612d86565b90612d99565b50600090565b60008060029054906101000a90046001600160a01b03166001600160a01b031663c415b95c6040518163ffffffff1660e01b815260040160206040518083038186803b158015610c6a57600080fd5b505afa158015610c7e573d6000803e3d6000fd5b505050506040513d601f19601f82011682018060405250810190610ca2919061425d565b6000549091506201000090046001600160a01b0316331480610ccc5750336001600160a01b038216145b610d005760405162461bcd60e51b8152602060048201526005602482015264042c2eae8d60db1b6044820152606401610626565b610d0c82600554612da5565b50506000600555565b6003546000906001600160a01b031615610dc757610a6d670de0b6b3a7640000610c0f600360009054906101000a90046001600160a01b03166001600160a01b03166377c7b8fc6040518163ffffffff1660e01b815260040160206040518083038186803b158015610d8657600080fd5b505afa158015610d9a573d6000803e3d6000fd5b505050506040513d601f19601f82011682018060405250810190610dbe9190614567565b60065490612d86565b5060065490565b610dd6611f88565b6001610de182611c4f565b6007811115610e0057634e487b7160e01b600052602160045260246000fd5b14610e375760405162461bcd60e51b81526020600482015260076024820152662161637469766560c81b6044820152606401610626565b6107b38282612e89565b600081815260096020908152604080832081516101c08101835281546001600160801b038082168352600160801b9182900481169583019590955260018301548086169483019490945292839004841660608201526002820154938416608082015264ffffffffff928404831660a0820152600160a81b808504841660c0830152600160d01b90940490921660e083015260038101546001600160a01b03908116610100840152600482015490811661012084015260ff600160a01b820481161515610140850152938104841615156101608401528493610180840191600160b01b9004166007811115610f4557634e487b7160e01b600052602160045260246000fd5b6007811115610f6457634e487b7160e01b600052602160045260246000fd5b815260200160058201805480602002602001604051908101604052809291908181526020018280548015610fc157602002820191906000526020600020905b81546001600160a01b03168152600190910190602001808311610fa3575b50505050508152505090508061014001516110ba57600080546040805163ec2c65c160e01b8152815184936201000090046001600160a01b03169263ec2c65c19260048082019391829003018186803b15801561101d57600080fd5b505afa158015611031573d6000803e3d6000fd5b505050506040513d601f19601f82011682018060405250810190611055919061457f565b91509150600061108382610c0f86608001516001600160801b0316610c09868861326a90919063ffffffff16565b90506110b46110ad670de0b6b3a7640000610c0f87604001516001600160801b0316610c09610d15565b8290613276565b94505050505b50919050565b6110c86123cc565b6008805460ff19166001179055565b6110df611f88565b60056110ea82611c4f565b600781111561110957634e487b7160e01b600052602160045260246000fd5b146111415760405162461bcd60e51b815260206004820152600860248201526708595e1c1a5c995960c21b6044820152606401610626565b610ae2816001613282565b6111546123cc565b6003546001600160a01b031615801561117557506001600160a01b03811615155b1561124e576000816001600160a01b0316631f1fcd516040518163ffffffff1660e01b815260040160206040518083038186803b1580156111b557600080fd5b505afa1580156111c9573d6000803e3d6000fd5b505050506040513d601f19601f820116820180604052508101906111ed919061425d565b6002549091506001600160a01b0380831691161461121d5760405162461bcd60e51b815260040161062690614719565b6112326001600160a01b0382168360006137ca565b6112486001600160a01b038216836000196137ca565b5061173a565b6003546001600160a01b03161580159061127057506001600160a01b03811615155b15611515576000816001600160a01b0316631f1fcd516040518163ffffffff1660e01b815260040160206040518083038186803b1580156112b057600080fd5b505afa1580156112c4573d6000803e3d6000fd5b505050506040513d601f19601f820116820180604052508101906112e8919061425d565b6002549091506001600160a01b038083169116146113185760405162461bcd60e51b815260040161062690614719565b6003546040516370a0823160e01b81523060048201526000916001600160a01b0316906370a082319060240160206040518083038186803b15801561135c57600080fd5b505afa158015611370573d6000803e3d6000fd5b505050506040513d601f19601f820116820180604052508101906113949190614567565b905060008082116113a6576000611424565b600354604051632e1a7d4d60e01b8152600481018490526001600160a01b0390911690632e1a7d4d90602401602060405180830381600087803b1580156113ec57600080fd5b505af1158015611400573d6000803e3d6000fd5b505050506040513d601f19601f820116820180604052508101906114249190614567565b600354909150611442906001600160a01b03858116911660006137ca565b6114576001600160a01b0384168560006137ca565b61146d6001600160a01b038416856000196137ca565b811561150d5760405163b6b55f2560e01b8152600481018290526000906001600160a01b0386169063b6b55f2590602401602060405180830381600087803b1580156114b857600080fd5b505af11580156114cc573d6000803e3d6000fd5b505050506040513d601f19601f820116820180604052508101906114f09190614567565b905061150883610c0f83670de0b6b3a7640000612d86565b600655505b50505061173a565b6003546001600160a01b03161580159061153657506001600160a01b038116155b15611707576003546040516370a0823160e01b81523060048201526000916001600160a01b0316906370a082319060240160206040518083038186803b15801561157f57600080fd5b505afa158015611593573d6000803e3d6000fd5b505050506040513d601f19601f820116820180604052508101906115b79190614567565b905060008082116115c9576000611647565b600354604051632e1a7d4d60e01b8152600481018490526001600160a01b0390911690632e1a7d4d90602401602060405180830381600087803b15801561160f57600080fd5b505af1158015611623573d6000803e3d6000fd5b505050506040513d601f19601f820116820180604052508101906116479190614567565b60035460408051631f1fcd5160e01b815290519293506116e0926001600160a01b03909216916000918391631f1fcd5191600480820192602092909190829003018186803b15801561169857600080fd5b505afa1580156116ac573d6000803e3d6000fd5b505050506040513d601f19601f820116820180604052508101906116d0919061425d565b6001600160a01b031691906137ca565b8115611700576116fc82610c0f83670de0b6b3a7640000612d86565b6006555b505061173a565b60405162461bcd60e51b81526020600482015260086024820152676e6f6e73656e736560c01b6044820152606401610626565b600380546001600160a01b0319166001600160a01b0392909216919091179055565b6000610a6d611769610ae5565b6117716109f1565b9061326a565b6117ee604080516101c081018252600080825260208201819052918101829052606081018290526080810182905260a0810182905260c0810182905260e081018290526101008101829052610120810182905261014081018290526101608101829052906101808201908152602001606081525090565b60008281526009602090815260409182902082516101c08101845281546001600160801b038082168352600160801b9182900481169483019490945260018301548085169583019590955293849004831660608201526002820154928316608082015264ffffffffff938304841660a0820152600160a81b808404851660c0830152600160d01b90930490931660e084015260038101546001600160a01b03908116610100850152600482015490811661012085015260ff600160a01b820481161515610140860152928104831615156101608501529091610180840191600160b01b90041660078111156118f357634e487b7160e01b600052602160045260246000fd5b600781111561191257634e487b7160e01b600052602160045260246000fd5b81526020016005820180548060200260200160405190810160405280929190818152602001828054801561196f57602002820191906000526020600020905b81546001600160a01b03168152600190910190602001808311611951575b5050505050815250509050919050565b60008060029054906101000a90046001600160a01b03166001600160a01b031663c415b95c6040518163ffffffff1660e01b815260040160206040518083038186803b1580156119ce57600080fd5b505afa1580156119e2573d6000803e3d6000fd5b505050506040513d601f19601f82011682018060405250810190611a06919061425d565b6000549091506201000090046001600160a01b0316331480611a305750336001600160a01b038216145b611a645760405162461bcd60e51b8152602060048201526005602482015264042c2eae8d60db1b6044820152606401610626565b611a6d83613921565b6004546001600160a01b0384811691161415611abe576040516001600160a01b038316904780156108fc02916000818181858888f19350505050158015611ab8573d6000803e3d6000fd5b50505050565b6040516370a0823160e01b8152306004820152611b4c9083906001600160a01b038616906370a082319060240160206040518083038186803b158015611b0357600080fd5b505afa158015611b17573d6000803e3d6000fd5b505050506040513d601f19601f82011682018060405250810190611b3b9190614567565b6001600160a01b03861691906139df565b505050565b600054610100900460ff16611b6c5760005460ff1615611b70565b303b155b611bd35760405162461bcd60e51b815260206004820152602e60248201527f496e697469616c697a61626c653a20636f6e747261637420697320616c72656160448201526d191e481a5b9a5d1a585b1a5e995960921b6064820152608401610626565b600054610100900460ff16158015611bf5576000805461ffff19166101011790555b611bff84836105bf565b8261048314611c385760405162461bcd60e51b8152602060048201526005602482015264213131353560d81b6044820152606401610626565b8015611ab8576000805461ff001916905550505050565b600081815260096020908152604080832081516101c08101835281546001600160801b038082168352600160801b9182900481169583019590955260018301548086169483019490945292839004841660608201526002820154938416608082015264ffffffffff928404831660a0820152600160a81b808504841660c0830152600160d01b90940490921660e083015260038101546001600160a01b03908116610100840152600482015490811661012084015260ff600160a01b820481161515610140850152938104841615156101608401528493610180840191600160b01b9004166007811115611d5357634e487b7160e01b600052602160045260246000fd5b6007811115611d7257634e487b7160e01b600052602160045260246000fd5b815260200160058201805480602002602001604051908101604052809291908181526020018280548015611dcf57602002820191906000526020600020905b81546001600160a01b03168152600190910190602001808311611db1575b50505050508152505090508060a0015164ffffffffff1660001415611df75750600092915050565b60078161018001516007811115611e1e57634e487b7160e01b600052602160045260246000fd5b1415611e2d5750600792915050565b60a0810151429064ffffffffff168111611e815760028261018001516007811115611e6857634e487b7160e01b600052602160045260246000fd5b14611e77575060019392505050565b5060029392505050565b60018261018001516007811115611ea857634e487b7160e01b600052602160045260246000fd5b1415611eb8575060039392505050565b8160c0015164ffffffffff168111611f005760028261018001516007811115611ef157634e487b7160e01b600052602160045260246000fd5b14611e77575060039392505050565b8160e0015164ffffffffff168111611f525760068261018001516007811115611f3957634e487b7160e01b600052602160045260246000fd5b14611f48575060049392505050565b5060069392505050565b60068261018001516007811115611f7957634e487b7160e01b600052602160045260246000fd5b14611f48575060059392505050565b60085460ff1615611fc45760405162461bcd60e51b81526020600482015260066024820152651c185d5cd95960d21b6044820152606401610626565b565b600081815260096020908152604080832081516101c08101835281546001600160801b038082168352600160801b9182900481169583019590955260018301548086169483019490945292839004841660608201526002820154938416608082015264ffffffffff928404831660a0820152600160a81b808504841660c0830152600160d01b90940490921660e083015260038101546001600160a01b03908116610100840152600482015490811661012084015260ff600160a01b8204811615156101408501529381048416151561016084015291929091610180840191600160b01b9091041660078111156120cd57634e487b7160e01b600052602160045260246000fd5b60078111156120ec57634e487b7160e01b600052602160045260246000fd5b81526020016005820180548060200260200160405190810160405280929190818152602001828054801561214957602002820191906000526020600020905b81546001600160a01b0316815260019091019060200180831161212b575b50505050508152505090508061012001516001600160a01b0316836001600160a01b031614801561217d5750806101600151155b156121fe5761218b82613a0f565b60008281526009602052604090819020600401805460ff60a81b1916600160a81b179055517fc2f1452b368e39827ef7e6cbbdb3550c8647a3d176b3db42234e610b36a87a47906121f190849086909182526001600160a01b0316602082015260400190565b60405180910390a16123c1565b8061010001516001600160a01b0316836001600160a01b03161480156122275750806101400151155b1561238b57600080546040805163ec2c65c160e01b8152815184936201000090046001600160a01b03169263ec2c65c19260048082019391829003018186803b15801561227357600080fd5b505afa158015612287573d6000803e3d6000fd5b505050506040513d601f19601f820116820180604052508101906122ab919061457f565b9150915060006122d982610c0f86608001516001600160801b0316610c09868861326a90919063ffffffff16565b905061231461230d612306670de0b6b3a7640000610c0f88604001516001600160801b0316610c09610d15565b8390613276565b6000613acd565b5060008581526009602052604090819020600401805460ff60a01b1916600160a01b179055517fc2f1452b368e39827ef7e6cbbdb3550c8647a3d176b3db42234e610b36a87a479061237b90879089909182526001600160a01b0316602082015260400190565b60405180910390a15050506123c1565b60405162461bcd60e51b815260206004820152600b60248201526a64656c697665722062756760a81b6044820152606401610626565b611b4c826000613282565b6000546201000090046001600160a01b03163314611fc45760405162461bcd60e51b815260206004820152600860248201526721666163746f727960c01b6044820152606401610626565b600154604051631759616b60e11b81526001600160a01b0390911690632eb2c2d69061244d903390309087908790600401614652565b600060405180830381600087803b15801561246757600080fd5b505af115801561247b573d6000803e3d6000fd5b505050505050565b83516001600160801b031180156124a4575060208401516001600160801b03115b80156124ba575060408401516001600160801b03115b6124f15760405162461bcd60e51b81526020600482015260086024820152676f766572666c6f7760c01b6044820152606401610626565b6001600160801b0361251385600260200201518660015b60200201519061326a565b106125575760405162461bcd60e51b815260206004820152601460248201527364656c69766572206d6179206f766572666c6f7760601b6044820152606401610626565b64ffffffffff6125708660026020020151876001612508565b1080156125915750602085015161258f8660005b602002015142611771565b105b6125c55760405162461bcd60e51b81526020600482015260056024820152642174696d6560d81b6044820152606401610626565b60008280156125d2575081155b1561268757600080546040805163ec2c65c160e01b8152815184936201000090046001600160a01b03169263ec2c65c19260048082019391829003018186803b15801561261e57600080fd5b505afa158015612632573d6000803e3d6000fd5b505050506040513d601f19601f82011682018060405250810190612656919061457f565b909250905061267e61267782610c0f8a60006020020151610c09878761326a565b6001613acd565b925050506126a8565b6126a582612699576020860151612677565b60408601516001613acd565b90505b60078054600091826126b983614a12565b919050559050604051806101c00160405280876001600381106126ec57634e487b7160e01b600052603260045260246000fd5b60200201516001600160801b031681526020018760026003811061272057634e487b7160e01b600052603260045260246000fd5b60200201516001600160801b031681526020018461273e5783612741565b60005b6001600160801b031681526020018461275b57600061275d565b835b6001600160801b0390811682528851166020820152604001612780896000612584565b64ffffffffff908116825260208a810151909116908201526040016127ae89600260200201518a6001612508565b64ffffffffff168152602001846127c557896127c8565b60005b6001600160a01b03168152602001846127e25760006127e4565b895b6001600160a01b031681526020018580156127fd575084155b1515815260200185801561280e5750845b15158152602001600181526020016000604051908082528060200260200182016040528015612847578160200160208202803683370190505b5090526000828152600960209081526040918290208351918401516001600160801b03928316600160801b91841682021782559284015160608501519083169083168402176001820155608084015160028201805460a087015160c088015160e0890151949096166001600160a81b03199283161764ffffffffff9182169097029690961769ffffffffffffffffffff60a81b1916600160a81b958716860264ffffffffff60d01b191617600160d01b96909316959095029190911790556101008401516003820180546001600160a01b0319166001600160a01b0392831617905561012085015160048301805461014088015161016089015193909416961695909517600160a01b921515929092029190911760ff60a81b19811691151590930290811784556101808501519193919261ffff60a81b191660ff60b01b1990911617600160b01b8360078111156129af57634e487b7160e01b600052602160045260246000fd5b02179055506101a082015180516129d0916005840191602090910190613ff9565b50508551159050612a6c5760005b8551811015612a6a5760096000838152602001908152602001600020600501868281518110612a1d57634e487b7160e01b600052603260045260246000fd5b60209081029190910181015182546001810184556000938452919092200180546001600160a01b0319166001600160a01b0390921691909117905580612a6281614a12565b9150506129de565b505b604080518281526001600160a01b038a1660208201527fc2543e39f94e2f3c7bd242ab0053972523f75ca379ae9b64a474ce5c79d6891191015b60405180910390a15050505050505050565b600081815260096020908152604080832081516101c08101835281546001600160801b038082168352600160801b9182900481169583019590955260018301548086169483019490945292839004841660608201526002820154938416608082015264ffffffffff928404831660a0820152600160a81b808504841660c0830152600160d01b90940490921660e083015260038101546001600160a01b03908116610100840152600482015490811661012084015260ff600160a01b8204811615156101408501529381048416151561016084015291929091610180840191600160b01b909104166007811115612bbf57634e487b7160e01b600052602160045260246000fd5b6007811115612bde57634e487b7160e01b600052602160045260246000fd5b815260200160058201805480602002602001604051908101604052809291908181526020018280548015612c3b57602002820191906000526020600020905b81546001600160a01b03168152600190910190602001808311612c1d575b505050919092525050506101008101519091506001600160a01b031615612c9457612c8f816101000151612c8a670de0b6b3a7640000610c0f85604001516001600160801b0316610c09610d15565b612da5565b612d2a565b6101208101516001600160a01b031615612cf057612cd6816101200151612c8a670de0b6b3a7640000610c0f85606001516001600160801b0316610c09610d15565b80610160015115612c8f57612c8f82826101200151613b9b565b60405162461bcd60e51b815260206004820152600f60248201526e63616e63656c4f726465722062756760881b6044820152606401610626565b6000828152600960209081526040918290206004018054600760b01b60ff60b01b1990911617905590518381527f935c9ad2f1fda9d7eae0d2a512f1521cb7190ee06165414e722366a65975fb6b910160405180910390a15050565b6000612d9282846149b0565b9392505050565b6000612d928284614990565b6000612daf6109f1565b90508181108015612dca57506003546001600160a01b031615155b15612e66576003546001600160a01b0316632e1a7d4d612dea8484613276565b6040518263ffffffff1660e01b8152600401612e0891815260200190565b602060405180830381600087803b158015612e2257600080fd5b505af1158015612e36573d6000803e3d6000fd5b505050506040513d601f19601f82011682018060405250810190612e5a9190614567565b50612e636109f1565b90505b80821115612e72578091505b600254611b4c906001600160a01b03168484613c6f565b600081815260096020908152604080832081516101c08101835281546001600160801b038082168352600160801b9182900481169583019590955260018301548086169483019490945292839004841660608201526002820154938416608082015264ffffffffff928404831660a0820152600160a81b808504841660c0830152600160d01b90940490921660e083015260038101546001600160a01b03908116610100840152600482015490811661012084015260ff600160a01b8204811615156101408501529381048416151561016084015291929091610180840191600160b01b909104166007811115612f9057634e487b7160e01b600052602160045260246000fd5b6007811115612faf57634e487b7160e01b600052602160045260246000fd5b81526020016005820180548060200260200160405190810160405280929190818152602001828054801561300c57602002820191906000526020600020905b81546001600160a01b03168152600190910190602001808311612fee575b50505050508152505090506000816101a0015151111561306e5761303583826101a00151613c83565b61306e5760405162461bcd60e51b815260206004820152600a602482015269085dda1a5d195b1a5cdd60b21b6044820152606401610626565b6000828152600960205260408120600401546130df906001600160a01b0316156130af576000848152600960205260409020546001600160801b03166130cf565b600084815260096020526040902054600160801b90046001600160801b03165b6001600160801b03166001613acd565b6000848152600960205260409020600301549091506001600160a01b03166131565760008381526009602052604090206003810180546001600160a01b0319166001600160a01b03871617905560010180546fffffffffffffffffffffffffffffffff19166001600160801b0383161790556131fa565b6000838152600960205260409020600401546001600160a01b03166131c25760008381526009602052604090206004810180546001600160a01b0387166001600160a01b031990911617905560010180546001600160801b03808416600160801b0291161790556131fa565b60405162461bcd60e51b815260206004820152600d60248201526c74616b654f726465722062756760981b6044820152606401610626565b600083815260096020526040902060040180546002919060ff60b01b1916600160b01b830217905550604080518481526001600160a01b03861660208201527fa409aeee90f7d8baa060c420573bf2d543386afb645ad155c1a2e5f4a90fa76d910160405180910390a150505050565b6000612d928284614978565b6000612d9282846149cf565b600080546040805163ec2c65c160e01b8152815184936201000090046001600160a01b03169263ec2c65c19260048082019391829003018186803b1580156132c957600080fd5b505afa1580156132dd573d6000803e3d6000fd5b505050506040513d601f19601f82011682018060405250810190613301919061457f565b600086815260096020908152604080832081516101c08101835281546001600160801b038082168352600160801b9182900481169583019590955260018301548086169483019490945292839004841660608201526002820154938416608082015264ffffffffff928404831660a0820152600160a81b808504841660c0830152600160d01b90940490921660e083015260038101546001600160a01b03908116610100840152600482015490811661012084015260ff600160a01b820481161515610140850152938104841615156101608401529597509395509193919291610180840191600160b01b90910416600781111561340f57634e487b7160e01b600052602160045260246000fd5b600781111561342e57634e487b7160e01b600052602160045260246000fd5b81526020016005820180548060200260200160405190810160405280929190818152602001828054801561348b57602002820191906000526020600020905b81546001600160a01b0316815260019091019060200180831161346d575b505050505081525050905080610160015180156134aa57508061014001515b15613623576134be85826101000151613b9b565b60006134e483610c0f84608001516001600160801b031687612d8690919063ffffffff16565b9050600061350d670de0b6b3a7640000610c0f85604001516001600160801b0316610c09610d15565b905061352f83608001516001600160801b03168361326a90919063ffffffff16565b81111561356957613569836101000151612c8a8461356387608001516001600160801b03168661327690919063ffffffff16565b90613276565b60006135a58361356386608001516001600160801b0316611771670de0b6b3a7640000610c0f8a606001516001600160801b0316610c09610d15565b90506135b684610120015182612da5565b6135cd6135c4846002612d86565b6005549061326a565b600555600088815260096020908152604091829020600401805460ff60b01b1916600360b11b17905590518981527f2a45eee61b61ef4932e2d79b32be61a1a538cbe00381faffb4d1cf3b1268c46b9101612aa6565b83156137c3578061016001516136c457600061365983610c0f84602001516001600160801b031687612d8690919063ffffffff16565b600554909150613669908261326a565b6005556101008201516136be90612c8a83613563670de0b6b3a7640000610c0f613691610d15565b610c098a606001516001600160801b03168b604001516001600160801b031661326a90919063ffffffff16565b5061376a565b80610140015161376a5760006136f483610c0f84600001516001600160801b031687612d8690919063ffffffff16565b600554909150613704908261326a565b60055561012082015161375990612c8a83613563670de0b6b3a7640000610c0f61372c610d15565b610c098a604001516001600160801b03168b606001516001600160801b031661326a90919063ffffffff16565b61376886836101200151613b9b565b505b6000858152600960209081526040918290206004018054600360b11b60ff60b01b1990911617905590518681527f2a45eee61b61ef4932e2d79b32be61a1a538cbe00381faffb4d1cf3b1268c46b910160405180910390a15b5050505050565b8015806138535750604051636eb1769f60e11b81523060048201526001600160a01b03838116602483015284169063dd62ed3e9060440160206040518083038186803b15801561381957600080fd5b505afa15801561382d573d6000803e3d6000fd5b505050506040513d601f19601f820116820180604052508101906138519190614567565b155b6138be5760405162461bcd60e51b815260206004820152603660248201527f5361666545524332303a20617070726f76652066726f6d206e6f6e2d7a65726f60448201527520746f206e6f6e2d7a65726f20616c6c6f77616e636560501b6064820152608401610626565b6040516001600160a01b038316602482015260448101829052611b4c90849063095ea7b360e01b906064015b60408051601f198184030181529190526020810180516001600160e01b03166001600160e01b031990931692909217909152613cf7565b6001546001600160a01b038281169116141561394f5760405162461bcd60e51b815260040161062690614719565b6002546001600160a01b03828116911614156139975760405162461bcd60e51b815260206004820152600760248201526610b6b0b933b4b760c91b6044820152606401610626565b6003546001600160a01b0382811691161415610ae25760405162461bcd60e51b8152602060048201526007602482015266085995985d5b1d60ca1b6044820152606401610626565b6040516001600160a01b038316602482015260448101829052611b4c90849063a9059cbb60e01b906064016138ea565b600081815260a060209081526040918290208054835181840281018401909452808452610ae29392830182828015613a6657602002820191906000526020600020905b815481526020019060010190808311613a52575b505050600085815260a0602090815260409182902060010180548351818402810184019094528084529294509250830182828015613ac357602002820191906000526020600020905b815481526020019060010190808311613aaf575b5050505050612417565b600254600090613ae6906001600160a01b031684613dc9565b6000828015613aff57506003546001600160a01b031615155b613b2557613b20613b0e610d15565b610c0f86670de0b6b3a7640000612d86565b613b93565b60065460035460405163b6b55f2560e01b815260048101879052613b939291610c0f91670de0b6b3a7640000916001600160a01b03169063b6b55f2590602401602060405180830381600087803b158015613b7f57600080fd5b505af1158015610be5573d6000803e3d6000fd5b949350505050565b600082815260a060209081526040808320815181546060948102820185018452928101838152909391928492849190840182828015613bf957602002820191906000526020600020905b815481526020019060010190808311613be5575b5050505050815260200160018201805480602002602001604051908101604052809291908181526020018280548015613c5157602002820191906000526020600020905b815481526020019060010190808311613c3d575b5050505050815250509050611b4c8282600001518360200151613de4565b611b4c6001600160a01b03841683836139df565b6000805b8251811015613ced57828181518110613cb057634e487b7160e01b600052603260045260246000fd5b60200260200101516001600160a01b0316846001600160a01b03161415613cdb5760019150506105b9565b80613ce581614a12565b915050613c87565b5060009392505050565b6000613d4c826040518060400160405280602081526020017f5361666545524332303a206c6f772d6c6576656c2063616c6c206661696c6564815250856001600160a01b0316613e519092919063ffffffff16565b805190915015611b4c5780806020019051810190613d6a919061450b565b611b4c5760405162461bcd60e51b815260206004820152602a60248201527f5361666545524332303a204552433230206f7065726174696f6e20646964206e6044820152691bdd081cdd58d8d9595960b21b6064820152608401610626565b80156107b3576107b36001600160a01b038316333084613e60565b600154604051631759616b60e11b81526001600160a01b0390911690632eb2c2d690613e1a903090879087908790600401614652565b600060405180830381600087803b158015613e3457600080fd5b505af1158015613e48573d6000803e3d6000fd5b50505050505050565b6060613b938484600085613e98565b6040516001600160a01b0380851660248301528316604482015260648101829052611ab89085906323b872dd60e01b906084016138ea565b606082471015613ef95760405162461bcd60e51b815260206004820152602660248201527f416464726573733a20696e73756666696369656e742062616c616e636520666f6044820152651c8818d85b1b60d21b6064820152608401610626565b843b613f475760405162461bcd60e51b815260206004820152601d60248201527f416464726573733a2063616c6c20746f206e6f6e2d636f6e74726163740000006044820152606401610626565b600080866001600160a01b03168587604051613f639190614636565b60006040518083038185875af1925050503d8060008114613fa0576040519150601f19603f3d011682016040523d82523d6000602084013e613fa5565b606091505b5091509150613fb5828286613fc0565b979650505050505050565b60608315613fcf575081612d92565b825115613fdf5782518084602001fd5b8160405162461bcd60e51b815260040161062691906146e6565b82805482825590600052602060002090810192821561404e579160200282015b8281111561404e57825182546001600160a01b0319166001600160a01b03909116178255602090920191600190910190614019565b5061405a92915061405e565b5090565b5b8082111561405a576000815560010161405f565b803561407e81614a59565b919050565b600082601f830112614093578081fd5b813560206140a86140a383614954565b614923565b80838252828201915082860187848660051b89010111156140c7578586fd5b855b858110156140ee5781356140dc81614a59565b845292840192908401906001016140c9565b5090979650505050505050565b600082601f83011261410b578081fd5b6040516060810181811067ffffffffffffffff8211171561412e5761412e614a43565b604052808360608101861015614142578384fd5b835b6003811015614163578135835260209283019290910190600101614144565b509195945050505050565b600082601f83011261417e578081fd5b8135602061418e6140a383614954565b80838252828201915082860187848660051b89010111156141ad578586fd5b855b858110156140ee578135845292840192908401906001016141af565b803561407e81614a6e565b600082601f8301126141e6578081fd5b813567ffffffffffffffff81111561420057614200614a43565b614213601f8201601f1916602001614923565b818152846020838601011115614227578283fd5b816020850160208301379081016020019190915292915050565b600060208284031215614252578081fd5b8135612d9281614a59565b60006020828403121561426e578081fd5b8151612d9281614a59565b6000806040838503121561428b578081fd5b823561429681614a59565b915060208301356142a681614a59565b809150509250929050565b600080600080600060a086880312156142c8578081fd5b85356142d381614a59565b945060208601356142e381614a59565b9350604086013567ffffffffffffffff808211156142ff578283fd5b61430b89838a0161416e565b94506060880135915080821115614320578283fd5b61432c89838a0161416e565b93506080880135915080821115614341578283fd5b5061434e888289016141d6565b9150509295509295909350565b600080600080600060a08688031215614372578081fd5b853561437d81614a59565b9450602086013561438d81614a59565b93506040860135925060608601359150608086013567ffffffffffffffff8111156143b6578182fd5b61434e888289016141d6565b600080600080600080600080610180898b0312156143de578283fd5b6143e789614073565b9750602089013567ffffffffffffffff80821115614403578485fd5b61440f8c838d0161416e565b985060408b0135915080821115614424578485fd5b6144308c838d0161416e565b975061443f8c60608d016140fb565b965061444e8c60c08d016140fb565b95506101208b0135915080821115614464578485fd5b506144718b828c01614083565b9350506144816101408a016141cb565b91506144906101608a016141cb565b90509295985092959890939650565b600080604083850312156144b1578182fd5b82356144bc81614a59565b946020939093013593505050565b6000806000606084860312156144de578081fd5b83356144e981614a59565b925060208401359150604084013561450081614a59565b809150509250925092565b60006020828403121561451c578081fd5b8151612d9281614a6e565b600060208284031215614538578081fd5b81356001600160e01b031981168114612d92578182fd5b600060208284031215614560578081fd5b5035919050565b600060208284031215614578578081fd5b5051919050565b60008060408385031215614591578182fd5b505080516020909101519092909150565b6000815180845260208085019450808401835b838110156145da5781516001600160a01b0316875295820195908201906001016145b5565b509495945050505050565b6000815180845260208085019450808401835b838110156145da578151875295820195908201906001016145f8565b6008811061463257634e487b7160e01b600052602160045260246000fd5b9052565b600082516146488184602087016149e6565b9190910192915050565b6001600160a01b0385811682528416602082015260a06040820181905260009061467e908301856145e5565b828103606084015261469081856145e5565b838103608090940193909352508152602001949350505050565b6040815260006146bd60408301856145e5565b82810360208401526146cf81856145e5565b95945050505050565b602081016105b98284614614565b60208152600082518060208401526147058160408501602087016149e6565b601f01601f19169190910160400192915050565b602080825260059082015264085dd85b9d60da1b604082015260600190565b602081526147526020820183516001600160801b03169052565b6000602083015161476e60408401826001600160801b03169052565b5060408301516001600160801b03811660608401525060608301516001600160801b03811660808401525060808301516001600160801b03811660a08401525060a083015164ffffffffff811660c08401525060c083015164ffffffffff811660e08401525060e08301516101006147ee8185018364ffffffffff169052565b840151905061012061480a848201836001600160a01b03169052565b8401519050610140614826848201836001600160a01b03169052565b840151905061016061483b8482018315159052565b84015190506101806148508482018315159052565b84015190506101a061486484820183614614565b8401516101c0848101529050613b936101e08401826145a2565b6001600160801b038e811682528d811660208301528c811660408301528b811660608301528a16608082015264ffffffffff89811660a0830152881660c08201526101a0810164ffffffffff881660e08301526001600160a01b0387166101008301526001600160a01b038616610120830152841515610140830152831515610160830152614911610180830184614614565b9e9d5050505050505050505050505050565b604051601f8201601f1916810167ffffffffffffffff8111828210171561494c5761494c614a43565b604052919050565b600067ffffffffffffffff82111561496e5761496e614a43565b5060051b60200190565b6000821982111561498b5761498b614a2d565b500190565b6000826149ab57634e487b7160e01b81526012600452602481fd5b500490565b60008160001904831182151516156149ca576149ca614a2d565b500290565b6000828210156149e1576149e1614a2d565b500390565b60005b83811015614a015781810151838201526020016149e9565b83811115611ab85750506000910152565b6000600019821415614a2657614a26614a2d565b5060010190565b634e487b7160e01b600052601160045260246000fd5b634e487b7160e01b600052604160045260246000fd5b6001600160a01b0381168114610ae257600080fd5b8015158114610ae257600080fdfea264697066735822122018acd04fff6c9deeba5fe4a88599203f9b2667e030c45f88c656f4bdb1a37bcc64736f6c63430008040033",
  "linkReferences": {},
  "deployedLinkReferences": {}
}