{
  "_format": "hh-sol-artifact-1",
  "contractName": "ForwardEtherRouter",
  "sourceName": "contracts/forward/ForwardEtherRouter.sol",
  "abi": [
    {
      "inputs": [
        {
          "internalType": "address",
          "name": "_weth",
          "type": "address"
        }
      ],
      "stateMutability": "nonpayable",
      "type": "constructor"
    },
    {
      "inputs": [
        {
          "internalType": "address",
          "name": "_forward",
          "type": "address"
        },
        {
          "internalType": "uint256",
          "name": "_orderId",
          "type": "uint256"
        }
      ],
      "name": "cancelOrder",
      "outputs": [],
      "stateMutability": "nonpayable",
      "type": "function"
    },
    {
      "inputs": [
        {
          "internalType": "address",
          "name": "_forward1155",
          "type": "address"
        },
        {
          "internalType": "address",
          "name": "_creator",
          "type": "address"
        },
        {
          "internalType": "uint256[]",
          "name": "_ids",
          "type": "uint256[]"
        },
        {
          "internalType": "uint256[]",
          "name": "_amounts",
          "type": "uint256[]"
        },
        {
          "internalType": "uint256[3]",
          "name": "_times",
          "type": "uint256[3]"
        },
        {
          "internalType": "uint256[3]",
          "name": "_prices",
          "type": "uint256[3]"
        },
        {
          "internalType": "address[]",
          "name": "_takerWhiteList",
          "type": "address[]"
        },
        {
          "internalType": "bool",
          "name": "_deposit",
          "type": "bool"
        },
        {
          "internalType": "bool",
          "name": "_isSeller",
          "type": "bool"
        }
      ],
      "name": "createOrder1155For",
      "outputs": [],
      "stateMutability": "payable",
      "type": "function"
    },
    {
      "inputs": [
        {
          "internalType": "address",
          "name": "_forward20",
          "type": "address"
        },
        {
          "internalType": "address",
          "name": "_creator",
          "type": "address"
        },
        {
          "internalType": "uint256",
          "name": "_underlyingAmount",
          "type": "uint256"
        },
        {
          "internalType": "uint256[3]",
          "name": "_times",
          "type": "uint256[3]"
        },
        {
          "internalType": "uint256[3]",
          "name": "_prices",
          "type": "uint256[3]"
        },
        {
          "internalType": "address[]",
          "name": "_takerWhiteList",
          "type": "address[]"
        },
        {
          "internalType": "bool",
          "name": "_deposit",
          "type": "bool"
        },
        {
          "internalType": "bool",
          "name": "_isSeller",
          "type": "bool"
        }
      ],
      "name": "createOrder20For",
      "outputs": [],
      "stateMutability": "payable",
      "type": "function"
    },
    {
      "inputs": [
        {
          "internalType": "address",
          "name": "_forward721",
          "type": "address"
        },
        {
          "internalType": "address",
          "name": "_creator",
          "type": "address"
        },
        {
          "internalType": "uint256[]",
          "name": "_tokenIds",
          "type": "uint256[]"
        },
        {
          "internalType": "uint256[3]",
          "name": "_times",
          "type": "uint256[3]"
        },
        {
          "internalType": "uint256[3]",
          "name": "_prices",
          "type": "uint256[3]"
        },
        {
          "internalType": "address[]",
          "name": "_takerWhiteList",
          "type": "address[]"
        },
        {
          "internalType": "bool",
          "name": "_deposit",
          "type": "bool"
        },
        {
          "internalType": "bool",
          "name": "_isSeller",
          "type": "bool"
        }
      ],
      "name": "createOrder721For",
      "outputs": [],
      "stateMutability": "payable",
      "type": "function"
    },
    {
      "inputs": [
        {
          "internalType": "address",
          "name": "_forward",
          "type": "address"
        },
        {
          "internalType": "address",
          "name": "_deliverer",
          "type": "address"
        },
        {
          "internalType": "uint256",
          "name": "_orderId",
          "type": "uint256"
        }
      ],
      "name": "deliverFor",
      "outputs": [],
      "stateMutability": "payable",
      "type": "function"
    },
    {
      "inputs": [
        {
          "internalType": "address",
          "name": "_forward",
          "type": "address"
        },
        {
          "internalType": "uint256[]",
          "name": "_orderIds",
          "type": "uint256[]"
        }
      ],
      "name": "multiCancelOrder",
      "outputs": [],
      "stateMutability": "nonpayable",
      "type": "function"
    },
    {
      "inputs": [
        {
          "internalType": "address",
          "name": "_forward",
          "type": "address"
        },
        {
          "internalType": "address",
          "name": "_deliverer",
          "type": "address"
        },
        {
          "internalType": "uint256[]",
          "name": "_orderIds",
          "type": "uint256[]"
        }
      ],
      "name": "multiDeliverFor",
      "outputs": [],
      "stateMutability": "payable",
      "type": "function"
    },
    {
      "inputs": [
        {
          "internalType": "address",
          "name": "_forward",
          "type": "address"
        },
        {
          "internalType": "uint256[]",
          "name": "_orderIds",
          "type": "uint256[]"
        }
      ],
      "name": "multiSettle",
      "outputs": [],
      "stateMutability": "nonpayable",
      "type": "function"
    },
    {
      "inputs": [
        {
          "internalType": "address",
          "name": "_forward",
          "type": "address"
        },
        {
          "internalType": "address",
          "name": "_taker",
          "type": "address"
        },
        {
          "internalType": "uint256[]",
          "name": "_orderIds",
          "type": "uint256[]"
        }
      ],
      "name": "multiTakeOrderFor",
      "outputs": [],
      "stateMutability": "payable",
      "type": "function"
    },
    {
      "inputs": [
        {
          "internalType": "address",
          "name": "",
          "type": "address"
        },
        {
          "internalType": "address",
          "name": "",
          "type": "address"
        },
        {
          "internalType": "uint256[]",
          "name": "",
          "type": "uint256[]"
        },
        {
          "internalType": "uint256[]",
          "name": "",
          "type": "uint256[]"
        },
        {
          "internalType": "bytes",
          "name": "",
          "type": "bytes"
        }
      ],
      "name": "onERC1155BatchReceived",
      "outputs": [
        {
          "internalType": "bytes4",
          "name": "",
          "type": "bytes4"
        }
      ],
      "stateMutability": "nonpayable",
      "type": "function"
    },
    {
      "inputs": [
        {
          "internalType": "address",
          "name": "",
          "type": "address"
        },
        {
          "internalType": "address",
          "name": "",
          "type": "address"
        },
        {
          "internalType": "uint256",
          "name": "",
          "type": "uint256"
        },
        {
          "internalType": "uint256",
          "name": "",
          "type": "uint256"
        },
        {
          "internalType": "bytes",
          "name": "",
          "type": "bytes"
        }
      ],
      "name": "onERC1155Received",
      "outputs": [
        {
          "internalType": "bytes4",
          "name": "",
          "type": "bytes4"
        }
      ],
      "stateMutability": "nonpayable",
      "type": "function"
    },
    {
      "inputs": [
        {
          "internalType": "address",
          "name": "",
          "type": "address"
        },
        {
          "internalType": "address",
          "name": "",
          "type": "address"
        },
        {
          "internalType": "uint256",
          "name": "",
          "type": "uint256"
        },
        {
          "internalType": "bytes",
          "name": "",
          "type": "bytes"
        }
      ],
      "name": "onERC721Received",
      "outputs": [
        {
          "internalType": "bytes4",
          "name": "",
          "type": "bytes4"
        }
      ],
      "stateMutability": "nonpayable",
      "type": "function"
    },
    {
      "inputs": [
        {
          "internalType": "address",
          "name": "_forward",
          "type": "address"
        }
      ],
      "name": "ordersLength",
      "outputs": [
        {
          "internalType": "uint256",
          "name": "",
          "type": "uint256"
        }
      ],
      "stateMutability": "view",
      "type": "function"
    },
    {
      "inputs": [
        {
          "internalType": "address",
          "name": "_forward",
          "type": "address"
        },
        {
          "internalType": "uint256",
          "name": "_orderId",
          "type": "uint256"
        }
      ],
      "name": "settle",
      "outputs": [],
      "stateMutability": "nonpayable",
      "type": "function"
    },
    {
      "inputs": [
        {
          "internalType": "bytes4",
          "name": "interfaceId",
          "type": "bytes4"
        }
      ],
      "name": "supportsInterface",
      "outputs": [
        {
          "internalType": "bool",
          "name": "",
          "type": "bool"
        }
      ],
      "stateMutability": "view",
      "type": "function"
    },
    {
      "inputs": [
        {
          "internalType": "address",
          "name": "_forward",
          "type": "address"
        },
        {
          "internalType": "address",
          "name": "_taker",
          "type": "address"
        },
        {
          "internalType": "uint256",
          "name": "_orderId",
          "type": "uint256"
        }
      ],
      "name": "takeOrderFor",
      "outputs": [],
      "stateMutability": "payable",
      "type": "function"
    },
    {
      "inputs": [],
      "name": "weth",
      "outputs": [
        {
          "internalType": "contract IWETH",
          "name": "",
          "type": "address"
        }
      ],
      "stateMutability": "view",
      "type": "function"
    },
    {
      "stateMutability": "payable",
      "type": "receive"
    }
  ],
  "bytecode": "0x60806040523480156200001157600080fd5b5060405162003ac138038062003ac183398101604081905262000034916200005a565b600080546001600160a01b0319166001600160a01b03929092169190911790556200008a565b6000602082840312156200006c578081fd5b81516001600160a01b038116811462000083578182fd5b9392505050565b613a27806200009a6000396000f3fe6080604052600436106101025760003560e01c80636ce110ef11610095578063c44c84eb11610064578063c44c84eb146102c7578063c7323c68146102da578063e1f4747c146102fa578063f23a6e611461030d578063f57603a61461033957600080fd5b80636ce110ef1461026257806377f4e2d614610275578063bb7390e214610288578063bc197c811461029b57600080fd5b80632ad601c8116100d15780632ad601c8146101bc5780633fc8cef3146101ea5780635281ab98146102225780636a2061371461024257600080fd5b806301ffc9a71461010e578063150b7a021461014357806315afd409146101875780631ccaf8a9146101a957600080fd5b3661010957005b600080fd5b34801561011a57600080fd5b5061012e61012936600461342e565b61034c565b60405190151581526020015b60405180910390f35b34801561014f57600080fd5b5061016e61015e3660046132cb565b630a85bd0160e11b949350505050565b6040516001600160e01b0319909116815260200161013a565b34801561019357600080fd5b506101a76101a23660046133e7565b610383565b005b6101a76101b7366004613208565b6103e1565b3480156101c857600080fd5b506101dc6101d7366004612f09565b6106f6565b60405190815260200161013a565b3480156101f657600080fd5b5060005461020a906001600160a01b031681565b6040516001600160a01b03909116815260200161013a565b34801561022e57600080fd5b506101a761023d36600461339a565b610769565b34801561024e57600080fd5b506101a761025d3660046133e7565b6107b8565b6101a7610270366004613208565b6107e5565b6101a7610283366004612f41565b610ba7565b6101a7610296366004612f41565b610da1565b3480156102a757600080fd5b5061016e6102b636600461315f565b63bc197c8160e01b95945050505050565b6101a76102d5366004612fa0565b61104d565b3480156102e657600080fd5b506101a76102f536600461339a565b611580565b6101a7610308366004613073565b6115cf565b34801561031957600080fd5b5061016e610328366004613334565b63f23a6e6160e01b95945050505050565b6101a7610347366004613248565b611c05565b60006001600160e01b03198216630271189760e51b148061037d57506301ffc9a760e01b6001600160e01b03198316145b92915050565b6040516211bf0560eb1b8152600481018290526001600160a01b03831690638df82800906024015b600060405180830381600087803b1580156103c557600080fd5b505af11580156103d9573d6000803e3d6000fd5b505050505050565b60008054906101000a90046001600160a01b03166001600160a01b0316836001600160a01b0316638f76691a6040518163ffffffff1660e01b815260040160206040518083038186803b15801561043757600080fd5b505afa15801561044b573d6000803e3d6000fd5b505050506040513d601f19601f8201168201806040525081019061046f9190612f25565b6001600160a01b03161461049e5760405162461bcd60e51b8152600401610495906138bd565b60405180910390fd5b341561050c5760008054906101000a90046001600160a01b03166001600160a01b031663d0e30db0346040518263ffffffff1660e01b81526004016000604051808303818588803b1580156104f257600080fd5b505af1158015610506573d6000803e3d6000fd5b50505050505b604051630f1f8a7b60e31b81526001600160a01b038416906378fc53d89061053a90859085906004016137e3565b600060405180830381600087803b15801561055457600080fd5b505af1158015610568573d6000803e3d6000fd5b5050600080546040516370a0823160e01b81523060048201529193506001600160a01b031691506370a08231906024015b60206040518083038186803b1580156105b157600080fd5b505afa1580156105c5573d6000803e3d6000fd5b505050506040513d601f19601f820116820180604052508101906105e991906135a5565b11156106f1576000546040516370a0823160e01b81523060048201526001600160a01b0390911690632e1a7d4d9082906370a082319060240160206040518083038186803b15801561063a57600080fd5b505afa15801561064e573d6000803e3d6000fd5b505050506040513d601f19601f8201168201806040525081019061067291906135a5565b6040518263ffffffff1660e01b815260040161069091815260200190565b600060405180830381600087803b1580156106aa57600080fd5b505af11580156106be573d6000803e3d6000fd5b50506040513392504780156108fc029250906000818181858888f193505050501580156106ef573d6000803e3d6000fd5b505b505050565b6000816001600160a01b031663be8acd3f6040518163ffffffff1660e01b815260040160206040518083038186803b15801561073157600080fd5b505afa158015610745573d6000803e3d6000fd5b505050506040513d601f19601f8201168201806040525081019061037d91906135a5565b60005b81518110156106f1576107a68383838151811061079957634e487b7160e01b600052603260045260246000fd5b6020026020010151610383565b806107b08161398e565b91505061076c565b60405163514fcac760e01b8152600481018290526001600160a01b0383169063514fcac7906024016103ab565b60008054906101000a90046001600160a01b03166001600160a01b0316836001600160a01b0316638f76691a6040518163ffffffff1660e01b815260040160206040518083038186803b15801561083b57600080fd5b505afa15801561084f573d6000803e3d6000fd5b505050506040513d601f19601f820116820180604052508101906108739190612f25565b6001600160a01b0316146108995760405162461bcd60e51b8152600401610495906138bd565b34156109075760008054906101000a90046001600160a01b03166001600160a01b031663d0e30db0346040518263ffffffff1660e01b81526004016000604051808303818588803b1580156108ed57600080fd5b505af1158015610901573d6000803e3d6000fd5b50505050505b60405163d09ef24160e01b8152600481018290526000906001600160a01b0385169063d09ef2419060240160006040518083038186803b15801561094a57600080fd5b505afa15801561095e573d6000803e3d6000fd5b505050506040513d6000823e601f3d908101601f191682016040526109869190810190613456565b90508061010001516001600160a01b0316836001600160a01b0316146109be5760405162461bcd60e51b815260040161049590613874565b604051630383730960e41b81526001600160a01b038516906338373090906109ec90869086906004016137e3565b600060405180830381600087803b158015610a0657600080fd5b505af1158015610a1a573d6000803e3d6000fd5b5050600080546040516370a0823160e01b81523060048201529193506001600160a01b031691506370a082319060240160206040518083038186803b158015610a6257600080fd5b505afa158015610a76573d6000803e3d6000fd5b505050506040513d601f19601f82011682018060405250810190610a9a91906135a5565b11156106ef576000546040516370a0823160e01b81523060048201526001600160a01b0390911690632e1a7d4d9082906370a082319060240160206040518083038186803b158015610aeb57600080fd5b505afa158015610aff573d6000803e3d6000fd5b505050506040513d601f19601f82011682018060405250810190610b2391906135a5565b6040518263ffffffff1660e01b8152600401610b4191815260200190565b600060405180830381600087803b158015610b5b57600080fd5b505af1158015610b6f573d6000803e3d6000fd5b50506040513392504780156108fc029250906000818181858888f19350505050158015610ba0573d6000803e3d6000fd5b5050505050565b60008054906101000a90046001600160a01b03166001600160a01b0316836001600160a01b0316638f76691a6040518163ffffffff1660e01b815260040160206040518083038186803b158015610bfd57600080fd5b505afa158015610c11573d6000803e3d6000fd5b505050506040513d601f19601f82011682018060405250810190610c359190612f25565b6001600160a01b031614610c5b5760405162461bcd60e51b8152600401610495906138bd565b3415610cc95760008054906101000a90046001600160a01b03166001600160a01b031663d0e30db0346040518263ffffffff1660e01b81526004016000604051808303818588803b158015610caf57600080fd5b505af1158015610cc3573d6000803e3d6000fd5b50505050505b60005b8151811015610d6f57836001600160a01b03166378fc53d884848481518110610d0557634e487b7160e01b600052603260045260246000fd5b60200260200101516040518363ffffffff1660e01b8152600401610d2a9291906137e3565b600060405180830381600087803b158015610d4457600080fd5b505af1158015610d58573d6000803e3d6000fd5b505050508080610d679061398e565b915050610ccc565b50600080546040516370a0823160e01b81523060048201526001600160a01b03909116906370a0823190602401610599565b60008054906101000a90046001600160a01b03166001600160a01b0316836001600160a01b0316638f76691a6040518163ffffffff1660e01b815260040160206040518083038186803b158015610df757600080fd5b505afa158015610e0b573d6000803e3d6000fd5b505050506040513d601f19601f82011682018060405250810190610e2f9190612f25565b6001600160a01b031614610e555760405162461bcd60e51b8152600401610495906138bd565b3415610ec35760008054906101000a90046001600160a01b03166001600160a01b031663d0e30db0346040518263ffffffff1660e01b81526004016000604051808303818588803b158015610ea957600080fd5b505af1158015610ebd573d6000803e3d6000fd5b50505050505b60005b8151811015610d6f576000846001600160a01b031663d09ef241848481518110610f0057634e487b7160e01b600052603260045260246000fd5b60200260200101516040518263ffffffff1660e01b8152600401610f2691815260200190565b60006040518083038186803b158015610f3e57600080fd5b505afa158015610f52573d6000803e3d6000fd5b505050506040513d6000823e601f3d908101601f19168201604052610f7a9190810190613456565b90508061010001516001600160a01b0316846001600160a01b031614610fb25760405162461bcd60e51b815260040161049590613874565b846001600160a01b0316633837309085858581518110610fe257634e487b7160e01b600052603260045260246000fd5b60200260200101516040518363ffffffff1660e01b81526004016110079291906137e3565b600060405180830381600087803b15801561102157600080fd5b505af1158015611035573d6000803e3d6000fd5b505050505080806110459061398e565b915050610ec6565b60008054906101000a90046001600160a01b03166001600160a01b0316886001600160a01b0316638f76691a6040518163ffffffff1660e01b815260040160206040518083038186803b1580156110a357600080fd5b505afa1580156110b7573d6000803e3d6000fd5b505050506040513d601f19601f820116820180604052508101906110db9190612f25565b6001600160a01b0316146111015760405162461bcd60e51b8152600401610495906138bd565b60008054906101000a90046001600160a01b03166001600160a01b031663d0e30db0346040518263ffffffff1660e01b81526004016000604051808303818588803b15801561114f57600080fd5b505af1158015611163573d6000803e3d6000fd5b505060008054604051636eb1769f60e11b81523060048201526001600160a01b038e811660248301529295509116925063dd62ed3e915060440160206040518083038186803b1580156111b557600080fd5b505afa1580156111c9573d6000803e3d6000fd5b505050506040513d601f19601f820116820180604052508101906111ed91906135a5565b90508061127c5760005460405163095ea7b360e01b81526001600160a01b039091169063095ea7b390611228908c90600019906004016137e3565b602060405180830381600087803b15801561124257600080fd5b505af1158015611256573d6000803e3d6000fd5b505050506040513d601f19601f8201168201806040525081019061127a9190613412565b505b8280156112865750815b15611387576000896001600160a01b0316631f1fcd516040518163ffffffff1660e01b815260040160206040518083038186803b1580156112c657600080fd5b505afa1580156112da573d6000803e3d6000fd5b505050506040513d601f19601f820116820180604052508101906112fe9190612f25565b905060005b88518110156113845761133f8233308c858151811061133257634e487b7160e01b600052603260045260246000fd5b6020026020010151612011565b61137282308d8c858151811061136557634e487b7160e01b600052603260045260246000fd5b602002602001015161233d565b8061137c8161398e565b915050611303565b50505b604051636476980b60e01b81526001600160a01b038a1690636476980b906113bf908b908b908b908b908b908b908b906004016136ea565b600060405180830381600087803b1580156113d957600080fd5b505af11580156113ed573d6000803e3d6000fd5b5050600080546040516370a0823160e01b81523060048201529193506001600160a01b031691506370a082319060240160206040518083038186803b15801561143557600080fd5b505afa158015611449573d6000803e3d6000fd5b505050506040513d601f19601f8201168201806040525081019061146d91906135a5565b1115611575576000546040516370a0823160e01b81523060048201526001600160a01b0390911690632e1a7d4d9082906370a082319060240160206040518083038186803b1580156114be57600080fd5b505afa1580156114d2573d6000803e3d6000fd5b505050506040513d601f19601f820116820180604052508101906114f691906135a5565b6040518263ffffffff1660e01b815260040161151491815260200190565b600060405180830381600087803b15801561152e57600080fd5b505af1158015611542573d6000803e3d6000fd5b50506040513392504780156108fc029250906000818181858888f19350505050158015611573573d6000803e3d6000fd5b505b505050505050505050565b60005b81518110156106f1576115bd838383815181106115b057634e487b7160e01b600052603260045260246000fd5b60200260200101516107b8565b806115c78161398e565b915050611583565b60008054906101000a90046001600160a01b03166001600160a01b0316896001600160a01b0316638f76691a6040518163ffffffff1660e01b815260040160206040518083038186803b15801561162557600080fd5b505afa158015611639573d6000803e3d6000fd5b505050506040513d601f19601f8201168201806040525081019061165d9190612f25565b6001600160a01b0316146116835760405162461bcd60e51b8152600401610495906138bd565b85518751146116be5760405162461bcd60e51b8152602060048201526007602482015266042d8cadccee8d60cb1b6044820152606401610495565b60008054906101000a90046001600160a01b03166001600160a01b031663d0e30db0346040518263ffffffff1660e01b81526004016000604051808303818588803b15801561170c57600080fd5b505af1158015611720573d6000803e3d6000fd5b505060008054604051636eb1769f60e11b81523060048201526001600160a01b038f811660248301529295509116925063dd62ed3e915060440160206040518083038186803b15801561177257600080fd5b505afa158015611786573d6000803e3d6000fd5b505050506040513d601f19601f820116820180604052508101906117aa91906135a5565b9050806118395760005460405163095ea7b360e01b81526001600160a01b039091169063095ea7b3906117e5908d90600019906004016137e3565b602060405180830381600087803b1580156117ff57600080fd5b505af1158015611813573d6000803e3d6000fd5b505050506040513d601f19601f820116820180604052508101906118379190613412565b505b8280156118435750815b15611a0a5760008a6001600160a01b0316631f1fcd516040518163ffffffff1660e01b815260040160206040518083038186803b15801561188357600080fd5b505afa158015611897573d6000803e3d6000fd5b505050506040513d601f19601f820116820180604052508101906118bb9190612f25565b604051631759616b60e11b81529091506001600160a01b03821690632eb2c2d6906118f090339030908e908e9060040161366e565b600060405180830381600087803b15801561190a57600080fd5b505af115801561191e573d6000803e3d6000fd5b505060405163e985e9c560e01b81523060048201526001600160a01b038e811660248301528416925063e985e9c5915060440160206040518083038186803b15801561196957600080fd5b505afa15801561197d573d6000803e3d6000fd5b505050506040513d601f19601f820116820180604052508101906119a19190613412565b611a085760405163a22cb46560e01b81526001600160a01b038c811660048301526001602483015282169063a22cb46590604401600060405180830381600087803b1580156119ef57600080fd5b505af1158015611a03573d6000803e3d6000fd5b505050505b505b6040516323efe40560e11b81526001600160a01b038b16906347dfc80a90611a44908c908c908c908c908c908c908c908c9060040161375c565b600060405180830381600087803b158015611a5e57600080fd5b505af1158015611a72573d6000803e3d6000fd5b5050600080546040516370a0823160e01b81523060048201529193506001600160a01b031691506370a082319060240160206040518083038186803b158015611aba57600080fd5b505afa158015611ace573d6000803e3d6000fd5b505050506040513d601f19601f82011682018060405250810190611af291906135a5565b1115611573576000546040516370a0823160e01b81523060048201526001600160a01b0390911690632e1a7d4d9082906370a082319060240160206040518083038186803b158015611b4357600080fd5b505afa158015611b57573d6000803e3d6000fd5b505050506040513d601f19601f82011682018060405250810190611b7b91906135a5565b6040518263ffffffff1660e01b8152600401611b9991815260200190565b600060405180830381600087803b158015611bb357600080fd5b505af1158015611bc7573d6000803e3d6000fd5b50506040513392504780156108fc029250906000818181858888f19350505050158015611bf8573d6000803e3d6000fd5b5050505050505050505050565b60008054906101000a90046001600160a01b03166001600160a01b0316886001600160a01b0316638f76691a6040518163ffffffff1660e01b815260040160206040518083038186803b158015611c5b57600080fd5b505afa158015611c6f573d6000803e3d6000fd5b505050506040513d601f19601f82011682018060405250810190611c939190612f25565b6001600160a01b031614611cb95760405162461bcd60e51b8152600401610495906138bd565b60008054906101000a90046001600160a01b03166001600160a01b031663d0e30db0346040518263ffffffff1660e01b81526004016000604051808303818588803b158015611d0757600080fd5b505af1158015611d1b573d6000803e3d6000fd5b505060008054604051636eb1769f60e11b81523060048201526001600160a01b038e811660248301529295509116925063dd62ed3e915060440160206040518083038186803b158015611d6d57600080fd5b505afa158015611d81573d6000803e3d6000fd5b505050506040513d601f19601f82011682018060405250810190611da591906135a5565b905080611e345760005460405163095ea7b360e01b81526001600160a01b039091169063095ea7b390611de0908c90600019906004016137e3565b602060405180830381600087803b158015611dfa57600080fd5b505af1158015611e0e573d6000803e3d6000fd5b505050506040513d601f19601f82011682018060405250810190611e329190613412565b505b828015611e3e5750815b15611fd9576000896001600160a01b0316631f1fcd516040518163ffffffff1660e01b815260040160206040518083038186803b158015611e7e57600080fd5b505afa158015611e92573d6000803e3d6000fd5b505050506040513d601f19601f82011682018060405250810190611eb69190612f25565b9050611ecd6001600160a01b03821633308b6129de565b604051636eb1769f60e11b81523060048201526001600160a01b038b8116602483015282169063dd62ed3e9060440160206040518083038186803b158015611f1457600080fd5b505afa158015611f28573d6000803e3d6000fd5b505050506040513d601f19601f82011682018060405250810190611f4c91906135a5565b915081611fd75760405163095ea7b360e01b81526001600160a01b0382169063095ea7b390611f83908d90600019906004016137e3565b602060405180830381600087803b158015611f9d57600080fd5b505af1158015611fb1573d6000803e3d6000fd5b505050506040513d601f19601f82011682018060405250810190611fd59190613412565b505b505b6040516329ffc22560e21b81526001600160a01b038a169063a7ff0894906113bf908b908b908b908b908b908b908b906004016137fc565b60606001600160a01b0385167306012c8cf97bead5deae237070f9587f8e7a266d1415612085576323b872dd848484604051602401612052939291906136c6565b6040516020818303038152906040529060e01b6020820180516001600160e01b03838183161783525050505090506122bd565b6001600160a01b03851673d03b517dfa5d14c3c7642d974ddc1b8b2c8e2d18141561220e57600080866001600160a01b03166358178168856040516024016120cf91815260200190565b6040516020818303038152906040529060e01b6020820180516001600160e01b0383818316178352505050506040516121089190613652565b600060405180830381855afa9150503d8060008114612143576040519150601f19603f3d011682016040523d82523d6000602084013e612148565b606091505b50915091506000818060200190518101906121639190612f25565b90508280156121835750866001600160a01b0316816001600160a01b0316145b6121c05760405162461bcd60e51b815260206004820152600e60248201526d383ab636103737ba1037bbb732b960911b6044820152606401610495565b638264fe98856040516024016121d891815260200190565b6040516020818303038152906040529060e01b6020820180516001600160e01b03838183161783525050505093505050506122bd565b6001600160a01b0385167379986af15539de2db9a5086382daeda917a9cf0c148061225557506001600160a01b038516732a46f2ffd99e19a89476e2f62270e0a35bbf0756145b15612274576323b872dd848484604051602401612052939291906136c6565b6342842e0e84848460405160240161228e939291906136c6565b6040516020818303038152906040529060e01b6020820180516001600160e01b03838183161783525050505090505b600080866001600160a01b0316836040516122d89190613652565b6000604051808303816000865af19150503d8060008114612315576040519150601f19603f3d011682016040523d82523d6000602084013e61231a565b606091505b509150915081801561232b57508051155b61233457600080fd5b50505050505050565b6001600160a01b0384167306012c8cf97bead5deae237070f9587f8e7a266d141561245b57600080856001600160a01b031663095ea7b385856040516024016123879291906137e3565b6040516020818303038152906040529060e01b6020820180516001600160e01b0383818316178352505050506040516123c09190613652565b6000604051808303816000865af19150503d80600081146123fd576040519150601f19603f3d011682016040523d82523d6000602084013e612402565b606091505b509150915081801561241357508051155b6124545760405162461bcd60e51b8152602060048201526012602482015271185c1c1c9bdd99481ada5d1d1e4819985a5b60721b6044820152606401610495565b50506106ef565b6001600160a01b03841673d03b517dfa5d14c3c7642d974ddc1b8b2c8e2d1814156126a257600080856001600160a01b03166358178168846040516024016124a591815260200190565b6040516020818303038152906040529060e01b6020820180516001600160e01b0383818316178352505050506040516124de9190613652565b600060405180830381855afa9150503d8060008114612519576040519150601f19603f3d011682016040523d82523d6000602084013e61251e565b606091505b50915091506000818060200190518101906125399190612f25565b90508280156125595750856001600160a01b0316816001600160a01b0316145b61259e5760405162461bcd60e51b815260206004820152601660248201527530b8383937bb3290383ab735903737ba1037bbb732b960511b6044820152606401610495565b60408051602481018690526000604482018190526001600160a01b0388811660648085019190915284518085039091018152608490930184526020830180516001600160e01b031663bf31196f60e01b179052925190928392908b16916126059190613652565b6000604051808303816000865af19150503d8060008114612642576040519150601f19603f3d011682016040523d82523d6000602084013e612647565b606091505b509150915081801561265857508051155b6126985760405162461bcd60e51b8152602060048201526011602482015270185c1c1c9bdd99481c1d5b9ac819985a5b607a1b6044820152606401610495565b50505050506106ef565b6001600160a01b0384167379986af15539de2db9a5086382daeda917a9cf0c14806126e957506001600160a01b038416732a46f2ffd99e19a89476e2f62270e0a35bbf0756145b156127e157600080856001600160a01b031663095ea7b385856040516024016127139291906137e3565b6040516020818303038152906040529060e01b6020820180516001600160e01b03838183161783525050505060405161274c9190613652565b6000604051808303816000865af19150503d8060008114612789576040519150601f19603f3d011682016040523d82523d6000602084013e61278e565b606091505b509150915081801561279f57508051155b6124545760405162461bcd60e51b8152602060048201526013602482015272185c1c1c9bdd99481d9bde195b1cc819985a5b606a1b6044820152606401610495565b604080516001600160a01b03858116602483015284811660448084019190915283518084039091018152606490920183526020820180516001600160e01b031663e985e9c560e01b17905291516000928392908816916128419190613652565b600060405180830381855afa9150503d806000811461287c576040519150601f19603f3d011682016040523d82523d6000602084013e612881565b606091505b509150915060008180602001905181019061289c9190613412565b9050826128e25760405162461bcd60e51b81526020600482015260146024820152731a5cd05c1c9bdd9959119bdc905b1b0819985a5b60621b6044820152606401610495565b8061233457604080516001600160a01b038781166024830152600160448084019190915283518084039091018152606490920183526020820180516001600160e01b031663a22cb46560e01b17905291516000928392908b16916129469190613652565b6000604051808303816000865af19150503d8060008114612983576040519150601f19603f3d011682016040523d82523d6000602084013e612988565b606091505b509150915081801561299957508051155b6115755760405162461bcd60e51b81526020600482015260166024820152751cd95d105c1c1c9bdd985b119bdc905b1b0819985a5b60521b6044820152606401610495565b6106ef846323b872dd60e01b8585856040516024016129ff939291906136c6565b60408051601f198184030181529190526020810180516001600160e01b03166001600160e01b0319909316929092179091526000612a86826040518060400160405280602081526020017f5361666545524332303a206c6f772d6c6576656c2063616c6c206661696c6564815250856001600160a01b0316612b039092919063ffffffff16565b8051909150156106f15780806020019051810190612aa49190613412565b6106f15760405162461bcd60e51b815260206004820152602a60248201527f5361666545524332303a204552433230206f7065726174696f6e20646964206e6044820152691bdd081cdd58d8d9595960b21b6064820152608401610495565b6060612b128484600085612b1c565b90505b9392505050565b606082471015612b7d5760405162461bcd60e51b815260206004820152602660248201527f416464726573733a20696e73756666696369656e742062616c616e636520666f6044820152651c8818d85b1b60d21b6064820152608401610495565b843b612bcb5760405162461bcd60e51b815260206004820152601d60248201527f416464726573733a2063616c6c20746f206e6f6e2d636f6e74726163740000006044820152606401610495565b600080866001600160a01b03168587604051612be79190613652565b60006040518083038185875af1925050503d8060008114612c24576040519150601f19603f3d011682016040523d82523d6000602084013e612c29565b606091505b5091509150612c39828286612c44565b979650505050505050565b60608315612c53575081612b15565b825115612c635782518084602001fd5b8160405162461bcd60e51b81526004016104959190613841565b8035612c88816139cb565b919050565b8051612c88816139cb565b600082601f830112612ca8578081fd5b81356020612cbd612cb88361393f565b61390f565b80838252828201915082860187848660051b8901011115612cdc578586fd5b855b85811015612d03578135612cf1816139cb565b84529284019290840190600101612cde565b5090979650505050505050565b600082601f830112612d20578081fd5b81516020612d30612cb88361393f565b80838252828201915082860187848660051b8901011115612d4f578586fd5b855b85811015612d03578151612d64816139cb565b84529284019290840190600101612d51565b600082601f830112612d86578081fd5b604051606081018181106001600160401b0382111715612da857612da86139b5565b604052808360608101861015612dbc578384fd5b835b6003811015612ddd578135835260209283019290910190600101612dbe565b509195945050505050565b600082601f830112612df8578081fd5b81356020612e08612cb88361393f565b80838252828201915082860187848660051b8901011115612e27578586fd5b855b85811015612d0357813584529284019290840190600101612e29565b8035612c88816139e3565b8051612c88816139e3565b600082601f830112612e6b578081fd5b81356001600160401b03811115612e8457612e846139b5565b612e97601f8201601f191660200161390f565b818152846020838601011115612eab578283fd5b816020850160208301379081016020019190915292915050565b805160088110612c8857600080fd5b80516fffffffffffffffffffffffffffffffff81168114612c8857600080fd5b805164ffffffffff81168114612c8857600080fd5b600060208284031215612f1a578081fd5b8135612b15816139cb565b600060208284031215612f36578081fd5b8151612b15816139cb565b600080600060608486031215612f55578182fd5b8335612f60816139cb565b92506020840135612f70816139cb565b915060408401356001600160401b03811115612f8a578182fd5b612f9686828701612de8565b9150509250925092565b600080600080600080600080610180898b031215612fbc578586fd5b8835612fc7816139cb565b97506020890135612fd7816139cb565b965060408901356001600160401b0380821115612ff2578788fd5b612ffe8c838d01612de8565b975061300d8c60608d01612d76565b965061301c8c60c08d01612d76565b95506101208b0135915080821115613032578485fd5b5061303f8b828c01612c98565b935050610140890135613051816139e3565b9150610160890135613062816139e3565b809150509295985092959890939650565b60008060008060008060008060006101a08a8c031215613091578283fd5b61309a8a612c7d565b98506130a860208b01612c7d565b975060408a01356001600160401b03808211156130c3578485fd5b6130cf8d838e01612de8565b985060608c01359150808211156130e4578485fd5b6130f08d838e01612de8565b97506130ff8d60808e01612d76565b965061310e8d60e08e01612d76565b95506101408c0135915080821115613124578485fd5b506131318c828d01612c98565b9350506131416101608b01612e45565b91506131506101808b01612e45565b90509295985092959850929598565b600080600080600060a08688031215613176578283fd5b8535613181816139cb565b94506020860135613191816139cb565b935060408601356001600160401b03808211156131ac578485fd5b6131b889838a01612de8565b945060608801359150808211156131cd578283fd5b6131d989838a01612de8565b935060808801359150808211156131ee578283fd5b506131fb88828901612e5b565b9150509295509295909350565b60008060006060848603121561321c578081fd5b8335613227816139cb565b92506020840135613237816139cb565b929592945050506040919091013590565b600080600080600080600080610180898b031215613264578182fd5b883561326f816139cb565b9750602089013561327f816139cb565b9650604089013595506132958a60608b01612d76565b94506132a48a60c08b01612d76565b93506101208901356001600160401b038111156132bf578283fd5b61303f8b828c01612c98565b600080600080608085870312156132e0578182fd5b84356132eb816139cb565b935060208501356132fb816139cb565b92506040850135915060608501356001600160401b0381111561331c578182fd5b61332887828801612e5b565b91505092959194509250565b600080600080600060a0868803121561334b578283fd5b8535613356816139cb565b94506020860135613366816139cb565b9350604086013592506060860135915060808601356001600160401b0381111561338e578182fd5b6131fb88828901612e5b565b600080604083850312156133ac578182fd5b82356133b7816139cb565b915060208301356001600160401b038111156133d1578182fd5b6133dd85828601612de8565b9150509250929050565b600080604083850312156133f9578182fd5b8235613404816139cb565b946020939093013593505050565b600060208284031215613423578081fd5b8151612b15816139e3565b60006020828403121561343f578081fd5b81356001600160e01b031981168114612b15578182fd5b600060208284031215613467578081fd5b81516001600160401b038082111561347d578283fd5b908301906101c08286031215613491578283fd5b6134996138e6565b6134a283612ed4565b81526134b060208401612ed4565b60208201526134c160408401612ed4565b60408201526134d260608401612ed4565b60608201526134e360808401612ed4565b60808201526134f460a08401612ef4565b60a082015261350560c08401612ef4565b60c082015261351660e08401612ef4565b60e0820152610100613529818501612c8d565b9082015261012061353b848201612c8d565b9082015261014061354d848201612e50565b9082015261016061355f848201612e50565b90820152610180613571848201612ec5565b908201526101a08381015183811115613588578586fd5b61359488828701612d10565b918301919091525095945050505050565b6000602082840312156135b6578081fd5b5051919050565b6000815180845260208085019450808401835b838110156135f55781516001600160a01b0316875295820195908201906001016135d0565b509495945050505050565b8060005b60038110156106ef578151845260209384019390910190600101613604565b6000815180845260208085019450808401835b838110156135f557815187529582019590820190600101613636565b60008251613664818460208701613962565b9190910192915050565b6001600160a01b0385811682528416602082015260a06040820181905260009061369a90830185613623565b82810360608401526136ac8185613623565b838103608090940193909352508152602001949350505050565b6001600160a01b039384168152919092166020820152604081019190915260600190565b6001600160a01b03881681526101606020820181905260009061370f8382018a613623565b905061371e6040840189613600565b61372b60a0840188613600565b82810361010084015261373e81876135bd565b94151561012084015250509015156101409091015295945050505050565b6001600160a01b0389168152610180602082018190526000906137818382018b613623565b90508281036040840152613795818a613623565b90506137a46060840189613600565b6137b160c0840188613600565b8281036101208401526137c481876135bd565b9415156101408401525050901515610160909101529695505050505050565b6001600160a01b03929092168252602082015260400190565b6001600160a01b03881681526020810187905260006101606138216040840189613600565b61382e60a0840188613600565b8061010084015261373e818401876135bd565b6020815260008251806020840152613860816040850160208701613962565b601f01601f19169190910160400192915050565b60208082526029908201527f73656c6c65722063616e20696e746572616374207769746820666f7277617264604082015268206469726563746c7960b81b606082015260800190565b6020808252600f908201526e0dac2e4ced2dc40dcdee840eecae8d608b1b604082015260600190565b6040516101c081016001600160401b0381118282101715613909576139096139b5565b60405290565b604051601f8201601f191681016001600160401b0381118282101715613937576139376139b5565b604052919050565b60006001600160401b03821115613958576139586139b5565b5060051b60200190565b60005b8381101561397d578181015183820152602001613965565b838111156106ef5750506000910152565b60006000198214156139ae57634e487b7160e01b81526011600452602481fd5b5060010190565b634e487b7160e01b600052604160045260246000fd5b6001600160a01b03811681146139e057600080fd5b50565b80151581146139e057600080fdfea2646970667358221220e0882d09f58f57da7d13a12ab1f1b0a46d643acab10552d1dfe4e228b75d8db464736f6c63430008040033",
  "linkReferences": {},
  "deployedLinkReferences": {}
}