{
  "_format": "hh-sol-artifact-1",
  "contractName": "ForwardVaultUpgradeable",
  "sourceName": "contracts/vault/ForwardVaultUpgradeable.sol",
  "abi": [
    {
      "inputs": [],
      "stateMutability": "nonpayable",
      "type": "constructor"
    },
    {
      "anonymous": false,
      "inputs": [
        {
          "indexed": true,
          "internalType": "address",
          "name": "owner",
          "type": "address"
        },
        {
          "indexed": true,
          "internalType": "address",
          "name": "spender",
          "type": "address"
        },
        {
          "indexed": false,
          "internalType": "uint256",
          "name": "value",
          "type": "uint256"
        }
      ],
      "name": "Approval",
      "type": "event"
    },
    {
      "anonymous": false,
      "inputs": [
        {
          "indexed": true,
          "internalType": "address",
          "name": "from",
          "type": "address"
        },
        {
          "indexed": true,
          "internalType": "address",
          "name": "to",
          "type": "address"
        },
        {
          "indexed": false,
          "internalType": "uint256",
          "name": "value",
          "type": "uint256"
        }
      ],
      "name": "Transfer",
      "type": "event"
    },
    {
      "inputs": [
        {
          "internalType": "address",
          "name": "_want",
          "type": "address"
        },
        {
          "internalType": "address",
          "name": "_yVault",
          "type": "address"
        },
        {
          "internalType": "address",
          "name": "_governance",
          "type": "address"
        },
        {
          "internalType": "uint256",
          "name": "_min",
          "type": "uint256"
        },
        {
          "internalType": "uint256",
          "name": "_tolerance",
          "type": "uint256"
        }
      ],
      "name": "__ForwardVaultUpgradeable_init",
      "outputs": [],
      "stateMutability": "nonpayable",
      "type": "function"
    },
    {
      "inputs": [
        {
          "internalType": "address",
          "name": "owner",
          "type": "address"
        },
        {
          "internalType": "address",
          "name": "spender",
          "type": "address"
        }
      ],
      "name": "allowance",
      "outputs": [
        {
          "internalType": "uint256",
          "name": "",
          "type": "uint256"
        }
      ],
      "stateMutability": "view",
      "type": "function"
    },
    {
      "inputs": [
        {
          "internalType": "address",
          "name": "spender",
          "type": "address"
        },
        {
          "internalType": "uint256",
          "name": "amount",
          "type": "uint256"
        }
      ],
      "name": "approve",
      "outputs": [
        {
          "internalType": "bool",
          "name": "",
          "type": "bool"
        }
      ],
      "stateMutability": "nonpayable",
      "type": "function"
    },
    {
      "inputs": [],
      "name": "balance",
      "outputs": [
        {
          "internalType": "uint256",
          "name": "",
          "type": "uint256"
        }
      ],
      "stateMutability": "view",
      "type": "function"
    },
    {
      "inputs": [
        {
          "internalType": "address",
          "name": "account",
          "type": "address"
        }
      ],
      "name": "balanceOf",
      "outputs": [
        {
          "internalType": "uint256",
          "name": "",
          "type": "uint256"
        }
      ],
      "stateMutability": "view",
      "type": "function"
    },
    {
      "inputs": [],
      "name": "balanceSavingsInYVault",
      "outputs": [
        {
          "internalType": "uint256",
          "name": "",
          "type": "uint256"
        }
      ],
      "stateMutability": "view",
      "type": "function"
    },
    {
      "inputs": [],
      "name": "decimals",
      "outputs": [
        {
          "internalType": "uint8",
          "name": "",
          "type": "uint8"
        }
      ],
      "stateMutability": "view",
      "type": "function"
    },
    {
      "inputs": [
        {
          "internalType": "address",
          "name": "spender",
          "type": "address"
        },
        {
          "internalType": "uint256",
          "name": "subtractedValue",
          "type": "uint256"
        }
      ],
      "name": "decreaseAllowance",
      "outputs": [
        {
          "internalType": "bool",
          "name": "",
          "type": "bool"
        }
      ],
      "stateMutability": "nonpayable",
      "type": "function"
    },
    {
      "inputs": [
        {
          "internalType": "uint256",
          "name": "_amount",
          "type": "uint256"
        }
      ],
      "name": "deposit",
      "outputs": [
        {
          "internalType": "uint256",
          "name": "",
          "type": "uint256"
        }
      ],
      "stateMutability": "nonpayable",
      "type": "function"
    },
    {
      "inputs": [],
      "name": "depositAll",
      "outputs": [
        {
          "internalType": "uint256",
          "name": "",
          "type": "uint256"
        }
      ],
      "stateMutability": "nonpayable",
      "type": "function"
    },
    {
      "inputs": [],
      "name": "getPricePerFullShare",
      "outputs": [
        {
          "internalType": "uint256",
          "name": "",
          "type": "uint256"
        }
      ],
      "stateMutability": "view",
      "type": "function"
    },
    {
      "inputs": [],
      "name": "governance",
      "outputs": [
        {
          "internalType": "address",
          "name": "",
          "type": "address"
        }
      ],
      "stateMutability": "view",
      "type": "function"
    },
    {
      "inputs": [
        {
          "internalType": "address",
          "name": "spender",
          "type": "address"
        },
        {
          "internalType": "uint256",
          "name": "addedValue",
          "type": "uint256"
        }
      ],
      "name": "increaseAllowance",
      "outputs": [
        {
          "internalType": "bool",
          "name": "",
          "type": "bool"
        }
      ],
      "stateMutability": "nonpayable",
      "type": "function"
    },
    {
      "inputs": [],
      "name": "max",
      "outputs": [
        {
          "internalType": "uint256",
          "name": "",
          "type": "uint256"
        }
      ],
      "stateMutability": "view",
      "type": "function"
    },
    {
      "inputs": [],
      "name": "min",
      "outputs": [
        {
          "internalType": "uint256",
          "name": "",
          "type": "uint256"
        }
      ],
      "stateMutability": "view",
      "type": "function"
    },
    {
      "inputs": [],
      "name": "name",
      "outputs": [
        {
          "internalType": "string",
          "name": "",
          "type": "string"
        }
      ],
      "stateMutability": "view",
      "type": "function"
    },
    {
      "inputs": [],
      "name": "rebase",
      "outputs": [],
      "stateMutability": "nonpayable",
      "type": "function"
    },
    {
      "inputs": [
        {
          "internalType": "address",
          "name": "_governance",
          "type": "address"
        }
      ],
      "name": "setGovernance",
      "outputs": [],
      "stateMutability": "nonpayable",
      "type": "function"
    },
    {
      "inputs": [
        {
          "internalType": "uint256",
          "name": "_min",
          "type": "uint256"
        },
        {
          "internalType": "uint256",
          "name": "_tolerance",
          "type": "uint256"
        }
      ],
      "name": "setMinTolerance",
      "outputs": [],
      "stateMutability": "nonpayable",
      "type": "function"
    },
    {
      "inputs": [],
      "name": "suitable",
      "outputs": [
        {
          "internalType": "uint256",
          "name": "",
          "type": "uint256"
        }
      ],
      "stateMutability": "view",
      "type": "function"
    },
    {
      "inputs": [],
      "name": "symbol",
      "outputs": [
        {
          "internalType": "string",
          "name": "",
          "type": "string"
        }
      ],
      "stateMutability": "view",
      "type": "function"
    },
    {
      "inputs": [],
      "name": "tolerance",
      "outputs": [
        {
          "internalType": "uint256",
          "name": "",
          "type": "uint256"
        }
      ],
      "stateMutability": "view",
      "type": "function"
    },
    {
      "inputs": [],
      "name": "totalSupply",
      "outputs": [
        {
          "internalType": "uint256",
          "name": "",
          "type": "uint256"
        }
      ],
      "stateMutability": "view",
      "type": "function"
    },
    {
      "inputs": [
        {
          "internalType": "address",
          "name": "recipient",
          "type": "address"
        },
        {
          "internalType": "uint256",
          "name": "amount",
          "type": "uint256"
        }
      ],
      "name": "transfer",
      "outputs": [
        {
          "internalType": "bool",
          "name": "",
          "type": "bool"
        }
      ],
      "stateMutability": "nonpayable",
      "type": "function"
    },
    {
      "inputs": [
        {
          "internalType": "address",
          "name": "sender",
          "type": "address"
        },
        {
          "internalType": "address",
          "name": "recipient",
          "type": "address"
        },
        {
          "internalType": "uint256",
          "name": "amount",
          "type": "uint256"
        }
      ],
      "name": "transferFrom",
      "outputs": [
        {
          "internalType": "bool",
          "name": "",
          "type": "bool"
        }
      ],
      "stateMutability": "nonpayable",
      "type": "function"
    },
    {
      "inputs": [],
      "name": "version",
      "outputs": [
        {
          "internalType": "string",
          "name": "",
          "type": "string"
        }
      ],
      "stateMutability": "view",
      "type": "function"
    },
    {
      "inputs": [],
      "name": "want",
      "outputs": [
        {
          "internalType": "contract IERC20Upgradeable",
          "name": "",
          "type": "address"
        }
      ],
      "stateMutability": "view",
      "type": "function"
    },
    {
      "inputs": [
        {
          "internalType": "uint256",
          "name": "_shares",
          "type": "uint256"
        }
      ],
      "name": "withdraw",
      "outputs": [
        {
          "internalType": "uint256",
          "name": "",
          "type": "uint256"
        }
      ],
      "stateMutability": "nonpayable",
      "type": "function"
    },
    {
      "inputs": [],
      "name": "withdrawAll",
      "outputs": [
        {
          "internalType": "uint256",
          "name": "",
          "type": "uint256"
        }
      ],
      "stateMutability": "nonpayable",
      "type": "function"
    },
    {
      "inputs": [
        {
          "internalType": "address",
          "name": "_asset",
          "type": "address"
        },
        {
          "internalType": "address",
          "name": "_to",
          "type": "address"
        }
      ],
      "name": "withdrawOther",
      "outputs": [],
      "stateMutability": "nonpayable",
      "type": "function"
    },
    {
      "inputs": [],
      "name": "yVault",
      "outputs": [
        {
          "internalType": "contract IYearnYVault",
          "name": "",
          "type": "address"
        }
      ],
      "stateMutability": "view",
      "type": "function"
    }
  ],
  "bytecode": "0x608060405234801561001057600080fd5b50612429806100206000396000f3fe608060405234801561001057600080fd5b50600436106101e55760003560e01c806377c7b8fc1161010f578063b6b55f25116100a2578063e16e2d6611610071578063e16e2d661461040e578063ec9eca2c14610421578063f421141f14610429578063f88979451461043157600080fd5b8063b6b55f25146103b1578063dce52dfa146103c4578063dd62ed3e146103cd578063de5f62681461040657600080fd5b8063a9059cbb116100de578063a9059cbb1461037b578063ab033ea91461038e578063af14052c146103a1578063b69ef8a8146103a957600080fd5b806377c7b8fc14610350578063853828b61461035857806395d89b4114610360578063a457c2d71461036857600080fd5b8063313ce5671161018757806354fd4d501161015657806354fd4d50146102eb5780635aa6e6751461030b5780636ac5db191461031e57806370a082311461032757600080fd5b8063313ce567146102a357806333303f8e146102b257806339509351146102c557806347db3bda146102d857600080fd5b806318160ddd116101c357806318160ddd146102405780631f1fcd511461025257806323b872dd1461027d5780632e1a7d4d1461029057600080fd5b806302b2f717146101ea57806306fdde03146101ff578063095ea7b31461021d575b600080fd5b6101fd6101f8366004612025565b61043a565b005b610207610689565b6040516102149190612271565b60405180910390f35b61023061022b3660046120b4565b61071b565b6040519015158152602001610214565b6035545b604051908152602001610214565b606654610265906001600160a01b031681565b6040516001600160a01b039091168152602001610214565b61023061028b366004612079565b610731565b61024461029e36600461219b565b6107dd565b60405160128152602001610214565b606554610265906001600160a01b031681565b6102306102d33660046120b4565b610a66565b6101fd6102e63660046121cb565b610aa2565b604080518082019091526004815263076312e360e41b6020820152610207565b606954610265906001600160a01b031681565b61024461271081565b610244610335366004611fd9565b6001600160a01b031660009081526033602052604090205490565b610244610b7e565b610244610bbf565b610207610bdd565b6102306103763660046120b4565b610bec565b6102306103893660046120b4565b610c85565b6101fd61039c366004611fd9565b610c92565b6101fd610cfc565b610244610f34565b6102446103bf36600461219b565b610fc2565b61024460685481565b6102446103db366004611ff3565b6001600160a01b03918216600090815260346020908152604080832093909416825291909152205490565b610244611136565b6101fd61041c366004611ff3565b6111b8565b610244611292565b6102446112a8565b61024460675481565b600054610100900460ff1680610453575060005460ff16155b6104785760405162461bcd60e51b815260040161046f906122a4565b60405180910390fd5b600054610100900460ff1615801561049a576000805461ffff19166101011790555b6105ca866001600160a01b03166306fdde036040518163ffffffff1660e01b815260040160006040518083038186803b1580156104d657600080fd5b505afa1580156104ea573d6000803e3d6000fd5b505050506040513d6000823e601f3d908101601f1916820160405261051291908101906120fd565b6040516020016105229190612208565b604051602081830303815290604052876001600160a01b03166395d89b416040518163ffffffff1660e01b815260040160006040518083038186803b15801561056a57600080fd5b505afa15801561057e573d6000803e3d6000fd5b505050506040513d6000823e601f3d908101601f191682016040526105a691908101906120fd565b6040516020016105b69190612245565b6040516020818303038152906040526113ba565b606680546001600160a01b038089166001600160a01b031992831681179093556069805488831690841617905560658054918916919092161790556106129086600019611439565b61271083108015610624575061271082105b6106655760405162461bcd60e51b8152602060048201526012602482015271216d696e206f722021746f6c6572616e636560701b604482015260640161046f565b606783905560688290558015610681576000805461ff00191690555b505050505050565b6060603680546106989061238c565b80601f01602080910402602001604051908101604052809291908181526020018280546106c49061238c565b80156107115780601f106106e657610100808354040283529160200191610711565b820191906000526020600020905b8154815290600101906020018083116106f457829003601f168201915b5050505050905090565b6000610728338484611590565b50600192915050565b600061073e8484846116b4565b6001600160a01b0384166000908152603460209081526040808320338452909152902054828110156107c35760405162461bcd60e51b815260206004820152602860248201527f45524332303a207472616e7366657220616d6f756e74206578636565647320616044820152676c6c6f77616e636560c01b606482015260840161046f565b6107d08533858403611590565b60019150505b9392505050565b6000806108046107ec60355490565b6107fe856107f8610f34565b90611884565b90611890565b9050610810338461189c565b6066546040516370a0823160e01b81523060048201526000916001600160a01b0316906370a082319060240160206040518083038186803b15801561085457600080fd5b505afa158015610868573d6000803e3d6000fd5b505050506040513d601f19601f8201168201806040525081019061088c91906121b3565b905081811015610a485760006108a283836119ea565b90506000610941606560009054906101000a90046001600160a01b03166001600160a01b03166377c7b8fc6040518163ffffffff1660e01b815260040160206040518083038186803b1580156108f757600080fd5b505afa15801561090b573d6000803e3d6000fd5b505050506040513d601f19601f8201168201806040525081019061092f91906121b3565b6107fe84670de0b6b3a7640000611884565b606554604051632e1a7d4d60e01b8152600481018390529192506001600160a01b031690632e1a7d4d90602401600060405180830381600087803b15801561098857600080fd5b505af115801561099c573d6000803e3d6000fd5b50506066546040516370a0823160e01b8152306004820152600093506001600160a01b0390911691506370a082319060240160206040518083038186803b1580156109e657600080fd5b505afa1580156109fa573d6000803e3d6000fd5b505050506040513d601f19601f82011682018060405250810190610a1e91906121b3565b90506000610a2c82866119ea565b905083811015610a4357610a4085826119f6565b95505b505050505b606654610a5f906001600160a01b03163384611a02565b5092915050565b3360008181526034602090815260408083206001600160a01b03871684529091528120549091610728918590610a9d9086906122f2565b611590565b6069546001600160a01b03163314610aea5760405162461bcd60e51b815260206004820152600b60248201526a21676f7665726e616e636560a81b604482015260640161046f565b6127108210610b245760405162461bcd60e51b815260040161046f9060208082526004908201526310b6b4b760e11b604082015260600190565b6127108110610b625760405162461bcd60e51b815260206004820152600a60248201526921746f6c6572616e636560b01b604482015260640161046f565b8115610b6e5760678290555b8015610b7a5760688190555b5050565b600080610b8a60355490565b90508015610baf57610baa816107fe670de0b6b3a76400006107f8610f34565b610bb9565b670de0b6b3a76400005b91505090565b33600090815260336020526040812054610bd8906107dd565b905090565b6060603780546106989061238c565b3360009081526034602090815260408083206001600160a01b038616845290915281205482811015610c6e5760405162461bcd60e51b815260206004820152602560248201527f45524332303a2064656372656173656420616c6c6f77616e63652062656c6f77604482015264207a65726f60d81b606482015260840161046f565b610c7b3385858403611590565b5060019392505050565b60006107283384846116b4565b6069546001600160a01b03163314610cda5760405162461bcd60e51b815260206004820152600b60248201526a21676f7665726e616e636560a81b604482015260640161046f565b606980546001600160a01b0319166001600160a01b0392909216919091179055565b6000610d066112a8565b90506000610d12611292565b90506000818310610d2c57610d2783836119ea565b610d36565b610d3682846119ea565b9050610d536127106107fe6068548561188490919063ffffffff16565b811015610d8a5760405162461bcd60e51b815260206004820152600560248201526410b234b33360d91b604482015260640161046f565b81831015610e5d5760655460405163b6b55f2560e01b8152600481018390526001600160a01b039091169063b6b55f2590602401600060405180830381600087803b158015610dd857600080fd5b505af1158015610dec573d6000803e3d6000fd5b50505050606560009054906101000a90046001600160a01b03166001600160a01b031663d389800f6040518163ffffffff1660e01b8152600401600060405180830381600087803b158015610e4057600080fd5b505af1158015610e54573d6000803e3d6000fd5b50505050505050565b60655460408051631df1ee3f60e21b815290516001600160a01b0390921691632e1a7d4d91610ef79184916377c7b8fc916004808301926020929190829003018186803b158015610ead57600080fd5b505afa158015610ec1573d6000803e3d6000fd5b505050506040513d601f19601f82011682018060405250810190610ee591906121b3565b6107fe85670de0b6b3a7640000611884565b6040518263ffffffff1660e01b8152600401610f1591815260200190565b600060405180830381600087803b158015610e4057600080fd5b505050565b6000610bd8610f416112a8565b6066546040516370a0823160e01b81523060048201526001600160a01b03909116906370a082319060240160206040518083038186803b158015610f8457600080fd5b505afa158015610f98573d6000803e3d6000fd5b505050506040513d601f19601f82011682018060405250810190610fbc91906121b3565b906119f6565b600080610fcd610f34565b6066546040516370a0823160e01b81523060048201529192506000916001600160a01b03909116906370a082319060240160206040518083038186803b15801561101657600080fd5b505afa15801561102a573d6000803e3d6000fd5b505050506040513d601f19601f8201168201806040525081019061104e91906121b3565b606654909150611069906001600160a01b0316333087611a32565b6066546040516370a0823160e01b81523060048201526000916001600160a01b0316906370a082319060240160206040518083038186803b1580156110ad57600080fd5b505afa1580156110c1573d6000803e3d6000fd5b505050506040513d601f19601f820116820180604052508101906110e591906121b3565b90506110f181836119ea565b945060006110fe60355490565b611109575084611123565b611120846107fe61111960355490565b8990611884565b90505b61112d3382611a6a565b95945050505050565b6066546040516370a0823160e01b8152336004820152600091610bd8916001600160a01b03909116906370a082319060240160206040518083038186803b15801561118057600080fd5b505afa158015611194573d6000803e3d6000fd5b505050506040513d601f19601f820116820180604052508101906103bf91906121b3565b6069546001600160a01b031633146111fb5760405162461bcd60e51b815260040161046f9060208082526004908201526310b3b7bb60e11b604082015260600190565b61120482611b49565b6040516370a0823160e01b8152306004820152610b7a9082906001600160a01b038516906370a082319060240160206040518083038186803b15801561124957600080fd5b505afa15801561125d573d6000803e3d6000fd5b505050506040513d601f19601f8201168201806040525081019061128191906121b3565b6001600160a01b0385169190611a02565b6000610bd86127106107fe6067546107f8610f34565b6000610bd8670de0b6b3a76400006107fe606560009054906101000a90046001600160a01b03166001600160a01b03166377c7b8fc6040518163ffffffff1660e01b815260040160206040518083038186803b15801561130757600080fd5b505afa15801561131b573d6000803e3d6000fd5b505050506040513d601f19601f8201168201806040525081019061133f91906121b3565b6065546040516370a0823160e01b81523060048201526001600160a01b03909116906370a082319060240160206040518083038186803b15801561138257600080fd5b505afa158015611396573d6000803e3d6000fd5b505050506040513d601f19601f820116820180604052508101906107f891906121b3565b600054610100900460ff16806113d3575060005460ff16155b6113ef5760405162461bcd60e51b815260040161046f906122a4565b600054610100900460ff16158015611411576000805461ffff19166101011790555b611419611bda565b6114238383611c45565b8015610f2f576000805461ff0019169055505050565b8015806114c25750604051636eb1769f60e11b81523060048201526001600160a01b03838116602483015284169063dd62ed3e9060440160206040518083038186803b15801561148857600080fd5b505afa15801561149c573d6000803e3d6000fd5b505050506040513d601f19601f820116820180604052508101906114c091906121b3565b155b61152d5760405162461bcd60e51b815260206004820152603660248201527f5361666545524332303a20617070726f76652066726f6d206e6f6e2d7a65726f60448201527520746f206e6f6e2d7a65726f20616c6c6f77616e636560501b606482015260840161046f565b6040516001600160a01b038316602482015260448101829052610f2f90849063095ea7b360e01b906064015b60408051601f198184030181529190526020810180516001600160e01b03166001600160e01b031990931692909217909152611cda565b6001600160a01b0383166115f25760405162461bcd60e51b8152602060048201526024808201527f45524332303a20617070726f76652066726f6d20746865207a65726f206164646044820152637265737360e01b606482015260840161046f565b6001600160a01b0382166116535760405162461bcd60e51b815260206004820152602260248201527f45524332303a20617070726f766520746f20746865207a65726f206164647265604482015261737360f01b606482015260840161046f565b6001600160a01b0383811660008181526034602090815260408083209487168084529482529182902085905590518481527f8c5be1e5ebec7d5bd14f71427d1e84f3dd0314c0f7b2291e5b200ac8c7c3b925910160405180910390a3505050565b6001600160a01b0383166117185760405162461bcd60e51b815260206004820152602560248201527f45524332303a207472616e736665722066726f6d20746865207a65726f206164604482015264647265737360d81b606482015260840161046f565b6001600160a01b03821661177a5760405162461bcd60e51b815260206004820152602360248201527f45524332303a207472616e7366657220746f20746865207a65726f206164647260448201526265737360e81b606482015260840161046f565b6001600160a01b038316600090815260336020526040902054818110156117f25760405162461bcd60e51b815260206004820152602660248201527f45524332303a207472616e7366657220616d6f756e7420657863656564732062604482015265616c616e636560d01b606482015260840161046f565b6001600160a01b038085166000908152603360205260408082208585039055918516815290812080548492906118299084906122f2565b92505081905550826001600160a01b0316846001600160a01b03167fddf252ad1be2c89b69c2b068fc378daa952ba7f163c4a11628f55a4df523b3ef8460405161187591815260200190565b60405180910390a35b50505050565b60006107d6828461232a565b60006107d6828461230a565b6001600160a01b0382166118fc5760405162461bcd60e51b815260206004820152602160248201527f45524332303a206275726e2066726f6d20746865207a65726f206164647265736044820152607360f81b606482015260840161046f565b6001600160a01b038216600090815260336020526040902054818110156119705760405162461bcd60e51b815260206004820152602260248201527f45524332303a206275726e20616d6f756e7420657863656564732062616c616e604482015261636560f01b606482015260840161046f565b6001600160a01b038316600090815260336020526040812083830390556035805484929061199f908490612349565b90915550506040518281526000906001600160a01b038516907fddf252ad1be2c89b69c2b068fc378daa952ba7f163c4a11628f55a4df523b3ef9060200160405180910390a3505050565b60006107d68284612349565b60006107d682846122f2565b6040516001600160a01b038316602482015260448101829052610f2f90849063a9059cbb60e01b90606401611559565b6040516001600160a01b038085166024830152831660448201526064810182905261187e9085906323b872dd60e01b90608401611559565b6001600160a01b038216611ac05760405162461bcd60e51b815260206004820152601f60248201527f45524332303a206d696e7420746f20746865207a65726f206164647265737300604482015260640161046f565b8060356000828254611ad291906122f2565b90915550506001600160a01b03821660009081526033602052604081208054839290611aff9084906122f2565b90915550506040518181526001600160a01b038316906000907fddf252ad1be2c89b69c2b068fc378daa952ba7f163c4a11628f55a4df523b3ef9060200160405180910390a35050565b6066546001600160a01b0382811691161415611b8f5760405162461bcd60e51b8152602060048201526005602482015264085dd85b9d60da1b604482015260640161046f565b6065546001600160a01b0382811691161415611bd75760405162461bcd60e51b815260206004820152600760248201526610bcba37b5b2b760c91b604482015260640161046f565b50565b600054610100900460ff1680611bf3575060005460ff16155b611c0f5760405162461bcd60e51b815260040161046f906122a4565b600054610100900460ff16158015611c31576000805461ffff19166101011790555b8015611bd7576000805461ff001916905550565b600054610100900460ff1680611c5e575060005460ff16155b611c7a5760405162461bcd60e51b815260040161046f906122a4565b600054610100900460ff16158015611c9c576000805461ffff19166101011790555b8251611caf906036906020860190611f24565b508151611cc3906037906020850190611f24565b508015610f2f576000805461ff0019169055505050565b6000611d2f826040518060400160405280602081526020017f5361666545524332303a206c6f772d6c6576656c2063616c6c206661696c6564815250856001600160a01b0316611dac9092919063ffffffff16565b805190915015610f2f5780806020019051810190611d4d91906120dd565b610f2f5760405162461bcd60e51b815260206004820152602a60248201527f5361666545524332303a204552433230206f7065726174696f6e20646964206e6044820152691bdd081cdd58d8d9595960b21b606482015260840161046f565b6060611dbb8484600085611dc3565b949350505050565b606082471015611e245760405162461bcd60e51b815260206004820152602660248201527f416464726573733a20696e73756666696369656e742062616c616e636520666f6044820152651c8818d85b1b60d21b606482015260840161046f565b843b611e725760405162461bcd60e51b815260206004820152601d60248201527f416464726573733a2063616c6c20746f206e6f6e2d636f6e7472616374000000604482015260640161046f565b600080866001600160a01b03168587604051611e8e91906121ec565b60006040518083038185875af1925050503d8060008114611ecb576040519150601f19603f3d011682016040523d82523d6000602084013e611ed0565b606091505b5091509150611ee0828286611eeb565b979650505050505050565b60608315611efa5750816107d6565b825115611f0a5782518084602001fd5b8160405162461bcd60e51b815260040161046f9190612271565b828054611f309061238c565b90600052602060002090601f016020900481019282611f525760008555611f98565b82601f10611f6b57805160ff1916838001178555611f98565b82800160010185558215611f98579182015b82811115611f98578251825591602001919060010190611f7d565b50611fa4929150611fa8565b5090565b5b80821115611fa45760008155600101611fa9565b80356001600160a01b0381168114611fd457600080fd5b919050565b600060208284031215611fea578081fd5b6107d682611fbd565b60008060408385031215612005578081fd5b61200e83611fbd565b915061201c60208401611fbd565b90509250929050565b600080600080600060a0868803121561203c578081fd5b61204586611fbd565b945061205360208701611fbd565b935061206160408701611fbd565b94979396509394606081013594506080013592915050565b60008060006060848603121561208d578283fd5b61209684611fbd565b92506120a460208501611fbd565b9150604084013590509250925092565b600080604083850312156120c6578182fd5b6120cf83611fbd565b946020939093013593505050565b6000602082840312156120ee578081fd5b815180151581146107d6578182fd5b60006020828403121561210e578081fd5b815167ffffffffffffffff80821115612125578283fd5b818401915084601f830112612138578283fd5b81518181111561214a5761214a6123dd565b604051601f8201601f19908116603f01168101908382118183101715612172576121726123dd565b8160405282815287602084870101111561218a578586fd5b611ee0836020830160208801612360565b6000602082840312156121ac578081fd5b5035919050565b6000602082840312156121c4578081fd5b5051919050565b600080604083850312156121dd578182fd5b50508035926020909101359150565b600082516121fe818460208701612360565b9190910192915050565b7403437b3b632ba103337b93bb0b932103b30bab63a1605d1b815260008251612238816015850160208701612360565b9190910160150192915050565b63034333b160e51b815260008251612264816004850160208701612360565b9190910160040192915050565b6020815260008251806020840152612290816040850160208701612360565b601f01601f19169190910160400192915050565b6020808252602e908201527f496e697469616c697a61626c653a20636f6e747261637420697320616c72656160408201526d191e481a5b9a5d1a585b1a5e995960921b606082015260800190565b60008219821115612305576123056123c7565b500190565b60008261232557634e487b7160e01b81526012600452602481fd5b500490565b6000816000190483118215151615612344576123446123c7565b500290565b60008282101561235b5761235b6123c7565b500390565b60005b8381101561237b578181015183820152602001612363565b8381111561187e5750506000910152565b600181811c908216806123a057607f821691505b602082108114156123c157634e487b7160e01b600052602260045260246000fd5b50919050565b634e487b7160e01b600052601160045260246000fd5b634e487b7160e01b600052604160045260246000fdfea2646970667358221220c9e5f67ea15690417266c66b8488a7448c9fcb876117c6e2e6c6c65db716575e64736f6c63430008040033",
  "linkReferences": {},
  "deployedLinkReferences": {}
}