{
  "_format": "hh-sol-artifact-1",
  "contractName": "Forward721Upgradeable",
  "sourceName": "contracts/forward/Forward721Upgradeable.sol",
  "abi": [
    {
      "anonymous": false,
      "inputs": [
        {
          "indexed": false,
          "internalType": "uint256",
          "name": "orderId",
          "type": "uint256"
        }
      ],
      "name": "CancelOrder",
      "type": "event"
    },
    {
      "anonymous": false,
      "inputs": [
        {
          "indexed": false,
          "internalType": "uint256",
          "name": "orderId",
          "type": "uint256"
        },
        {
          "indexed": false,
          "internalType": "address",
          "name": "maker",
          "type": "address"
        }
      ],
      "name": "CreateOrder",
      "type": "event"
    },
    {
      "anonymous": false,
      "inputs": [
        {
          "indexed": false,
          "internalType": "uint256",
          "name": "orderId",
          "type": "uint256"
        },
        {
          "indexed": false,
          "internalType": "address",
          "name": "deliver",
          "type": "address"
        }
      ],
      "name": "Delivery",
      "type": "event"
    },
    {
      "anonymous": false,
      "inputs": [
        {
          "indexed": false,
          "internalType": "uint256",
          "name": "orderId",
          "type": "uint256"
        }
      ],
      "name": "Settle",
      "type": "event"
    },
    {
      "anonymous": false,
      "inputs": [
        {
          "indexed": false,
          "internalType": "uint256",
          "name": "orderId",
          "type": "uint256"
        },
        {
          "indexed": false,
          "internalType": "address",
          "name": "taker",
          "type": "address"
        }
      ],
      "name": "TakeOrder",
      "type": "event"
    },
    {
      "inputs": [
        {
          "internalType": "address",
          "name": "_want",
          "type": "address"
        },
        {
          "internalType": "address",
          "name": "_margin",
          "type": "address"
        }
      ],
      "name": "__BaseForward__init",
      "outputs": [],
      "stateMutability": "nonpayable",
      "type": "function"
    },
    {
      "inputs": [
        {
          "internalType": "address",
          "name": "_want",
          "type": "address"
        },
        {
          "internalType": "uint256",
          "name": "_poolType",
          "type": "uint256"
        },
        {
          "internalType": "address",
          "name": "_margin",
          "type": "address"
        }
      ],
      "name": "__Forward721Upgradeable__init",
      "outputs": [],
      "stateMutability": "nonpayable",
      "type": "function"
    },
    {
      "inputs": [],
      "name": "available",
      "outputs": [
        {
          "internalType": "uint256",
          "name": "",
          "type": "uint256"
        }
      ],
      "stateMutability": "view",
      "type": "function"
    },
    {
      "inputs": [],
      "name": "balance",
      "outputs": [
        {
          "internalType": "uint256",
          "name": "",
          "type": "uint256"
        }
      ],
      "stateMutability": "view",
      "type": "function"
    },
    {
      "inputs": [],
      "name": "balanceSavingsInFVault",
      "outputs": [
        {
          "internalType": "uint256",
          "name": "",
          "type": "uint256"
        }
      ],
      "stateMutability": "view",
      "type": "function"
    },
    {
      "inputs": [
        {
          "internalType": "uint256",
          "name": "_orderId",
          "type": "uint256"
        }
      ],
      "name": "cancelOrder",
      "outputs": [],
      "stateMutability": "nonpayable",
      "type": "function"
    },
    {
      "inputs": [],
      "name": "cfee",
      "outputs": [
        {
          "internalType": "uint256",
          "name": "",
          "type": "uint256"
        }
      ],
      "stateMutability": "view",
      "type": "function"
    },
    {
      "inputs": [
        {
          "internalType": "uint256",
          "name": "_orderId",
          "type": "uint256"
        }
      ],
      "name": "checkOrderState",
      "outputs": [
        {
          "internalType": "enum BaseForwardUpgradeable.State",
          "name": "",
          "type": "uint8"
        }
      ],
      "stateMutability": "view",
      "type": "function"
    },
    {
      "inputs": [
        {
          "internalType": "address",
          "name": "_to",
          "type": "address"
        }
      ],
      "name": "collectFee",
      "outputs": [],
      "stateMutability": "nonpayable",
      "type": "function"
    },
    {
      "inputs": [
        {
          "internalType": "address",
          "name": "_creator",
          "type": "address"
        },
        {
          "internalType": "uint256[]",
          "name": "_tokenIds",
          "type": "uint256[]"
        },
        {
          "internalType": "uint256[3]",
          "name": "_times",
          "type": "uint256[3]"
        },
        {
          "internalType": "uint256[3]",
          "name": "_prices",
          "type": "uint256[3]"
        },
        {
          "internalType": "address[]",
          "name": "_takerWhiteList",
          "type": "address[]"
        },
        {
          "internalType": "bool",
          "name": "_deposit",
          "type": "bool"
        },
        {
          "internalType": "bool",
          "name": "_isSeller",
          "type": "bool"
        }
      ],
      "name": "createOrderFor",
      "outputs": [],
      "stateMutability": "nonpayable",
      "type": "function"
    },
    {
      "inputs": [
        {
          "internalType": "address",
          "name": "_deliverer",
          "type": "address"
        },
        {
          "internalType": "uint256",
          "name": "_orderId",
          "type": "uint256"
        }
      ],
      "name": "deliverFor",
      "outputs": [],
      "stateMutability": "nonpayable",
      "type": "function"
    },
    {
      "inputs": [],
      "name": "eth",
      "outputs": [
        {
          "internalType": "address",
          "name": "",
          "type": "address"
        }
      ],
      "stateMutability": "view",
      "type": "function"
    },
    {
      "inputs": [],
      "name": "fVault",
      "outputs": [
        {
          "internalType": "address",
          "name": "",
          "type": "address"
        }
      ],
      "stateMutability": "view",
      "type": "function"
    },
    {
      "inputs": [],
      "name": "factory",
      "outputs": [
        {
          "internalType": "address",
          "name": "",
          "type": "address"
        }
      ],
      "stateMutability": "view",
      "type": "function"
    },
    {
      "inputs": [
        {
          "internalType": "uint256",
          "name": "_orderId",
          "type": "uint256"
        }
      ],
      "name": "getBuyerAmountToDeliver",
      "outputs": [
        {
          "internalType": "uint256",
          "name": "price",
          "type": "uint256"
        }
      ],
      "stateMutability": "view",
      "type": "function"
    },
    {
      "inputs": [
        {
          "internalType": "uint256",
          "name": "_orderId",
          "type": "uint256"
        }
      ],
      "name": "getOrder",
      "outputs": [
        {
          "components": [
            {
              "internalType": "uint128",
              "name": "buyerMargin",
              "type": "uint128"
            },
            {
              "internalType": "uint128",
              "name": "sellerMargin",
              "type": "uint128"
            },
            {
              "internalType": "uint128",
              "name": "buyerShare",
              "type": "uint128"
            },
            {
              "internalType": "uint128",
              "name": "sellerShare",
              "type": "uint128"
            },
            {
              "internalType": "uint128",
              "name": "deliveryPrice",
              "type": "uint128"
            },
            {
              "internalType": "uint40",
              "name": "validTill",
              "type": "uint40"
            },
            {
              "internalType": "uint40",
              "name": "deliverStart",
              "type": "uint40"
            },
            {
              "internalType": "uint40",
              "name": "expireStart",
              "type": "uint40"
            },
            {
              "internalType": "address",
              "name": "buyer",
              "type": "address"
            },
            {
              "internalType": "address",
              "name": "seller",
              "type": "address"
            },
            {
              "internalType": "bool",
              "name": "buyerDelivered",
              "type": "bool"
            },
            {
              "internalType": "bool",
              "name": "sellerDelivered",
              "type": "bool"
            },
            {
              "internalType": "enum BaseForwardUpgradeable.State",
              "name": "state",
              "type": "uint8"
            },
            {
              "internalType": "address[]",
              "name": "takerWhiteList",
              "type": "address[]"
            }
          ],
          "internalType": "struct BaseForwardUpgradeable.Order",
          "name": "order",
          "type": "tuple"
        }
      ],
      "stateMutability": "view",
      "type": "function"
    },
    {
      "inputs": [],
      "name": "getPricePerFullShare",
      "outputs": [
        {
          "internalType": "uint256",
          "name": "",
          "type": "uint256"
        }
      ],
      "stateMutability": "view",
      "type": "function"
    },
    {
      "inputs": [],
      "name": "margin",
      "outputs": [
        {
          "internalType": "address",
          "name": "",
          "type": "address"
        }
      ],
      "stateMutability": "view",
      "type": "function"
    },
    {
      "inputs": [
        {
          "internalType": "address",
          "name": "",
          "type": "address"
        },
        {
          "internalType": "address",
          "name": "",
          "type": "address"
        },
        {
          "internalType": "uint256",
          "name": "",
          "type": "uint256"
        },
        {
          "internalType": "bytes",
          "name": "",
          "type": "bytes"
        }
      ],
      "name": "onERC721Received",
      "outputs": [
        {
          "internalType": "bytes4",
          "name": "",
          "type": "bytes4"
        }
      ],
      "stateMutability": "nonpayable",
      "type": "function"
    },
    {
      "inputs": [
        {
          "internalType": "uint256",
          "name": "",
          "type": "uint256"
        }
      ],
      "name": "orders",
      "outputs": [
        {
          "internalType": "uint128",
          "name": "buyerMargin",
          "type": "uint128"
        },
        {
          "internalType": "uint128",
          "name": "sellerMargin",
          "type": "uint128"
        },
        {
          "internalType": "uint128",
          "name": "buyerShare",
          "type": "uint128"
        },
        {
          "internalType": "uint128",
          "name": "sellerShare",
          "type": "uint128"
        },
        {
          "internalType": "uint128",
          "name": "deliveryPrice",
          "type": "uint128"
        },
        {
          "internalType": "uint40",
          "name": "validTill",
          "type": "uint40"
        },
        {
          "internalType": "uint40",
          "name": "deliverStart",
          "type": "uint40"
        },
        {
          "internalType": "uint40",
          "name": "expireStart",
          "type": "uint40"
        },
        {
          "internalType": "address",
          "name": "buyer",
          "type": "address"
        },
        {
          "internalType": "address",
          "name": "seller",
          "type": "address"
        },
        {
          "internalType": "bool",
          "name": "buyerDelivered",
          "type": "bool"
        },
        {
          "internalType": "bool",
          "name": "sellerDelivered",
          "type": "bool"
        },
        {
          "internalType": "enum BaseForwardUpgradeable.State",
          "name": "state",
          "type": "uint8"
        }
      ],
      "stateMutability": "view",
      "type": "function"
    },
    {
      "inputs": [],
      "name": "ordersLength",
      "outputs": [
        {
          "internalType": "uint256",
          "name": "",
          "type": "uint256"
        }
      ],
      "stateMutability": "view",
      "type": "function"
    },
    {
      "inputs": [],
      "name": "pause",
      "outputs": [],
      "stateMutability": "nonpayable",
      "type": "function"
    },
    {
      "inputs": [],
      "name": "paused",
      "outputs": [
        {
          "internalType": "bool",
          "name": "",
          "type": "bool"
        }
      ],
      "stateMutability": "view",
      "type": "function"
    },
    {
      "inputs": [],
      "name": "ratio",
      "outputs": [
        {
          "internalType": "uint256",
          "name": "",
          "type": "uint256"
        }
      ],
      "stateMutability": "view",
      "type": "function"
    },
    {
      "inputs": [
        {
          "internalType": "address",
          "name": "_fVault",
          "type": "address"
        }
      ],
      "name": "setForwardVault",
      "outputs": [],
      "stateMutability": "nonpayable",
      "type": "function"
    },
    {
      "inputs": [
        {
          "internalType": "uint256",
          "name": "_orderId",
          "type": "uint256"
        }
      ],
      "name": "settle",
      "outputs": [],
      "stateMutability": "nonpayable",
      "type": "function"
    },
    {
      "inputs": [
        {
          "internalType": "address",
          "name": "_taker",
          "type": "address"
        },
        {
          "internalType": "uint256",
          "name": "_orderId",
          "type": "uint256"
        }
      ],
      "name": "takeOrderFor",
      "outputs": [],
      "stateMutability": "nonpayable",
      "type": "function"
    },
    {
      "inputs": [
        {
          "internalType": "uint256",
          "name": "_orderId",
          "type": "uint256"
        }
      ],
      "name": "underlyingAssets",
      "outputs": [
        {
          "internalType": "uint256[]",
          "name": "",
          "type": "uint256[]"
        }
      ],
      "stateMutability": "view",
      "type": "function"
    },
    {
      "inputs": [],
      "name": "unpause",
      "outputs": [],
      "stateMutability": "nonpayable",
      "type": "function"
    },
    {
      "inputs": [],
      "name": "version",
      "outputs": [
        {
          "internalType": "string",
          "name": "",
          "type": "string"
        }
      ],
      "stateMutability": "view",
      "type": "function"
    },
    {
      "inputs": [],
      "name": "want",
      "outputs": [
        {
          "internalType": "address",
          "name": "",
          "type": "address"
        }
      ],
      "stateMutability": "view",
      "type": "function"
    },
    {
      "inputs": [
        {
          "internalType": "address",
          "name": "_token",
          "type": "address"
        },
        {
          "internalType": "address",
          "name": "_to",
          "type": "address"
        }
      ],
      "name": "withdrawOther",
      "outputs": [],
      "stateMutability": "nonpayable",
      "type": "function"
    }
  ],
  "bytecode": "0x608060405234801561001057600080fd5b50614a7b806100206000396000f3fe608060405234801561001057600080fd5b50600436106101f05760003560e01c806377c7b8fc1161010f578063a85c38ef116100a2578063c45a015511610071578063c45a0155146104d2578063d09ef241146104eb578063e16e2d661461050b578063f2bfea621461051e57600080fd5b8063a85c38ef146103ed578063b48985c8146104ae578063b69ef8a8146104c1578063be8acd3f146104c957600080fd5b80638c7c9e0c116100de5780638c7c9e0c146103a15780638df82800146103b45780638f76691a146103c7578063a15e5fd9146103da57600080fd5b806377c7b8fc1461036b57806378fc53d8146103735780637e9a152c146103865780638456cb591461039957600080fd5b806348a0d754116101875780635c975abb116101565780635c975abb1461031f5780636476980b1461033c57806369b59e751461034f57806371ca337d1461036257600080fd5b806348a0d754146102d6578063514fcac7146102de57806352781173146102f157806354fd4d50146102f957600080fd5b80633235029e116101c35780633235029e14610284578063383730901461029b5780633b50c4d1146102ae5780633f4ba83a146102ce57600080fd5b80631045bfc1146101f5578063150b7a021461020a5780631f1fcd51146102465780632358a38314610271575b600080fd5b6102086102033660046142ef565b61053e565b005b610228610218366004614327565b630a85bd0160e11b949350505050565b6040516001600160e01b031990911681526020015b60405180910390f35b600154610259906001600160a01b031681565b6040516001600160a01b03909116815260200161023d565b61020861027f366004614527565b6106bd565b61028d60055481565b60405190815260200161023d565b6102086102a93660046144fc565b6107bd565b6102c16102bc366004614584565b610836565b60405161023d919061467c565b610208610898565b61028d6108ac565b6102086102ec366004614584565b61092d565b61028d6109a0565b6040805180820182526004815263076312e360e41b6020820152905161023d91906146ce565b60085461032c9060ff1681565b604051901515815260200161023d565b61020861034a3660046143e3565b610ad6565b61020861035d3660046142b7565b610b8f565b61028d60065481565b61028d610c89565b6102086103813660046144fc565b610d42565b61028d610394366004614584565b610db5565b610208611034565b600454610259906001600160a01b031681565b6102086103c2366004614584565b61104b565b600254610259906001600160a01b031681565b6102086103e83660046142b7565b6110c0565b6104956103fb366004614584565b600960205260009081526040902080546001820154600283015460038401546004909401546001600160801b0380851695600160801b95869004821695858316958190048316949283169364ffffffffff918404821693600160a81b808204841694600160d01b909204909316926001600160a01b03918216929182169160ff600160a01b82048116928204811691600160b01b9004168d565b60405161023d9d9c9b9a99989796959493929190614847565b600354610259906001600160a01b031681565b61028d611700565b61028d60075481565b600054610259906201000090046001600160a01b031681565b6104fe6104f9366004614584565b61171b565b60405161023d9190614701565b6102086105193660046142ef565b611923565b61053161052c366004614584565b611aef565b60405161023d91906146c0565b600054610100900460ff166105ae5760405162461bcd60e51b815260206004820152602b60248201527f496e697469616c697a61626c653a20636f6e7472616374206973206e6f74206960448201526a6e697469616c697a696e6760a81b60648201526084015b60405180910390fd5b6000805462010000600160b01b0319163362010000908102919091179182905560405163efb5f11360e01b81526001600160a01b038481166004830152919092041690819063efb5f1139060240160206040518083038186803b15801561061457600080fd5b505afa158015610628573d6000803e3d6000fd5b505050506040513d601f19601f8201168201806040525081019061064c9190614568565b6106825760405162461bcd60e51b815260206004820152600760248201526610b6b0b933b4b760c91b60448201526064016105a5565b50600180546001600160a01b039384166001600160a01b03199182161790915560028054929093169116179055670de0b6b3a7640000600655565b600054610100900460ff166106d85760005460ff16156106dc565b303b155b61073f5760405162461bcd60e51b815260206004820152602e60248201527f496e697469616c697a61626c653a20636f6e747261637420697320616c72656160448201526d191e481a5b9a5d1a585b1a5e995960921b60648201526084016105a5565b600054610100900460ff16158015610761576000805461ffff19166101011790555b61076b848361053e565b826102d1146107a55760405162461bcd60e51b81526004016105a5906020808252600490820152632137323160e01b604082015260600190565b80156107b7576000805461ff00191690555b50505050565b6107c5611e28565b60046107d082611aef565b60078111156107ef57634e487b7160e01b600052602160045260246000fd5b146108285760405162461bcd60e51b81526020600482015260096024820152682164656c697665727960b81b60448201526064016105a5565b6108328282611e66565b5050565b6000818152603c602090815260409182902080548351818402810184019094528084526060939283018282801561088c57602002820191906000526020600020905b815481526020019060010190808311610878575b50505050509050919050565b6108a061226c565b6008805460ff19169055565b6002546040516370a0823160e01b81523060048201526000916001600160a01b0316906370a082319060240160206040518083038186803b1580156108f057600080fd5b505afa158015610904573d6000803e3d6000fd5b505050506040513d601f19601f82011682018060405250810190610928919061459c565b905090565b610935611e28565b600361094082611aef565b600781111561095f57634e487b7160e01b600052602160045260246000fd5b146109945760405162461bcd60e51b8152602060048201526005602482015264085919585960da1b60448201526064016105a5565b61099d816122b7565b50565b6003546000906001600160a01b031615610ad057610928670de0b6b3a7640000610aca600360009054906101000a90046001600160a01b03166001600160a01b03166377c7b8fc6040518163ffffffff1660e01b815260040160206040518083038186803b158015610a1157600080fd5b505afa158015610a25573d6000803e3d6000fd5b505050506040513d601f19601f82011682018060405250810190610a49919061459c565b6003546040516370a0823160e01b81523060048201526001600160a01b03909116906370a082319060240160206040518083038186803b158015610a8c57600080fd5b505afa158015610aa0573d6000803e3d6000fd5b505050506040513d601f19601f82011682018060405250810190610ac4919061459c565b90612585565b9061259a565b50600090565b610ade611e28565b818015610ae85750805b15610af657610af6866125a6565b610b04878686868686612608565b60006001600754610b159190614998565b905060005b8751811015610b84576000828152603c602052604090208851899083908110610b5357634e487b7160e01b600052603260045260246000fd5b6020908102919091018101518254600181018455600093845291909220015580610b7c816149db565b915050610b1a565b505050505050505050565b60008060029054906101000a90046001600160a01b03166001600160a01b031663c415b95c6040518163ffffffff1660e01b815260040160206040518083038186803b158015610bde57600080fd5b505afa158015610bf2573d6000803e3d6000fd5b505050506040513d601f19601f82011682018060405250810190610c1691906142d3565b6000549091506201000090046001600160a01b0316331480610c405750336001600160a01b038216145b610c745760405162461bcd60e51b8152602060048201526005602482015264042c2eae8d60db1b60448201526064016105a5565b610c8082600554612c3d565b50506000600555565b6003546000906001600160a01b031615610d3b57610928670de0b6b3a7640000610aca600360009054906101000a90046001600160a01b03166001600160a01b03166377c7b8fc6040518163ffffffff1660e01b815260040160206040518083038186803b158015610cfa57600080fd5b505afa158015610d0e573d6000803e3d6000fd5b505050506040513d601f19601f82011682018060405250810190610d32919061459c565b60065490612585565b5060065490565b610d4a611e28565b6001610d5582611aef565b6007811115610d7457634e487b7160e01b600052602160045260246000fd5b14610dab5760405162461bcd60e51b81526020600482015260076024820152662161637469766560c81b60448201526064016105a5565b6108328282612d21565b600081815260096020908152604080832081516101c08101835281546001600160801b038082168352600160801b9182900481169583019590955260018301548086169483019490945292839004841660608201526002820154938416608082015264ffffffffff928404831660a0820152600160a81b808504841660c0830152600160d01b90940490921660e083015260038101546001600160a01b03908116610100840152600482015490811661012084015260ff600160a01b820481161515610140850152938104841615156101608401528493610180840191600160b01b9004166007811115610eb957634e487b7160e01b600052602160045260246000fd5b6007811115610ed857634e487b7160e01b600052602160045260246000fd5b815260200160058201805480602002602001604051908101604052809291908181526020018280548015610f3557602002820191906000526020600020905b81546001600160a01b03168152600190910190602001808311610f17575b505050505081525050905080610140015161102e57600080546040805163ec2c65c160e01b8152815184936201000090046001600160a01b03169263ec2c65c19260048082019391829003018186803b158015610f9157600080fd5b505afa158015610fa5573d6000803e3d6000fd5b505050506040513d601f19601f82011682018060405250810190610fc991906145b4565b915091506000610ff782610aca86608001516001600160801b0316610ac4868861310290919063ffffffff16565b9050611028611021670de0b6b3a7640000610aca87604001516001600160801b0316610ac4610c89565b829061310e565b94505050505b50919050565b61103c61226c565b6008805460ff19166001179055565b611053611e28565b600561105e82611aef565b600781111561107d57634e487b7160e01b600052602160045260246000fd5b146110b55760405162461bcd60e51b815260206004820152600860248201526708595e1c1a5c995960c21b60448201526064016105a5565b61099d81600161311a565b6110c861226c565b6003546001600160a01b03161580156110e957506001600160a01b03811615155b156111da576000816001600160a01b0316631f1fcd516040518163ffffffff1660e01b815260040160206040518083038186803b15801561112957600080fd5b505afa15801561113d573d6000803e3d6000fd5b505050506040513d601f19601f8201168201806040525081019061116191906142d3565b6002549091506001600160a01b038083169116146111a95760405162461bcd60e51b8152602060048201526005602482015264085dd85b9d60da1b60448201526064016105a5565b6111be6001600160a01b038216836000613662565b6111d46001600160a01b03821683600019613662565b506116de565b6003546001600160a01b0316158015906111fc57506001600160a01b03811615155b156114b9576000816001600160a01b0316631f1fcd516040518163ffffffff1660e01b815260040160206040518083038186803b15801561123c57600080fd5b505afa158015611250573d6000803e3d6000fd5b505050506040513d601f19601f8201168201806040525081019061127491906142d3565b6002549091506001600160a01b038083169116146112bc5760405162461bcd60e51b8152602060048201526005602482015264085dd85b9d60da1b60448201526064016105a5565b6003546040516370a0823160e01b81523060048201526000916001600160a01b0316906370a082319060240160206040518083038186803b15801561130057600080fd5b505afa158015611314573d6000803e3d6000fd5b505050506040513d601f19601f82011682018060405250810190611338919061459c565b9050600080821161134a5760006113c8565b600354604051632e1a7d4d60e01b8152600481018490526001600160a01b0390911690632e1a7d4d90602401602060405180830381600087803b15801561139057600080fd5b505af11580156113a4573d6000803e3d6000fd5b505050506040513d601f19601f820116820180604052508101906113c8919061459c565b6003549091506113e6906001600160a01b0385811691166000613662565b6113fb6001600160a01b038416856000613662565b6114116001600160a01b03841685600019613662565b81156114b15760405163b6b55f2560e01b8152600481018290526000906001600160a01b0386169063b6b55f2590602401602060405180830381600087803b15801561145c57600080fd5b505af1158015611470573d6000803e3d6000fd5b505050506040513d601f19601f82011682018060405250810190611494919061459c565b90506114ac83610aca83670de0b6b3a7640000612585565b600655505b5050506116de565b6003546001600160a01b0316158015906114da57506001600160a01b038116155b156116ab576003546040516370a0823160e01b81523060048201526000916001600160a01b0316906370a082319060240160206040518083038186803b15801561152357600080fd5b505afa158015611537573d6000803e3d6000fd5b505050506040513d601f19601f8201168201806040525081019061155b919061459c565b9050600080821161156d5760006115eb565b600354604051632e1a7d4d60e01b8152600481018490526001600160a01b0390911690632e1a7d4d90602401602060405180830381600087803b1580156115b357600080fd5b505af11580156115c7573d6000803e3d6000fd5b505050506040513d601f19601f820116820180604052508101906115eb919061459c565b60035460408051631f1fcd5160e01b81529051929350611684926001600160a01b03909216916000918391631f1fcd5191600480820192602092909190829003018186803b15801561163c57600080fd5b505afa158015611650573d6000803e3d6000fd5b505050506040513d601f19601f8201168201806040525081019061167491906142d3565b6001600160a01b03169190613662565b81156116a4576116a082610aca83670de0b6b3a7640000612585565b6006555b50506116de565b60405162461bcd60e51b81526020600482015260086024820152676e6f6e73656e736560c01b60448201526064016105a5565b600380546001600160a01b0319166001600160a01b0392909216919091179055565b600061092861170d6109a0565b6117156108ac565b90613102565b611792604080516101c081018252600080825260208201819052918101829052606081018290526080810182905260a0810182905260c0810182905260e081018290526101008101829052610120810182905261014081018290526101608101829052906101808201908152602001606081525090565b60008281526009602090815260409182902082516101c08101845281546001600160801b038082168352600160801b9182900481169483019490945260018301548085169583019590955293849004831660608201526002820154928316608082015264ffffffffff938304841660a0820152600160a81b808404851660c0830152600160d01b90930490931660e084015260038101546001600160a01b03908116610100850152600482015490811661012085015260ff600160a01b820481161515610140860152928104831615156101608501529091610180840191600160b01b900416600781111561189757634e487b7160e01b600052602160045260246000fd5b60078111156118b657634e487b7160e01b600052602160045260246000fd5b81526020016005820180548060200260200160405190810160405280929190818152602001828054801561191357602002820191906000526020600020905b81546001600160a01b031681526001909101906020018083116118f5575b5050505050815250509050919050565b60008060029054906101000a90046001600160a01b03166001600160a01b031663c415b95c6040518163ffffffff1660e01b815260040160206040518083038186803b15801561197257600080fd5b505afa158015611986573d6000803e3d6000fd5b505050506040513d601f19601f820116820180604052508101906119aa91906142d3565b6000549091506201000090046001600160a01b03163314806119d45750336001600160a01b038216145b611a085760405162461bcd60e51b8152602060048201526005602482015264042c2eae8d60db1b60448201526064016105a5565b611a11836137b9565b6004546001600160a01b0384811691161415611a5c576040516001600160a01b038316904780156108fc02916000818181858888f193505050501580156107b7573d6000803e3d6000fd5b6040516370a0823160e01b8152306004820152611aea9083906001600160a01b038616906370a082319060240160206040518083038186803b158015611aa157600080fd5b505afa158015611ab5573d6000803e3d6000fd5b505050506040513d601f19601f82011682018060405250810190611ad9919061459c565b6001600160a01b0386169190613849565b505050565b600081815260096020908152604080832081516101c08101835281546001600160801b038082168352600160801b9182900481169583019590955260018301548086169483019490945292839004841660608201526002820154938416608082015264ffffffffff928404831660a0820152600160a81b808504841660c0830152600160d01b90940490921660e083015260038101546001600160a01b03908116610100840152600482015490811661012084015260ff600160a01b820481161515610140850152938104841615156101608401528493610180840191600160b01b9004166007811115611bf357634e487b7160e01b600052602160045260246000fd5b6007811115611c1257634e487b7160e01b600052602160045260246000fd5b815260200160058201805480602002602001604051908101604052809291908181526020018280548015611c6f57602002820191906000526020600020905b81546001600160a01b03168152600190910190602001808311611c51575b50505050508152505090508060a0015164ffffffffff1660001415611c975750600092915050565b60078161018001516007811115611cbe57634e487b7160e01b600052602160045260246000fd5b1415611ccd5750600792915050565b60a0810151429064ffffffffff168111611d215760028261018001516007811115611d0857634e487b7160e01b600052602160045260246000fd5b14611d17575060019392505050565b5060029392505050565b60018261018001516007811115611d4857634e487b7160e01b600052602160045260246000fd5b1415611d58575060039392505050565b8160c0015164ffffffffff168111611da05760028261018001516007811115611d9157634e487b7160e01b600052602160045260246000fd5b14611d17575060039392505050565b8160e0015164ffffffffff168111611df25760068261018001516007811115611dd957634e487b7160e01b600052602160045260246000fd5b14611de8575060049392505050565b5060069392505050565b60068261018001516007811115611e1957634e487b7160e01b600052602160045260246000fd5b14611de8575060059392505050565b60085460ff1615611e645760405162461bcd60e51b81526020600482015260066024820152651c185d5cd95960d21b60448201526064016105a5565b565b600081815260096020908152604080832081516101c08101835281546001600160801b038082168352600160801b9182900481169583019590955260018301548086169483019490945292839004841660608201526002820154938416608082015264ffffffffff928404831660a0820152600160a81b808504841660c0830152600160d01b90940490921660e083015260038101546001600160a01b03908116610100840152600482015490811661012084015260ff600160a01b8204811615156101408501529381048416151561016084015291929091610180840191600160b01b909104166007811115611f6d57634e487b7160e01b600052602160045260246000fd5b6007811115611f8c57634e487b7160e01b600052602160045260246000fd5b815260200160058201805480602002602001604051908101604052809291908181526020018280548015611fe957602002820191906000526020600020905b81546001600160a01b03168152600190910190602001808311611fcb575b50505050508152505090508061012001516001600160a01b0316836001600160a01b031614801561201d5750806101600151155b1561209e5761202b82613879565b60008281526009602052604090819020600401805460ff60a81b1916600160a81b179055517fc2f1452b368e39827ef7e6cbbdb3550c8647a3d176b3db42234e610b36a87a479061209190849086909182526001600160a01b0316602082015260400190565b60405180910390a1612261565b8061010001516001600160a01b0316836001600160a01b03161480156120c75750806101400151155b1561222b57600080546040805163ec2c65c160e01b8152815184936201000090046001600160a01b03169263ec2c65c19260048082019391829003018186803b15801561211357600080fd5b505afa158015612127573d6000803e3d6000fd5b505050506040513d601f19601f8201168201806040525081019061214b91906145b4565b91509150600061217982610aca86608001516001600160801b0316610ac4868861310290919063ffffffff16565b90506121b46121ad6121a6670de0b6b3a7640000610aca88604001516001600160801b0316610ac4610c89565b839061310e565b60006138da565b5060008581526009602052604090819020600401805460ff60a01b1916600160a01b179055517fc2f1452b368e39827ef7e6cbbdb3550c8647a3d176b3db42234e610b36a87a479061221b90879089909182526001600160a01b0316602082015260400190565b60405180910390a1505050612261565b60405162461bcd60e51b815260206004820152600b60248201526a64656c697665722062756760a81b60448201526064016105a5565b611aea82600061311a565b6000546201000090046001600160a01b03163314611e645760405162461bcd60e51b815260206004820152600860248201526721666163746f727960c01b60448201526064016105a5565b600081815260096020908152604080832081516101c08101835281546001600160801b038082168352600160801b9182900481169583019590955260018301548086169483019490945292839004841660608201526002820154938416608082015264ffffffffff928404831660a0820152600160a81b808504841660c0830152600160d01b90940490921660e083015260038101546001600160a01b03908116610100840152600482015490811661012084015260ff600160a01b8204811615156101408501529381048416151561016084015291929091610180840191600160b01b9091041660078111156123be57634e487b7160e01b600052602160045260246000fd5b60078111156123dd57634e487b7160e01b600052602160045260246000fd5b81526020016005820180548060200260200160405190810160405280929190818152602001828054801561243a57602002820191906000526020600020905b81546001600160a01b0316815260019091019060200180831161241c575b505050919092525050506101008101519091506001600160a01b0316156124935761248e816101000151612489670de0b6b3a7640000610aca85604001516001600160801b0316610ac4610c89565b612c3d565b612529565b6101208101516001600160a01b0316156124ef576124d5816101200151612489670de0b6b3a7640000610aca85606001516001600160801b0316610ac4610c89565b8061016001511561248e5761248e828261012001516139a8565b60405162461bcd60e51b815260206004820152600f60248201526e63616e63656c4f726465722062756760881b60448201526064016105a5565b6000828152600960209081526040918290206004018054600760b01b60ff60b01b1990911617905590518381527f935c9ad2f1fda9d7eae0d2a512f1521cb7190ee06165414e722366a65975fb6b910160405180910390a15050565b60006125918284614979565b90505b92915050565b60006125918284614959565b60005b81518110156108325760015482516125f6916001600160a01b031690339030908690869081106125e957634e487b7160e01b600052603260045260246000fd5b6020026020010151613a0a565b80612600816149db565b9150506125a9565b83516001600160801b03118015612629575060208401516001600160801b03115b801561263f575060408401516001600160801b03115b6126765760405162461bcd60e51b81526020600482015260086024820152676f766572666c6f7760c01b60448201526064016105a5565b6001600160801b0361269885600260200201518660015b602002015190613102565b106126dc5760405162461bcd60e51b815260206004820152601460248201527364656c69766572206d6179206f766572666c6f7760601b60448201526064016105a5565b64ffffffffff6126f5866002602002015187600161268d565b108015612716575060208501516127148660005b602002015142611715565b105b61274a5760405162461bcd60e51b81526020600482015260056024820152642174696d6560d81b60448201526064016105a5565b6000828015612757575081155b1561280c57600080546040805163ec2c65c160e01b8152815184936201000090046001600160a01b03169263ec2c65c19260048082019391829003018186803b1580156127a357600080fd5b505afa1580156127b7573d6000803e3d6000fd5b505050506040513d601f19601f820116820180604052508101906127db91906145b4565b90925090506128036127fc82610aca8a60006020020151610ac48787613102565b60016138da565b9250505061282d565b61282a8261281e5760208601516127fc565b604086015160016138da565b90505b600780546000918261283e836149db565b919050559050604051806101c001604052808760016003811061287157634e487b7160e01b600052603260045260246000fd5b60200201516001600160801b03168152602001876002600381106128a557634e487b7160e01b600052603260045260246000fd5b60200201516001600160801b03168152602001846128c357836128c6565b60005b6001600160801b03168152602001846128e05760006128e2565b835b6001600160801b0390811682528851166020820152604001612905896000612709565b64ffffffffff908116825260208a8101519091169082015260400161293389600260200201518a600161268d565b64ffffffffff1681526020018461294a578961294d565b60005b6001600160a01b0316815260200184612967576000612969565b895b6001600160a01b03168152602001858015612982575084155b151581526020018580156129935750845b151581526020016001815260200160006040519080825280602002602001820160405280156129cc578160200160208202803683370190505b5090526000828152600960209081526040918290208351918401516001600160801b03928316600160801b91841682021782559284015160608501519083169083168402176001820155608084015160028201805460a087015160c088015160e0890151949096166001600160a81b03199283161764ffffffffff9182169097029690961769ffffffffffffffffffff60a81b1916600160a81b958716860264ffffffffff60d01b191617600160d01b96909316959095029190911790556101008401516003820180546001600160a01b0319166001600160a01b0392831617905561012085015160048301805461014088015161016089015193909416961695909517600160a01b921515929092029190911760ff60a81b19811691151590930290811784556101808501519193919261ffff60a81b191660ff60b01b1990911617600160b01b836007811115612b3457634e487b7160e01b600052602160045260246000fd5b02179055506101a08201518051612b55916005840191602090910190614142565b50508551159050612bf15760005b8551811015612bef5760096000838152602001908152602001600020600501868281518110612ba257634e487b7160e01b600052603260045260246000fd5b60209081029190910181015182546001810184556000938452919092200180546001600160a01b0319166001600160a01b0390921691909117905580612be7816149db565b915050612b63565b505b604080518281526001600160a01b038a1660208201527fc2543e39f94e2f3c7bd242ab0053972523f75ca379ae9b64a474ce5c79d6891191015b60405180910390a15050505050505050565b6000612c476108ac565b90508181108015612c6257506003546001600160a01b031615155b15612cfe576003546001600160a01b0316632e1a7d4d612c82848461310e565b6040518263ffffffff1660e01b8152600401612ca091815260200190565b602060405180830381600087803b158015612cba57600080fd5b505af1158015612cce573d6000803e3d6000fd5b505050506040513d601f19601f82011682018060405250810190612cf2919061459c565b50612cfb6108ac565b90505b80821115612d0a578091505b600254611aea906001600160a01b03168484613d36565b600081815260096020908152604080832081516101c08101835281546001600160801b038082168352600160801b9182900481169583019590955260018301548086169483019490945292839004841660608201526002820154938416608082015264ffffffffff928404831660a0820152600160a81b808504841660c0830152600160d01b90940490921660e083015260038101546001600160a01b03908116610100840152600482015490811661012084015260ff600160a01b8204811615156101408501529381048416151561016084015291929091610180840191600160b01b909104166007811115612e2857634e487b7160e01b600052602160045260246000fd5b6007811115612e4757634e487b7160e01b600052602160045260246000fd5b815260200160058201805480602002602001604051908101604052809291908181526020018280548015612ea457602002820191906000526020600020905b81546001600160a01b03168152600190910190602001808311612e86575b50505050508152505090506000816101a00151511115612f0657612ecd83826101a00151613d4a565b612f065760405162461bcd60e51b815260206004820152600a602482015269085dda1a5d195b1a5cdd60b21b60448201526064016105a5565b600082815260096020526040812060040154612f77906001600160a01b031615612f47576000848152600960205260409020546001600160801b0316612f67565b600084815260096020526040902054600160801b90046001600160801b03165b6001600160801b031660016138da565b6000848152600960205260409020600301549091506001600160a01b0316612fee5760008381526009602052604090206003810180546001600160a01b0319166001600160a01b03871617905560010180546fffffffffffffffffffffffffffffffff19166001600160801b038316179055613092565b6000838152600960205260409020600401546001600160a01b031661305a5760008381526009602052604090206004810180546001600160a01b0387166001600160a01b031990911617905560010180546001600160801b03808416600160801b029116179055613092565b60405162461bcd60e51b815260206004820152600d60248201526c74616b654f726465722062756760981b60448201526064016105a5565b600083815260096020526040902060040180546002919060ff60b01b1916600160b01b830217905550604080518481526001600160a01b03861660208201527fa409aeee90f7d8baa060c420573bf2d543386afb645ad155c1a2e5f4a90fa76d910160405180910390a150505050565b60006125918284614941565b60006125918284614998565b600080546040805163ec2c65c160e01b8152815184936201000090046001600160a01b03169263ec2c65c19260048082019391829003018186803b15801561316157600080fd5b505afa158015613175573d6000803e3d6000fd5b505050506040513d601f19601f8201168201806040525081019061319991906145b4565b600086815260096020908152604080832081516101c08101835281546001600160801b038082168352600160801b9182900481169583019590955260018301548086169483019490945292839004841660608201526002820154938416608082015264ffffffffff928404831660a0820152600160a81b808504841660c0830152600160d01b90940490921660e083015260038101546001600160a01b03908116610100840152600482015490811661012084015260ff600160a01b820481161515610140850152938104841615156101608401529597509395509193919291610180840191600160b01b9091041660078111156132a757634e487b7160e01b600052602160045260246000fd5b60078111156132c657634e487b7160e01b600052602160045260246000fd5b81526020016005820180548060200260200160405190810160405280929190818152602001828054801561332357602002820191906000526020600020905b81546001600160a01b03168152600190910190602001808311613305575b5050505050815250509050806101600151801561334257508061014001515b156134bb57613356858261010001516139a8565b600061337c83610aca84608001516001600160801b03168761258590919063ffffffff16565b905060006133a5670de0b6b3a7640000610aca85604001516001600160801b0316610ac4610c89565b90506133c783608001516001600160801b03168361310290919063ffffffff16565b81111561340157613401836101000151612489846133fb87608001516001600160801b03168661310e90919063ffffffff16565b9061310e565b600061343d836133fb86608001516001600160801b0316611715670de0b6b3a7640000610aca8a606001516001600160801b0316610ac4610c89565b905061344e84610120015182612c3d565b61346561345c846002612585565b60055490613102565b600555600088815260096020908152604091829020600401805460ff60b01b1916600360b11b17905590518981527f2a45eee61b61ef4932e2d79b32be61a1a538cbe00381faffb4d1cf3b1268c46b9101612c2b565b831561365b5780610160015161355c5760006134f183610aca84602001516001600160801b03168761258590919063ffffffff16565b6005549091506135019082613102565b60055561010082015161355690612489836133fb670de0b6b3a7640000610aca613529610c89565b610ac48a606001516001600160801b03168b604001516001600160801b031661310290919063ffffffff16565b50613602565b80610140015161360257600061358c83610aca84600001516001600160801b03168761258590919063ffffffff16565b60055490915061359c9082613102565b6005556101208201516135f190612489836133fb670de0b6b3a7640000610aca6135c4610c89565b610ac48a604001516001600160801b03168b606001516001600160801b031661310290919063ffffffff16565b613600868361012001516139a8565b505b6000858152600960209081526040918290206004018054600360b11b60ff60b01b1990911617905590518681527f2a45eee61b61ef4932e2d79b32be61a1a538cbe00381faffb4d1cf3b1268c46b910160405180910390a15b5050505050565b8015806136eb5750604051636eb1769f60e11b81523060048201526001600160a01b03838116602483015284169063dd62ed3e9060440160206040518083038186803b1580156136b157600080fd5b505afa1580156136c5573d6000803e3d6000fd5b505050506040513d601f19601f820116820180604052508101906136e9919061459c565b155b6137565760405162461bcd60e51b815260206004820152603660248201527f5361666545524332303a20617070726f76652066726f6d206e6f6e2d7a65726f60448201527520746f206e6f6e2d7a65726f20616c6c6f77616e636560501b60648201526084016105a5565b6040516001600160a01b038316602482015260448101829052611aea90849063095ea7b360e01b906064015b60408051601f198184030181529190526020810180516001600160e01b03166001600160e01b031990931692909217909152613dbe565b6002546001600160a01b03828116911614156138015760405162461bcd60e51b815260206004820152600760248201526610b6b0b933b4b760c91b60448201526064016105a5565b6003546001600160a01b038281169116141561099d5760405162461bcd60e51b8152602060048201526007602482015266085995985d5b1d60ca1b60448201526064016105a5565b6040516001600160a01b038316602482015260448101829052611aea90849063a9059cbb60e01b90606401613782565b6000818152603c6020908152604091829020805483518184028101840190945280845261099d93928301828280156138d057602002820191906000526020600020905b8154815260200190600101908083116138bc575b50505050506125a6565b6002546000906138f3906001600160a01b031684613e90565b600082801561390c57506003546001600160a01b031615155b6139325761392d61391b610c89565b610aca86670de0b6b3a7640000612585565b6139a0565b60065460035460405163b6b55f2560e01b8152600481018790526139a09291610aca91670de0b6b3a7640000916001600160a01b03169063b6b55f2590602401602060405180830381600087803b15801561398c57600080fd5b505af1158015610aa0573d6000803e3d6000fd5b949350505050565b6000828152603c6020908152604091829020805483518184028101840190945280845261083293928301828280156139ff57602002820191906000526020600020905b8154815260200190600101908083116139eb575b505050505082613eab565b60606001600160a01b0385167306012c8cf97bead5deae237070f9587f8e7a266d1415613a7e576323b872dd848484604051602401613a4b93929190614658565b6040516020818303038152906040529060e01b6020820180516001600160e01b0383818316178352505050509050613cb6565b6001600160a01b03851673d03b517dfa5d14c3c7642d974ddc1b8b2c8e2d181415613c0757600080866001600160a01b0316635817816885604051602401613ac891815260200190565b6040516020818303038152906040529060e01b6020820180516001600160e01b038381831617835250505050604051613b01919061463c565b600060405180830381855afa9150503d8060008114613b3c576040519150601f19603f3d011682016040523d82523d6000602084013e613b41565b606091505b5091509150600081806020019051810190613b5c91906142d3565b9050828015613b7c5750866001600160a01b0316816001600160a01b0316145b613bb95760405162461bcd60e51b815260206004820152600e60248201526d383ab636103737ba1037bbb732b960911b60448201526064016105a5565b638264fe9885604051602401613bd191815260200190565b6040516020818303038152906040529060e01b6020820180516001600160e01b0383818316178352505050509350505050613cb6565b6001600160a01b0385167379986af15539de2db9a5086382daeda917a9cf0c1480613c4e57506001600160a01b038516732a46f2ffd99e19a89476e2f62270e0a35bbf0756145b15613c6d576323b872dd848484604051602401613a4b93929190614658565b6342842e0e848484604051602401613c8793929190614658565b6040516020818303038152906040529060e01b6020820180516001600160e01b03838183161783525050505090505b600080866001600160a01b031683604051613cd1919061463c565b6000604051808303816000865af19150503d8060008114613d0e576040519150601f19603f3d011682016040523d82523d6000602084013e613d13565b606091505b5091509150818015613d2457508051155b613d2d57600080fd5b50505050505050565b611aea6001600160a01b0384168383613849565b6000805b8251811015613db457828181518110613d7757634e487b7160e01b600052603260045260246000fd5b60200260200101516001600160a01b0316846001600160a01b03161415613da2576001915050612594565b80613dac816149db565b915050613d4e565b5060009392505050565b6000613e13826040518060400160405280602081526020017f5361666545524332303a206c6f772d6c6576656c2063616c6c206661696c6564815250856001600160a01b0316613f0d9092919063ffffffff16565b805190915015611aea5780806020019051810190613e319190614568565b611aea5760405162461bcd60e51b815260206004820152602a60248201527f5361666545524332303a204552433230206f7065726174696f6e20646964206e6044820152691bdd081cdd58d8d9595960b21b60648201526084016105a5565b8015610832576108326001600160a01b038316333084613f26565b60005b8251811015611aea576001548351613efb916001600160a01b03169030908590879086908110613eee57634e487b7160e01b600052603260045260246000fd5b6020026020010151613f47565b80613f05816149db565b915050613eae565b6060613f1c8484600085613fe1565b90505b9392505050565b6107b7846323b872dd60e01b85858560405160240161378293929190614658565b60606001600160a01b0385167306012c8cf97bead5deae237070f9587f8e7a266d1415613f95576040516001600160a01b03841660248201526044810183905263a9059cbb90606401613a4b565b6001600160a01b03851673d03b517dfa5d14c3c7642d974ddc1b8b2c8e2d181415613c07576040516001600160a01b038416602482015260448101839052638b72a2ec90606401613a4b565b6060824710156140425760405162461bcd60e51b815260206004820152602660248201527f416464726573733a20696e73756666696369656e742062616c616e636520666f6044820152651c8818d85b1b60d21b60648201526084016105a5565b843b6140905760405162461bcd60e51b815260206004820152601d60248201527f416464726573733a2063616c6c20746f206e6f6e2d636f6e747261637400000060448201526064016105a5565b600080866001600160a01b031685876040516140ac919061463c565b60006040518083038185875af1925050503d80600081146140e9576040519150601f19603f3d011682016040523d82523d6000602084013e6140ee565b606091505b50915091506140fe828286614109565b979650505050505050565b60608315614118575081613f1f565b8251156141285782518084602001fd5b8160405162461bcd60e51b81526004016105a591906146ce565b828054828255906000526020600020908101928215614197579160200282015b8281111561419757825182546001600160a01b0319166001600160a01b03909116178255602090920191600190910190614162565b506141a39291506141a7565b5090565b5b808211156141a357600081556001016141a8565b600082601f8301126141cc578081fd5b813560206141e16141dc8361491d565b6148ec565b80838252828201915082860187848660051b8901011115614200578586fd5b855b8581101561422757813561421581614a22565b84529284019290840190600101614202565b5090979650505050505050565b600082601f830112614244578081fd5b6040516060810181811067ffffffffffffffff8211171561426757614267614a0c565b60405280836060810186101561427b578384fd5b835b600381101561429c57813583526020928301929091019060010161427d565b509195945050505050565b80356142b281614a37565b919050565b6000602082840312156142c8578081fd5b8135613f1f81614a22565b6000602082840312156142e4578081fd5b8151613f1f81614a22565b60008060408385031215614301578081fd5b823561430c81614a22565b9150602083013561431c81614a22565b809150509250929050565b6000806000806080858703121561433c578182fd5b843561434781614a22565b935060208581013561435881614a22565b935060408601359250606086013567ffffffffffffffff8082111561437b578384fd5b818801915088601f83011261438e578384fd5b8135818111156143a0576143a0614a0c565b6143b2601f8201601f191685016148ec565b915080825289848285010111156143c7578485fd5b8084840185840137810190920192909252939692955090935050565b6000806000806000806000610160888a0312156143fe578283fd5b873561440981614a22565b965060208881013567ffffffffffffffff80821115614426578586fd5b818b0191508b601f830112614439578586fd5b81356144476141dc8261491d565b8082825285820191508585018f878560051b880101111561446657898afd5b8995505b8386101561448857803583526001959095019491860191860161446a565b50809b5050505061449c8c60408d01614234565b97506144ab8c60a08d01614234565b96506101008b01359250808311156144c1578586fd5b50506144cf8a828b016141bc565b9350506144df61012089016142a7565b91506144ee61014089016142a7565b905092959891949750929550565b6000806040838503121561450e578182fd5b823561451981614a22565b946020939093013593505050565b60008060006060848603121561453b578081fd5b833561454681614a22565b925060208401359150604084013561455d81614a22565b809150509250925092565b600060208284031215614579578081fd5b8151613f1f81614a37565b600060208284031215614595578081fd5b5035919050565b6000602082840312156145ad578081fd5b5051919050565b600080604083850312156145c6578182fd5b505080516020909101519092909150565b6000815180845260208085019450808401835b8381101561460f5781516001600160a01b0316875295820195908201906001016145ea565b509495945050505050565b6008811061463857634e487b7160e01b600052602160045260246000fd5b9052565b6000825161464e8184602087016149af565b9190910192915050565b6001600160a01b039384168152919092166020820152604081019190915260600190565b6020808252825182820181905260009190848201906040850190845b818110156146b457835183529284019291840191600101614698565b50909695505050505050565b60208101612594828461461a565b60208152600082518060208401526146ed8160408501602087016149af565b601f01601f19169190910160400192915050565b6020815261471b6020820183516001600160801b03169052565b6000602083015161473760408401826001600160801b03169052565b5060408301516001600160801b03811660608401525060608301516001600160801b03811660808401525060808301516001600160801b03811660a08401525060a083015164ffffffffff811660c08401525060c083015164ffffffffff811660e08401525060e08301516101006147b78185018364ffffffffff169052565b84015190506101206147d3848201836001600160a01b03169052565b84015190506101406147ef848201836001600160a01b03169052565b84015190506101606148048482018315159052565b84015190506101806148198482018315159052565b84015190506101a061482d8482018361461a565b8401516101c08481015290506139a06101e08401826145d7565b6001600160801b038e811682528d811660208301528c811660408301528b811660608301528a16608082015264ffffffffff89811660a0830152881660c08201526101a0810164ffffffffff881660e08301526001600160a01b0387166101008301526001600160a01b0386166101208301528415156101408301528315156101608301526148da61018083018461461a565b9e9d5050505050505050505050505050565b604051601f8201601f1916810167ffffffffffffffff8111828210171561491557614915614a0c565b604052919050565b600067ffffffffffffffff82111561493757614937614a0c565b5060051b60200190565b60008219821115614954576149546149f6565b500190565b60008261497457634e487b7160e01b81526012600452602481fd5b500490565b6000816000190483118215151615614993576149936149f6565b500290565b6000828210156149aa576149aa6149f6565b500390565b60005b838110156149ca5781810151838201526020016149b2565b838111156107b75750506000910152565b60006000198214156149ef576149ef6149f6565b5060010190565b634e487b7160e01b600052601160045260246000fd5b634e487b7160e01b600052604160045260246000fd5b6001600160a01b038116811461099d57600080fd5b801515811461099d57600080fdfea264697066735822122000d7d62bee6c705531b8655bf544171e91a75803c395bc148b1fb55618643b1164736f6c63430008040033",
  "linkReferences": {},
  "deployedLinkReferences": {}
}