{
  "_format": "hh-sol-artifact-1",
  "contractName": "ForwardEtherRouter",
  "sourceName": "contracts/forward/ForwardEtherRouter.sol",
  "abi": [
    {
      "inputs": [
        {
          "internalType": "address",
          "name": "_weth",
          "type": "address"
        }
      ],
      "stateMutability": "nonpayable",
      "type": "constructor"
    },
    {
      "inputs": [
        {
          "internalType": "address",
          "name": "_forward",
          "type": "address"
        },
        {
          "internalType": "uint256",
          "name": "_orderId",
          "type": "uint256"
        }
      ],
      "name": "cancelOrder",
      "outputs": [],
      "stateMutability": "payable",
      "type": "function"
    },
    {
      "inputs": [
        {
          "internalType": "address",
          "name": "_forward1155",
          "type": "address"
        },
        {
          "internalType": "address",
          "name": "_creator",
          "type": "address"
        },
        {
          "internalType": "uint256[]",
          "name": "_ids",
          "type": "uint256[]"
        },
        {
          "internalType": "uint256[]",
          "name": "_amounts",
          "type": "uint256[]"
        },
        {
          "internalType": "uint256[]",
          "name": "_times",
          "type": "uint256[]"
        },
        {
          "internalType": "uint256[]",
          "name": "_prices",
          "type": "uint256[]"
        },
        {
          "internalType": "address[]",
          "name": "_takerWhiteList",
          "type": "address[]"
        },
        {
          "internalType": "bool",
          "name": "_deposit",
          "type": "bool"
        },
        {
          "internalType": "bool",
          "name": "_isSeller",
          "type": "bool"
        }
      ],
      "name": "createOrder1155For",
      "outputs": [],
      "stateMutability": "payable",
      "type": "function"
    },
    {
      "inputs": [
        {
          "internalType": "address",
          "name": "_forward20",
          "type": "address"
        },
        {
          "internalType": "address",
          "name": "_creator",
          "type": "address"
        },
        {
          "internalType": "uint256",
          "name": "_underlyingAmount",
          "type": "uint256"
        },
        {
          "internalType": "uint256[]",
          "name": "_times",
          "type": "uint256[]"
        },
        {
          "internalType": "uint256[]",
          "name": "_prices",
          "type": "uint256[]"
        },
        {
          "internalType": "address[]",
          "name": "_takerWhiteList",
          "type": "address[]"
        },
        {
          "internalType": "bool",
          "name": "_deposit",
          "type": "bool"
        },
        {
          "internalType": "bool",
          "name": "_isSeller",
          "type": "bool"
        }
      ],
      "name": "createOrder20For",
      "outputs": [],
      "stateMutability": "payable",
      "type": "function"
    },
    {
      "inputs": [
        {
          "internalType": "address",
          "name": "_forward721",
          "type": "address"
        },
        {
          "internalType": "address",
          "name": "_creator",
          "type": "address"
        },
        {
          "internalType": "uint256[]",
          "name": "_tokenIds",
          "type": "uint256[]"
        },
        {
          "internalType": "uint256[]",
          "name": "_times",
          "type": "uint256[]"
        },
        {
          "internalType": "uint256[]",
          "name": "_prices",
          "type": "uint256[]"
        },
        {
          "internalType": "address[]",
          "name": "_takerWhiteList",
          "type": "address[]"
        },
        {
          "internalType": "bool",
          "name": "_deposit",
          "type": "bool"
        },
        {
          "internalType": "bool",
          "name": "_isSeller",
          "type": "bool"
        }
      ],
      "name": "createOrder721For",
      "outputs": [],
      "stateMutability": "payable",
      "type": "function"
    },
    {
      "inputs": [
        {
          "internalType": "address",
          "name": "_forward",
          "type": "address"
        },
        {
          "internalType": "address",
          "name": "_deliverer",
          "type": "address"
        },
        {
          "internalType": "uint256",
          "name": "_orderId",
          "type": "uint256"
        }
      ],
      "name": "deliverFor",
      "outputs": [],
      "stateMutability": "payable",
      "type": "function"
    },
    {
      "inputs": [
        {
          "internalType": "address",
          "name": "",
          "type": "address"
        },
        {
          "internalType": "address",
          "name": "",
          "type": "address"
        },
        {
          "internalType": "uint256[]",
          "name": "",
          "type": "uint256[]"
        },
        {
          "internalType": "uint256[]",
          "name": "",
          "type": "uint256[]"
        },
        {
          "internalType": "bytes",
          "name": "",
          "type": "bytes"
        }
      ],
      "name": "onERC1155BatchReceived",
      "outputs": [
        {
          "internalType": "bytes4",
          "name": "",
          "type": "bytes4"
        }
      ],
      "stateMutability": "nonpayable",
      "type": "function"
    },
    {
      "inputs": [
        {
          "internalType": "address",
          "name": "",
          "type": "address"
        },
        {
          "internalType": "address",
          "name": "",
          "type": "address"
        },
        {
          "internalType": "uint256",
          "name": "",
          "type": "uint256"
        },
        {
          "internalType": "uint256",
          "name": "",
          "type": "uint256"
        },
        {
          "internalType": "bytes",
          "name": "",
          "type": "bytes"
        }
      ],
      "name": "onERC1155Received",
      "outputs": [
        {
          "internalType": "bytes4",
          "name": "",
          "type": "bytes4"
        }
      ],
      "stateMutability": "nonpayable",
      "type": "function"
    },
    {
      "inputs": [
        {
          "internalType": "address",
          "name": "",
          "type": "address"
        },
        {
          "internalType": "address",
          "name": "",
          "type": "address"
        },
        {
          "internalType": "uint256",
          "name": "",
          "type": "uint256"
        },
        {
          "internalType": "bytes",
          "name": "",
          "type": "bytes"
        }
      ],
      "name": "onERC721Received",
      "outputs": [
        {
          "internalType": "bytes4",
          "name": "",
          "type": "bytes4"
        }
      ],
      "stateMutability": "nonpayable",
      "type": "function"
    },
    {
      "inputs": [
        {
          "internalType": "address",
          "name": "_forward",
          "type": "address"
        },
        {
          "internalType": "uint256",
          "name": "_orderId",
          "type": "uint256"
        }
      ],
      "name": "settle",
      "outputs": [],
      "stateMutability": "nonpayable",
      "type": "function"
    },
    {
      "inputs": [
        {
          "internalType": "bytes4",
          "name": "interfaceId",
          "type": "bytes4"
        }
      ],
      "name": "supportsInterface",
      "outputs": [
        {
          "internalType": "bool",
          "name": "",
          "type": "bool"
        }
      ],
      "stateMutability": "view",
      "type": "function"
    },
    {
      "inputs": [
        {
          "internalType": "address",
          "name": "_forward",
          "type": "address"
        },
        {
          "internalType": "address",
          "name": "_taker",
          "type": "address"
        },
        {
          "internalType": "uint256",
          "name": "_orderId",
          "type": "uint256"
        }
      ],
      "name": "takeOrderFor",
      "outputs": [],
      "stateMutability": "payable",
      "type": "function"
    },
    {
      "inputs": [],
      "name": "weth",
      "outputs": [
        {
          "internalType": "contract IWETH",
          "name": "",
          "type": "address"
        }
      ],
      "stateMutability": "view",
      "type": "function"
    },
    {
      "stateMutability": "payable",
      "type": "receive"
    }
  ],
  "bytecode": "0x60806040523480156200001157600080fd5b506040516200332f3803806200332f83398101604081905262000034916200005a565b600080546001600160a01b0319166001600160a01b03929092169190911790556200008a565b6000602082840312156200006c578081fd5b81516001600160a01b038116811462000083578182fd5b9392505050565b613295806200009a6000396000f3fe6080604052600436106100ab5760003560e01c80636a206137116100645780636a206137146101b05780636ce110ef146101c357806372641807146101d6578063bc197c81146101e9578063f23a6e6114610215578063f29f17cc1461024157600080fd5b806301ffc9a7146100b757806310d9aa2a146100ec578063150b7a021461010157806315afd409146101455780631ccaf8a9146101655780633fc8cef31461017857600080fd5b366100b257005b600080fd5b3480156100c357600080fd5b506100d76100d2366004612d16565b610254565b60405190151581526020015b60405180910390f35b6100ff6100fa366004612882565b61028b565b005b34801561010d57600080fd5b5061012c61011c366004612bfe565b630a85bd0160e11b949350505050565b6040516001600160e01b031990911681526020016100e3565b34801561015157600080fd5b506100ff610160366004612ccf565b6107c8565b6100ff610173366004612b26565b610826565b34801561018457600080fd5b50600054610198906001600160a01b031681565b6040516001600160a01b0390911681526020016100e3565b6100ff6101be366004612ccf565b610b2d565b6100ff6101d1366004612b26565b610b5a565b6100ff6101e436600461296d565b610f59565b3480156101f557600080fd5b5061012c610204366004612a7c565b63bc197c8160e01b95945050505050565b34801561022157600080fd5b5061012c610230366004612c68565b63f23a6e6160e01b95945050505050565b6100ff61024f366004612b66565b611590565b60006001600160e01b03198216630271189760e51b148061028557506301ffc9a760e01b6001600160e01b03198316145b92915050565b60008054906101000a90046001600160a01b03166001600160a01b0316886001600160a01b0316638f76691a6040518163ffffffff1660e01b815260040160206040518083038186803b1580156102e157600080fd5b505afa1580156102f5573d6000803e3d6000fd5b505050506040513d601f19601f820116820180604052508101906103199190612866565b6001600160a01b0316146103485760405162461bcd60e51b815260040161033f90613128565b60405180910390fd5b60008054906101000a90046001600160a01b03166001600160a01b031663d0e30db0346040518263ffffffff1660e01b81526004016000604051808303818588803b15801561039657600080fd5b505af11580156103aa573d6000803e3d6000fd5b505060008054604051636eb1769f60e11b81523060048201526001600160a01b038e811660248301529295509116925063dd62ed3e915060440160206040518083038186803b1580156103fc57600080fd5b505afa158015610410573d6000803e3d6000fd5b505050506040513d601f19601f820116820180604052508101906104349190612e8e565b9050806104c45760005460405163095ea7b360e01b81526001600160a01b038b8116600483015260001960248301529091169063095ea7b390604401602060405180830381600087803b15801561048a57600080fd5b505af115801561049e573d6000803e3d6000fd5b505050506040513d601f19601f820116820180604052508101906104c29190612cfa565b505b8280156104ce5750815b156105cf576000896001600160a01b0316631f1fcd516040518163ffffffff1660e01b815260040160206040518083038186803b15801561050e57600080fd5b505afa158015610522573d6000803e3d6000fd5b505050506040513d601f19601f820116820180604052508101906105469190612866565b905060005b88518110156105cc576105878233308c858151811061057a57634e487b7160e01b600052603260045260246000fd5b602002602001015161199e565b6105ba82308d8c85815181106105ad57634e487b7160e01b600052603260045260246000fd5b6020026020010151611ce0565b806105c4816131fc565b91505061054b565b50505b604051637b7e6f8d60e01b81526001600160a01b038a1690637b7e6f8d90610607908b908b908b908b908b908b908b90600401612fb0565b600060405180830381600087803b15801561062157600080fd5b505af1158015610635573d6000803e3d6000fd5b5050600080546040516370a0823160e01b81523060048201529193506001600160a01b031691506370a082319060240160206040518083038186803b15801561067d57600080fd5b505afa158015610691573d6000803e3d6000fd5b505050506040513d601f19601f820116820180604052508101906106b59190612e8e565b11156107bd576000546040516370a0823160e01b81523060048201526001600160a01b0390911690632e1a7d4d9082906370a082319060240160206040518083038186803b15801561070657600080fd5b505afa15801561071a573d6000803e3d6000fd5b505050506040513d601f19601f8201168201806040525081019061073e9190612e8e565b6040518263ffffffff1660e01b815260040161075c91815260200190565b600060405180830381600087803b15801561077657600080fd5b505af115801561078a573d6000803e3d6000fd5b50506040513392504780156108fc029250906000818181858888f193505050501580156107bb573d6000803e3d6000fd5b505b505050505050505050565b6040516211bf0560eb1b8152600481018290526001600160a01b03831690638df82800906024015b600060405180830381600087803b15801561080a57600080fd5b505af115801561081e573d6000803e3d6000fd5b505050505050565b60008054906101000a90046001600160a01b03166001600160a01b0316836001600160a01b0316638f76691a6040518163ffffffff1660e01b815260040160206040518083038186803b15801561087c57600080fd5b505afa158015610890573d6000803e3d6000fd5b505050506040513d601f19601f820116820180604052508101906108b49190612866565b6001600160a01b0316146108da5760405162461bcd60e51b815260040161033f90613128565b60008054906101000a90046001600160a01b03166001600160a01b031663d0e30db0346040518263ffffffff1660e01b81526004016000604051808303818588803b15801561092857600080fd5b505af115801561093c573d6000803e3d6000fd5b5050604051630f1f8a7b60e31b81526001600160a01b03868116600483015260248201869052871693506378fc53d892506044019050600060405180830381600087803b15801561098c57600080fd5b505af11580156109a0573d6000803e3d6000fd5b5050600080546040516370a0823160e01b81523060048201529193506001600160a01b031691506370a082319060240160206040518083038186803b1580156109e857600080fd5b505afa1580156109fc573d6000803e3d6000fd5b505050506040513d601f19601f82011682018060405250810190610a209190612e8e565b1115610b28576000546040516370a0823160e01b81523060048201526001600160a01b0390911690632e1a7d4d9082906370a082319060240160206040518083038186803b158015610a7157600080fd5b505afa158015610a85573d6000803e3d6000fd5b505050506040513d601f19601f82011682018060405250810190610aa99190612e8e565b6040518263ffffffff1660e01b8152600401610ac791815260200190565b600060405180830381600087803b158015610ae157600080fd5b505af1158015610af5573d6000803e3d6000fd5b50506040513392504780156108fc029250906000818181858888f19350505050158015610b26573d6000803e3d6000fd5b505b505050565b60405163514fcac760e01b8152600481018290526001600160a01b0383169063514fcac7906024016107f0565b60008054906101000a90046001600160a01b03166001600160a01b0316836001600160a01b0316638f76691a6040518163ffffffff1660e01b815260040160206040518083038186803b158015610bb057600080fd5b505afa158015610bc4573d6000803e3d6000fd5b505050506040513d601f19601f82011682018060405250810190610be89190612866565b6001600160a01b031614610c0e5760405162461bcd60e51b815260040161033f90613128565b60008054906101000a90046001600160a01b03166001600160a01b031663d0e30db0346040518263ffffffff1660e01b81526004016000604051808303818588803b158015610c5c57600080fd5b505af1158015610c70573d6000803e3d6000fd5b505060405163d09ef24160e01b815260048101859052600093506001600160a01b038716925063d09ef241915060240160006040518083038186803b158015610cb857600080fd5b505afa158015610ccc573d6000803e3d6000fd5b505050506040513d6000823e601f3d908101601f19168201604052610cf49190810190612d3e565b90508061010001516001600160a01b0316836001600160a01b031614610d6e5760405162461bcd60e51b815260206004820152602960248201527f73656c6c65722063616e20696e746572616374207769746820666f7277617264604482015268206469726563746c7960b81b606482015260840161033f565b604051630383730960e41b81526001600160a01b03848116600483015260248201849052851690633837309090604401600060405180830381600087803b158015610db857600080fd5b505af1158015610dcc573d6000803e3d6000fd5b5050600080546040516370a0823160e01b81523060048201529193506001600160a01b031691506370a082319060240160206040518083038186803b158015610e1457600080fd5b505afa158015610e28573d6000803e3d6000fd5b505050506040513d601f19601f82011682018060405250810190610e4c9190612e8e565b1115610b26576000546040516370a0823160e01b81523060048201526001600160a01b0390911690632e1a7d4d9082906370a082319060240160206040518083038186803b158015610e9d57600080fd5b505afa158015610eb1573d6000803e3d6000fd5b505050506040513d601f19601f82011682018060405250810190610ed59190612e8e565b6040518263ffffffff1660e01b8152600401610ef391815260200190565b600060405180830381600087803b158015610f0d57600080fd5b505af1158015610f21573d6000803e3d6000fd5b50506040513392504780156108fc029250906000818181858888f19350505050158015610f52573d6000803e3d6000fd5b5050505050565b60008054906101000a90046001600160a01b03166001600160a01b0316896001600160a01b0316638f76691a6040518163ffffffff1660e01b815260040160206040518083038186803b158015610faf57600080fd5b505afa158015610fc3573d6000803e3d6000fd5b505050506040513d601f19601f82011682018060405250810190610fe79190612866565b6001600160a01b03161461100d5760405162461bcd60e51b815260040161033f90613128565b85518751146110485760405162461bcd60e51b8152602060048201526007602482015266042d8cadccee8d60cb1b604482015260640161033f565b60008054906101000a90046001600160a01b03166001600160a01b031663d0e30db0346040518263ffffffff1660e01b81526004016000604051808303818588803b15801561109657600080fd5b505af11580156110aa573d6000803e3d6000fd5b505060008054604051636eb1769f60e11b81523060048201526001600160a01b038f811660248301529295509116925063dd62ed3e915060440160206040518083038186803b1580156110fc57600080fd5b505afa158015611110573d6000803e3d6000fd5b505050506040513d601f19601f820116820180604052508101906111349190612e8e565b9050806111c45760005460405163095ea7b360e01b81526001600160a01b038c8116600483015260001960248301529091169063095ea7b390604401602060405180830381600087803b15801561118a57600080fd5b505af115801561119e573d6000803e3d6000fd5b505050506040513d601f19601f820116820180604052508101906111c29190612cfa565b505b8280156111ce5750815b156113955760008a6001600160a01b0316631f1fcd516040518163ffffffff1660e01b815260040160206040518083038186803b15801561120e57600080fd5b505afa158015611222573d6000803e3d6000fd5b505050506040513d601f19601f820116820180604052508101906112469190612866565b604051631759616b60e11b81529091506001600160a01b03821690632eb2c2d69061127b90339030908e908e90600401612f34565b600060405180830381600087803b15801561129557600080fd5b505af11580156112a9573d6000803e3d6000fd5b505060405163e985e9c560e01b81523060048201526001600160a01b038e811660248301528416925063e985e9c5915060440160206040518083038186803b1580156112f457600080fd5b505afa158015611308573d6000803e3d6000fd5b505050506040513d601f19601f8201168201806040525081019061132c9190612cfa565b6113935760405163a22cb46560e01b81526001600160a01b038c811660048301526001602483015282169063a22cb46590604401600060405180830381600087803b15801561137a57600080fd5b505af115801561138e573d6000803e3d6000fd5b505050505b505b6040516301bfa6bf60e71b81526001600160a01b038b169063dfd35f80906113cf908c908c908c908c908c908c908c908c9060040161302a565b600060405180830381600087803b1580156113e957600080fd5b505af11580156113fd573d6000803e3d6000fd5b5050600080546040516370a0823160e01b81523060048201529193506001600160a01b031691506370a082319060240160206040518083038186803b15801561144557600080fd5b505afa158015611459573d6000803e3d6000fd5b505050506040513d601f19601f8201168201806040525081019061147d9190612e8e565b11156107bb576000546040516370a0823160e01b81523060048201526001600160a01b0390911690632e1a7d4d9082906370a082319060240160206040518083038186803b1580156114ce57600080fd5b505afa1580156114e2573d6000803e3d6000fd5b505050506040513d601f19601f820116820180604052508101906115069190612e8e565b6040518263ffffffff1660e01b815260040161152491815260200190565b600060405180830381600087803b15801561153e57600080fd5b505af1158015611552573d6000803e3d6000fd5b50506040513392504780156108fc029250906000818181858888f19350505050158015611583573d6000803e3d6000fd5b5050505050505050505050565b60008054906101000a90046001600160a01b03166001600160a01b0316886001600160a01b0316638f76691a6040518163ffffffff1660e01b815260040160206040518083038186803b1580156115e657600080fd5b505afa1580156115fa573d6000803e3d6000fd5b505050506040513d601f19601f8201168201806040525081019061161e9190612866565b6001600160a01b0316146116445760405162461bcd60e51b815260040161033f90613128565b60008054906101000a90046001600160a01b03166001600160a01b031663d0e30db0346040518263ffffffff1660e01b81526004016000604051808303818588803b15801561169257600080fd5b505af11580156116a6573d6000803e3d6000fd5b505060008054604051636eb1769f60e11b81523060048201526001600160a01b038e811660248301529295509116925063dd62ed3e915060440160206040518083038186803b1580156116f857600080fd5b505afa15801561170c573d6000803e3d6000fd5b505050506040513d601f19601f820116820180604052508101906117309190612e8e565b9050806117c05760005460405163095ea7b360e01b81526001600160a01b038b8116600483015260001960248301529091169063095ea7b390604401602060405180830381600087803b15801561178657600080fd5b505af115801561179a573d6000803e3d6000fd5b505050506040513d601f19601f820116820180604052508101906117be9190612cfa565b505b8280156117ca5750815b15611966576000896001600160a01b0316631f1fcd516040518163ffffffff1660e01b815260040160206040518083038186803b15801561180a57600080fd5b505afa15801561181e573d6000803e3d6000fd5b505050506040513d601f19601f820116820180604052508101906118429190612866565b90506118596001600160a01b03821633308b6123ac565b604051636eb1769f60e11b81523060048201526001600160a01b038b8116602483015282169063dd62ed3e9060440160206040518083038186803b1580156118a057600080fd5b505afa1580156118b4573d6000803e3d6000fd5b505050506040513d601f19601f820116820180604052508101906118d89190612e8e565b9150816119645760405163095ea7b360e01b81526001600160a01b038b81166004830152600019602483015282169063095ea7b390604401602060405180830381600087803b15801561192a57600080fd5b505af115801561193e573d6000803e3d6000fd5b505050506040513d601f19601f820116820180604052508101906119629190612cfa565b505b505b604051638d30a68760e01b81526001600160a01b038a1690638d30a68790610607908b908b908b908b908b908b908b906004016130bc565b7306012c8cf97bead5deae237070f9587f8e7a266d73b47e3cd837ddf8e4c57f05d70ab865de6e193bbb7379986af15539de2db9a5086382daeda917a9cf0c732a46f2ffd99e19a89476e2f62270e0a35bbf075660606001600160a01b038916851415611a52576323b872dd888888604051602401611a1f93929190612f8c565b6040516020818303038152906040529060e01b6020820180516001600160e01b0383818316178352505050509050611c69565b836001600160a01b0316896001600160a01b03161415611bd0576000808a6001600160a01b0316635817816889604051602401611a9191815260200190565b6040516020818303038152906040529060e01b6020820180516001600160e01b038381831617835250505050604051611aca9190612f18565b600060405180830381855afa9150503d8060008114611b05576040519150601f19603f3d011682016040523d82523d6000602084013e611b0a565b606091505b5091509150600081806020019051810190611b259190612866565b9050828015611b4557508a6001600160a01b0316816001600160a01b0316145b611b825760405162461bcd60e51b815260206004820152600e60248201526d383ab636103737ba1037bbb732b960911b604482015260640161033f565b638264fe9889604051602401611b9a91815260200190565b6040516020818303038152906040529060e01b6020820180516001600160e01b0383818316178352505050509350505050611c69565b826001600160a01b0316896001600160a01b03161480611c015750816001600160a01b0316896001600160a01b0316145b15611c20576323b872dd888888604051602401611a1f93929190612f8c565b6342842e0e888888604051602401611c3a93929190612f8c565b6040516020818303038152906040529060e01b6020820180516001600160e01b03838183161783525050505090505b6000808a6001600160a01b031683604051611c849190612f18565b6000604051808303816000865af19150503d8060008114611cc1576040519150601f19603f3d011682016040523d82523d6000602084013e611cc6565b606091505b5091509150818015611cd757508051155b61158357600080fd5b7306012c8cf97bead5deae237070f9587f8e7a266d73b47e3cd837ddf8e4c57f05d70ab865de6e193bbb7379986af15539de2db9a5086382daeda917a9cf0c732a46f2ffd99e19a89476e2f62270e0a35bbf07566001600160a01b038816841415611e3c57604080516001600160a01b038881166024830152604480830189905283518084039091018152606490920183526020820180516001600160e01b031663095ea7b360e01b17905291516000928392908c1691611da19190612f18565b6000604051808303816000865af19150503d8060008114611dde576040519150601f19603f3d011682016040523d82523d6000602084013e611de3565b606091505b5091509150818015611df457508051155b611e355760405162461bcd60e51b8152602060048201526012602482015271185c1c1c9bdd99481ada5d1d1e4819985a5b60721b604482015260640161033f565b50506123a2565b826001600160a01b0316886001600160a01b0316141561207857600080896001600160a01b0316635817816888604051602401611e7b91815260200190565b6040516020818303038152906040529060e01b6020820180516001600160e01b038381831617835250505050604051611eb49190612f18565b600060405180830381855afa9150503d8060008114611eef576040519150601f19603f3d011682016040523d82523d6000602084013e611ef4565b606091505b5091509150600081806020019051810190611f0f9190612866565b9050828015611f2f5750896001600160a01b0316816001600160a01b0316145b611f745760405162461bcd60e51b815260206004820152601660248201527530b8383937bb3290383ab735903737ba1037bbb732b960511b604482015260640161033f565b60408051602481018a90526000604482018190526001600160a01b038c811660648085019190915284518085039091018152608490930184526020830180516001600160e01b031663bf31196f60e01b179052925190928392908f1691611fdb9190612f18565b6000604051808303816000865af19150503d8060008114612018576040519150601f19603f3d011682016040523d82523d6000602084013e61201d565b606091505b509150915081801561202e57508051155b61206e5760405162461bcd60e51b8152602060048201526011602482015270185c1c1c9bdd99481c1d5b9ac819985a5b607a1b604482015260640161033f565b50505050506123a2565b816001600160a01b0316886001600160a01b031614806120a95750806001600160a01b0316886001600160a01b0316145b1561219f57604080516001600160a01b038881166024830152604480830189905283518084039091018152606490920183526020820180516001600160e01b031663095ea7b360e01b17905291516000928392908c169161210a9190612f18565b6000604051808303816000865af19150503d8060008114612147576040519150601f19603f3d011682016040523d82523d6000602084013e61214c565b606091505b509150915081801561215d57508051155b611e355760405162461bcd60e51b8152602060048201526013602482015272185c1c1c9bdd99481d9bde195b1cc819985a5b606a1b604482015260640161033f565b604080516001600160a01b03898116602483015288811660448084019190915283518084039091018152606490920183526020820180516001600160e01b031663e985e9c560e01b17905291516000928392908c16916121ff9190612f18565b600060405180830381855afa9150503d806000811461223a576040519150601f19603f3d011682016040523d82523d6000602084013e61223f565b606091505b509150915060008180602001905181019061225a9190612cfa565b9050826122a05760405162461bcd60e51b81526020600482015260146024820152731a5cd05c1c9bdd9959119bdc905b1b0819985a5b60621b604482015260640161033f565b8061158357604080516001600160a01b038b81166024830152600160448084019190915283518084039091018152606490920183526020820180516001600160e01b031663a22cb46560e01b17905291516000928392908f16916123049190612f18565b6000604051808303816000865af19150503d8060008114612341576040519150601f19603f3d011682016040523d82523d6000602084013e612346565b606091505b509150915081801561235757508051155b61239c5760405162461bcd60e51b81526020600482015260166024820152751cd95d105c1c1c9bdd985b119bdc905b1b0819985a5b60521b604482015260640161033f565b50505050505b5050505050505050565b610b26846323b872dd60e01b8585856040516024016123cd93929190612f8c565b60408051601f198184030181529190526020810180516001600160e01b03166001600160e01b0319909316929092179091526000612454826040518060400160405280602081526020017f5361666545524332303a206c6f772d6c6576656c2063616c6c206661696c6564815250856001600160a01b03166124d19092919063ffffffff16565b805190915015610b2857808060200190518101906124729190612cfa565b610b285760405162461bcd60e51b815260206004820152602a60248201527f5361666545524332303a204552433230206f7065726174696f6e20646964206e6044820152691bdd081cdd58d8d9595960b21b606482015260840161033f565b60606124e084846000856124ea565b90505b9392505050565b60608247101561254b5760405162461bcd60e51b815260206004820152602660248201527f416464726573733a20696e73756666696369656e742062616c616e636520666f6044820152651c8818d85b1b60d21b606482015260840161033f565b843b6125995760405162461bcd60e51b815260206004820152601d60248201527f416464726573733a2063616c6c20746f206e6f6e2d636f6e7472616374000000604482015260640161033f565b600080866001600160a01b031685876040516125b59190612f18565b60006040518083038185875af1925050503d80600081146125f2576040519150601f19603f3d011682016040523d82523d6000602084013e6125f7565b606091505b5091509150612607828286612612565b979650505050505050565b606083156126215750816124e3565b8251156126315782518084602001fd5b8160405162461bcd60e51b815260040161033f91906130f5565b803561265681613239565b919050565b805161265681613239565b600082601f830112612676578081fd5b8135602061268b612686836131ac565b61317b565b80838252828201915082860187848660051b89010111156126aa578586fd5b855b858110156126d15781356126bf81613239565b845292840192908401906001016126ac565b5090979650505050505050565b600082601f8301126126ee578081fd5b815160206126fe612686836131ac565b80838252828201915082860187848660051b890101111561271d578586fd5b855b858110156126d157815161273281613239565b8452928401929084019060010161271f565b600082601f830112612754578081fd5b81356020612764612686836131ac565b80838252828201915082860187848660051b8901011115612783578586fd5b855b858110156126d157813584529284019290840190600101612785565b803561265681613251565b805161265681613251565b600082601f8301126127c7578081fd5b813567ffffffffffffffff8111156127e1576127e1613223565b6127f4601f8201601f191660200161317b565b818152846020838601011115612808578283fd5b816020850160208301379081016020019190915292915050565b80516008811061265657600080fd5b80516fffffffffffffffffffffffffffffffff8116811461265657600080fd5b805164ffffffffff8116811461265657600080fd5b600060208284031215612877578081fd5b81516124e381613239565b600080600080600080600080610100898b03121561289e578384fd5b6128a78961264b565b97506128b560208a0161264b565b9650604089013567ffffffffffffffff808211156128d1578586fd5b6128dd8c838d01612744565b975060608b01359150808211156128f2578586fd5b6128fe8c838d01612744565b965060808b0135915080821115612913578586fd5b61291f8c838d01612744565b955060a08b0135915080821115612934578485fd5b506129418b828c01612666565b93505061295060c08a016127a1565b915061295e60e08a016127a1565b90509295985092959890939650565b60008060008060008060008060006101208a8c03121561298b578283fd5b6129948a61264b565b98506129a260208b0161264b565b975060408a013567ffffffffffffffff808211156129be578485fd5b6129ca8d838e01612744565b985060608c01359150808211156129df578485fd5b6129eb8d838e01612744565b975060808c0135915080821115612a00578485fd5b612a0c8d838e01612744565b965060a08c0135915080821115612a21578485fd5b612a2d8d838e01612744565b955060c08c0135915080821115612a42578485fd5b50612a4f8c828d01612666565b935050612a5e60e08b016127a1565b9150612a6d6101008b016127a1565b90509295985092959850929598565b600080600080600060a08688031215612a93578283fd5b8535612a9e81613239565b94506020860135612aae81613239565b9350604086013567ffffffffffffffff80821115612aca578485fd5b612ad689838a01612744565b94506060880135915080821115612aeb578283fd5b612af789838a01612744565b93506080880135915080821115612b0c578283fd5b50612b19888289016127b7565b9150509295509295909350565b600080600060608486031215612b3a578081fd5b8335612b4581613239565b92506020840135612b5581613239565b929592945050506040919091013590565b600080600080600080600080610100898b031215612b82578182fd5b612b8b8961264b565b9750612b9960208a0161264b565b965060408901359550606089013567ffffffffffffffff80821115612bbc578384fd5b612bc88c838d01612744565b965060808b0135915080821115612bdd578384fd5b612be98c838d01612744565b955060a08b0135915080821115612934578384fd5b60008060008060808587031215612c13578182fd5b8435612c1e81613239565b93506020850135612c2e81613239565b925060408501359150606085013567ffffffffffffffff811115612c50578182fd5b612c5c878288016127b7565b91505092959194509250565b600080600080600060a08688031215612c7f578283fd5b8535612c8a81613239565b94506020860135612c9a81613239565b93506040860135925060608601359150608086013567ffffffffffffffff811115612cc3578182fd5b612b19888289016127b7565b60008060408385031215612ce1578182fd5b8235612cec81613239565b946020939093013593505050565b600060208284031215612d0b578081fd5b81516124e381613251565b600060208284031215612d27578081fd5b81356001600160e01b0319811681146124e3578182fd5b600060208284031215612d4f578081fd5b815167ffffffffffffffff80821115612d66578283fd5b908301906101c08286031215612d7a578283fd5b612d82613151565b612d8b83612831565b8152612d9960208401612831565b6020820152612daa60408401612831565b6040820152612dbb60608401612831565b6060820152612dcc60808401612831565b6080820152612ddd60a08401612851565b60a0820152612dee60c08401612851565b60c0820152612dff60e08401612851565b60e0820152610100612e1281850161265b565b90820152610120612e2484820161265b565b90820152610140612e368482016127ac565b90820152610160612e488482016127ac565b90820152610180612e5a848201612822565b908201526101a08381015183811115612e71578586fd5b612e7d888287016126de565b918301919091525095945050505050565b600060208284031215612e9f578081fd5b5051919050565b6000815180845260208085019450808401835b83811015612ede5781516001600160a01b031687529582019590820190600101612eb9565b509495945050505050565b6000815180845260208085019450808401835b83811015612ede57815187529582019590820190600101612efc565b60008251612f2a8184602087016131d0565b9190910192915050565b6001600160a01b0385811682528416602082015260a060408201819052600090612f6090830185612ee9565b8281036060840152612f728185612ee9565b838103608090940193909352508152602001949350505050565b6001600160a01b039384168152919092166020820152604081019190915260600190565b6001600160a01b038816815260e060208201819052600090612fd490830189612ee9565b8281036040840152612fe68189612ee9565b90508281036060840152612ffa8188612ee9565b9050828103608084015261300e8187612ea6565b94151560a0840152505090151560c09091015295945050505050565b6001600160a01b03891681526101006020820181905260009061304f8382018b612ee9565b90508281036040840152613063818a612ee9565b905082810360608401526130778189612ee9565b9050828103608084015261308b8188612ee9565b905082810360a084015261309f8187612ea6565b94151560c0840152505090151560e0909101529695505050505050565b60018060a01b038816815286602082015260e0604082015260006130e360e0830188612ee9565b8281036060840152612ffa8188612ee9565b60208152600082518060208401526131148160408501602087016131d0565b601f01601f19169190910160400192915050565b6020808252600f908201526e0dac2e4ced2dc40dcdee840eecae8d608b1b604082015260600190565b6040516101c0810167ffffffffffffffff8111828210171561317557613175613223565b60405290565b604051601f8201601f1916810167ffffffffffffffff811182821017156131a4576131a4613223565b604052919050565b600067ffffffffffffffff8211156131c6576131c6613223565b5060051b60200190565b60005b838110156131eb5781810151838201526020016131d3565b83811115610b265750506000910152565b600060001982141561321c57634e487b7160e01b81526011600452602481fd5b5060010190565b634e487b7160e01b600052604160045260246000fd5b6001600160a01b038116811461324e57600080fd5b50565b801515811461324e57600080fdfea26469706673582212200427fb9ebc010ec885ec9970105e41e49e346f53e17b66ad701a964731bd081664736f6c63430008040033",
  "linkReferences": {},
  "deployedLinkReferences": {}
}