{
  "_format": "hh-sol-artifact-1",
  "contractName": "Forward721Upgradeable",
  "sourceName": "contracts/forward/Forward721Upgradeable.sol",
  "abi": [
    {
      "anonymous": false,
      "inputs": [
        {
          "indexed": false,
          "internalType": "bytes32",
          "name": "orderHash",
          "type": "bytes32"
        }
      ],
      "name": "CancelOffchainOrder",
      "type": "event"
    },
    {
      "anonymous": false,
      "inputs": [
        {
          "indexed": false,
          "internalType": "uint256",
          "name": "orderId",
          "type": "uint256"
        }
      ],
      "name": "CancelOrder",
      "type": "event"
    },
    {
      "anonymous": false,
      "inputs": [
        {
          "indexed": false,
          "internalType": "uint256",
          "name": "orderId",
          "type": "uint256"
        },
        {
          "indexed": false,
          "internalType": "address",
          "name": "maker",
          "type": "address"
        },
        {
          "indexed": false,
          "internalType": "address",
          "name": "taker",
          "type": "address"
        }
      ],
      "name": "CreateAndTake",
      "type": "event"
    },
    {
      "anonymous": false,
      "inputs": [
        {
          "indexed": false,
          "internalType": "uint256",
          "name": "orderId",
          "type": "uint256"
        },
        {
          "indexed": false,
          "internalType": "address",
          "name": "maker",
          "type": "address"
        }
      ],
      "name": "CreateOrder",
      "type": "event"
    },
    {
      "anonymous": false,
      "inputs": [
        {
          "indexed": false,
          "internalType": "uint256",
          "name": "orderId",
          "type": "uint256"
        },
        {
          "indexed": false,
          "internalType": "address",
          "name": "deliver",
          "type": "address"
        }
      ],
      "name": "Deliver",
      "type": "event"
    },
    {
      "anonymous": false,
      "inputs": [
        {
          "indexed": false,
          "internalType": "uint256",
          "name": "orderId",
          "type": "uint256"
        }
      ],
      "name": "Settle",
      "type": "event"
    },
    {
      "anonymous": false,
      "inputs": [
        {
          "indexed": false,
          "internalType": "uint256",
          "name": "orderId",
          "type": "uint256"
        },
        {
          "indexed": false,
          "internalType": "address",
          "name": "maker",
          "type": "address"
        },
        {
          "indexed": false,
          "internalType": "address",
          "name": "taker",
          "type": "address"
        },
        {
          "indexed": false,
          "internalType": "bytes32",
          "name": "oh",
          "type": "bytes32"
        }
      ],
      "name": "TakeOffChainOrder",
      "type": "event"
    },
    {
      "anonymous": false,
      "inputs": [
        {
          "indexed": false,
          "internalType": "uint256",
          "name": "orderId",
          "type": "uint256"
        },
        {
          "indexed": false,
          "internalType": "address",
          "name": "taker",
          "type": "address"
        }
      ],
      "name": "TakeOrder",
      "type": "event"
    },
    {
      "inputs": [
        {
          "internalType": "address",
          "name": "_want",
          "type": "address"
        },
        {
          "internalType": "address",
          "name": "_margin",
          "type": "address"
        }
      ],
      "name": "__BaseForward__init",
      "outputs": [],
      "stateMutability": "nonpayable",
      "type": "function"
    },
    {
      "inputs": [
        {
          "internalType": "address",
          "name": "_want",
          "type": "address"
        },
        {
          "internalType": "uint256",
          "name": "_poolType",
          "type": "uint256"
        },
        {
          "internalType": "address",
          "name": "_margin",
          "type": "address"
        }
      ],
      "name": "__Forward721Upgradeable__init",
      "outputs": [],
      "stateMutability": "nonpayable",
      "type": "function"
    },
    {
      "inputs": [],
      "name": "balance",
      "outputs": [
        {
          "internalType": "uint256",
          "name": "",
          "type": "uint256"
        }
      ],
      "stateMutability": "view",
      "type": "function"
    },
    {
      "inputs": [
        {
          "internalType": "address[2]",
          "name": "_addrs",
          "type": "address[2]"
        },
        {
          "internalType": "uint256[6]",
          "name": "_uints",
          "type": "uint256[6]"
        },
        {
          "internalType": "bool",
          "name": "_isSeller",
          "type": "bool"
        },
        {
          "internalType": "uint256[]",
          "name": "_tokenIds",
          "type": "uint256[]"
        },
        {
          "internalType": "bytes",
          "name": "_makerSig",
          "type": "bytes"
        },
        {
          "internalType": "bytes32",
          "name": "_salt",
          "type": "bytes32"
        }
      ],
      "name": "cancelOffchainOrder",
      "outputs": [],
      "stateMutability": "nonpayable",
      "type": "function"
    },
    {
      "inputs": [
        {
          "internalType": "uint256",
          "name": "_orderId",
          "type": "uint256"
        }
      ],
      "name": "cancelOrder",
      "outputs": [],
      "stateMutability": "nonpayable",
      "type": "function"
    },
    {
      "inputs": [],
      "name": "cfee",
      "outputs": [
        {
          "internalType": "uint256",
          "name": "",
          "type": "uint256"
        }
      ],
      "stateMutability": "view",
      "type": "function"
    },
    {
      "inputs": [
        {
          "internalType": "uint256",
          "name": "_orderId",
          "type": "uint256"
        }
      ],
      "name": "checkOrderState",
      "outputs": [
        {
          "internalType": "enum IBaseForward.State",
          "name": "",
          "type": "uint8"
        }
      ],
      "stateMutability": "view",
      "type": "function"
    },
    {
      "inputs": [
        {
          "internalType": "address",
          "name": "_to",
          "type": "address"
        }
      ],
      "name": "collectFee",
      "outputs": [],
      "stateMutability": "nonpayable",
      "type": "function"
    },
    {
      "inputs": [
        {
          "internalType": "address[2]",
          "name": "_addrs",
          "type": "address[2]"
        },
        {
          "internalType": "uint256[6]",
          "name": "_uints",
          "type": "uint256[6]"
        },
        {
          "internalType": "bool",
          "name": "_isSeller",
          "type": "bool"
        },
        {
          "internalType": "uint256[]",
          "name": "_tokenIds",
          "type": "uint256[]"
        }
      ],
      "name": "createAndTakeFor",
      "outputs": [
        {
          "internalType": "uint256",
          "name": "orderId",
          "type": "uint256"
        }
      ],
      "stateMutability": "nonpayable",
      "type": "function"
    },
    {
      "inputs": [
        {
          "internalType": "address",
          "name": "_maker",
          "type": "address"
        },
        {
          "internalType": "uint256[6]",
          "name": "_uints",
          "type": "uint256[6]"
        },
        {
          "internalType": "bool",
          "name": "_isSeller",
          "type": "bool"
        },
        {
          "internalType": "uint256[]",
          "name": "_tokenIds",
          "type": "uint256[]"
        }
      ],
      "name": "createOrderFor",
      "outputs": [
        {
          "internalType": "uint256",
          "name": "orderId",
          "type": "uint256"
        }
      ],
      "stateMutability": "nonpayable",
      "type": "function"
    },
    {
      "inputs": [
        {
          "internalType": "address",
          "name": "_deliverer",
          "type": "address"
        },
        {
          "internalType": "uint256",
          "name": "_orderId",
          "type": "uint256"
        }
      ],
      "name": "deliverFor",
      "outputs": [],
      "stateMutability": "nonpayable",
      "type": "function"
    },
    {
      "inputs": [],
      "name": "eth",
      "outputs": [
        {
          "internalType": "address",
          "name": "",
          "type": "address"
        }
      ],
      "stateMutability": "view",
      "type": "function"
    },
    {
      "inputs": [],
      "name": "factory",
      "outputs": [
        {
          "internalType": "address",
          "name": "",
          "type": "address"
        }
      ],
      "stateMutability": "view",
      "type": "function"
    },
    {
      "inputs": [
        {
          "internalType": "uint256",
          "name": "_orderId",
          "type": "uint256"
        }
      ],
      "name": "getBuyerAmountToDeliver",
      "outputs": [
        {
          "internalType": "uint256",
          "name": "amount",
          "type": "uint256"
        }
      ],
      "stateMutability": "view",
      "type": "function"
    },
    {
      "inputs": [
        {
          "internalType": "uint256",
          "name": "_orderId",
          "type": "uint256"
        }
      ],
      "name": "getOrder",
      "outputs": [
        {
          "components": [
            {
              "internalType": "address",
              "name": "maker",
              "type": "address"
            },
            {
              "internalType": "address",
              "name": "taker",
              "type": "address"
            },
            {
              "internalType": "uint128",
              "name": "makerMargin",
              "type": "uint128"
            },
            {
              "internalType": "uint128",
              "name": "takerMargin",
              "type": "uint128"
            },
            {
              "internalType": "uint128",
              "name": "deliverPrice",
              "type": "uint128"
            },
            {
              "internalType": "uint32",
              "name": "validTill",
              "type": "uint32"
            },
            {
              "internalType": "uint32",
              "name": "deliverStart",
              "type": "uint32"
            },
            {
              "internalType": "uint32",
              "name": "expireStart",
              "type": "uint32"
            },
            {
              "internalType": "bool",
              "name": "makerDelivered",
              "type": "bool"
            },
            {
              "internalType": "bool",
              "name": "takerDelivered",
              "type": "bool"
            },
            {
              "internalType": "bool",
              "name": "makerIsSeller",
              "type": "bool"
            },
            {
              "internalType": "enum IBaseForward.State",
              "name": "state",
              "type": "uint8"
            }
          ],
          "internalType": "struct IBaseForward.Order",
          "name": "order",
          "type": "tuple"
        }
      ],
      "stateMutability": "view",
      "type": "function"
    },
    {
      "inputs": [
        {
          "internalType": "bytes32",
          "name": "",
          "type": "bytes32"
        }
      ],
      "name": "known",
      "outputs": [
        {
          "internalType": "bool",
          "name": "",
          "type": "bool"
        }
      ],
      "stateMutability": "view",
      "type": "function"
    },
    {
      "inputs": [
        {
          "internalType": "address",
          "name": "",
          "type": "address"
        }
      ],
      "name": "launchpads",
      "outputs": [
        {
          "internalType": "bool",
          "name": "",
          "type": "bool"
        }
      ],
      "stateMutability": "view",
      "type": "function"
    },
    {
      "inputs": [],
      "name": "margin",
      "outputs": [
        {
          "internalType": "address",
          "name": "",
          "type": "address"
        }
      ],
      "stateMutability": "view",
      "type": "function"
    },
    {
      "inputs": [
        {
          "internalType": "address",
          "name": "",
          "type": "address"
        },
        {
          "internalType": "address",
          "name": "",
          "type": "address"
        },
        {
          "internalType": "uint256",
          "name": "",
          "type": "uint256"
        },
        {
          "internalType": "bytes",
          "name": "",
          "type": "bytes"
        }
      ],
      "name": "onERC721Received",
      "outputs": [
        {
          "internalType": "bytes4",
          "name": "",
          "type": "bytes4"
        }
      ],
      "stateMutability": "nonpayable",
      "type": "function"
    },
    {
      "inputs": [
        {
          "internalType": "uint256",
          "name": "",
          "type": "uint256"
        }
      ],
      "name": "orders",
      "outputs": [
        {
          "internalType": "address",
          "name": "maker",
          "type": "address"
        },
        {
          "internalType": "address",
          "name": "taker",
          "type": "address"
        },
        {
          "internalType": "uint128",
          "name": "makerMargin",
          "type": "uint128"
        },
        {
          "internalType": "uint128",
          "name": "takerMargin",
          "type": "uint128"
        },
        {
          "internalType": "uint128",
          "name": "deliverPrice",
          "type": "uint128"
        },
        {
          "internalType": "uint32",
          "name": "validTill",
          "type": "uint32"
        },
        {
          "internalType": "uint32",
          "name": "deliverStart",
          "type": "uint32"
        },
        {
          "internalType": "uint32",
          "name": "expireStart",
          "type": "uint32"
        },
        {
          "internalType": "bool",
          "name": "makerDelivered",
          "type": "bool"
        },
        {
          "internalType": "bool",
          "name": "takerDelivered",
          "type": "bool"
        },
        {
          "internalType": "bool",
          "name": "makerIsSeller",
          "type": "bool"
        },
        {
          "internalType": "enum IBaseForward.State",
          "name": "state",
          "type": "uint8"
        }
      ],
      "stateMutability": "view",
      "type": "function"
    },
    {
      "inputs": [],
      "name": "ordersLength",
      "outputs": [
        {
          "internalType": "uint256",
          "name": "",
          "type": "uint256"
        }
      ],
      "stateMutability": "view",
      "type": "function"
    },
    {
      "inputs": [],
      "name": "pause",
      "outputs": [],
      "stateMutability": "nonpayable",
      "type": "function"
    },
    {
      "inputs": [],
      "name": "paused",
      "outputs": [
        {
          "internalType": "bool",
          "name": "",
          "type": "bool"
        }
      ],
      "stateMutability": "view",
      "type": "function"
    },
    {
      "inputs": [
        {
          "internalType": "uint256",
          "name": "_orderId",
          "type": "uint256"
        }
      ],
      "name": "settle",
      "outputs": [],
      "stateMutability": "nonpayable",
      "type": "function"
    },
    {
      "inputs": [
        {
          "internalType": "address[2]",
          "name": "_addrs",
          "type": "address[2]"
        },
        {
          "internalType": "uint256[6]",
          "name": "_uints",
          "type": "uint256[6]"
        },
        {
          "internalType": "bool",
          "name": "_isSeller",
          "type": "bool"
        },
        {
          "internalType": "uint256[]",
          "name": "_tokenIds",
          "type": "uint256[]"
        },
        {
          "internalType": "bytes",
          "name": "_makerSig",
          "type": "bytes"
        },
        {
          "internalType": "bytes32",
          "name": "_salt",
          "type": "bytes32"
        }
      ],
      "name": "takeOffChainOrderFor",
      "outputs": [
        {
          "internalType": "uint256",
          "name": "orderId",
          "type": "uint256"
        }
      ],
      "stateMutability": "nonpayable",
      "type": "function"
    },
    {
      "inputs": [
        {
          "internalType": "address",
          "name": "_taker",
          "type": "address"
        },
        {
          "internalType": "uint256",
          "name": "_orderId",
          "type": "uint256"
        }
      ],
      "name": "takeOrderFor",
      "outputs": [],
      "stateMutability": "nonpayable",
      "type": "function"
    },
    {
      "inputs": [
        {
          "internalType": "address",
          "name": "_launchpad",
          "type": "address"
        }
      ],
      "name": "toggleLaunchpad",
      "outputs": [],
      "stateMutability": "nonpayable",
      "type": "function"
    },
    {
      "inputs": [
        {
          "internalType": "uint256",
          "name": "_orderId",
          "type": "uint256"
        }
      ],
      "name": "underlyingAssets",
      "outputs": [
        {
          "internalType": "uint256[]",
          "name": "",
          "type": "uint256[]"
        }
      ],
      "stateMutability": "view",
      "type": "function"
    },
    {
      "inputs": [],
      "name": "unpause",
      "outputs": [],
      "stateMutability": "nonpayable",
      "type": "function"
    },
    {
      "inputs": [],
      "name": "version",
      "outputs": [
        {
          "internalType": "string",
          "name": "",
          "type": "string"
        }
      ],
      "stateMutability": "view",
      "type": "function"
    },
    {
      "inputs": [],
      "name": "want",
      "outputs": [
        {
          "internalType": "address",
          "name": "",
          "type": "address"
        }
      ],
      "stateMutability": "view",
      "type": "function"
    },
    {
      "inputs": [
        {
          "internalType": "address",
          "name": "_token",
          "type": "address"
        },
        {
          "internalType": "address",
          "name": "_to",
          "type": "address"
        }
      ],
      "name": "withdrawOther",
      "outputs": [],
      "stateMutability": "nonpayable",
      "type": "function"
    }
  ],
  "bytecode": "0x608060405234801561001057600080fd5b5061423c806100206000396000f3fe608060405234801561001057600080fd5b50600436106101f05760003560e01c80637e9a152c1161010f578063be8acd3f116100a2578063e16e2d6611610071578063e16e2d661461051b578063f2bfea621461052e578063f5b94cbd1461054e578063ffe309be1461056157600080fd5b8063be8acd3f146104c6578063c45a0155146104cf578063d09ef241146104e8578063dd8de7911461050857600080fd5b80638df82800116100de5780638df82800146103dc5780638f76691a146103ef578063a85c38ef14610402578063b69ef8a8146104be57600080fd5b80637e9a152c1461039b5780637fc6c522146103ae5780638456cb59146103c15780638c7c9e0c146103c957600080fd5b80633b50c4d1116101875780635c975abb116101565780635c975abb1461035557806361494f261461036257806369b59e751461037557806378fc53d81461038857600080fd5b80633b50c4d1146102f45780633f4ba83a14610314578063514fcac71461031c57806354fd4d501461032f57600080fd5b80631f414f7f116101c35780631f414f7f146102925780632358a383146102c55780633235029e146102d857806338373090146102e157600080fd5b80631045bfc1146101f55780631466b3d71461020a578063150b7a02146102305780631f1fcd5114610267575b600080fd5b610208610203366004613aed565b610584565b005b61021d610218366004613cbf565b6106f7565b6040519081526020015b60405180910390f35b61024e61023e366004613b25565b630a85bd0160e11b949350505050565b6040516001600160e01b03199091168152602001610227565b60015461027a906001600160a01b031681565b6040516001600160a01b039091168152602001610227565b6102b56102a0366004613d7f565b60076020526000908152604090205460ff1681565b6040519015158152602001610227565b6102086102d3366004613c22565b6108d3565b61021d60045481565b6102086102ef366004613bf7565b6109d3565b610307610302366004613d7f565b610a4c565b6040516102279190613ec2565b610208610aae565b61020861032a366004613d7f565b610ac2565b6040805180820182526004815263076312e360e41b602082015290516102279190613f14565b6006546102b59060ff1681565b61021d610370366004613b8f565b610b35565b610208610383366004613ab5565b610bed565b610208610396366004613bf7565b610cf6565b61021d6103a9366004613d7f565b610d69565b61021d6103bc366004613c63565b610fc6565b610208611094565b60035461027a906001600160a01b031681565b6102086103ea366004613d7f565b6110ab565b60025461027a906001600160a01b031681565b6104a6610410366004613d7f565b60096020526000908152604090208054600182015460028301546003909301546001600160a01b039283169392909116916001600160801b0380821692600160801b928390048216929181169163ffffffff908204811691600160a01b8104821691600160c01b8204169060ff600160e01b8204811691600160e81b8104821691600160f01b8204811691600160f81b9004168c565b6040516102279c9b9a99989796959493929190613e10565b61021d611120565b61021d60055481565b60005461027a906201000090046001600160a01b031681565b6104fb6104f6366004613d7f565b6111a1565b6040516102279190613f47565b610208610516366004613ab5565b6112cc565b610208610529366004613aed565b6112fd565b61054161053c366004613d7f565b6114c9565b6040516102279190613f06565b61020861055c366004613cbf565b61178e565b6102b561056f366004613ab5565b60086020526000908152604090205460ff1681565b600054610100900460ff166105f45760405162461bcd60e51b815260206004820152602b60248201527f496e697469616c697a61626c653a20636f6e7472616374206973206e6f74206960448201526a6e697469616c697a696e6760a81b60648201526084015b60405180910390fd5b6000805462010000600160b01b0319163362010000908102919091179182905560405163efb5f11360e01b81526001600160a01b038481166004830152919092041690819063efb5f1139060240160206040518083038186803b15801561065a57600080fd5b505afa15801561066e573d6000803e3d6000fd5b505050506040513d601f19601f820116820180604052508101906106929190613d63565b6106c85760405162461bcd60e51b815260206004820152600760248201526610b6b0b933b4b760c91b60448201526064016105eb565b50600180546001600160a01b039384166001600160a01b03199182161790915560028054929093169116179055565b600080610705888888611922565b60025481516040830151929350610730926001600160a01b03909216916001600160801b0316611b3d565b6002546060820151610756916001600160a01b03169033906001600160801b0316611b3d565b6107608186611b70565b9150600061076f308386611bf9565b61077887611cc6565b6040805160208101939093528201526060016040516020818303038152906040528051906020012090506107ac8186611cf6565b89516001600160a01b039081169116146107f65760405162461bcd60e51b815260206004820152600b60248201526a1cda59c81a5b9d985b1a5960aa1b60448201526064016105eb565b60008181526007602052604090205460ff16156108485760405162461bcd60e51b815260206004820152601060248201526f3430b9b41037b93232b91035b737bbb760811b60448201526064016105eb565b600081815260076020908152604091829020805460ff1916600117905583519084015191517f4a9a87c8be9fcead2a1aede9dc781ba0a5ba425d403216fc1c40897407726f71926108bf92879290919086909384526001600160a01b03928316602085015291166040830152606082015260800190565b60405180910390a150509695505050505050565b600054610100900460ff166108ee5760005460ff16156108f2565b303b155b6109555760405162461bcd60e51b815260206004820152602e60248201527f496e697469616c697a61626c653a20636f6e747261637420697320616c72656160448201526d191e481a5b9a5d1a585b1a5e995960921b60648201526084016105eb565b600054610100900460ff16158015610977576000805461ffff19166101011790555b6109818483610584565b826102d1146109bb5760405162461bcd60e51b81526004016105eb906020808252600490820152632137323160e01b604082015260600190565b80156109cd576000805461ff00191690555b50505050565b6109db611d0b565b60046109e6826114c9565b6007811115610a0557634e487b7160e01b600052602160045260246000fd5b14610a3e5760405162461bcd60e51b81526020600482015260096024820152682164656c697665727960b81b60448201526064016105eb565b610a488282611d49565b5050565b6000818152603c6020908152604091829020805483518184028101840190945280845260609392830182828015610aa257602002820191906000526020600020905b815481526020019060010190808311610a8e575b50505050509050919050565b610ab66121cc565b6006805460ff19169055565b610aca611d0b565b6003610ad5826114c9565b6007811115610af457634e487b7160e01b600052602160045260246000fd5b14610b295760405162461bcd60e51b8152602060048201526005602482015264085919585960da1b60448201526064016105eb565b610b3281612217565b50565b604080518082019091526001600160a01b0385168152600060208201819052908190610b62908686611922565b6002546040820151919250610b8d916001600160a01b039091169033906001600160801b0316611b3d565b610b978184611b70565b81516040519193507fc2543e39f94e2f3c7bd242ab0053972523f75ca379ae9b64a474ce5c79d6891191610bdc918582526001600160a01b0316602082015260400190565b60405180910390a150949350505050565b60008060029054906101000a90046001600160a01b03166001600160a01b031663c415b95c6040518163ffffffff1660e01b815260040160206040518083038186803b158015610c3c57600080fd5b505afa158015610c50573d6000803e3d6000fd5b505050506040513d601f19601f82011682018060405250810190610c749190613ad1565b6000549091506201000090046001600160a01b0316331480610c9e5750336001600160a01b038216145b610cd25760405162461bcd60e51b8152602060048201526005602482015264042c2eae8d60db1b60448201526064016105eb565b600254600454610ced916001600160a01b0316908490612408565b50506000600455565b610cfe611d0b565b6001610d09826114c9565b6007811115610d2857634e487b7160e01b600052602160045260246000fd5b14610d5f5760405162461bcd60e51b81526020600482015260076024820152662161637469766560c81b60448201526064016105eb565b610a48828261243a565b600081815260096020908152604080832081516101808101835281546001600160a01b0390811682526001830154169381019390935260028101546001600160801b0380821693850193909352600160801b90819004831660608501526003820154928316608085015263ffffffff908304811660a0850152600160a01b8304811660c0850152600160c01b83041660e084015260ff600160e01b830481161515610100850152600160e81b830481161515610120850152600160f01b830481161515610140850152849392610160840191600160f81b909104166007811115610e6357634e487b7160e01b600052602160045260246000fd5b6007811115610e8257634e487b7160e01b600052602160045260246000fd5b815250509050600080600060029054906101000a90046001600160a01b03166001600160a01b03166311a1933c6040518163ffffffff1660e01b8152600401604080518083038186803b158015610ed857600080fd5b505afa158015610eec573d6000803e3d6000fd5b505050506040513d601f19601f82011682018060405250810190610f109190613daf565b915091506000610f4a82610f4486608001516001600160801b0316610f3e86886124fb90919063ffffffff16565b90612507565b90612513565b9050836101200151158015610f6157508361014001515b15610f86576060840151610f7f9082906001600160801b031661251f565b9450610fbd565b836101000151158015610f9c5750836101400151155b15610fbd576040840151610fba9082906001600160801b031661251f565b94505b50505050919050565b6000610fd13361252b565b6000610fde868686611922565b60025481516040830151929350611009926001600160a01b03909216916001600160801b0316611b3d565b60025460208201516060830151611033926001600160a01b031691906001600160801b0316611b3d565b61103d8184611b70565b91507f987ddb76a3d196ff5aea752ae02d3fc225d48e31e35546b2b5fa4acb3859280e8282600001518360200151604051610bdc939291909283526001600160a01b03918216602084015216604082015260600190565b61109c6121cc565b6006805460ff19166001179055565b6110b3611d0b565b60056110be826114c9565b60078111156110dd57634e487b7160e01b600052602160045260246000fd5b146111155760405162461bcd60e51b815260206004820152600860248201526708595e1c1a5c995960c21b60448201526064016105eb565b610b32816001612580565b6002546040516370a0823160e01b81523060048201526000916001600160a01b0316906370a082319060240160206040518083038186803b15801561116457600080fd5b505afa158015611178573d6000803e3d6000fd5b505050506040513d601f19601f8201168201806040525081019061119c9190613d97565b905090565b6111a961387e565b60008281526009602090815260409182902082516101808101845281546001600160a01b0390811682526001830154169281019290925260028101546001600160801b0380821694840194909452600160801b90819004841660608401526003820154938416608084015263ffffffff908404811660a0840152600160a01b8404811660c0840152600160c01b84041660e083015260ff600160e01b840481161515610100840152600160e81b840481161515610120840152600160f01b84048116151561014084015291929091610160840191600160f81b90041660078111156112a457634e487b7160e01b600052602160045260246000fd5b60078111156112c357634e487b7160e01b600052602160045260246000fd5b90525092915050565b6112d46121cc565b6001600160a01b03166000908152600860205260409020805460ff19811660ff90911615179055565b60008060029054906101000a90046001600160a01b03166001600160a01b031663c415b95c6040518163ffffffff1660e01b815260040160206040518083038186803b15801561134c57600080fd5b505afa158015611360573d6000803e3d6000fd5b505050506040513d601f19601f820116820180604052508101906113849190613ad1565b6000549091506201000090046001600160a01b03163314806113ae5750336001600160a01b038216145b6113e25760405162461bcd60e51b8152602060048201526005602482015264042c2eae8d60db1b60448201526064016105eb565b6113eb83612b3a565b6003546001600160a01b0384811691161415611436576040516001600160a01b038316904780156108fc02916000818181858888f193505050501580156109cd573d6000803e3d6000fd5b6040516370a0823160e01b81523060048201526114c49083906001600160a01b038616906370a082319060240160206040518083038186803b15801561147b57600080fd5b505afa15801561148f573d6000803e3d6000fd5b505050506040513d601f19601f820116820180604052508101906114b39190613d97565b6001600160a01b0386169190612b82565b505050565b600081815260096020908152604080832081516101808101835281546001600160a01b0390811682526001830154169381019390935260028101546001600160801b0380821693850193909352600160801b90819004831660608501526003820154928316608085015263ffffffff908304811660a0850152600160a01b8304811660c0850152600160c01b83041660e084015260ff600160e01b830481161515610100850152600160e81b830481161515610120850152600160f01b830481161515610140850152849392610160840191600160f81b9091041660078111156115c357634e487b7160e01b600052602160045260246000fd5b60078111156115e257634e487b7160e01b600052602160045260246000fd5b90525060a081015190915063ffffffff166116005750600092915050565b6007816101600151600781111561162757634e487b7160e01b600052602160045260246000fd5b14156116365750600792915050565b60a0810151429063ffffffff168111611689576002826101600151600781111561167057634e487b7160e01b600052602160045260246000fd5b1461167f575060019392505050565b5060029392505050565b600182610160015160078111156116b057634e487b7160e01b600052602160045260246000fd5b14156116c0575060039392505050565b8160c0015163ffffffff16811161170757600282610160015160078111156116f857634e487b7160e01b600052602160045260246000fd5b1461167f575060039392505050565b8160e0015163ffffffff168111611758576006826101600151600781111561173f57634e487b7160e01b600052602160045260246000fd5b1461174e575060049392505050565b5060069392505050565b6006826101600151600781111561177f57634e487b7160e01b600052602160045260246000fd5b1461174e575060059392505050565b85516001600160a01b031633146117d05760405162461bcd60e51b815260206004820152600660248201526510b6b0b5b2b960d11b60448201526064016105eb565b60006117dd878787611922565b905060006117ec308385611bf9565b6117f586611cc6565b6040805160208101939093528201526060016040516020818303038152906040528051906020012090506118298185611cf6565b88516001600160a01b039081169116146118735760405162461bcd60e51b815260206004820152600b60248201526a1cda59c81a5b9d985b1a5960aa1b60448201526064016105eb565b60008181526007602052604090205460ff16156118c55760405162461bcd60e51b815260206004820152601060248201526f3430b9b41037b93232b91035b737bbb760811b60448201526064016105eb565b60008181526007602052604090819020805460ff19166001179055517fbb37bf0a6298a46b23ee8e3d5aabdaa32c28bf372cef0f3e331b742a65ea0147906119109083815260200190565b60405180910390a15050505050505050565b61192a61387e565b82514210801561193f57506020830151835111155b80156119525750604083015163ffffffff115b6119865760405162461bcd60e51b81526020600482015260056024820152642174696d6560d81b60448201526064016105eb565b60608301516001600160801b031180156119aa575060808301516001600160801b03115b80156119c0575060a08301516001600160801b03115b6119fe5760405162461bcd60e51b815260206004820152600f60248201526e616d6f756e74206f766572666c6f7760881b60448201526064016105eb565b60a083015160808401516001600160801b0391611a1b91906124fb565b10611a5f5760405162461bcd60e51b815260206004820152601460248201527364656c69766572206d6179206f766572666c6f7760601b60448201526064016105eb565b604080516101808101825285516001600160a01b039081168252602080880180518316828501526080888101516001600160801b039081168688015260a0808b015182166060808901919091528b015190911691860191909152885163ffffffff9081169186019190915291880151821660c0850152938701511660e083015260006101008301819052610120830152841515610140830152915190916101608301911615611b0f576002611b12565b60015b6007811115611b3157634e487b7160e01b600052602160045260246000fd5b905290505b9392505050565b801580611b5157506001600160a01b038216155b15611b5b57505050565b6114c46001600160a01b038416833084612be5565b6000611b7a611d0b565b611b8383612c06565b905060005b8251811015611bf2576000828152603c602052604090208351849083908110611bc157634e487b7160e01b600052603260045260246000fd5b6020908102919091018101518254600181018455600093845291909220015580611bea8161419c565b915050611b88565b5092915050565b60004683516040808601516060870151608088015160a089015160c08a015160e08b01516101408c01519651611ca799988e9890979695949392918d906020019a8b526001600160a01b03998a1660208c01529790981660408a01526001600160801b0395861660608a015293851660808901529190931660a087015263ffffffff92831660c0870152821660e0860152166101008401529015156101208301526101408201526101600190565b6040516020818303038152906040528051906020012090509392505050565b600081604051602001611cd99190613ec2565b604051602081830303815290604052805190602001209050919050565b6000611d028383612d9b565b90505b92915050565b60065460ff1615611d475760405162461bcd60e51b81526020600482015260066024820152651c185d5cd95960d21b60448201526064016105eb565b565b600081815260096020908152604080832081516101808101835281546001600160a01b0390811682526001830154169381019390935260028101546001600160801b0380821693850193909352600160801b90819004831660608501526003820154928316608085015263ffffffff908304811660a0850152600160a01b8304811660c0850152600160c01b83041660e084015260ff600160e01b830481161515610100850152600160e81b830481161515610120850152600160f01b8304811615156101408501529091610160840191600160f81b909104166007811115611e4257634e487b7160e01b600052602160045260246000fd5b6007811115611e6157634e487b7160e01b600052602160045260246000fd5b90525080519091506001600160a01b038481169116148015611e865750806101000151155b15611ffe5780610140015115611ea457611e9f82612dbf565b611f8b565b600080546040805163046864cf60e21b8152815184936201000090046001600160a01b0316926311a1933c9260048082019391829003018186803b158015611eeb57600080fd5b505afa158015611eff573d6000803e3d6000fd5b505050506040513d601f19601f82011682018060405250810190611f239190613daf565b915091506000611f5182610f4486608001516001600160801b0316610f3e86886124fb90919063ffffffff16565b6002546040860151919250611f87916001600160a01b03909116903390611f829085906001600160801b031661251f565b611b3d565b5050505b60008281526009602052604090819020600301805460ff60e01b1916600160e01b179055517f7a729a080ea5047d59fb68b308d0cd6db7d3fc09d294cef02be0ea5434ad413d90611ff190849086909182526001600160a01b0316602082015260400190565b60405180910390a16121c1565b80602001516001600160a01b0316836001600160a01b03161480156120265750806101200151155b1561218b578061014001511561211c57600080546040805163046864cf60e21b8152815184936201000090046001600160a01b0316926311a1933c9260048082019391829003018186803b15801561207d57600080fd5b505afa158015612091573d6000803e3d6000fd5b505050506040513d601f19601f820116820180604052508101906120b59190613daf565b9150915060006120e382610f4486608001516001600160801b0316610f3e86886124fb90919063ffffffff16565b6002546060860151919250612114916001600160a01b03909116903390611f829085906001600160801b031661251f565b505050612125565b61212582612dbf565b60008281526009602052604090819020600301805460ff60e81b1916600160e81b179055517f7a729a080ea5047d59fb68b308d0cd6db7d3fc09d294cef02be0ea5434ad413d90611ff190849086909182526001600160a01b0316602082015260400190565b60405162461bcd60e51b815260206004820152600b60248201526a64656c697665722062756760a81b60448201526064016105eb565b6114c4826000612580565b6000546201000090046001600160a01b03163314611d475760405162461bcd60e51b815260206004820152600860248201526721666163746f727960c01b60448201526064016105eb565b600081815260096020908152604080832081516101808101835281546001600160a01b0390811682526001830154169381019390935260028101546001600160801b0380821693850193909352600160801b90819004831660608501526003820154928316608085015263ffffffff908304811660a0850152600160a01b8304811660c0850152600160c01b83041660e084015260ff600160e01b830481161515610100850152600160e81b830481161515610120850152600160f01b8304811615156101408501529091610160840191600160f81b90910416600781111561231057634e487b7160e01b600052602160045260246000fd5b600781111561232f57634e487b7160e01b600052602160045260246000fd5b90525080519091506001600160a01b031615612371576002548151604083015161236c926001600160a01b031691906001600160801b0316612408565b6123ab565b60405162461bcd60e51b815260206004820152600f60248201526e63616e63656c4f726465722062756760881b60448201526064016105eb565b60008281526009602090815260409182902060030180546001600160f81b0316600760f81b17905590518381527f935c9ad2f1fda9d7eae0d2a512f1521cb7190ee06165414e722366a65975fb6b91015b60405180910390a15050565b80158061241c57506001600160a01b038216155b1561242657505050565b6114c46001600160a01b0384168383612b82565b60028054600083815260096020526040902090910154612475916001600160a01b0316903390600160801b90046001600160801b0316611b3d565b60008181526009602052604090206001810180546001600160a01b0319166001600160a01b0385161790556003018054600291906001600160f81b0316600160f81b830217905550604080518281526001600160a01b03841660208201527fa409aeee90f7d8baa060c420573bf2d543386afb645ad155c1a2e5f4a90fa76d91016123fc565b6000611d0282846140ab565b6000611d028284614112565b6000611d0282846140c3565b6000611d028284614159565b6001600160a01b03811660009081526008602052604090205460ff16610b325760405162461bcd60e51b815260206004820152600a602482015269085b185d5b98da1c185960b21b60448201526064016105eb565b600080546040805163046864cf60e21b8152815184936201000090046001600160a01b0316926311a1933c9260048082019391829003018186803b1580156125c757600080fd5b505afa1580156125db573d6000803e3d6000fd5b505050506040513d601f19601f820116820180604052508101906125ff9190613daf565b600086815260096020908152604080832081516101808101835281546001600160a01b0390811682526001830154169381019390935260028101546001600160801b0380821693850193909352600160801b90819004831660608501526003820154928316608085015263ffffffff908304811660a0850152600160a01b8304811660c0850152600160c01b83041660e084015260ff600160e01b830481161515610100850152600160e81b830481161515610120850152600160f01b8304811615156101408501529597509395509193909291610160840191600160f81b90910416600781111561270157634e487b7160e01b600052602160045260246000fd5b600781111561272057634e487b7160e01b600052602160045260246000fd5b815250509050806101000151801561273a57508061012001515b1561289c57600061276a6002610f4485610f4486608001516001600160801b03168961250790919063ffffffff16565b90506127806001600160801b0382166002612e3e565b6001600160801b03166004600082825461279a91906140ab565b925050819055506127c0868361014001516127b6578351612e4a565b8360200151612e4a565b60025461014083015161283a916001600160a01b0316906127e55783602001516127e8565b83515b61282c8461281d876101400151612803578760600151612809565b87604001515b60808901516001600160801b031690612ec9565b6001600160801b031690612ed5565b6001600160801b0316612408565b6000868152600960209081526040918290206003018054600360f91b6001600160f81b0390911617905590518781527f2a45eee61b61ef4932e2d79b32be61a1a538cbe00381faffb4d1cf3b1268c46b910160405180910390a1505050505050565b8315612b33578061010001511580156128b757508061012001515b1561298d5760006128e283610f4484604001516001600160801b03168761250790919063ffffffff16565b6004549091506128f290826124fb565b6004556101408201511561293f5760025460208301516080840151604085015161293a936001600160a01b0316929161282c91869161281d916001600160801b031690612ec9565b612987565b600254602083015160608401516040850151612979936001600160a01b0316929161282c91869161281d916001600160801b031690612ec9565b612987868360200151612e4a565b50612ad8565b60006129b383610f4484606001516001600160801b03168761250790919063ffffffff16565b6004549091506129c390826124fb565b60045561010082015115612a5d5781610140015115612a2657600254825160608401516040850151612a13936001600160a01b0316929161282c91869161281d916001600160801b031690612ec9565b612a21868360000151612e4a565b612ad6565b600254825160808401516060850151612a21936001600160a01b0316929161282c91869161281d916001600160801b031690612ec9565b81610140015115612a9f57600254825160608401516040850151612a21936001600160a01b0316929161282c91869161281d916001600160801b031690612ec9565b600254825160408401516060850151612ad6936001600160a01b0316929161282c91869161281d916001600160801b031690612ec9565b505b6000858152600960209081526040918290206003018054600360f91b6001600160f81b0390911617905590518681527f2a45eee61b61ef4932e2d79b32be61a1a538cbe00381faffb4d1cf3b1268c46b910160405180910390a15b5050505050565b6002546001600160a01b0382811691161415610b325760405162461bcd60e51b815260206004820152600760248201526610b6b0b933b4b760c91b60448201526064016105eb565b6040516001600160a01b0383166024820152604481018290526114c490849063a9059cbb60e01b906064015b60408051601f198184030181529190526020810180516001600160e01b03166001600160e01b031990931692909217909152612ee1565b6109cd846323b872dd60e01b858585604051602401612bae93929190613e9e565b6005805460009182612c178361419c565b90915550600081815260096020908152604091829020855181546001600160a01b039182166001600160a01b031991821617835592870151600183018054919092169084161790559185015160608601516001600160801b03908116600160801b908102928216929092176002850155608087015160038501805460a08a015160c08b015160e08c01516101008d01516101208e01516101408f01511515600160f01b0260ff60f01b19911515600160e81b0260ff60e81b19931515600160e01b029390931661ffff60e01b1963ffffffff958616600160c01b0263ffffffff60c01b19978716600160a01b029790971667ffffffffffffffff60a01b1996909816909c0297909c1698909916979097179490941716919091171794909416949094179290921791821681178355610160870151949550869492916001600160f81b039091166001600160f01b0390911617600160f81b836007811115612d8e57634e487b7160e01b600052602160045260246000fd5b0217905550905050919050565b6000806000612daa8585612fb3565b91509150612db781613023565b509392505050565b60005b6000828152603c6020526040902054811015610a48576001546000838152603c602052604090208054612e2c926001600160a01b031691339130919086908110612e1c57634e487b7160e01b600052603260045260246000fd5b9060005260206000200154613224565b80612e368161419c565b915050612dc2565b6000611d0282846140e3565b60005b6000838152603c60205260409020548110156114c4576001546000848152603c602052604090208054612eb7926001600160a01b031691309186919086908110612ea757634e487b7160e01b600052603260045260246000fd5b9060005260206000200154613550565b80612ec18161419c565b915050612e4d565b6000611d028284614080565b6000611d028284614131565b6000612f36826040518060400160405280602081526020017f5361666545524332303a206c6f772d6c6576656c2063616c6c206661696c6564815250856001600160a01b03166135ea9092919063ffffffff16565b8051909150156114c45780806020019051810190612f549190613d63565b6114c45760405162461bcd60e51b815260206004820152602a60248201527f5361666545524332303a204552433230206f7065726174696f6e20646964206e6044820152691bdd081cdd58d8d9595960b21b60648201526084016105eb565b600080825160411415612fea5760208301516040840151606085015160001a612fde87828585613601565b9450945050505061301c565b82516040141561301457602083015160408401516130098683836136ee565b93509350505061301c565b506000905060025b9250929050565b600081600481111561304557634e487b7160e01b600052602160045260246000fd5b141561304e5750565b600181600481111561307057634e487b7160e01b600052602160045260246000fd5b14156130be5760405162461bcd60e51b815260206004820152601860248201527f45434453413a20696e76616c6964207369676e6174757265000000000000000060448201526064016105eb565b60028160048111156130e057634e487b7160e01b600052602160045260246000fd5b141561312e5760405162461bcd60e51b815260206004820152601f60248201527f45434453413a20696e76616c6964207369676e6174757265206c656e6774680060448201526064016105eb565b600381600481111561315057634e487b7160e01b600052602160045260246000fd5b14156131a95760405162461bcd60e51b815260206004820152602260248201527f45434453413a20696e76616c6964207369676e6174757265202773272076616c604482015261756560f01b60648201526084016105eb565b60048160048111156131cb57634e487b7160e01b600052602160045260246000fd5b1415610b325760405162461bcd60e51b815260206004820152602260248201527f45434453413a20696e76616c6964207369676e6174757265202776272076616c604482015261756560f01b60648201526084016105eb565b60606001600160a01b0385167306012c8cf97bead5deae237070f9587f8e7a266d1415613298576323b872dd84848460405160240161326593929190613e9e565b6040516020818303038152906040529060e01b6020820180516001600160e01b03838183161783525050505090506134d0565b6001600160a01b03851673d03b517dfa5d14c3c7642d974ddc1b8b2c8e2d18141561342157600080866001600160a01b03166358178168856040516024016132e291815260200190565b6040516020818303038152906040529060e01b6020820180516001600160e01b03838183161783525050505060405161331b9190613df4565b600060405180830381855afa9150503d8060008114613356576040519150601f19603f3d011682016040523d82523d6000602084013e61335b565b606091505b50915091506000818060200190518101906133769190613ad1565b90508280156133965750866001600160a01b0316816001600160a01b0316145b6133d35760405162461bcd60e51b815260206004820152600e60248201526d383ab636103737ba1037bbb732b960911b60448201526064016105eb565b638264fe98856040516024016133eb91815260200190565b6040516020818303038152906040529060e01b6020820180516001600160e01b03838183161783525050505093505050506134d0565b6001600160a01b0385167379986af15539de2db9a5086382daeda917a9cf0c148061346857506001600160a01b038516732a46f2ffd99e19a89476e2f62270e0a35bbf0756145b15613487576323b872dd84848460405160240161326593929190613e9e565b6342842e0e8484846040516024016134a193929190613e9e565b6040516020818303038152906040529060e01b6020820180516001600160e01b03838183161783525050505090505b600080866001600160a01b0316836040516134eb9190613df4565b6000604051808303816000865af19150503d8060008114613528576040519150601f19603f3d011682016040523d82523d6000602084013e61352d565b606091505b509150915081801561353e57508051155b61354757600080fd5b50505050505050565b60606001600160a01b0385167306012c8cf97bead5deae237070f9587f8e7a266d141561359e576040516001600160a01b03841660248201526044810183905263a9059cbb90606401613265565b6001600160a01b03851673d03b517dfa5d14c3c7642d974ddc1b8b2c8e2d181415613421576040516001600160a01b038416602482015260448101839052638b72a2ec90606401613265565b60606135f9848460008561371d565b949350505050565b6000807f7fffffffffffffffffffffffffffffff5d576e7357a4501ddfe92f46681b20a083111561363857506000905060036136e5565b8460ff16601b1415801561365057508460ff16601c14155b1561366157506000905060046136e5565b6040805160008082526020820180845289905260ff881692820192909252606081018690526080810185905260019060a0016020604051602081039080840390855afa1580156136b5573d6000803e3d6000fd5b5050604051601f1901519150506001600160a01b0381166136de576000600192509250506136e5565b9150600090505b94509492505050565b6000806001600160ff1b03831660ff84901c601b0161370f87828885613601565b935093505050935093915050565b60608247101561377e5760405162461bcd60e51b815260206004820152602660248201527f416464726573733a20696e73756666696369656e742062616c616e636520666f6044820152651c8818d85b1b60d21b60648201526084016105eb565b843b6137cc5760405162461bcd60e51b815260206004820152601d60248201527f416464726573733a2063616c6c20746f206e6f6e2d636f6e747261637400000060448201526064016105eb565b600080866001600160a01b031685876040516137e89190613df4565b60006040518083038185875af1925050503d8060008114613825576040519150601f19603f3d011682016040523d82523d6000602084013e61382a565b606091505b509150915061383a828286613845565b979650505050505050565b60608315613854575081611b36565b8251156138645782518084602001fd5b8160405162461bcd60e51b81526004016105eb9190613f14565b6040805161018081018252600080825260208201819052918101829052606081018290526080810182905260a0810182905260c0810182905260e081018290526101008101829052610120810182905261014081018290529061016082015290565b600082601f8301126138f0578081fd5b6040516040810181811067ffffffffffffffff82111715613913576139136141cd565b8060405250808385604086011115613929578384fd5b835b600281101561395457813561393f816141e3565b8352602092830192919091019060010161392b565b509195945050505050565b600082601f83011261396f578081fd5b60405160c0810181811067ffffffffffffffff82111715613992576139926141cd565b604052808360c081018610156139a6578384fd5b835b60068110156139545781358352602092830192909101906001016139a8565b600082601f8301126139d7578081fd5b8135602067ffffffffffffffff8211156139f3576139f36141cd565b8160051b613a0282820161404f565b838152828101908684018388018501891015613a1c578687fd5b8693505b85841015613a3e578035835260019390930192918401918401613a20565b50979650505050505050565b600082601f830112613a5a578081fd5b813567ffffffffffffffff811115613a7457613a746141cd565b613a87601f8201601f191660200161404f565b818152846020838601011115613a9b578283fd5b816020850160208301379081016020019190915292915050565b600060208284031215613ac6578081fd5b8135611b36816141e3565b600060208284031215613ae2578081fd5b8151611b36816141e3565b60008060408385031215613aff578081fd5b8235613b0a816141e3565b91506020830135613b1a816141e3565b809150509250929050565b60008060008060808587031215613b3a578182fd5b8435613b45816141e3565b93506020850135613b55816141e3565b925060408501359150606085013567ffffffffffffffff811115613b77578182fd5b613b8387828801613a4a565b91505092959194509250565b6000806000806101208587031215613ba5578384fd5b8435613bb0816141e3565b9350613bbf866020870161395f565b925060e0850135613bcf816141f8565b915061010085013567ffffffffffffffff811115613beb578182fd5b613b83878288016139c7565b60008060408385031215613c09578182fd5b8235613c14816141e3565b946020939093013593505050565b600080600060608486031215613c36578081fd5b8335613c41816141e3565b9250602084013591506040840135613c58816141e3565b809150509250925092565b6000806000806101408587031215613c79578182fd5b613c8386866138e0565b9350613c92866040870161395f565b9250610100850135613ca3816141f8565b915061012085013567ffffffffffffffff811115613beb578182fd5b6000806000806000806101808789031215613cd8578384fd5b613ce288886138e0565b9550613cf1886040890161395f565b9450610100870135613d02816141f8565b935061012087013567ffffffffffffffff80821115613d1f578384fd5b613d2b8a838b016139c7565b9450610140890135915080821115613d41578384fd5b50613d4e89828a01613a4a565b92505061016087013590509295509295509295565b600060208284031215613d74578081fd5b8151611b36816141f8565b600060208284031215613d90578081fd5b5035919050565b600060208284031215613da8578081fd5b5051919050565b60008060408385031215613dc1578182fd5b505080516020909101519092909150565b60088110613df057634e487b7160e01b600052602160045260246000fd5b9052565b60008251613e06818460208701614170565b9190910192915050565b6001600160a01b038d811682528c1660208201526001600160801b038b811660408301528a811660608301528916608082015263ffffffff88811660a083015287811660c0830152861660e08201526101808101851515610100830152841515610120830152831515610140830152613e8d610160830184613dd2565b9d9c50505050505050505050505050565b6001600160a01b039384168152919092166020820152604081019190915260600190565b6020808252825182820181905260009190848201906040850190845b81811015613efa57835183529284019291840191600101613ede565b50909695505050505050565b60208101611d058284613dd2565b6020815260008251806020840152613f33816040850160208701614170565b601f01601f19169190910160400192915050565b81516001600160a01b0316815261018081016020830151613f7360208401826001600160a01b03169052565b506040830151613f8e60408401826001600160801b03169052565b506060830151613fa960608401826001600160801b03169052565b506080830151613fc460808401826001600160801b03169052565b5060a0830151613fdc60a084018263ffffffff169052565b5060c0830151613ff460c084018263ffffffff169052565b5060e083015161400c60e084018263ffffffff169052565b506101008381015115159083015261012080840151151590830152610140808401511515908301526101608084015161404782850182613dd2565b505092915050565b604051601f8201601f1916810167ffffffffffffffff81118282101715614078576140786141cd565b604052919050565b60006001600160801b038083168185168083038211156140a2576140a26141b7565b01949350505050565b600082198211156140be576140be6141b7565b500190565b6000826140de57634e487b7160e01b81526012600452602481fd5b500490565b60006001600160801b0380831681851681830481118215151615614109576141096141b7565b02949350505050565b600081600019048311821515161561412c5761412c6141b7565b500290565b60006001600160801b0383811690831681811015614151576141516141b7565b039392505050565b60008282101561416b5761416b6141b7565b500390565b60005b8381101561418b578181015183820152602001614173565b838111156109cd5750506000910152565b60006000198214156141b0576141b06141b7565b5060010190565b634e487b7160e01b600052601160045260246000fd5b634e487b7160e01b600052604160045260246000fd5b6001600160a01b0381168114610b3257600080fd5b8015158114610b3257600080fdfea2646970667358221220e12b290efd58d20c5e5b8f5070b9f74dcb8ebdeb35be794b1a5e28427dceabc064736f6c63430008040033",
  "linkReferences": {},
  "deployedLinkReferences": {}
}