{
  "_format": "hh-sol-artifact-1",
  "contractName": "ForwardEtherRouter",
  "sourceName": "contracts/forward/ForwardEtherRouter.sol",
  "abi": [
    {
      "inputs": [
        {
          "internalType": "address",
          "name": "_weth_",
          "type": "address"
        }
      ],
      "stateMutability": "nonpayable",
      "type": "constructor"
    },
    {
      "inputs": [
        {
          "internalType": "address",
          "name": "_forward",
          "type": "address"
        },
        {
          "internalType": "uint256",
          "name": "_orderId",
          "type": "uint256"
        }
      ],
      "name": "cancelOrder",
      "outputs": [],
      "stateMutability": "nonpayable",
      "type": "function"
    },
    {
      "inputs": [
        {
          "internalType": "address",
          "name": "_forward1155",
          "type": "address"
        },
        {
          "internalType": "address",
          "name": "_maker",
          "type": "address"
        },
        {
          "internalType": "uint256[6]",
          "name": "_uints",
          "type": "uint256[6]"
        },
        {
          "internalType": "bool",
          "name": "_isSeller",
          "type": "bool"
        },
        {
          "internalType": "uint256[]",
          "name": "_ids",
          "type": "uint256[]"
        },
        {
          "internalType": "uint256[]",
          "name": "_amounts",
          "type": "uint256[]"
        }
      ],
      "name": "createOrder1155For",
      "outputs": [
        {
          "internalType": "uint256",
          "name": "orderId",
          "type": "uint256"
        }
      ],
      "stateMutability": "payable",
      "type": "function"
    },
    {
      "inputs": [
        {
          "internalType": "address",
          "name": "_forward20",
          "type": "address"
        },
        {
          "internalType": "address",
          "name": "_maker",
          "type": "address"
        },
        {
          "internalType": "uint256[6]",
          "name": "_uints",
          "type": "uint256[6]"
        },
        {
          "internalType": "bool",
          "name": "_isSeller",
          "type": "bool"
        },
        {
          "internalType": "uint256",
          "name": "_underlyingAmount",
          "type": "uint256"
        }
      ],
      "name": "createOrder20For",
      "outputs": [
        {
          "internalType": "uint256",
          "name": "orderId",
          "type": "uint256"
        }
      ],
      "stateMutability": "payable",
      "type": "function"
    },
    {
      "inputs": [
        {
          "internalType": "address",
          "name": "_forward721",
          "type": "address"
        },
        {
          "internalType": "address",
          "name": "_maker",
          "type": "address"
        },
        {
          "internalType": "uint256[6]",
          "name": "_uints",
          "type": "uint256[6]"
        },
        {
          "internalType": "bool",
          "name": "_isSeller",
          "type": "bool"
        },
        {
          "internalType": "uint256[]",
          "name": "_tokenIds",
          "type": "uint256[]"
        }
      ],
      "name": "createOrder721For",
      "outputs": [
        {
          "internalType": "uint256",
          "name": "orderId",
          "type": "uint256"
        }
      ],
      "stateMutability": "payable",
      "type": "function"
    },
    {
      "inputs": [
        {
          "internalType": "address",
          "name": "_forward",
          "type": "address"
        },
        {
          "internalType": "address",
          "name": "_deliverer",
          "type": "address"
        },
        {
          "internalType": "uint256",
          "name": "_orderId",
          "type": "uint256"
        }
      ],
      "name": "deliverFor",
      "outputs": [],
      "stateMutability": "payable",
      "type": "function"
    },
    {
      "inputs": [
        {
          "internalType": "address",
          "name": "_forward",
          "type": "address"
        },
        {
          "internalType": "uint256[]",
          "name": "_orderIds",
          "type": "uint256[]"
        }
      ],
      "name": "multiCancelOrder",
      "outputs": [],
      "stateMutability": "nonpayable",
      "type": "function"
    },
    {
      "inputs": [
        {
          "internalType": "address",
          "name": "_forward",
          "type": "address"
        },
        {
          "internalType": "address",
          "name": "_deliverer",
          "type": "address"
        },
        {
          "internalType": "uint256[]",
          "name": "_orderIds",
          "type": "uint256[]"
        }
      ],
      "name": "multiDeliverFor",
      "outputs": [],
      "stateMutability": "payable",
      "type": "function"
    },
    {
      "inputs": [
        {
          "internalType": "address",
          "name": "_forward",
          "type": "address"
        },
        {
          "internalType": "uint256[]",
          "name": "_orderIds",
          "type": "uint256[]"
        }
      ],
      "name": "multiSettle",
      "outputs": [],
      "stateMutability": "nonpayable",
      "type": "function"
    },
    {
      "inputs": [
        {
          "internalType": "address",
          "name": "_forward",
          "type": "address"
        },
        {
          "internalType": "address",
          "name": "_taker",
          "type": "address"
        },
        {
          "internalType": "uint256[]",
          "name": "_orderIds",
          "type": "uint256[]"
        }
      ],
      "name": "multiTakeOrderFor",
      "outputs": [],
      "stateMutability": "payable",
      "type": "function"
    },
    {
      "inputs": [
        {
          "internalType": "address",
          "name": "",
          "type": "address"
        },
        {
          "internalType": "address",
          "name": "",
          "type": "address"
        },
        {
          "internalType": "uint256[]",
          "name": "",
          "type": "uint256[]"
        },
        {
          "internalType": "uint256[]",
          "name": "",
          "type": "uint256[]"
        },
        {
          "internalType": "bytes",
          "name": "",
          "type": "bytes"
        }
      ],
      "name": "onERC1155BatchReceived",
      "outputs": [
        {
          "internalType": "bytes4",
          "name": "",
          "type": "bytes4"
        }
      ],
      "stateMutability": "nonpayable",
      "type": "function"
    },
    {
      "inputs": [
        {
          "internalType": "address",
          "name": "",
          "type": "address"
        },
        {
          "internalType": "address",
          "name": "",
          "type": "address"
        },
        {
          "internalType": "uint256",
          "name": "",
          "type": "uint256"
        },
        {
          "internalType": "uint256",
          "name": "",
          "type": "uint256"
        },
        {
          "internalType": "bytes",
          "name": "",
          "type": "bytes"
        }
      ],
      "name": "onERC1155Received",
      "outputs": [
        {
          "internalType": "bytes4",
          "name": "",
          "type": "bytes4"
        }
      ],
      "stateMutability": "nonpayable",
      "type": "function"
    },
    {
      "inputs": [
        {
          "internalType": "address",
          "name": "",
          "type": "address"
        },
        {
          "internalType": "address",
          "name": "",
          "type": "address"
        },
        {
          "internalType": "uint256",
          "name": "",
          "type": "uint256"
        },
        {
          "internalType": "bytes",
          "name": "",
          "type": "bytes"
        }
      ],
      "name": "onERC721Received",
      "outputs": [
        {
          "internalType": "bytes4",
          "name": "",
          "type": "bytes4"
        }
      ],
      "stateMutability": "nonpayable",
      "type": "function"
    },
    {
      "inputs": [
        {
          "internalType": "address",
          "name": "_forward",
          "type": "address"
        }
      ],
      "name": "ordersLength",
      "outputs": [
        {
          "internalType": "uint256",
          "name": "",
          "type": "uint256"
        }
      ],
      "stateMutability": "view",
      "type": "function"
    },
    {
      "inputs": [
        {
          "internalType": "address",
          "name": "_forward",
          "type": "address"
        },
        {
          "internalType": "uint256",
          "name": "_orderId",
          "type": "uint256"
        }
      ],
      "name": "settle",
      "outputs": [],
      "stateMutability": "nonpayable",
      "type": "function"
    },
    {
      "inputs": [
        {
          "internalType": "bytes4",
          "name": "interfaceId",
          "type": "bytes4"
        }
      ],
      "name": "supportsInterface",
      "outputs": [
        {
          "internalType": "bool",
          "name": "",
          "type": "bool"
        }
      ],
      "stateMutability": "view",
      "type": "function"
    },
    {
      "inputs": [
        {
          "internalType": "address",
          "name": "_forward",
          "type": "address"
        },
        {
          "internalType": "address",
          "name": "_taker",
          "type": "address"
        },
        {
          "internalType": "uint256",
          "name": "_orderId",
          "type": "uint256"
        }
      ],
      "name": "takeOrderFor",
      "outputs": [],
      "stateMutability": "payable",
      "type": "function"
    },
    {
      "inputs": [],
      "name": "weth",
      "outputs": [
        {
          "internalType": "address",
          "name": "",
          "type": "address"
        }
      ],
      "stateMutability": "view",
      "type": "function"
    },
    {
      "stateMutability": "payable",
      "type": "receive"
    }
  ],
  "bytecode": "0x60806040523480156200001157600080fd5b50604051620026ac380380620026ac83398101604081905262000034916200005a565b600080546001600160a01b0319166001600160a01b03929092169190911790556200008a565b6000602082840312156200006c578081fd5b81516001600160a01b038116811462000083578182fd5b9392505050565b612612806200009a6000396000f3fe6080604052600436106101025760003560e01c806355e514531161009557806395629d1e1161006457806395629d1e1461029e578063bb7390e2146102b1578063bc197c81146102c4578063c7323c68146102f0578063f23a6e611461031057600080fd5b806355e51453146102455780636a206137146102585780636ce110ef1461027857806377f4e2d61461028b57600080fd5b80632ad601c8116100d15780632ad601c8146101bc5780633297d4f2146101ea5780633fc8cef3146101fd5780635281ab981461022557600080fd5b806301ffc9a71461010e578063150b7a021461014357806315afd409146101875780631ccaf8a9146101a957600080fd5b3661010957005b600080fd5b34801561011a57600080fd5b5061012e610129366004612255565b61033c565b60405190151581526020015b60405180910390f35b34801561014f57600080fd5b5061016e61015e3660046120ef565b630a85bd0160e11b949350505050565b6040516001600160e01b0319909116815260200161013a565b34801561019357600080fd5b506101a76101a236600461220e565b610373565b005b6101a76101b73660046120af565b6103d1565b3480156101c857600080fd5b506101dc6101d7366004611dd9565b6106e8565b60405190815260200161013a565b6101dc6101f8366004611e18565b61075b565b34801561020957600080fd5b506000546040516001600160a01b03909116815260200161013a565b34801561023157600080fd5b506101a76102403660046121c0565b610b94565b6101dc610253366004611ea0565b610be3565b34801561026457600080fd5b506101a761027336600461220e565b61105a565b6101a76102863660046120af565b611087565b6101a7610299366004611fb2565b61147a565b6101dc6102ac366004611f4d565b611688565b6101a76102bf366004611fb2565b6118dc565b3480156102d057600080fd5b5061016e6102df366004612012565b63bc197c8160e01b95945050505050565b3480156102fc57600080fd5b506101a761030b3660046121c0565b611bcb565b34801561031c57600080fd5b5061016e61032b366004612159565b63f23a6e6160e01b95945050505050565b60006001600160e01b03198216630271189760e51b148061036d57506301ffc9a760e01b6001600160e01b03198316145b92915050565b6040516211bf0560eb1b8152600481018290526001600160a01b03831690638df82800906024015b600060405180830381600087803b1580156103b557600080fd5b505af11580156103c9573d6000803e3d6000fd5b505050505050565b60008054906101000a90046001600160a01b03166001600160a01b0316836001600160a01b0316638f76691a6040518163ffffffff1660e01b815260040160206040518083038186803b15801561042757600080fd5b505afa15801561043b573d6000803e3d6000fd5b505050506040513d601f19601f8201168201806040525081019061045f9190611dfc565b6001600160a01b03161461048e5760405162461bcd60e51b8152600401610485906124f5565b60405180910390fd5b34156104fc5760008054906101000a90046001600160a01b03166001600160a01b031663d0e30db0346040518263ffffffff1660e01b81526004016000604051808303818588803b1580156104e257600080fd5b505af11580156104f6573d6000803e3d6000fd5b50505050505b604051630f1f8a7b60e31b81526001600160a01b038381166004830152602482018390528416906378fc53d890604401600060405180830381600087803b15801561054657600080fd5b505af115801561055a573d6000803e3d6000fd5b5050600080546040516370a0823160e01b81523060048201529193506001600160a01b031691506370a08231906024015b60206040518083038186803b1580156105a357600080fd5b505afa1580156105b7573d6000803e3d6000fd5b505050506040513d601f19601f820116820180604052508101906105db9190612368565b11156106e3576000546040516370a0823160e01b81523060048201526001600160a01b0390911690632e1a7d4d9082906370a082319060240160206040518083038186803b15801561062c57600080fd5b505afa158015610640573d6000803e3d6000fd5b505050506040513d601f19601f820116820180604052508101906106649190612368565b6040518263ffffffff1660e01b815260040161068291815260200190565b600060405180830381600087803b15801561069c57600080fd5b505af11580156106b0573d6000803e3d6000fd5b50506040513392504780156108fc029250906000818181858888f193505050501580156106e1573d6000803e3d6000fd5b505b505050565b6000816001600160a01b031663be8acd3f6040518163ffffffff1660e01b815260040160206040518083038186803b15801561072357600080fd5b505afa158015610737573d6000803e3d6000fd5b505050506040513d601f19601f8201168201806040525081019061036d9190612368565b60008054604080516347bb348d60e11b815290516001600160a01b0392831692891691638f76691a916004808301926020929190829003018186803b1580156107a357600080fd5b505afa1580156107b7573d6000803e3d6000fd5b505050506040513d601f19601f820116820180604052508101906107db9190611dfc565b6001600160a01b0316146108015760405162461bcd60e51b8152600401610485906124f5565b60008054906101000a90046001600160a01b03166001600160a01b031663d0e30db0346040518263ffffffff1660e01b81526004016000604051808303818588803b15801561084f57600080fd5b505af1158015610863573d6000803e3d6000fd5b505060008054604051636eb1769f60e11b81523060048201526001600160a01b038c811660248301529295509116925063dd62ed3e915060440160206040518083038186803b1580156108b557600080fd5b505afa1580156108c9573d6000803e3d6000fd5b505050506040513d601f19601f820116820180604052508101906108ed9190612368565b90508061097d5760005460405163095ea7b360e01b81526001600160a01b03898116600483015260001960248301529091169063095ea7b390604401602060405180830381600087803b15801561094357600080fd5b505af1158015610957573d6000803e3d6000fd5b505050506040513d601f19601f8201168201806040525081019061097b9190612239565b505b6040516330a4a79360e11b81526001600160a01b038816906361494f26906109af9089908990899089906004016123dd565b602060405180830381600087803b1580156109c957600080fd5b505af11580156109dd573d6000803e3d6000fd5b505050506040513d601f19601f82011682018060405250810190610a019190612368565b600080546040516370a0823160e01b815230600482015292945090916001600160a01b03909116906370a082319060240160206040518083038186803b158015610a4a57600080fd5b505afa158015610a5e573d6000803e3d6000fd5b505050506040513d601f19601f82011682018060405250810190610a829190612368565b1115610b8a576000546040516370a0823160e01b81523060048201526001600160a01b0390911690632e1a7d4d9082906370a082319060240160206040518083038186803b158015610ad357600080fd5b505afa158015610ae7573d6000803e3d6000fd5b505050506040513d601f19601f82011682018060405250810190610b0b9190612368565b6040518263ffffffff1660e01b8152600401610b2991815260200190565b600060405180830381600087803b158015610b4357600080fd5b505af1158015610b57573d6000803e3d6000fd5b50506040513392504780156108fc029250906000818181858888f19350505050158015610b88573d6000803e3d6000fd5b505b5095945050505050565b60005b81518110156106e357610bd183838381518110610bc457634e487b7160e01b600052603260045260246000fd5b6020026020010151610373565b80610bdb81612579565b915050610b97565b60008054604080516347bb348d60e11b815290516001600160a01b03928316928a1691638f76691a916004808301926020929190829003018186803b158015610c2b57600080fd5b505afa158015610c3f573d6000803e3d6000fd5b505050506040513d601f19601f82011682018060405250810190610c639190611dfc565b6001600160a01b031614610c895760405162461bcd60e51b8152600401610485906124f5565b8151835114610cc45760405162461bcd60e51b8152602060048201526007602482015266042d8cadccee8d60cb1b6044820152606401610485565b60008054906101000a90046001600160a01b03166001600160a01b031663d0e30db0346040518263ffffffff1660e01b81526004016000604051808303818588803b158015610d1257600080fd5b505af1158015610d26573d6000803e3d6000fd5b505060008054604051636eb1769f60e11b81523060048201526001600160a01b038d811660248301529295509116925063dd62ed3e915060440160206040518083038186803b158015610d7857600080fd5b505afa158015610d8c573d6000803e3d6000fd5b505050506040513d601f19601f82011682018060405250810190610db09190612368565b905080610e405760005460405163095ea7b360e01b81526001600160a01b038a8116600483015260001960248301529091169063095ea7b390604401602060405180830381600087803b158015610e0657600080fd5b505af1158015610e1a573d6000803e3d6000fd5b505050506040513d601f19601f82011682018060405250810190610e3e9190612239565b505b6040516302ae78c160e01b81526001600160a01b038916906302ae78c190610e74908a908a908a908a908a90600401612421565b602060405180830381600087803b158015610e8e57600080fd5b505af1158015610ea2573d6000803e3d6000fd5b505050506040513d601f19601f82011682018060405250810190610ec69190612368565b600080546040516370a0823160e01b815230600482015292945090916001600160a01b03909116906370a082319060240160206040518083038186803b158015610f0f57600080fd5b505afa158015610f23573d6000803e3d6000fd5b505050506040513d601f19601f82011682018060405250810190610f479190612368565b111561104f576000546040516370a0823160e01b81523060048201526001600160a01b0390911690632e1a7d4d9082906370a082319060240160206040518083038186803b158015610f9857600080fd5b505afa158015610fac573d6000803e3d6000fd5b505050506040513d601f19601f82011682018060405250810190610fd09190612368565b6040518263ffffffff1660e01b8152600401610fee91815260200190565b600060405180830381600087803b15801561100857600080fd5b505af115801561101c573d6000803e3d6000fd5b50506040513392504780156108fc029250906000818181858888f1935050505015801561104d573d6000803e3d6000fd5b505b509695505050505050565b60405163514fcac760e01b8152600481018290526001600160a01b0383169063514fcac79060240161039b565b60008054906101000a90046001600160a01b03166001600160a01b0316836001600160a01b0316638f76691a6040518163ffffffff1660e01b815260040160206040518083038186803b1580156110dd57600080fd5b505afa1580156110f1573d6000803e3d6000fd5b505050506040513d601f19601f820116820180604052508101906111159190611dfc565b6001600160a01b03161461113b5760405162461bcd60e51b8152600401610485906124f5565b34156111a95760008054906101000a90046001600160a01b03166001600160a01b031663d0e30db0346040518263ffffffff1660e01b81526004016000604051808303818588803b15801561118f57600080fd5b505af11580156111a3573d6000803e3d6000fd5b50505050505b60405163d09ef24160e01b8152600481018290526000906001600160a01b0385169063d09ef241906024016101806040518083038186803b1580156111ed57600080fd5b505afa158015611201573d6000803e3d6000fd5b505050506040513d601f19601f82011682018060405250810190611225919061227d565b9050806101400151801561124e575080602001516001600160a01b0316836001600160a01b0316145b806112735750806101400151158015611273575080516001600160a01b038481169116145b61128f5760405162461bcd60e51b8152600401610485906124ac565b604051630383730960e41b81526001600160a01b03848116600483015260248201849052851690633837309090604401600060405180830381600087803b1580156112d957600080fd5b505af11580156112ed573d6000803e3d6000fd5b5050600080546040516370a0823160e01b81523060048201529193506001600160a01b031691506370a082319060240160206040518083038186803b15801561133557600080fd5b505afa158015611349573d6000803e3d6000fd5b505050506040513d601f19601f8201168201806040525081019061136d9190612368565b11156106e1576000546040516370a0823160e01b81523060048201526001600160a01b0390911690632e1a7d4d9082906370a082319060240160206040518083038186803b1580156113be57600080fd5b505afa1580156113d2573d6000803e3d6000fd5b505050506040513d601f19601f820116820180604052508101906113f69190612368565b6040518263ffffffff1660e01b815260040161141491815260200190565b600060405180830381600087803b15801561142e57600080fd5b505af1158015611442573d6000803e3d6000fd5b50506040513392504780156108fc029250906000818181858888f19350505050158015611473573d6000803e3d6000fd5b5050505050565b60008054906101000a90046001600160a01b03166001600160a01b0316836001600160a01b0316638f76691a6040518163ffffffff1660e01b815260040160206040518083038186803b1580156114d057600080fd5b505afa1580156114e4573d6000803e3d6000fd5b505050506040513d601f19601f820116820180604052508101906115089190611dfc565b6001600160a01b03161461152e5760405162461bcd60e51b8152600401610485906124f5565b341561159c5760008054906101000a90046001600160a01b03166001600160a01b031663d0e30db0346040518263ffffffff1660e01b81526004016000604051808303818588803b15801561158257600080fd5b505af1158015611596573d6000803e3d6000fd5b50505050505b60005b815181101561165657836001600160a01b03166378fc53d8848484815181106115d857634e487b7160e01b600052603260045260246000fd5b60200260200101516040518363ffffffff1660e01b81526004016116119291906001600160a01b03929092168252602082015260400190565b600060405180830381600087803b15801561162b57600080fd5b505af115801561163f573d6000803e3d6000fd5b50505050808061164e90612579565b91505061159f565b50600080546040516370a0823160e01b81523060048201526001600160a01b03909116906370a082319060240161058b565b60008054604080516347bb348d60e11b815290516001600160a01b0392831692891691638f76691a916004808301926020929190829003018186803b1580156116d057600080fd5b505afa1580156116e4573d6000803e3d6000fd5b505050506040513d601f19601f820116820180604052508101906117089190611dfc565b6001600160a01b03161461172e5760405162461bcd60e51b8152600401610485906124f5565b60008054906101000a90046001600160a01b03166001600160a01b031663d0e30db0346040518263ffffffff1660e01b81526004016000604051808303818588803b15801561177c57600080fd5b505af1158015611790573d6000803e3d6000fd5b505060008054604051636eb1769f60e11b81523060048201526001600160a01b038c811660248301529295509116925063dd62ed3e915060440160206040518083038186803b1580156117e257600080fd5b505afa1580156117f6573d6000803e3d6000fd5b505050506040513d601f19601f8201168201806040525081019061181a9190612368565b9050806118aa5760005460405163095ea7b360e01b81526001600160a01b03898116600483015260001960248301529091169063095ea7b390604401602060405180830381600087803b15801561187057600080fd5b505af1158015611884573d6000803e3d6000fd5b505050506040513d601f19601f820116820180604052508101906118a89190612239565b505b604051630673d09960e01b81526001600160a01b03881690630673d099906109af90899089908990899060040161247b565b60008054906101000a90046001600160a01b03166001600160a01b0316836001600160a01b0316638f76691a6040518163ffffffff1660e01b815260040160206040518083038186803b15801561193257600080fd5b505afa158015611946573d6000803e3d6000fd5b505050506040513d601f19601f8201168201806040525081019061196a9190611dfc565b6001600160a01b0316146119905760405162461bcd60e51b8152600401610485906124f5565b34156119fe5760008054906101000a90046001600160a01b03166001600160a01b031663d0e30db0346040518263ffffffff1660e01b81526004016000604051808303818588803b1580156119e457600080fd5b505af11580156119f8573d6000803e3d6000fd5b50505050505b60005b8151811015611656576000846001600160a01b031663d09ef241848481518110611a3b57634e487b7160e01b600052603260045260246000fd5b60200260200101516040518263ffffffff1660e01b8152600401611a6191815260200190565b6101806040518083038186803b158015611a7a57600080fd5b505afa158015611a8e573d6000803e3d6000fd5b505050506040513d601f19601f82011682018060405250810190611ab2919061227d565b90508061014001518015611adb575080602001516001600160a01b0316846001600160a01b0316145b80611b005750806101400151158015611b00575080516001600160a01b038581169116145b611b1c5760405162461bcd60e51b8152600401610485906124ac565b846001600160a01b0316633837309085858581518110611b4c57634e487b7160e01b600052603260045260246000fd5b60200260200101516040518363ffffffff1660e01b8152600401611b859291906001600160a01b03929092168252602082015260400190565b600060405180830381600087803b158015611b9f57600080fd5b505af1158015611bb3573d6000803e3d6000fd5b50505050508080611bc390612579565b915050611a01565b60005b81518110156106e357611c0883838381518110611bfb57634e487b7160e01b600052603260045260246000fd5b602002602001015161105a565b80611c1281612579565b915050611bce565b8051611c25816125b6565b919050565b600082601f830112611c3a578081fd5b60405160c0810181811067ffffffffffffffff82111715611c5d57611c5d6125a0565b604052808360c08101861015611c71578384fd5b835b6006811015611c92578135835260209283019290910190600101611c73565b509195945050505050565b600082601f830112611cad578081fd5b8135602067ffffffffffffffff821115611cc957611cc96125a0565b8160051b611cd8828201612548565b838152828101908684018388018501891015611cf2578687fd5b8693505b85841015611d14578035835260019390930192918401918401611cf6565b50979650505050505050565b8051611c25816125ce565b600082601f830112611d3b578081fd5b813567ffffffffffffffff811115611d5557611d556125a0565b611d68601f8201601f1916602001612548565b818152846020838601011115611d7c578283fd5b816020850160208301379081016020019190915292915050565b805160088110611c2557600080fd5b80516fffffffffffffffffffffffffffffffff81168114611c2557600080fd5b805163ffffffff81168114611c2557600080fd5b600060208284031215611dea578081fd5b8135611df5816125b6565b9392505050565b600060208284031215611e0d578081fd5b8151611df5816125b6565b60008060008060006101408688031215611e30578081fd5b8535611e3b816125b6565b94506020860135611e4b816125b6565b9350611e5a8760408801611c2a565b9250610100860135611e6b816125ce565b915061012086013567ffffffffffffffff811115611e87578182fd5b611e9388828901611c9d565b9150509295509295909350565b6000806000806000806101608789031215611eb9578081fd5b8635611ec4816125b6565b95506020870135611ed4816125b6565b9450611ee38860408901611c2a565b9350610100870135611ef4816125ce565b925061012087013567ffffffffffffffff80821115611f11578283fd5b611f1d8a838b01611c9d565b9350610140890135915080821115611f33578283fd5b50611f4089828a01611c9d565b9150509295509295509295565b60008060008060006101408688031215611f65578283fd5b8535611f70816125b6565b94506020860135611f80816125b6565b9350611f8f8760408801611c2a565b9250610100860135611fa0816125ce565b94979396509194610120013592915050565b600080600060608486031215611fc6578081fd5b8335611fd1816125b6565b92506020840135611fe1816125b6565b9150604084013567ffffffffffffffff811115611ffc578182fd5b61200886828701611c9d565b9150509250925092565b600080600080600060a08688031215612029578283fd5b8535612034816125b6565b94506020860135612044816125b6565b9350604086013567ffffffffffffffff80821115612060578485fd5b61206c89838a01611c9d565b94506060880135915080821115612081578283fd5b61208d89838a01611c9d565b935060808801359150808211156120a2578283fd5b50611e9388828901611d2b565b6000806000606084860312156120c3578081fd5b83356120ce816125b6565b925060208401356120de816125b6565b929592945050506040919091013590565b60008060008060808587031215612104578182fd5b843561210f816125b6565b9350602085013561211f816125b6565b925060408501359150606085013567ffffffffffffffff811115612141578182fd5b61214d87828801611d2b565b91505092959194509250565b600080600080600060a08688031215612170578283fd5b853561217b816125b6565b9450602086013561218b816125b6565b93506040860135925060608601359150608086013567ffffffffffffffff8111156121b4578182fd5b611e9388828901611d2b565b600080604083850312156121d2578182fd5b82356121dd816125b6565b9150602083013567ffffffffffffffff8111156121f8578182fd5b61220485828601611c9d565b9150509250929050565b60008060408385031215612220578182fd5b823561222b816125b6565b946020939093013593505050565b60006020828403121561224a578081fd5b8151611df5816125ce565b600060208284031215612266578081fd5b81356001600160e01b031981168114611df5578182fd5b6000610180828403121561228f578081fd5b61229761251e565b6122a083611c1a565b81526122ae60208401611c1a565b60208201526122bf60408401611da5565b60408201526122d060608401611da5565b60608201526122e160808401611da5565b60808201526122f260a08401611dc5565b60a082015261230360c08401611dc5565b60c082015261231460e08401611dc5565b60e0820152610100612327818501611d20565b90820152610120612339848201611d20565b9082015261014061234b848201611d20565b9082015261016061235d848201611d96565b908201529392505050565b600060208284031215612379578081fd5b5051919050565b8060005b60068110156106e1578151845260209384019390910190600101612384565b6000815180845260208085019450808401835b838110156123d2578151875295820195908201906001016123b6565b509495945050505050565b6001600160a01b038516815260006101206123fb6020840187612380565b84151560e084015280610100840152612416818401856123a3565b979650505050505050565b6001600160a01b0386168152600061014061243f6020840188612380565b85151560e08401528061010084015261245a818401866123a3565b905082810361012084015261246f81856123a3565b98975050505050505050565b6001600160a01b038516815261012081016124996020830186612380565b92151560e0820152610100015292915050565b60208082526029908201527f73656c6c65722063616e20696e746572616374207769746820666f7277617264604082015268206469726563746c7960b81b606082015260800190565b6020808252600f908201526e0dac2e4ced2dc40dcdee840eecae8d608b1b604082015260600190565b604051610180810167ffffffffffffffff81118282101715612542576125426125a0565b60405290565b604051601f8201601f1916810167ffffffffffffffff81118282101715612571576125716125a0565b604052919050565b600060001982141561259957634e487b7160e01b81526011600452602481fd5b5060010190565b634e487b7160e01b600052604160045260246000fd5b6001600160a01b03811681146125cb57600080fd5b50565b80151581146125cb57600080fdfea264697066735822122002d4d25b35b057b67097699ad639482906076662f4956c5091dec7396f95364664736f6c63430008040033",
  "linkReferences": {},
  "deployedLinkReferences": {}
}