{
  "_format": "hh-sol-artifact-1",
  "contractName": "Forward20Upgradeable",
  "sourceName": "contracts/forward/Forward20Upgradeable.sol",
  "abi": [
    {
      "anonymous": false,
      "inputs": [
        {
          "indexed": false,
          "internalType": "uint256",
          "name": "orderId",
          "type": "uint256"
        }
      ],
      "name": "CancelOrder",
      "type": "event"
    },
    {
      "anonymous": false,
      "inputs": [
        {
          "indexed": false,
          "internalType": "uint256",
          "name": "orderId",
          "type": "uint256"
        },
        {
          "indexed": false,
          "internalType": "address",
          "name": "maker",
          "type": "address"
        }
      ],
      "name": "CreateOrder",
      "type": "event"
    },
    {
      "anonymous": false,
      "inputs": [
        {
          "indexed": false,
          "internalType": "uint256",
          "name": "orderId",
          "type": "uint256"
        },
        {
          "indexed": false,
          "internalType": "address",
          "name": "deliver",
          "type": "address"
        }
      ],
      "name": "Delivery",
      "type": "event"
    },
    {
      "anonymous": false,
      "inputs": [
        {
          "indexed": false,
          "internalType": "uint256",
          "name": "orderId",
          "type": "uint256"
        }
      ],
      "name": "Settle",
      "type": "event"
    },
    {
      "anonymous": false,
      "inputs": [
        {
          "indexed": false,
          "internalType": "uint256",
          "name": "orderId",
          "type": "uint256"
        },
        {
          "indexed": false,
          "internalType": "address",
          "name": "taker",
          "type": "address"
        }
      ],
      "name": "TakeOrder",
      "type": "event"
    },
    {
      "inputs": [
        {
          "internalType": "address",
          "name": "_want",
          "type": "address"
        },
        {
          "internalType": "address",
          "name": "_margin",
          "type": "address"
        }
      ],
      "name": "__BaseForward__init",
      "outputs": [],
      "stateMutability": "nonpayable",
      "type": "function"
    },
    {
      "inputs": [
        {
          "internalType": "address",
          "name": "_want",
          "type": "address"
        },
        {
          "internalType": "uint256",
          "name": "_poolType",
          "type": "uint256"
        },
        {
          "internalType": "address",
          "name": "_margin",
          "type": "address"
        }
      ],
      "name": "__Forward20Upgradeable__init",
      "outputs": [],
      "stateMutability": "nonpayable",
      "type": "function"
    },
    {
      "inputs": [],
      "name": "available",
      "outputs": [
        {
          "internalType": "uint256",
          "name": "",
          "type": "uint256"
        }
      ],
      "stateMutability": "view",
      "type": "function"
    },
    {
      "inputs": [],
      "name": "balance",
      "outputs": [
        {
          "internalType": "uint256",
          "name": "",
          "type": "uint256"
        }
      ],
      "stateMutability": "view",
      "type": "function"
    },
    {
      "inputs": [],
      "name": "balanceSavingsInFVault",
      "outputs": [
        {
          "internalType": "uint256",
          "name": "",
          "type": "uint256"
        }
      ],
      "stateMutability": "view",
      "type": "function"
    },
    {
      "inputs": [
        {
          "internalType": "uint256",
          "name": "_orderId",
          "type": "uint256"
        }
      ],
      "name": "cancelOrder",
      "outputs": [],
      "stateMutability": "nonpayable",
      "type": "function"
    },
    {
      "inputs": [],
      "name": "cfee",
      "outputs": [
        {
          "internalType": "uint256",
          "name": "",
          "type": "uint256"
        }
      ],
      "stateMutability": "view",
      "type": "function"
    },
    {
      "inputs": [
        {
          "internalType": "uint256",
          "name": "_orderId",
          "type": "uint256"
        }
      ],
      "name": "checkOrderState",
      "outputs": [
        {
          "internalType": "enum BaseForwardUpgradeable.State",
          "name": "",
          "type": "uint8"
        }
      ],
      "stateMutability": "view",
      "type": "function"
    },
    {
      "inputs": [
        {
          "internalType": "address",
          "name": "_to",
          "type": "address"
        }
      ],
      "name": "collectFee",
      "outputs": [],
      "stateMutability": "nonpayable",
      "type": "function"
    },
    {
      "inputs": [
        {
          "internalType": "address",
          "name": "_creator",
          "type": "address"
        },
        {
          "internalType": "uint256",
          "name": "_underlyingAmount",
          "type": "uint256"
        },
        {
          "internalType": "uint256[3]",
          "name": "_times",
          "type": "uint256[3]"
        },
        {
          "internalType": "uint256[3]",
          "name": "_prices",
          "type": "uint256[3]"
        },
        {
          "internalType": "address[]",
          "name": "_takerWhiteList",
          "type": "address[]"
        },
        {
          "internalType": "bool",
          "name": "_deposit",
          "type": "bool"
        },
        {
          "internalType": "bool",
          "name": "_isSeller",
          "type": "bool"
        }
      ],
      "name": "createOrderFor",
      "outputs": [],
      "stateMutability": "nonpayable",
      "type": "function"
    },
    {
      "inputs": [
        {
          "internalType": "address",
          "name": "_deliverer",
          "type": "address"
        },
        {
          "internalType": "uint256",
          "name": "_orderId",
          "type": "uint256"
        }
      ],
      "name": "deliverFor",
      "outputs": [],
      "stateMutability": "nonpayable",
      "type": "function"
    },
    {
      "inputs": [],
      "name": "eth",
      "outputs": [
        {
          "internalType": "address",
          "name": "",
          "type": "address"
        }
      ],
      "stateMutability": "view",
      "type": "function"
    },
    {
      "inputs": [],
      "name": "fVault",
      "outputs": [
        {
          "internalType": "address",
          "name": "",
          "type": "address"
        }
      ],
      "stateMutability": "view",
      "type": "function"
    },
    {
      "inputs": [],
      "name": "factory",
      "outputs": [
        {
          "internalType": "address",
          "name": "",
          "type": "address"
        }
      ],
      "stateMutability": "view",
      "type": "function"
    },
    {
      "inputs": [
        {
          "internalType": "uint256",
          "name": "_orderId",
          "type": "uint256"
        }
      ],
      "name": "getBuyerAmountToDeliver",
      "outputs": [
        {
          "internalType": "uint256",
          "name": "price",
          "type": "uint256"
        }
      ],
      "stateMutability": "view",
      "type": "function"
    },
    {
      "inputs": [
        {
          "internalType": "uint256",
          "name": "_orderId",
          "type": "uint256"
        }
      ],
      "name": "getOrder",
      "outputs": [
        {
          "components": [
            {
              "internalType": "uint128",
              "name": "buyerMargin",
              "type": "uint128"
            },
            {
              "internalType": "uint128",
              "name": "sellerMargin",
              "type": "uint128"
            },
            {
              "internalType": "uint128",
              "name": "buyerShare",
              "type": "uint128"
            },
            {
              "internalType": "uint128",
              "name": "sellerShare",
              "type": "uint128"
            },
            {
              "internalType": "uint128",
              "name": "deliveryPrice",
              "type": "uint128"
            },
            {
              "internalType": "uint40",
              "name": "validTill",
              "type": "uint40"
            },
            {
              "internalType": "uint40",
              "name": "deliverStart",
              "type": "uint40"
            },
            {
              "internalType": "uint40",
              "name": "expireStart",
              "type": "uint40"
            },
            {
              "internalType": "address",
              "name": "buyer",
              "type": "address"
            },
            {
              "internalType": "address",
              "name": "seller",
              "type": "address"
            },
            {
              "internalType": "bool",
              "name": "buyerDelivered",
              "type": "bool"
            },
            {
              "internalType": "bool",
              "name": "sellerDelivered",
              "type": "bool"
            },
            {
              "internalType": "enum BaseForwardUpgradeable.State",
              "name": "state",
              "type": "uint8"
            },
            {
              "internalType": "address[]",
              "name": "takerWhiteList",
              "type": "address[]"
            }
          ],
          "internalType": "struct BaseForwardUpgradeable.Order",
          "name": "order",
          "type": "tuple"
        }
      ],
      "stateMutability": "view",
      "type": "function"
    },
    {
      "inputs": [],
      "name": "getPricePerFullShare",
      "outputs": [
        {
          "internalType": "uint256",
          "name": "",
          "type": "uint256"
        }
      ],
      "stateMutability": "view",
      "type": "function"
    },
    {
      "inputs": [],
      "name": "margin",
      "outputs": [
        {
          "internalType": "address",
          "name": "",
          "type": "address"
        }
      ],
      "stateMutability": "view",
      "type": "function"
    },
    {
      "inputs": [
        {
          "internalType": "uint256",
          "name": "",
          "type": "uint256"
        }
      ],
      "name": "orders",
      "outputs": [
        {
          "internalType": "uint128",
          "name": "buyerMargin",
          "type": "uint128"
        },
        {
          "internalType": "uint128",
          "name": "sellerMargin",
          "type": "uint128"
        },
        {
          "internalType": "uint128",
          "name": "buyerShare",
          "type": "uint128"
        },
        {
          "internalType": "uint128",
          "name": "sellerShare",
          "type": "uint128"
        },
        {
          "internalType": "uint128",
          "name": "deliveryPrice",
          "type": "uint128"
        },
        {
          "internalType": "uint40",
          "name": "validTill",
          "type": "uint40"
        },
        {
          "internalType": "uint40",
          "name": "deliverStart",
          "type": "uint40"
        },
        {
          "internalType": "uint40",
          "name": "expireStart",
          "type": "uint40"
        },
        {
          "internalType": "address",
          "name": "buyer",
          "type": "address"
        },
        {
          "internalType": "address",
          "name": "seller",
          "type": "address"
        },
        {
          "internalType": "bool",
          "name": "buyerDelivered",
          "type": "bool"
        },
        {
          "internalType": "bool",
          "name": "sellerDelivered",
          "type": "bool"
        },
        {
          "internalType": "enum BaseForwardUpgradeable.State",
          "name": "state",
          "type": "uint8"
        }
      ],
      "stateMutability": "view",
      "type": "function"
    },
    {
      "inputs": [],
      "name": "ordersLength",
      "outputs": [
        {
          "internalType": "uint256",
          "name": "",
          "type": "uint256"
        }
      ],
      "stateMutability": "view",
      "type": "function"
    },
    {
      "inputs": [],
      "name": "pause",
      "outputs": [],
      "stateMutability": "nonpayable",
      "type": "function"
    },
    {
      "inputs": [],
      "name": "paused",
      "outputs": [
        {
          "internalType": "bool",
          "name": "",
          "type": "bool"
        }
      ],
      "stateMutability": "view",
      "type": "function"
    },
    {
      "inputs": [],
      "name": "ratio",
      "outputs": [
        {
          "internalType": "uint256",
          "name": "",
          "type": "uint256"
        }
      ],
      "stateMutability": "view",
      "type": "function"
    },
    {
      "inputs": [
        {
          "internalType": "address",
          "name": "_fVault",
          "type": "address"
        }
      ],
      "name": "setForwardVault",
      "outputs": [],
      "stateMutability": "nonpayable",
      "type": "function"
    },
    {
      "inputs": [
        {
          "internalType": "uint256",
          "name": "_orderId",
          "type": "uint256"
        }
      ],
      "name": "settle",
      "outputs": [],
      "stateMutability": "nonpayable",
      "type": "function"
    },
    {
      "inputs": [
        {
          "internalType": "address",
          "name": "_taker",
          "type": "address"
        },
        {
          "internalType": "uint256",
          "name": "_orderId",
          "type": "uint256"
        }
      ],
      "name": "takeOrderFor",
      "outputs": [],
      "stateMutability": "nonpayable",
      "type": "function"
    },
    {
      "inputs": [
        {
          "internalType": "uint256",
          "name": "",
          "type": "uint256"
        }
      ],
      "name": "underlyingAssets",
      "outputs": [
        {
          "internalType": "uint256",
          "name": "",
          "type": "uint256"
        }
      ],
      "stateMutability": "view",
      "type": "function"
    },
    {
      "inputs": [],
      "name": "unpause",
      "outputs": [],
      "stateMutability": "nonpayable",
      "type": "function"
    },
    {
      "inputs": [],
      "name": "version",
      "outputs": [
        {
          "internalType": "string",
          "name": "",
          "type": "string"
        }
      ],
      "stateMutability": "view",
      "type": "function"
    },
    {
      "inputs": [],
      "name": "want",
      "outputs": [
        {
          "internalType": "address",
          "name": "",
          "type": "address"
        }
      ],
      "stateMutability": "view",
      "type": "function"
    },
    {
      "inputs": [
        {
          "internalType": "address",
          "name": "_token",
          "type": "address"
        },
        {
          "internalType": "address",
          "name": "_to",
          "type": "address"
        }
      ],
      "name": "withdrawOther",
      "outputs": [],
      "stateMutability": "nonpayable",
      "type": "function"
    }
  ],
  "bytecode": "0x608060405234801561001057600080fd5b50614357806100206000396000f3fe608060405234801561001057600080fd5b50600436106101e55760003560e01c806378fc53d81161010f578063a85c38ef116100a2578063c45a015511610071578063c45a015514610483578063d09ef2411461049c578063e16e2d66146104bc578063f2bfea62146104cf57600080fd5b8063a85c38ef1461039e578063b48985c81461045f578063b69ef8a814610472578063be8acd3f1461047a57600080fd5b80638df82800116100de5780638df82800146103525780638f76691a14610365578063a15e5fd914610378578063a7ff08941461038b57600080fd5b806378fc53d8146103115780637e9a152c146103245780638456cb59146103375780638c7c9e0c1461033f57600080fd5b8063514fcac71161018757806369b59e751161015657806369b59e75146102da57806371ca337d146102ed57806374525de0146102f657806377c7b8fc1461030957600080fd5b8063514fcac71461027c578063527811731461028f57806354fd4d50146102975780635c975abb146102bd57600080fd5b806338373090116101c357806338373090146102465780633b50c4d1146102595780633f4ba83a1461026c57806348a0d7541461027457600080fd5b80631045bfc1146101ea5780631f1fcd51146101ff5780633235029e1461022f575b600080fd5b6101fd6101f8366004613cf0565b6104ef565b005b600154610212906001600160a01b031681565b6040516001600160a01b0390911681526020015b60405180910390f35b61023860055481565b604051908152602001610226565b6101fd610254366004613d28565b61066e565b610238610267366004613ecd565b6106e7565b6101fd610708565b61023861071c565b6101fd61028a366004613ecd565b61079d565b610238610810565b6040805180820182526004815263076312e360e41b602082015290516102269190613faf565b6008546102ca9060ff1681565b6040519015158152602001610226565b6101fd6102e8366004613cb8565b610946565b61023860065481565b6101fd610304366004613d53565b610a40565b610238610b3c565b6101fd61031f366004613d28565b610bf5565b610238610332366004613ecd565b610c68565b6101fd610ee7565b600454610212906001600160a01b031681565b6101fd610360366004613ecd565b610efe565b600254610212906001600160a01b031681565b6101fd610386366004613cb8565b610f73565b6101fd610399366004613d94565b611583565b6104466103ac366004613ecd565b600960205260009081526040902080546001820154600283015460038401546004909401546001600160801b0380851695600160801b95869004821695858316958190048316949283169364ffffffffff918404821693600160a81b808204841694600160d01b909204909316926001600160a01b03918216929182169160ff600160a01b82048116928204811691600160b01b9004168d565b6040516102269d9c9b9a99989796959493929190614147565b600354610212906001600160a01b031681565b6102386115fc565b61023860075481565b600054610212906201000090046001600160a01b031681565b6104af6104aa366004613ecd565b611617565b6040516102269190614001565b6101fd6104ca366004613cf0565b61181f565b6104e26104dd366004613ecd565b6119eb565b6040516102269190613fa1565b600054610100900460ff1661055f5760405162461bcd60e51b815260206004820152602b60248201527f496e697469616c697a61626c653a20636f6e7472616374206973206e6f74206960448201526a6e697469616c697a696e6760a81b60648201526084015b60405180910390fd5b6000805462010000600160b01b0319163362010000908102919091179182905560405163efb5f11360e01b81526001600160a01b038481166004830152919092041690819063efb5f1139060240160206040518083038186803b1580156105c557600080fd5b505afa1580156105d9573d6000803e3d6000fd5b505050506040513d601f19601f820116820180604052508101906105fd9190613eb1565b6106335760405162461bcd60e51b815260206004820152600760248201526610b6b0b933b4b760c91b6044820152606401610556565b50600180546001600160a01b039384166001600160a01b03199182161790915560028054929093169116179055670de0b6b3a7640000600655565b610676611d24565b6004610681826119eb565b60078111156106a057634e487b7160e01b600052602160045260246000fd5b146106d95760405162461bcd60e51b81526020600482015260096024820152682164656c697665727960b81b6044820152606401610556565b6106e38282611d62565b5050565b600a81815481106106f757600080fd5b600091825260209091200154905081565b610710612168565b6008805460ff19169055565b6002546040516370a0823160e01b81523060048201526000916001600160a01b0316906370a082319060240160206040518083038186803b15801561076057600080fd5b505afa158015610774573d6000803e3d6000fd5b505050506040513d601f19601f820116820180604052508101906107989190613ee5565b905090565b6107a5611d24565b60036107b0826119eb565b60078111156107cf57634e487b7160e01b600052602160045260246000fd5b146108045760405162461bcd60e51b8152602060048201526005602482015264085919585960da1b6044820152606401610556565b61080d816121b3565b50565b6003546000906001600160a01b03161561094057610798670de0b6b3a764000061093a600360009054906101000a90046001600160a01b03166001600160a01b03166377c7b8fc6040518163ffffffff1660e01b815260040160206040518083038186803b15801561088157600080fd5b505afa158015610895573d6000803e3d6000fd5b505050506040513d601f19601f820116820180604052508101906108b99190613ee5565b6003546040516370a0823160e01b81523060048201526001600160a01b03909116906370a082319060240160206040518083038186803b1580156108fc57600080fd5b505afa158015610910573d6000803e3d6000fd5b505050506040513d601f19601f820116820180604052508101906109349190613ee5565b90612481565b90612496565b50600090565b60008060029054906101000a90046001600160a01b03166001600160a01b031663c415b95c6040518163ffffffff1660e01b815260040160206040518083038186803b15801561099557600080fd5b505afa1580156109a9573d6000803e3d6000fd5b505050506040513d601f19601f820116820180604052508101906109cd9190613cd4565b6000549091506201000090046001600160a01b03163314806109f75750336001600160a01b038216145b610a2b5760405162461bcd60e51b8152602060048201526005602482015264042c2eae8d60db1b6044820152606401610556565b610a37826005546124a2565b50506000600555565b600054610100900460ff16610a5b5760005460ff1615610a5f565b303b155b610ac25760405162461bcd60e51b815260206004820152602e60248201527f496e697469616c697a61626c653a20636f6e747261637420697320616c72656160448201526d191e481a5b9a5d1a585b1a5e995960921b6064820152608401610556565b600054610100900460ff16158015610ae4576000805461ffff19166101011790555b610aee84836104ef565b82601414610b245760405162461bcd60e51b815260206004820152600360248201526202132360ec1b6044820152606401610556565b8015610b36576000805461ff00191690555b50505050565b6003546000906001600160a01b031615610bee57610798670de0b6b3a764000061093a600360009054906101000a90046001600160a01b03166001600160a01b03166377c7b8fc6040518163ffffffff1660e01b815260040160206040518083038186803b158015610bad57600080fd5b505afa158015610bc1573d6000803e3d6000fd5b505050506040513d601f19601f82011682018060405250810190610be59190613ee5565b60065490612481565b5060065490565b610bfd611d24565b6001610c08826119eb565b6007811115610c2757634e487b7160e01b600052602160045260246000fd5b14610c5e5760405162461bcd60e51b81526020600482015260076024820152662161637469766560c81b6044820152606401610556565b6106e38282612586565b600081815260096020908152604080832081516101c08101835281546001600160801b038082168352600160801b9182900481169583019590955260018301548086169483019490945292839004841660608201526002820154938416608082015264ffffffffff928404831660a0820152600160a81b808504841660c0830152600160d01b90940490921660e083015260038101546001600160a01b03908116610100840152600482015490811661012084015260ff600160a01b820481161515610140850152938104841615156101608401528493610180840191600160b01b9004166007811115610d6c57634e487b7160e01b600052602160045260246000fd5b6007811115610d8b57634e487b7160e01b600052602160045260246000fd5b815260200160058201805480602002602001604051908101604052809291908181526020018280548015610de857602002820191906000526020600020905b81546001600160a01b03168152600190910190602001808311610dca575b5050505050815250509050806101400151610ee157600080546040805163ec2c65c160e01b8152815184936201000090046001600160a01b03169263ec2c65c19260048082019391829003018186803b158015610e4457600080fd5b505afa158015610e58573d6000803e3d6000fd5b505050506040513d601f19601f82011682018060405250810190610e7c9190613efd565b915091506000610eaa8261093a86608001516001600160801b0316610934868861296790919063ffffffff16565b9050610edb610ed4670de0b6b3a764000061093a87604001516001600160801b0316610934610b3c565b8290612973565b94505050505b50919050565b610eef612168565b6008805460ff19166001179055565b610f06611d24565b6005610f11826119eb565b6007811115610f3057634e487b7160e01b600052602160045260246000fd5b14610f685760405162461bcd60e51b815260206004820152600860248201526708595e1c1a5c995960c21b6044820152606401610556565b61080d81600161297f565b610f7b612168565b6003546001600160a01b0316158015610f9c57506001600160a01b03811615155b15611075576000816001600160a01b0316631f1fcd516040518163ffffffff1660e01b815260040160206040518083038186803b158015610fdc57600080fd5b505afa158015610ff0573d6000803e3d6000fd5b505050506040513d601f19601f820116820180604052508101906110149190613cd4565b6002549091506001600160a01b038083169116146110445760405162461bcd60e51b815260040161055690613fe2565b6110596001600160a01b038216836000612ed5565b61106f6001600160a01b03821683600019612ed5565b50611561565b6003546001600160a01b03161580159061109757506001600160a01b03811615155b1561133c576000816001600160a01b0316631f1fcd516040518163ffffffff1660e01b815260040160206040518083038186803b1580156110d757600080fd5b505afa1580156110eb573d6000803e3d6000fd5b505050506040513d601f19601f8201168201806040525081019061110f9190613cd4565b6002549091506001600160a01b0380831691161461113f5760405162461bcd60e51b815260040161055690613fe2565b6003546040516370a0823160e01b81523060048201526000916001600160a01b0316906370a082319060240160206040518083038186803b15801561118357600080fd5b505afa158015611197573d6000803e3d6000fd5b505050506040513d601f19601f820116820180604052508101906111bb9190613ee5565b905060008082116111cd57600061124b565b600354604051632e1a7d4d60e01b8152600481018490526001600160a01b0390911690632e1a7d4d90602401602060405180830381600087803b15801561121357600080fd5b505af1158015611227573d6000803e3d6000fd5b505050506040513d601f19601f8201168201806040525081019061124b9190613ee5565b600354909150611269906001600160a01b0385811691166000612ed5565b61127e6001600160a01b038416856000612ed5565b6112946001600160a01b03841685600019612ed5565b81156113345760405163b6b55f2560e01b8152600481018290526000906001600160a01b0386169063b6b55f2590602401602060405180830381600087803b1580156112df57600080fd5b505af11580156112f3573d6000803e3d6000fd5b505050506040513d601f19601f820116820180604052508101906113179190613ee5565b905061132f8361093a83670de0b6b3a7640000612481565b600655505b505050611561565b6003546001600160a01b03161580159061135d57506001600160a01b038116155b1561152e576003546040516370a0823160e01b81523060048201526000916001600160a01b0316906370a082319060240160206040518083038186803b1580156113a657600080fd5b505afa1580156113ba573d6000803e3d6000fd5b505050506040513d601f19601f820116820180604052508101906113de9190613ee5565b905060008082116113f057600061146e565b600354604051632e1a7d4d60e01b8152600481018490526001600160a01b0390911690632e1a7d4d90602401602060405180830381600087803b15801561143657600080fd5b505af115801561144a573d6000803e3d6000fd5b505050506040513d601f19601f8201168201806040525081019061146e9190613ee5565b60035460408051631f1fcd5160e01b81529051929350611507926001600160a01b03909216916000918391631f1fcd5191600480820192602092909190829003018186803b1580156114bf57600080fd5b505afa1580156114d3573d6000803e3d6000fd5b505050506040513d601f19601f820116820180604052508101906114f79190613cd4565b6001600160a01b03169190612ed5565b8115611527576115238261093a83670de0b6b3a7640000612481565b6006555b5050611561565b60405162461bcd60e51b81526020600482015260086024820152676e6f6e73656e736560c01b6044820152606401610556565b600380546001600160a01b0319166001600160a01b0392909216919091179055565b61158b611d24565b8180156115955750805b156115b0576001546115b0906001600160a01b03168761302c565b6115be878686868686613047565b5050600a80546001810182556000919091527fc65a7bb8d6351c1cf70c95a316cc6a92839c986682d98bc35f958f4883f9d2a8019390935550505050565b6000610798611609610810565b61161161071c565b90612967565b61168e604080516101c081018252600080825260208201819052918101829052606081018290526080810182905260a0810182905260c0810182905260e081018290526101008101829052610120810182905261014081018290526101608101829052906101808201908152602001606081525090565b60008281526009602090815260409182902082516101c08101845281546001600160801b038082168352600160801b9182900481169483019490945260018301548085169583019590955293849004831660608201526002820154928316608082015264ffffffffff938304841660a0820152600160a81b808404851660c0830152600160d01b90930490931660e084015260038101546001600160a01b03908116610100850152600482015490811661012085015260ff600160a01b820481161515610140860152928104831615156101608501529091610180840191600160b01b900416600781111561179357634e487b7160e01b600052602160045260246000fd5b60078111156117b257634e487b7160e01b600052602160045260246000fd5b81526020016005820180548060200260200160405190810160405280929190818152602001828054801561180f57602002820191906000526020600020905b81546001600160a01b031681526001909101906020018083116117f1575b5050505050815250509050919050565b60008060029054906101000a90046001600160a01b03166001600160a01b031663c415b95c6040518163ffffffff1660e01b815260040160206040518083038186803b15801561186e57600080fd5b505afa158015611882573d6000803e3d6000fd5b505050506040513d601f19601f820116820180604052508101906118a69190613cd4565b6000549091506201000090046001600160a01b03163314806118d05750336001600160a01b038216145b6119045760405162461bcd60e51b8152602060048201526005602482015264042c2eae8d60db1b6044820152606401610556565b61190d8361366e565b6004546001600160a01b0384811691161415611958576040516001600160a01b038316904780156108fc02916000818181858888f19350505050158015610b36573d6000803e3d6000fd5b6040516370a0823160e01b81523060048201526119e69083906001600160a01b038616906370a082319060240160206040518083038186803b15801561199d57600080fd5b505afa1580156119b1573d6000803e3d6000fd5b505050506040513d601f19601f820116820180604052508101906119d59190613ee5565b6001600160a01b038616919061372c565b505050565b600081815260096020908152604080832081516101c08101835281546001600160801b038082168352600160801b9182900481169583019590955260018301548086169483019490945292839004841660608201526002820154938416608082015264ffffffffff928404831660a0820152600160a81b808504841660c0830152600160d01b90940490921660e083015260038101546001600160a01b03908116610100840152600482015490811661012084015260ff600160a01b820481161515610140850152938104841615156101608401528493610180840191600160b01b9004166007811115611aef57634e487b7160e01b600052602160045260246000fd5b6007811115611b0e57634e487b7160e01b600052602160045260246000fd5b815260200160058201805480602002602001604051908101604052809291908181526020018280548015611b6b57602002820191906000526020600020905b81546001600160a01b03168152600190910190602001808311611b4d575b50505050508152505090508060a0015164ffffffffff1660001415611b935750600092915050565b60078161018001516007811115611bba57634e487b7160e01b600052602160045260246000fd5b1415611bc95750600792915050565b60a0810151429064ffffffffff168111611c1d5760028261018001516007811115611c0457634e487b7160e01b600052602160045260246000fd5b14611c13575060019392505050565b5060029392505050565b60018261018001516007811115611c4457634e487b7160e01b600052602160045260246000fd5b1415611c54575060039392505050565b8160c0015164ffffffffff168111611c9c5760028261018001516007811115611c8d57634e487b7160e01b600052602160045260246000fd5b14611c13575060039392505050565b8160e0015164ffffffffff168111611cee5760068261018001516007811115611cd557634e487b7160e01b600052602160045260246000fd5b14611ce4575060049392505050565b5060069392505050565b60068261018001516007811115611d1557634e487b7160e01b600052602160045260246000fd5b14611ce4575060059392505050565b60085460ff1615611d605760405162461bcd60e51b81526020600482015260066024820152651c185d5cd95960d21b6044820152606401610556565b565b600081815260096020908152604080832081516101c08101835281546001600160801b038082168352600160801b9182900481169583019590955260018301548086169483019490945292839004841660608201526002820154938416608082015264ffffffffff928404831660a0820152600160a81b808504841660c0830152600160d01b90940490921660e083015260038101546001600160a01b03908116610100840152600482015490811661012084015260ff600160a01b8204811615156101408501529381048416151561016084015291929091610180840191600160b01b909104166007811115611e6957634e487b7160e01b600052602160045260246000fd5b6007811115611e8857634e487b7160e01b600052602160045260246000fd5b815260200160058201805480602002602001604051908101604052809291908181526020018280548015611ee557602002820191906000526020600020905b81546001600160a01b03168152600190910190602001808311611ec7575b50505050508152505090508061012001516001600160a01b0316836001600160a01b0316148015611f195750806101600151155b15611f9a57611f278261375c565b60008281526009602052604090819020600401805460ff60a81b1916600160a81b179055517fc2f1452b368e39827ef7e6cbbdb3550c8647a3d176b3db42234e610b36a87a4790611f8d90849086909182526001600160a01b0316602082015260400190565b60405180910390a161215d565b8061010001516001600160a01b0316836001600160a01b0316148015611fc35750806101400151155b1561212757600080546040805163ec2c65c160e01b8152815184936201000090046001600160a01b03169263ec2c65c19260048082019391829003018186803b15801561200f57600080fd5b505afa158015612023573d6000803e3d6000fd5b505050506040513d601f19601f820116820180604052508101906120479190613efd565b9150915060006120758261093a86608001516001600160801b0316610934868861296790919063ffffffff16565b90506120b06120a96120a2670de0b6b3a764000061093a88604001516001600160801b0316610934610b3c565b8390612973565b60006137a0565b5060008581526009602052604090819020600401805460ff60a01b1916600160a01b179055517fc2f1452b368e39827ef7e6cbbdb3550c8647a3d176b3db42234e610b36a87a479061211790879089909182526001600160a01b0316602082015260400190565b60405180910390a150505061215d565b60405162461bcd60e51b815260206004820152600b60248201526a64656c697665722062756760a81b6044820152606401610556565b6119e682600061297f565b6000546201000090046001600160a01b03163314611d605760405162461bcd60e51b815260206004820152600860248201526721666163746f727960c01b6044820152606401610556565b600081815260096020908152604080832081516101c08101835281546001600160801b038082168352600160801b9182900481169583019590955260018301548086169483019490945292839004841660608201526002820154938416608082015264ffffffffff928404831660a0820152600160a81b808504841660c0830152600160d01b90940490921660e083015260038101546001600160a01b03908116610100840152600482015490811661012084015260ff600160a01b8204811615156101408501529381048416151561016084015291929091610180840191600160b01b9091041660078111156122ba57634e487b7160e01b600052602160045260246000fd5b60078111156122d957634e487b7160e01b600052602160045260246000fd5b81526020016005820180548060200260200160405190810160405280929190818152602001828054801561233657602002820191906000526020600020905b81546001600160a01b03168152600190910190602001808311612318575b505050919092525050506101008101519091506001600160a01b03161561238f5761238a816101000151612385670de0b6b3a764000061093a85604001516001600160801b0316610934610b3c565b6124a2565b612425565b6101208101516001600160a01b0316156123eb576123d1816101200151612385670de0b6b3a764000061093a85606001516001600160801b0316610934610b3c565b8061016001511561238a5761238a8282610120015161386e565b60405162461bcd60e51b815260206004820152600f60248201526e63616e63656c4f726465722062756760881b6044820152606401610556565b6000828152600960209081526040918290206004018054600760b01b60ff60b01b1990911617905590518381527f935c9ad2f1fda9d7eae0d2a512f1521cb7190ee06165414e722366a65975fb6b910160405180910390a15050565b600061248d8284614255565b90505b92915050565b600061248d8284614235565b60006124ac61071c565b905081811080156124c757506003546001600160a01b031615155b15612563576003546001600160a01b0316632e1a7d4d6124e78484612973565b6040518263ffffffff1660e01b815260040161250591815260200190565b602060405180830381600087803b15801561251f57600080fd5b505af1158015612533573d6000803e3d6000fd5b505050506040513d601f19601f820116820180604052508101906125579190613ee5565b5061256061071c565b90505b8082111561256f578091505b6002546119e6906001600160a01b031684846138af565b600081815260096020908152604080832081516101c08101835281546001600160801b038082168352600160801b9182900481169583019590955260018301548086169483019490945292839004841660608201526002820154938416608082015264ffffffffff928404831660a0820152600160a81b808504841660c0830152600160d01b90940490921660e083015260038101546001600160a01b03908116610100840152600482015490811661012084015260ff600160a01b8204811615156101408501529381048416151561016084015291929091610180840191600160b01b90910416600781111561268d57634e487b7160e01b600052602160045260246000fd5b60078111156126ac57634e487b7160e01b600052602160045260246000fd5b81526020016005820180548060200260200160405190810160405280929190818152602001828054801561270957602002820191906000526020600020905b81546001600160a01b031681526001909101906020018083116126eb575b50505050508152505090506000816101a0015151111561276b5761273283826101a001516138c3565b61276b5760405162461bcd60e51b815260206004820152600a602482015269085dda1a5d195b1a5cdd60b21b6044820152606401610556565b6000828152600960205260408120600401546127dc906001600160a01b0316156127ac576000848152600960205260409020546001600160801b03166127cc565b600084815260096020526040902054600160801b90046001600160801b03165b6001600160801b031660016137a0565b6000848152600960205260409020600301549091506001600160a01b03166128535760008381526009602052604090206003810180546001600160a01b0319166001600160a01b03871617905560010180546fffffffffffffffffffffffffffffffff19166001600160801b0383161790556128f7565b6000838152600960205260409020600401546001600160a01b03166128bf5760008381526009602052604090206004810180546001600160a01b0387166001600160a01b031990911617905560010180546001600160801b03808416600160801b0291161790556128f7565b60405162461bcd60e51b815260206004820152600d60248201526c74616b654f726465722062756760981b6044820152606401610556565b600083815260096020526040902060040180546002919060ff60b01b1916600160b01b830217905550604080518481526001600160a01b03861660208201527fa409aeee90f7d8baa060c420573bf2d543386afb645ad155c1a2e5f4a90fa76d910160405180910390a150505050565b600061248d828461421d565b600061248d8284614274565b600080546040805163ec2c65c160e01b8152815184936201000090046001600160a01b03169263ec2c65c19260048082019391829003018186803b1580156129c657600080fd5b505afa1580156129da573d6000803e3d6000fd5b505050506040513d601f19601f820116820180604052508101906129fe9190613efd565b600086815260096020908152604080832081516101c08101835281546001600160801b038082168352600160801b9182900481169583019590955260018301548086169483019490945292839004841660608201526002820154938416608082015264ffffffffff928404831660a0820152600160a81b808504841660c0830152600160d01b90940490921660e083015260038101546001600160a01b03908116610100840152600482015490811661012084015260ff600160a01b820481161515610140850152938104841615156101608401529597509395509193919291610180840191600160b01b909104166007811115612b0c57634e487b7160e01b600052602160045260246000fd5b6007811115612b2b57634e487b7160e01b600052602160045260246000fd5b815260200160058201805480602002602001604051908101604052809291908181526020018280548015612b8857602002820191906000526020600020905b81546001600160a01b03168152600190910190602001808311612b6a575b50505050508152505090508061016001518015612ba757508061014001515b15612d2e57612bbb8582610100015161386e565b6000612be18361093a84608001516001600160801b03168761248190919063ffffffff16565b90506000612c0a670de0b6b3a764000061093a85604001516001600160801b0316610934610b3c565b9050612c2c83608001516001600160801b03168361296790919063ffffffff16565b811115612c6657612c6683610100015161238584612c6087608001516001600160801b03168661297390919063ffffffff16565b90612973565b6000612ca283612c6086608001516001600160801b0316611611670de0b6b3a764000061093a8a606001516001600160801b0316610934610b3c565b9050612cb3846101200151826124a2565b612cca612cc1846002612481565b60055490612967565b600555600088815260096020908152604091829020600401805460ff60b01b1916600360b11b17905590518981527f2a45eee61b61ef4932e2d79b32be61a1a538cbe00381faffb4d1cf3b1268c46b91015b60405180910390a15050505050505050565b8315612ece57806101600151612dcf576000612d648361093a84602001516001600160801b03168761248190919063ffffffff16565b600554909150612d749082612967565b600555610100820151612dc99061238583612c60670de0b6b3a764000061093a612d9c610b3c565b6109348a606001516001600160801b03168b604001516001600160801b031661296790919063ffffffff16565b50612e75565b806101400151612e75576000612dff8361093a84600001516001600160801b03168761248190919063ffffffff16565b600554909150612e0f9082612967565b600555610120820151612e649061238583612c60670de0b6b3a764000061093a612e37610b3c565b6109348a604001516001600160801b03168b606001516001600160801b031661296790919063ffffffff16565b612e738683610120015161386e565b505b6000858152600960209081526040918290206004018054600360b11b60ff60b01b1990911617905590518681527f2a45eee61b61ef4932e2d79b32be61a1a538cbe00381faffb4d1cf3b1268c46b910160405180910390a15b5050505050565b801580612f5e5750604051636eb1769f60e11b81523060048201526001600160a01b03838116602483015284169063dd62ed3e9060440160206040518083038186803b158015612f2457600080fd5b505afa158015612f38573d6000803e3d6000fd5b505050506040513d601f19601f82011682018060405250810190612f5c9190613ee5565b155b612fc95760405162461bcd60e51b815260206004820152603660248201527f5361666545524332303a20617070726f76652066726f6d206e6f6e2d7a65726f60448201527520746f206e6f6e2d7a65726f20616c6c6f77616e636560501b6064820152608401610556565b6040516001600160a01b0383166024820152604481018290526119e690849063095ea7b360e01b906064015b60408051601f198184030181529190526020810180516001600160e01b03166001600160e01b031990931692909217909152613937565b80156106e3576106e36001600160a01b038316333084613a09565b83516001600160801b03118015613068575060208401516001600160801b03115b801561307e575060408401516001600160801b03115b6130b55760405162461bcd60e51b81526020600482015260086024820152676f766572666c6f7760c01b6044820152606401610556565b6001600160801b036130d785600260200201518660015b602002015190612967565b1061311b5760405162461bcd60e51b815260206004820152601460248201527364656c69766572206d6179206f766572666c6f7760601b6044820152606401610556565b64ffffffffff61313486600260200201518760016130cc565b108015613155575060208501516131538660005b602002015142611611565b105b6131895760405162461bcd60e51b81526020600482015260056024820152642174696d6560d81b6044820152606401610556565b6000828015613196575081155b1561324b57600080546040805163ec2c65c160e01b8152815184936201000090046001600160a01b03169263ec2c65c19260048082019391829003018186803b1580156131e257600080fd5b505afa1580156131f6573d6000803e3d6000fd5b505050506040513d601f19601f8201168201806040525081019061321a9190613efd565b909250905061324261323b8261093a8a600060200201516109348787612967565b60016137a0565b9250505061326c565b6132698261325d57602086015161323b565b604086015160016137a0565b90505b600780546000918261327d836142b7565b919050559050604051806101c00160405280876001600381106132b057634e487b7160e01b600052603260045260246000fd5b60200201516001600160801b03168152602001876002600381106132e457634e487b7160e01b600052603260045260246000fd5b60200201516001600160801b03168152602001846133025783613305565b60005b6001600160801b031681526020018461331f576000613321565b835b6001600160801b0390811682528851166020820152604001613344896000613148565b64ffffffffff908116825260208a8101519091169082015260400161337289600260200201518a60016130cc565b64ffffffffff16815260200184613389578961338c565b60005b6001600160a01b03168152602001846133a65760006133a8565b895b6001600160a01b031681526020018580156133c1575084155b151581526020018580156133d25750845b1515815260200160018152602001600060405190808252806020026020018201604052801561340b578160200160208202803683370190505b5090526000828152600960209081526040918290208351918401516001600160801b03928316600160801b91841682021782559284015160608501519083169083168402176001820155608084015160028201805460a087015160c088015160e0890151949096166001600160a81b03199283161764ffffffffff9182169097029690961769ffffffffffffffffffff60a81b1916600160a81b958716860264ffffffffff60d01b191617600160d01b96909316959095029190911790556101008401516003820180546001600160a01b0319166001600160a01b0392831617905561012085015160048301805461014088015161016089015193909416961695909517600160a01b921515929092029190911760ff60a81b19811691151590930290811784556101808501519193919261ffff60a81b191660ff60b01b1990911617600160b01b83600781111561357357634e487b7160e01b600052602160045260246000fd5b02179055506101a08201518051613594916005840191602090910190613bbb565b505085511590506136305760005b855181101561362e57600960008381526020019081526020016000206005018682815181106135e157634e487b7160e01b600052603260045260246000fd5b60209081029190910181015182546001810184556000938452919092200180546001600160a01b0319166001600160a01b0390921691909117905580613626816142b7565b9150506135a2565b505b604080518281526001600160a01b038a1660208201527fc2543e39f94e2f3c7bd242ab0053972523f75ca379ae9b64a474ce5c79d689119101612d1c565b6001546001600160a01b038281169116141561369c5760405162461bcd60e51b815260040161055690613fe2565b6002546001600160a01b03828116911614156136e45760405162461bcd60e51b815260206004820152600760248201526610b6b0b933b4b760c91b6044820152606401610556565b6003546001600160a01b038281169116141561080d5760405162461bcd60e51b8152602060048201526007602482015266085995985d5b1d60ca1b6044820152606401610556565b6040516001600160a01b0383166024820152604481018290526119e690849063a9059cbb60e01b90606401612ff5565b600154600a805461080d926001600160a01b031691908490811061379057634e487b7160e01b600052603260045260246000fd5b906000526020600020015461302c565b6002546000906137b9906001600160a01b03168461302c565b60008280156137d257506003546001600160a01b031615155b6137f8576137f36137e1610b3c565b61093a86670de0b6b3a7640000612481565b613866565b60065460035460405163b6b55f2560e01b815260048101879052613866929161093a91670de0b6b3a7640000916001600160a01b03169063b6b55f2590602401602060405180830381600087803b15801561385257600080fd5b505af1158015610910573d6000803e3d6000fd5b949350505050565b600154600a80546106e3926001600160a01b0316918491869081106138a357634e487b7160e01b600052603260045260246000fd5b90600052602060002001545b6119e66001600160a01b038416838361372c565b6000805b825181101561392d578281815181106138f057634e487b7160e01b600052603260045260246000fd5b60200260200101516001600160a01b0316846001600160a01b0316141561391b576001915050612490565b80613925816142b7565b9150506138c7565b5060009392505050565b600061398c826040518060400160405280602081526020017f5361666545524332303a206c6f772d6c6576656c2063616c6c206661696c6564815250856001600160a01b0316613a419092919063ffffffff16565b8051909150156119e657808060200190518101906139aa9190613eb1565b6119e65760405162461bcd60e51b815260206004820152602a60248201527f5361666545524332303a204552433230206f7065726174696f6e20646964206e6044820152691bdd081cdd58d8d9595960b21b6064820152608401610556565b6040516001600160a01b0380851660248301528316604482015260648101829052610b369085906323b872dd60e01b90608401612ff5565b6060613a508484600085613a5a565b90505b9392505050565b606082471015613abb5760405162461bcd60e51b815260206004820152602660248201527f416464726573733a20696e73756666696369656e742062616c616e636520666f6044820152651c8818d85b1b60d21b6064820152608401610556565b843b613b095760405162461bcd60e51b815260206004820152601d60248201527f416464726573733a2063616c6c20746f206e6f6e2d636f6e74726163740000006044820152606401610556565b600080866001600160a01b03168587604051613b259190613f85565b60006040518083038185875af1925050503d8060008114613b62576040519150601f19603f3d011682016040523d82523d6000602084013e613b67565b606091505b5091509150613b77828286613b82565b979650505050505050565b60608315613b91575081613a53565b825115613ba15782518084602001fd5b8160405162461bcd60e51b81526004016105569190613faf565b828054828255906000526020600020908101928215613c10579160200282015b82811115613c1057825182546001600160a01b0319166001600160a01b03909116178255602090920191600190910190613bdb565b50613c1c929150613c20565b5090565b5b80821115613c1c5760008155600101613c21565b600082601f830112613c45578081fd5b6040516060810181811067ffffffffffffffff82111715613c6857613c686142e8565b604052808360608101861015613c7c578384fd5b835b6003811015613c9d578135835260209283019290910190600101613c7e565b509195945050505050565b8035613cb381614313565b919050565b600060208284031215613cc9578081fd5b8135613a53816142fe565b600060208284031215613ce5578081fd5b8151613a53816142fe565b60008060408385031215613d02578081fd5b8235613d0d816142fe565b91506020830135613d1d816142fe565b809150509250929050565b60008060408385031215613d3a578182fd5b8235613d45816142fe565b946020939093013593505050565b600080600060608486031215613d67578081fd5b8335613d72816142fe565b9250602084013591506040840135613d89816142fe565b809150509250925092565b6000806000806000806000610160888a031215613daf578283fd5b8735613dba816142fe565b96506020888101359650613dd18a60408b01613c35565b9550613de08a60a08b01613c35565b945061010089013567ffffffffffffffff80821115613dfd578586fd5b818b0191508b601f830112613e10578586fd5b813581811115613e2257613e226142e8565b8060051b9150613e338483016141ec565b8082825285820191508585018f87868801011115613e4f57898afd5b8995505b83861015613e7d5780359450613e68856142fe565b84835260019590950194918601918601613e53565b50809850505050505050613e946101208901613ca8565b9150613ea36101408901613ca8565b905092959891949750929550565b600060208284031215613ec2578081fd5b8151613a5381614313565b600060208284031215613ede578081fd5b5035919050565b600060208284031215613ef6578081fd5b5051919050565b60008060408385031215613f0f578182fd5b505080516020909101519092909150565b6000815180845260208085019450808401835b83811015613f585781516001600160a01b031687529582019590820190600101613f33565b509495945050505050565b60088110613f8157634e487b7160e01b600052602160045260246000fd5b9052565b60008251613f9781846020870161428b565b9190910192915050565b602081016124908284613f63565b6020815260008251806020840152613fce81604085016020870161428b565b601f01601f19169190910160400192915050565b602080825260059082015264085dd85b9d60da1b604082015260600190565b6020815261401b6020820183516001600160801b03169052565b6000602083015161403760408401826001600160801b03169052565b5060408301516001600160801b03811660608401525060608301516001600160801b03811660808401525060808301516001600160801b03811660a08401525060a083015164ffffffffff811660c08401525060c083015164ffffffffff811660e08401525060e08301516101006140b78185018364ffffffffff169052565b84015190506101206140d3848201836001600160a01b03169052565b84015190506101406140ef848201836001600160a01b03169052565b84015190506101606141048482018315159052565b84015190506101806141198482018315159052565b84015190506101a061412d84820183613f63565b8401516101c08481015290506138666101e0840182613f20565b6001600160801b038e811682528d811660208301528c811660408301528b811660608301528a16608082015264ffffffffff89811660a0830152881660c08201526101a0810164ffffffffff881660e08301526001600160a01b0387166101008301526001600160a01b0386166101208301528415156101408301528315156101608301526141da610180830184613f63565b9e9d5050505050505050505050505050565b604051601f8201601f1916810167ffffffffffffffff81118282101715614215576142156142e8565b604052919050565b60008219821115614230576142306142d2565b500190565b60008261425057634e487b7160e01b81526012600452602481fd5b500490565b600081600019048311821515161561426f5761426f6142d2565b500290565b600082821015614286576142866142d2565b500390565b60005b838110156142a657818101518382015260200161428e565b83811115610b365750506000910152565b60006000198214156142cb576142cb6142d2565b5060010190565b634e487b7160e01b600052601160045260246000fd5b634e487b7160e01b600052604160045260246000fd5b6001600160a01b038116811461080d57600080fd5b801515811461080d57600080fdfea2646970667358221220f3a05ec38a1c07024d9587bf71b465054a0e42e64270f7774adf2cca1e7ba62964736f6c63430008040033",
  "linkReferences": {},
  "deployedLinkReferences": {}
}