{
    "_format": "hh-sol-artifact-1",
    "contractName": "Forward721Upgradeable",
    "sourceName": "contracts/forward/imp/Forward721Upgradeable.sol",
    "abi": [
        {
            "anonymous": false,
            "inputs": [
                {
                    "indexed": false,
                    "internalType": "bytes32",
                    "name": "orderHash",
                    "type": "bytes32"
                }
            ],
            "name": "CancelOffchainOrder",
            "type": "event"
        },
        {
            "anonymous": false,
            "inputs": [
                {
                    "indexed": false,
                    "internalType": "uint256",
                    "name": "orderId",
                    "type": "uint256"
                },
                {
                    "indexed": false,
                    "internalType": "address",
                    "name": "maker",
                    "type": "address"
                },
                {
                    "indexed": false,
                    "internalType": "address",
                    "name": "taker",
                    "type": "address"
                }
            ],
            "name": "CreateAndTake",
            "type": "event"
        },
        {
            "anonymous": false,
            "inputs": [
                {
                    "indexed": false,
                    "internalType": "uint256",
                    "name": "orderId",
                    "type": "uint256"
                },
                {
                    "indexed": false,
                    "internalType": "address",
                    "name": "deliver",
                    "type": "address"
                }
            ],
            "name": "Deliver",
            "type": "event"
        },
        {
            "anonymous": false,
            "inputs": [
                {
                    "indexed": false,
                    "internalType": "uint256",
                    "name": "orderId",
                    "type": "uint256"
                }
            ],
            "name": "Settle",
            "type": "event"
        },
        {
            "anonymous": false,
            "inputs": [
                {
                    "indexed": false,
                    "internalType": "uint256",
                    "name": "orderId",
                    "type": "uint256"
                },
                {
                    "indexed": false,
                    "internalType": "address",
                    "name": "maker",
                    "type": "address"
                },
                {
                    "indexed": false,
                    "internalType": "address",
                    "name": "taker",
                    "type": "address"
                },
                {
                    "indexed": false,
                    "internalType": "bytes32",
                    "name": "oh",
                    "type": "bytes32"
                }
            ],
            "name": "TakeOffChainOrder",
            "type": "event"
        },
        {
            "inputs": [],
            "name": "DOMAIN_SEPARATOR",
            "outputs": [
                {
                    "internalType": "bytes32",
                    "name": "",
                    "type": "bytes32"
                }
            ],
            "stateMutability": "view",
            "type": "function"
        },
        {
            "inputs": [],
            "name": "OFFCHAINORDER_TYPEHASH",
            "outputs": [
                {
                    "internalType": "bytes32",
                    "name": "",
                    "type": "bytes32"
                }
            ],
            "stateMutability": "view",
            "type": "function"
        },
        {
            "inputs": [
                {
                    "internalType": "address",
                    "name": "_underlying",
                    "type": "address"
                },
                {
                    "internalType": "uint256",
                    "name": "_poolType",
                    "type": "uint256"
                },
                {
                    "internalType": "address",
                    "name": "_quote",
                    "type": "address"
                }
            ],
            "name": "__Forward721Upgradeable__init",
            "outputs": [],
            "stateMutability": "nonpayable",
            "type": "function"
        },
        {
            "inputs": [],
            "name": "balance",
            "outputs": [
                {
                    "internalType": "uint256",
                    "name": "",
                    "type": "uint256"
                }
            ],
            "stateMutability": "view",
            "type": "function"
        },
        {
            "inputs": [
                {
                    "internalType": "address[2]",
                    "name": "_addrs",
                    "type": "address[2]"
                },
                {
                    "internalType": "uint256[6]",
                    "name": "_uints",
                    "type": "uint256[6]"
                },
                {
                    "internalType": "bool",
                    "name": "_isSeller",
                    "type": "bool"
                },
                {
                    "internalType": "uint256[]",
                    "name": "_tokenIds",
                    "type": "uint256[]"
                },
                {
                    "internalType": "bytes",
                    "name": "_makerSig",
                    "type": "bytes"
                },
                {
                    "internalType": "bytes32",
                    "name": "_salt",
                    "type": "bytes32"
                }
            ],
            "name": "cancelOffchainOrder",
            "outputs": [
                {
                    "internalType": "bytes32",
                    "name": "oh",
                    "type": "bytes32"
                }
            ],
            "stateMutability": "nonpayable",
            "type": "function"
        },
        {
            "inputs": [],
            "name": "cfee",
            "outputs": [
                {
                    "internalType": "uint256",
                    "name": "",
                    "type": "uint256"
                }
            ],
            "stateMutability": "view",
            "type": "function"
        },
        {
            "inputs": [
                {
                    "internalType": "uint256",
                    "name": "_orderId",
                    "type": "uint256"
                }
            ],
            "name": "checkOrderState",
            "outputs": [
                {
                    "internalType": "enum IBaseForward.State",
                    "name": "",
                    "type": "uint8"
                }
            ],
            "stateMutability": "view",
            "type": "function"
        },
        {
            "inputs": [
                {
                    "internalType": "address",
                    "name": "_to",
                    "type": "address"
                }
            ],
            "name": "collectFee",
            "outputs": [],
            "stateMutability": "nonpayable",
            "type": "function"
        },
        {
            "inputs": [
                {
                    "internalType": "address[2]",
                    "name": "_addrs",
                    "type": "address[2]"
                },
                {
                    "internalType": "uint256[6]",
                    "name": "_uints",
                    "type": "uint256[6]"
                },
                {
                    "internalType": "bool",
                    "name": "_isSeller",
                    "type": "bool"
                },
                {
                    "internalType": "uint256[]",
                    "name": "_tokenIds",
                    "type": "uint256[]"
                }
            ],
            "name": "createAndTakeFor",
            "outputs": [
                {
                    "internalType": "uint256",
                    "name": "orderId",
                    "type": "uint256"
                }
            ],
            "stateMutability": "payable",
            "type": "function"
        },
        {
            "inputs": [
                {
                    "internalType": "address",
                    "name": "_deliverer",
                    "type": "address"
                },
                {
                    "internalType": "uint256",
                    "name": "_orderId",
                    "type": "uint256"
                }
            ],
            "name": "deliverFor",
            "outputs": [],
            "stateMutability": "payable",
            "type": "function"
        },
        {
            "inputs": [],
            "name": "factory",
            "outputs": [
                {
                    "internalType": "address",
                    "name": "",
                    "type": "address"
                }
            ],
            "stateMutability": "view",
            "type": "function"
        },
        {
            "inputs": [
                {
                    "internalType": "uint256",
                    "name": "_orderId",
                    "type": "uint256"
                }
            ],
            "name": "getBuyerAmountToDeliver",
            "outputs": [
                {
                    "internalType": "uint256",
                    "name": "amount",
                    "type": "uint256"
                }
            ],
            "stateMutability": "view",
            "type": "function"
        },
        {
            "inputs": [
                {
                    "internalType": "uint256",
                    "name": "_orderId",
                    "type": "uint256"
                }
            ],
            "name": "getOrder",
            "outputs": [
                {
                    "components": [
                        {
                            "internalType": "address",
                            "name": "maker",
                            "type": "address"
                        },
                        {
                            "internalType": "address",
                            "name": "taker",
                            "type": "address"
                        },
                        {
                            "internalType": "uint128",
                            "name": "makerMargin",
                            "type": "uint128"
                        },
                        {
                            "internalType": "uint128",
                            "name": "takerMargin",
                            "type": "uint128"
                        },
                        {
                            "internalType": "uint128",
                            "name": "deliverPrice",
                            "type": "uint128"
                        },
                        {
                            "internalType": "uint40",
                            "name": "deliverStart",
                            "type": "uint40"
                        },
                        {
                            "internalType": "uint40",
                            "name": "expireStart",
                            "type": "uint40"
                        },
                        {
                            "internalType": "bool",
                            "name": "makerDelivered",
                            "type": "bool"
                        },
                        {
                            "internalType": "bool",
                            "name": "takerDelivered",
                            "type": "bool"
                        },
                        {
                            "internalType": "bool",
                            "name": "makerIsSeller",
                            "type": "bool"
                        },
                        {
                            "internalType": "enum IBaseForward.State",
                            "name": "state",
                            "type": "uint8"
                        }
                    ],
                    "internalType": "struct IBaseForward.Order",
                    "name": "order",
                    "type": "tuple"
                }
            ],
            "stateMutability": "view",
            "type": "function"
        },
        {
            "inputs": [
                {
                    "internalType": "bytes32",
                    "name": "",
                    "type": "bytes32"
                }
            ],
            "name": "known",
            "outputs": [
                {
                    "internalType": "bool",
                    "name": "",
                    "type": "bool"
                }
            ],
            "stateMutability": "view",
            "type": "function"
        },
        {
            "inputs": [
                {
                    "internalType": "address",
                    "name": "",
                    "type": "address"
                }
            ],
            "name": "launchpads",
            "outputs": [
                {
                    "internalType": "bool",
                    "name": "",
                    "type": "bool"
                }
            ],
            "stateMutability": "view",
            "type": "function"
        },
        {
            "inputs": [],
            "name": "name",
            "outputs": [
                {
                    "internalType": "string",
                    "name": "",
                    "type": "string"
                }
            ],
            "stateMutability": "view",
            "type": "function"
        },
        {
            "inputs": [
                {
                    "internalType": "address",
                    "name": "",
                    "type": "address"
                },
                {
                    "internalType": "address",
                    "name": "",
                    "type": "address"
                },
                {
                    "internalType": "uint256",
                    "name": "",
                    "type": "uint256"
                },
                {
                    "internalType": "bytes",
                    "name": "",
                    "type": "bytes"
                }
            ],
            "name": "onERC721Received",
            "outputs": [
                {
                    "internalType": "bytes4",
                    "name": "",
                    "type": "bytes4"
                }
            ],
            "stateMutability": "nonpayable",
            "type": "function"
        },
        {
            "inputs": [
                {
                    "internalType": "uint256",
                    "name": "",
                    "type": "uint256"
                }
            ],
            "name": "orders",
            "outputs": [
                {
                    "internalType": "address",
                    "name": "maker",
                    "type": "address"
                },
                {
                    "internalType": "address",
                    "name": "taker",
                    "type": "address"
                },
                {
                    "internalType": "uint128",
                    "name": "makerMargin",
                    "type": "uint128"
                },
                {
                    "internalType": "uint128",
                    "name": "takerMargin",
                    "type": "uint128"
                },
                {
                    "internalType": "uint128",
                    "name": "deliverPrice",
                    "type": "uint128"
                },
                {
                    "internalType": "uint40",
                    "name": "deliverStart",
                    "type": "uint40"
                },
                {
                    "internalType": "uint40",
                    "name": "expireStart",
                    "type": "uint40"
                },
                {
                    "internalType": "bool",
                    "name": "makerDelivered",
                    "type": "bool"
                },
                {
                    "internalType": "bool",
                    "name": "takerDelivered",
                    "type": "bool"
                },
                {
                    "internalType": "bool",
                    "name": "makerIsSeller",
                    "type": "bool"
                },
                {
                    "internalType": "enum IBaseForward.State",
                    "name": "state",
                    "type": "uint8"
                }
            ],
            "stateMutability": "view",
            "type": "function"
        },
        {
            "inputs": [],
            "name": "ordersLength",
            "outputs": [
                {
                    "internalType": "uint256",
                    "name": "",
                    "type": "uint256"
                }
            ],
            "stateMutability": "view",
            "type": "function"
        },
        {
            "inputs": [],
            "name": "pause",
            "outputs": [],
            "stateMutability": "nonpayable",
            "type": "function"
        },
        {
            "inputs": [],
            "name": "paused",
            "outputs": [
                {
                    "internalType": "bool",
                    "name": "",
                    "type": "bool"
                }
            ],
            "stateMutability": "view",
            "type": "function"
        },
        {
            "inputs": [],
            "name": "quote",
            "outputs": [
                {
                    "internalType": "address",
                    "name": "",
                    "type": "address"
                }
            ],
            "stateMutability": "view",
            "type": "function"
        },
        {
            "inputs": [
                {
                    "internalType": "uint256",
                    "name": "_orderId",
                    "type": "uint256"
                }
            ],
            "name": "settle",
            "outputs": [],
            "stateMutability": "nonpayable",
            "type": "function"
        },
        {
            "inputs": [
                {
                    "internalType": "address[2]",
                    "name": "_addrs",
                    "type": "address[2]"
                },
                {
                    "internalType": "uint256[6]",
                    "name": "_uints",
                    "type": "uint256[6]"
                },
                {
                    "internalType": "bool",
                    "name": "_isSeller",
                    "type": "bool"
                },
                {
                    "internalType": "uint256[]",
                    "name": "_tokenIds",
                    "type": "uint256[]"
                },
                {
                    "internalType": "bytes",
                    "name": "_makerSig",
                    "type": "bytes"
                },
                {
                    "internalType": "bytes32",
                    "name": "_salt",
                    "type": "bytes32"
                }
            ],
            "name": "takeOffChainOrderFor",
            "outputs": [
                {
                    "internalType": "uint256",
                    "name": "orderId",
                    "type": "uint256"
                }
            ],
            "stateMutability": "payable",
            "type": "function"
        },
        {
            "inputs": [
                {
                    "internalType": "address",
                    "name": "_launchpad",
                    "type": "address"
                }
            ],
            "name": "toggleLaunchpad",
            "outputs": [],
            "stateMutability": "nonpayable",
            "type": "function"
        },
        {
            "inputs": [],
            "name": "underlying",
            "outputs": [
                {
                    "internalType": "address",
                    "name": "",
                    "type": "address"
                }
            ],
            "stateMutability": "view",
            "type": "function"
        },
        {
            "inputs": [
                {
                    "internalType": "uint256",
                    "name": "_orderId",
                    "type": "uint256"
                }
            ],
            "name": "underlyingAssets",
            "outputs": [
                {
                    "internalType": "uint256[]",
                    "name": "",
                    "type": "uint256[]"
                }
            ],
            "stateMutability": "view",
            "type": "function"
        },
        {
            "inputs": [],
            "name": "unpause",
            "outputs": [],
            "stateMutability": "nonpayable",
            "type": "function"
        },
        {
            "inputs": [],
            "name": "version",
            "outputs": [
                {
                    "internalType": "string",
                    "name": "",
                    "type": "string"
                }
            ],
            "stateMutability": "view",
            "type": "function"
        },
        {
            "inputs": [],
            "name": "weth",
            "outputs": [
                {
                    "internalType": "address",
                    "name": "",
                    "type": "address"
                }
            ],
            "stateMutability": "view",
            "type": "function"
        },
        {
            "inputs": [
                {
                    "internalType": "address",
                    "name": "_token",
                    "type": "address"
                },
                {
                    "internalType": "address",
                    "name": "_to",
                    "type": "address"
                }
            ],
            "name": "withdrawOther",
            "outputs": [],
            "stateMutability": "nonpayable",
            "type": "function"
        },
        {
            "stateMutability": "payable",
            "type": "receive"
        }
    ],
    "bytecode": "0x608060405234801561001057600080fd5b506146c9806100206000396000f3fe6080604052600436106101dc5760003560e01c80637e9a152c11610102578063c45a015511610095578063f2bfea6211610064578063f2bfea6214610601578063f5b94cbd1461062e578063f9fb8a8b1461064e578063ffe309be1461066457600080fd5b8063c45a015514610574578063d09ef24114610594578063dd8de791146105c1578063e16e2d66146105e157600080fd5b8063999b93af116100d1578063999b93af1461046a578063a85c38ef1461048a578063b69ef8a814610549578063be8acd3f1461055e57600080fd5b80637e9a152c146104025780637fc6c522146104225780638456cb59146104355780638df828001461044a57600080fd5b8063383730901161017a57806354fd4d501161014957806354fd4d50146103935780635c975abb146103a857806369b59e75146103c25780636f307dc3146103e257600080fd5b806338373090146103065780633b50c4d1146103195780633f4ba83a146103465780633fc8cef31461035b57600080fd5b80631f414f7f116101b65780631f414f7f146102785780632358a383146102b85780633235029e146102da5780633644e515146102f057600080fd5b806306fdde03146101e85780631466b3d714610213578063150b7a021461023457600080fd5b366101e357005b600080fd5b3480156101f457600080fd5b506101fd610694565b60405161020a9190614332565b60405180910390f35b610226610221366004614011565b610722565b60405190815260200161020a565b34801561024057600080fd5b5061025f61024f366004613ed3565b630a85bd0160e11b949350505050565b6040516001600160e01b0319909116815260200161020a565b34801561028457600080fd5b506102a86102933660046140d1565b603e6020526000908152604090205460ff1681565b604051901515815260200161020a565b3480156102c457600080fd5b506102d86102d3366004613f68565b610a64565b005b3480156102e657600080fd5b5061022660395481565b3480156102fc57600080fd5b5061022660335481565b6102d8610314366004613f3d565b610b88565b34801561032557600080fd5b506103396103343660046140d1565b610c2d565b60405161020a91906142e0565b34801561035257600080fd5b506102d8610c8f565b34801561036757600080fd5b5060385461037b906001600160a01b031681565b6040516001600160a01b03909116815260200161020a565b34801561039f57600080fd5b506101fd610ca3565b3480156103b457600080fd5b50603b546102a89060ff1681565b3480156103ce57600080fd5b506102d86103dd366004613e63565b610cb0565b3480156103ee57600080fd5b5060365461037b906001600160a01b031681565b34801561040e57600080fd5b5061022661041d3660046140d1565b610da9565b610226610430366004613fa9565b610feb565b34801561044157600080fd5b506102d86110f6565b34801561045657600080fd5b506102d86104653660046140d1565b61110d565b34801561047657600080fd5b5060375461037b906001600160a01b031681565b34801561049657600080fd5b506105326104a53660046140d1565b60406020819052600091825290208054600182015460028301546003909301546001600160a01b039283169391909216916001600160801b0380831692600160801b908190048216929182169164ffffffffff918104821691600160a81b8204169060ff600160d01b8204811691600160d81b8104821691600160e01b8204811691600160e81b9004168b565b60405161020a9b9a99989796959493929190614237565b34801561055557600080fd5b506102266111b1565b34801561056a57600080fd5b50610226603a5481565b34801561058057600080fd5b5060355461037b906001600160a01b031681565b3480156105a057600080fd5b506105b46105af3660046140d1565b611232565b60405161020a91906143e7565b3480156105cd57600080fd5b506102d86105dc366004613e63565b61134c565b3480156105ed57600080fd5b506102d86105fc366004613e9b565b61137d565b34801561060d57600080fd5b5061062161061c3660046140d1565b611531565b60405161020a9190614324565b34801561063a57600080fd5b50610226610649366004614011565b6116fe565b34801561065a57600080fd5b5061022660345481565b34801561067057600080fd5b506102a861067f366004613e63565b603f6020526000908152604090205460ff1681565b603c80546106a1906145ee565b80601f01602080910402602001604051908101604052809291908181526020018280546106cd906145ee565b801561071a5780601f106106ef5761010080835404028352916020019161071a565b820191906000526020600020905b8154815290600101906020018083116106fd57829003601f168201915b505050505081565b6000600260015414156107505760405162461bcd60e51b8152600401610747906143b0565b60405180910390fd5b60026001556000610762888888611a25565b9050600060405180610140016040528083600001516001600160a01b0316815260200183604001516001600160801b0316815260200183606001516001600160801b0316815260200183608001516001600160801b03168152602001896000600681106107df57634e487b7160e01b600052603260045260246000fd5b602002015164ffffffffff1681526020018360a0015164ffffffffff1681526020018360c0015164ffffffffff16815260200183610120015115158152602001858152602001878152509050600060335461083983611c65565b60405161190160f01b60208201526022810192909252604282015260620160408051601f1981840301815291815281516020928301206000818152603e90935291205490915060ff16156108c25760405162461bcd60e51b815260206004820152601060248201526f3430b9b41037b93232b91035b737bbb760811b6044820152606401610747565b60006108ce8288611d38565b9050806001600160a01b031683600001516001600160a01b03161480156108fd57506001600160a01b03811615155b6109375760405162461bcd60e51b815260206004820152600b60248201526a1cda59c81a5b9d985b1a5960aa1b6044820152606401610747565b42836080015164ffffffffff16101561097c5760405162461bcd60e51b8152602060048201526007602482015266195e1c1a5c995960ca1b6044820152606401610747565b6000828152603e60205260409020805460ff1916600117905561099f8489611d4d565b603754855160408701519297506109ca926001600160a01b03909216916001600160801b0316611dd6565b60375460608501516109f0916001600160a01b03169033906001600160801b0316611dd6565b835160208501516040517f4a9a87c8be9fcead2a1aede9dc781ba0a5ba425d403216fc1c40897407726f7192610a4992899287909384526001600160a01b03928316602085015291166040830152606082015260800190565b60405180910390a15050600180555090979650505050505050565b600054610100900460ff16610a7f5760005460ff1615610a83565b303b155b610ae65760405162461bcd60e51b815260206004820152602e60248201527f496e697469616c697a61626c653a20636f6e747261637420697320616c72656160448201526d191e481a5b9a5d1a585b1a5e995960921b6064820152608401610747565b600054610100900460ff16158015610b08576000805461ffff19166101011790555b610b128483611efb565b826102d114610b4c5760405162461bcd60e51b8152600401610747906020808252600490820152632137323160e01b604082015260600190565b7f756b0d2a0b0516e4dfd5520ff31d85fe0f8de76e4b64407cb601248fb23d28b36034558015610b82576000805461ff00191690555b50505050565b60026001541415610bab5760405162461bcd60e51b8152600401610747906143b0565b6002600155610bb861211e565b6002610bc382611531565b6004811115610be257634e487b7160e01b600052602160045260246000fd5b14610c1b5760405162461bcd60e51b81526020600482015260096024820152682164656c697665727960b81b6044820152606401610747565b610c25828261215c565b505060018055565b600081815260736020908152604091829020805483518184028101840190945280845260609392830182828015610c8357602002820191906000526020600020905b815481526020019060010190808311610c6f575b50505050509050919050565b610c976125d7565b603b805460ff19169055565b603d80546106a1906145ee565b603554604080516331056e5760e21b815290516000926001600160a01b03169163c415b95c916004808301926020929190829003018186803b158015610cf557600080fd5b505afa158015610d09573d6000803e3d6000fd5b505050506040513d601f19601f82011682018060405250810190610d2d9190613e7f565b6035549091506001600160a01b0316331480610d515750336001600160a01b038216145b610d855760405162461bcd60e51b8152602060048201526005602482015264042c2eae8d60db1b6044820152606401610747565b603754603954610da0916001600160a01b031690849061261c565b50506000603955565b60008181526040602081815281832082516101608101845281546001600160a01b0390811682526001830154169281019290925260028101546001600160801b0380821694840194909452600160801b90819004841660608401526003820154938416608084015264ffffffffff908404811660a0840152600160a81b84041660c083015260ff600160d01b84048116151560e0840152600160d81b840481161515610100840152600160e01b8404811615156101208401528493610140840191600160e81b909104166004811115610e9257634e487b7160e01b600052602160045260246000fd5b6004811115610eb157634e487b7160e01b600052602160045260246000fd5b905250603554608082015160405163087af11360e01b81526001600160801b0390911660048201529192506000916001600160a01b039091169063087af1139060240160206040518083038186803b158015610f0c57600080fd5b505afa158015610f20573d6000803e3d6000fd5b505050506040513d601f19601f82011682018060405250810190610f4491906140e9565b90506000610f688284608001516001600160801b031661264e90919063ffffffff16565b6001600160801b03169050826101000151158015610f8857508261012001515b15610fad576060830151610fa69082906001600160801b031661265a565b9350610fe3565b8260e00151158015610fc25750826101200151155b15610fe3576040830151610fe09082906001600160801b031661265a565b93505b505050919050565b6000600260015414156110105760405162461bcd60e51b8152600401610747906143b0565b600260015561101e33612666565b600061102b868686611a25565b60375481516040830151929350611056926001600160a01b03909216916001600160801b0316611dd6565b60375460208201516060830151611080926001600160a01b031691906001600160801b0316611dd6565b61108a8184611d4d565b91507f987ddb76a3d196ff5aea752ae02d3fc225d48e31e35546b2b5fa4acb3859280e82826000015183602001516040516110e1939291909283526001600160a01b03918216602084015216604082015260600190565b60405180910390a15060018055949350505050565b6110fe6125d7565b603b805460ff19166001179055565b600260015414156111305760405162461bcd60e51b8152600401610747906143b0565b600260015561113d61211e565b600361114882611531565b600481111561116757634e487b7160e01b600052602160045260246000fd5b1461119f5760405162461bcd60e51b815260206004820152600860248201526708595e1c1a5c995960c21b6044820152606401610747565b6111aa8160016126be565b5060018055565b6037546040516370a0823160e01b81523060048201526000916001600160a01b0316906370a082319060240160206040518083038186803b1580156111f557600080fd5b505afa158015611209573d6000803e3d6000fd5b505050506040513d601f19601f8201168201806040525081019061122d9190614110565b905090565b61123a613b9b565b6000828152604060208181529181902081516101608101835281546001600160a01b0390811682526001830154169381019390935260028101546001600160801b0380821693850193909352600160801b90819004831660608501526003820154928316608085015264ffffffffff908304811660a0850152600160a81b83041660c084015260ff600160d01b83048116151560e0850152600160d81b830481161515610100850152600160e01b8304811615156101208501529091610140840191600160e81b90910416600481111561132457634e487b7160e01b600052602160045260246000fd5b600481111561134357634e487b7160e01b600052602160045260246000fd5b90525092915050565b6113546125d7565b6001600160a01b03166000908152603f60205260409020805460ff19811660ff90911615179055565b603554604080516331056e5760e21b815290516000926001600160a01b03169163c415b95c916004808301926020929190829003018186803b1580156113c257600080fd5b505afa1580156113d6573d6000803e3d6000fd5b505050506040513d601f19601f820116820180604052508101906113fa9190613e7f565b6035549091506001600160a01b031633148061141e5750336001600160a01b038216145b6114525760405162461bcd60e51b8152602060048201526005602482015264042c2eae8d60db1b6044820152606401610747565b61145b83612d34565b6001600160a01b03831661149e576040516001600160a01b038316904780156108fc02916000818181858888f19350505050158015610b82573d6000803e3d6000fd5b6040516370a0823160e01b815230600482015261152c9083906001600160a01b038616906370a082319060240160206040518083038186803b1580156114e357600080fd5b505afa1580156114f7573d6000803e3d6000fd5b505050506040513d601f19601f8201168201806040525081019061151b9190614110565b6001600160a01b0386169190612d7b565b505050565b60008181526040602081815281832082516101608101845281546001600160a01b0390811682526001830154169281019290925260028101546001600160801b0380821694840194909452600160801b90819004841660608401526003820154938416608084015264ffffffffff908404811660a0840152600160a81b84041660c083015260ff600160d01b84048116151560e0840152600160d81b840481161515610100840152600160e01b8404811615156101208401528493610140840191600160e81b90910416600481111561161a57634e487b7160e01b600052602160045260246000fd5b600481111561163957634e487b7160e01b600052602160045260246000fd5b90525060a081015190915064ffffffffff166116585750600092915050565b60a0810151429064ffffffffff168111611676575060019392505050565b8160c0015164ffffffffff1681116116c857600482610140015160048111156116af57634e487b7160e01b600052602160045260246000fd5b146116be575060029392505050565b5060049392505050565b600482610140015160048111156116ef57634e487b7160e01b600052602160045260246000fd5b146116be575060039392505050565b6000600260015414156117235760405162461bcd60e51b8152600401610747906143b0565b6002600155604080516101408101825288516001600160a01b0316815260808801516001600160801b03166020820152600091810188600560200201516001600160801b031681526020018860036006811061178f57634e487b7160e01b600052603260045260246000fd5b60200201516001600160801b03168152602001886000600681106117c357634e487b7160e01b600052603260045260246000fd5b602002015164ffffffffff168152602001886001600681106117f557634e487b7160e01b600052603260045260246000fd5b602002015164ffffffffff1681526020018860026006811061182757634e487b7160e01b600052603260045260246000fd5b602002015164ffffffffff168152602001871515815260200184815260200186815250905060335461185882611c65565b60405161190160f01b6020820152602281019290925260428201526062016040516020818303038152906040528051906020012091506118988285611d38565b6001600160a01b031681600001516001600160a01b0316146118ea5760405162461bcd60e51b815260206004820152600b60248201526a1cda59c81a5b9d985b1a5960aa1b6044820152606401610747565b6000828152603e602052604090205460ff161561193c5760405162461bcd60e51b815260206004820152601060248201526f3430b9b41037b93232b91035b737bbb760811b6044820152606401610747565b42816080015164ffffffffff1610156119815760405162461bcd60e51b8152602060048201526007602482015266195e1c1a5c995960ca1b6044820152606401610747565b80516001600160a01b031633146119c35760405162461bcd60e51b815260206004820152600660248201526510b6b0b5b2b960d11b6044820152606401610747565b6000828152603e602052604090819020805460ff19166001179055517fbb37bf0a6298a46b23ee8e3d5aabdaa32c28bf372cef0f3e331b742a65ea014790611a0e9084815260200190565b60405180910390a150600180559695505050505050565b611a2d613b9b565b825142108015611a4257506020830151835111155b8015611a555750604083015163ffffffff115b611a895760405162461bcd60e51b81526020600482015260056024820152642174696d6560d81b6044820152606401610747565b60608301516001600160801b03118015611aad575060808301516001600160801b03115b8015611ac3575060a08301516001600160801b03115b611b015760405162461bcd60e51b815260206004820152600f60248201526e616d6f756e74206f766572666c6f7760881b6044820152606401610747565b60a083015160808401516001600160801b0391611b1e9190612dde565b10611b625760405162461bcd60e51b815260206004820152601460248201527364656c69766572206d6179206f766572666c6f7760601b6044820152606401610747565b6060830151608084015111801590611b825750606083015160a084015111155b611bc25760405162461bcd60e51b81526020600482015260116024820152706d617267696e206f76657220707269636560781b6044820152606401610747565b50604080516101608101825284516001600160a01b039081168252602080870151909116818301526080858101516001600160801b039081168486015260a0808801518216606080870191909152880151909116918401919091529085015164ffffffffff908116918301919091529184015190911660c0820152600060e0820181905261010082015281151561012082015260016101408201525b9392505050565b6000603454826000015183602001518460400151856060015186608001518760a001518860c001518960e001518a6101000151611ca68c6101200151612dea565b60408051602081019c909c526001600160a01b03909a16998b01999099526001600160801b0397881660608b015295871660808a01529590931660a088015264ffffffffff91821660c0880152811660e087015216610100850152901515610120840152610140830152610160820152610180015b604051602081830303815290604052805190602001209050919050565b6000611d448383612dfd565b90505b92915050565b6000611d5761211e565b611d6083612e21565b905060005b8251811015611dcf5760008281526073602052604090208351849083908110611d9e57634e487b7160e01b600052603260045260246000fd5b6020908102919091018101518254600181018455600093845291909220015580611dc781614629565b915050611d65565b5092915050565b801580611dea57506001600160a01b038216155b15611df457505050565b6038546001600160a01b038481169116148015611e1957506001600160a01b03821633145b8015611e255750803410155b15611ee657603860009054906101000a90046001600160a01b03166001600160a01b031663d0e30db0826040518263ffffffff1660e01b81526004016000604051808303818588803b158015611e7a57600080fd5b505af1158015611e8e573d6000803e3d6000fd5b505050505060008134611ea191906145ab565b90508015610b82576040516001600160a01b0384169082156108fc029083906000818181858888f19350505050158015611edf573d6000803e3d6000fd5b5050505050565b61152c6001600160a01b038416833084612f8b565b600054610100900460ff16611f225760405162461bcd60e51b815260040161074790614365565b611f2a612fac565b603580546001600160a01b031916339081179091556040516363f59fb560e11b81526001600160a01b0383166004820152819063c7eb3f6a9060240160206040518083038186803b158015611f7e57600080fd5b505afa158015611f92573d6000803e3d6000fd5b505050506040513d601f19601f82011682018060405250810190611fb691906140b5565b611feb5760405162461bcd60e51b81526020600482015260066024820152652171756f746560d01b6044820152606401610747565b603680546001600160a01b038086166001600160a01b03199283161790925560378054858416921691909117905560408051633fc8cef360e01b8152905191831691633fc8cef391600480820192602092909190829003018186803b15801561205357600080fd5b505afa158015612067573d6000803e3d6000fd5b505050506040513d601f19601f8201168201806040525081019061208b9190613e7f565b603880546001600160a01b0319166001600160a01b03929092169190911790556040805180820190915260108082526f13dc195b93185b9908119bdc9dd85c9960821b60209092019182526120e291603c91613bf5565b50604080518082019091526003808252620312e360ec1b602090920191825261210d91603d91613bf5565b50612116612fdb565b603355505050565b603b5460ff161561215a5760405162461bcd60e51b81526020600482015260066024820152651c185d5cd95960d21b6044820152606401610747565b565b60008181526040602081815281832082516101608101845281546001600160a01b0390811682526001830154169281019290925260028101546001600160801b0380821694840194909452600160801b90819004841660608401526003820154938416608084015264ffffffffff908404811660a0840152600160a81b84041660c083015260ff600160d01b84048116151560e0840152600160d81b840481161515610100840152600160e01b84048116151561012084015291929091610140840191600160e81b900416600481111561224657634e487b7160e01b600052602160045260246000fd5b600481111561226557634e487b7160e01b600052602160045260246000fd5b81525050905080602001516001600160a01b0316836001600160a01b03161480156122935750806101000151155b1561240d578061012001511561239157603554608082015160405163087af11360e01b81526001600160801b0390911660048201526000916001600160a01b03169063087af1139060240160206040518083038186803b1580156122f657600080fd5b505afa15801561230a573d6000803e3d6000fd5b505050506040513d601f19601f8201168201806040525081019061232e91906140e9565b905060006123528284608001516001600160801b031661264e90919063ffffffff16565b60375460608501516001600160801b03928316935061238a926001600160a01b039092169133916123859186911661265a565b611dd6565b505061239a565b61239a82613073565b60008281526040602081905290819020600301805460ff60d81b1916600160d81b179055517f7a729a080ea5047d59fb68b308d0cd6db7d3fc09d294cef02be0ea5434ad413d9061240090849086909182526001600160a01b0316602082015260400190565b60405180910390a16125cc565b80516001600160a01b03848116911614801561242b57508060e00151155b1561259457806101200151156124495761244482613073565b61252e565b603554608082015160405163087af11360e01b81526001600160801b0390911660048201526000916001600160a01b03169063087af1139060240160206040518083038186803b15801561249c57600080fd5b505afa1580156124b0573d6000803e3d6000fd5b505050506040513d601f19601f820116820180604052508101906124d491906140e9565b905060006124f88284608001516001600160801b031661264e90919063ffffffff16565b60375460408501516001600160801b03928316935061252b926001600160a01b039092169133916123859186911661265a565b50505b60008281526040602081905290819020600301805460ff60d01b1916600160d01b179055517f7a729a080ea5047d59fb68b308d0cd6db7d3fc09d294cef02be0ea5434ad413d9061240090849086909182526001600160a01b0316602082015260400190565b60405162461bcd60e51b815260206004820152600d60248201526c64656c697665722077726f6e6760981b6044820152606401610747565b61152c8260006126be565b6035546001600160a01b0316331461215a5760405162461bcd60e51b815260206004820152600860248201526721666163746f727960c01b6044820152606401610747565b80158061263057506001600160a01b038216155b1561263a57505050565b61152c6001600160a01b0384168383612d7b565b6000611d448284614511565b6000611d4482846145ab565b6001600160a01b0381166000908152603f602052604090205460ff166126bb5760405162461bcd60e51b815260206004820152600a602482015269085b185d5b98da1c185960b21b6044820152606401610747565b50565b60008281526040602081815281832082516101608101845281546001600160a01b0390811682526001830154169281019290925260028101546001600160801b0380821694840194909452600160801b90819004841660608401526003820154938416608084015264ffffffffff908404811660a0840152600160a81b84041660c083015260ff600160d01b84048116151560e0840152600160d81b840481161515610100840152600160e01b84048116151561012084015291929091610140840191600160e81b90041660048111156127a857634e487b7160e01b600052602160045260246000fd5b60048111156127c757634e487b7160e01b600052602160045260246000fd5b8152505090508060e0015180156127e057508061010001515b15612999576000838152604060208190528082206003018054600160ea1b60ff60e81b199091161790556035546080840151915163087af11360e01b81526001600160801b0390921660048301526001600160a01b03169063087af1139060240160206040518083038186803b15801561285957600080fd5b505afa15801561286d573d6000803e3d6000fd5b505050506040513d601f19601f8201168201806040525081019061289191906140e9565b90506128b2848361012001516128a85783516130f6565b83602001516130f6565b60375461012083015161292c916001600160a01b0316906128d75783602001516128da565b83515b61291e8461290f8761012001516128f55787606001516128fb565b87604001515b60808901516001600160801b03169061264e565b6001600160801b0316906131b9565b6001600160801b031661261c565b6129406001600160801b03821660026131c5565b6001600160801b03166039600082825461295a919061453c565b90915550506040518481527f2a45eee61b61ef4932e2d79b32be61a1a538cbe00381faffb4d1cf3b1268c46b906020015b60405180910390a150505050565b811561152c57600083815260406020819052808220600301805460ff60e81b1916600160ea1b1790556035546060840151918401516001600160a01b039091169163087af113916129f5916001600160801b039091169061264e565b6040516001600160e01b031960e084901b1681526001600160801b03909116600482015260240160206040518083038186803b158015612a3457600080fd5b505afa158015612a48573d6000803e3d6000fd5b505050506040513d601f19601f82011682018060405250810190612a6c91906140e9565b603954909150612a85906001600160801b038316612dde565b60395560e0820151158015612a9c57508161010001515b15612bf55781610120015115612ba8576040828101516035546080850151925163087af11360e01b81526001600160801b039093166004840152600092612b6b9291612b5c916001600160a01b039091169063087af113906024015b60206040518083038186803b158015612b1057600080fd5b505afa158015612b24573d6000803e3d6000fd5b505050506040513d601f19601f82011682018060405250810190612b4891906140e9565b60808701516001600160801b03169061264e565b6001600160801b03169061264e565b60375460208501516001600160801b039283169350612ba2926001600160a01b0390921691612b9d908590871661265a565b61261c565b50612d04565b603754602083015160608401516040850151612be2936001600160a01b0316929161291e91869161290f916001600160801b03169061264e565b612bf08483602001516130f6565b612d04565b8160e0015115612ccd5781610120015115612c4f57603754825160608401516040850151612c41936001600160a01b0316929161291e91869161290f916001600160801b03169061264e565b612bf08483600001516130f6565b6060820151603554608084015160405163087af11360e01b81526001600160801b039091166004820152600092612c9e929091612b5c916001600160a01b03169063087af11390602401612af8565b60375484516001600160801b039283169350612ba2926001600160a01b0390921691612b9d908590871661265a565b603754825160408401516060850151612d04936001600160a01b0316929161291e91869161290f916001600160801b03169061264e565b6040518481527f2a45eee61b61ef4932e2d79b32be61a1a538cbe00381faffb4d1cf3b1268c46b9060200161298b565b6037546001600160a01b03828116911614156126bb5760405162461bcd60e51b81526020600482015260066024820152652171756f746560d01b6044820152606401610747565b6040516001600160a01b03831660248201526044810182905261152c90849063a9059cbb60e01b906064015b60408051601f198184030181529190526020810180516001600160e01b03166001600160e01b0319909316929092179091526131d1565b6000611d44828461453c565b600081604051602001611d1b919061414a565b6000806000612e0c85856132a3565b91509150612e1981613313565b509392505050565b603a805460009182612e3283614629565b9091555060008181526040602081815291819020855181546001600160a01b039182166001600160a01b0319918216178355938701516001830180549190921694169390931790925584015160608501516001600160801b03908116600160801b908102928216929092176002840155608086015160038401805460a089015160c08a015160e08b01516101008c01516101208d01511515600160e01b0260ff60e01b19911515600160d81b029190911661ffff60d81b19921515600160d01b0260ff60d01b1964ffffffffff958616600160a81b021665ffffffffffff60a81b1995909616909a026001600160a81b03199096169790981696909617939093171617949094179390931691909117178082556101408601519394508593919060ff60e81b1916600160e81b836004811115612f7e57634e487b7160e01b600052602160045260246000fd5b0217905550905050919050565b610b82846323b872dd60e01b858585604051602401612da7939291906142bc565b600054610100900460ff16612fd35760405162461bcd60e51b815260040161074790614365565b61215a613514565b60007f8b73c3c69bb8fe3d512ecc4cf759cc79239f7b179b0ffacaa9a75d522b39400f603c60405161300d919061419c565b6040518091039020603d604051613024919061419c565b60405180910390206130334690565b604080516020810195909552840192909252606083015260808201523060a082015260c00160405160208183030381529060405280519060200120905090565b60005b6000828152607360205260409020548110156130f257603654600083815260736020526040902080546130e0926001600160a01b0316913391309190869081106130d057634e487b7160e01b600052603260045260246000fd5b9060005260206000200154613541565b806130ea81614629565b915050613076565b5050565b6001600160a01b03811661313a5760405162461bcd60e51b815260206004820152600b60248201526a746f20697320656d70747960a81b6044820152606401610747565b60005b60008381526073602052604090205481101561152c57603654600084815260736020526040902080546131a7926001600160a01b03169130918691908690811061319757634e487b7160e01b600052603260045260246000fd5b906000526020600020015461386d565b806131b181614629565b91505061313d565b6000611d448284614583565b6000611d448284614554565b6000613226826040518060400160405280602081526020017f5361666545524332303a206c6f772d6c6576656c2063616c6c206661696c6564815250856001600160a01b03166139079092919063ffffffff16565b80519091501561152c578080602001905181019061324491906140b5565b61152c5760405162461bcd60e51b815260206004820152602a60248201527f5361666545524332303a204552433230206f7065726174696f6e20646964206e6044820152691bdd081cdd58d8d9595960b21b6064820152608401610747565b6000808251604114156132da5760208301516040840151606085015160001a6132ce8782858561391e565b9450945050505061330c565b82516040141561330457602083015160408401516132f9868383613a0b565b93509350505061330c565b506000905060025b9250929050565b600081600481111561333557634e487b7160e01b600052602160045260246000fd5b141561333e5750565b600181600481111561336057634e487b7160e01b600052602160045260246000fd5b14156133ae5760405162461bcd60e51b815260206004820152601860248201527f45434453413a20696e76616c6964207369676e617475726500000000000000006044820152606401610747565b60028160048111156133d057634e487b7160e01b600052602160045260246000fd5b141561341e5760405162461bcd60e51b815260206004820152601f60248201527f45434453413a20696e76616c6964207369676e6174757265206c656e677468006044820152606401610747565b600381600481111561344057634e487b7160e01b600052602160045260246000fd5b14156134995760405162461bcd60e51b815260206004820152602260248201527f45434453413a20696e76616c6964207369676e6174757265202773272076616c604482015261756560f01b6064820152608401610747565b60048160048111156134bb57634e487b7160e01b600052602160045260246000fd5b14156126bb5760405162461bcd60e51b815260206004820152602260248201527f45434453413a20696e76616c6964207369676e6174757265202776272076616c604482015261756560f01b6064820152608401610747565b600054610100900460ff1661353b5760405162461bcd60e51b815260040161074790614365565b60018055565b60606001600160a01b0385167306012c8cf97bead5deae237070f9587f8e7a266d14156135b5576323b872dd848484604051602401613582939291906142bc565b6040516020818303038152906040529060e01b6020820180516001600160e01b03838183161783525050505090506137ed565b6001600160a01b03851673d03b517dfa5d14c3c7642d974ddc1b8b2c8e2d18141561373e57600080866001600160a01b03166358178168856040516024016135ff91815260200190565b6040516020818303038152906040529060e01b6020820180516001600160e01b0383818316178352505050506040516136389190614180565b600060405180830381855afa9150503d8060008114613673576040519150601f19603f3d011682016040523d82523d6000602084013e613678565b606091505b50915091506000818060200190518101906136939190613e7f565b90508280156136b35750866001600160a01b0316816001600160a01b0316145b6136f05760405162461bcd60e51b815260206004820152600e60248201526d383ab636103737ba1037bbb732b960911b6044820152606401610747565b638264fe988560405160240161370891815260200190565b6040516020818303038152906040529060e01b6020820180516001600160e01b03838183161783525050505093505050506137ed565b6001600160a01b0385167379986af15539de2db9a5086382daeda917a9cf0c148061378557506001600160a01b038516732a46f2ffd99e19a89476e2f62270e0a35bbf0756145b156137a4576323b872dd848484604051602401613582939291906142bc565b6342842e0e8484846040516024016137be939291906142bc565b6040516020818303038152906040529060e01b6020820180516001600160e01b03838183161783525050505090505b600080866001600160a01b0316836040516138089190614180565b6000604051808303816000865af19150503d8060008114613845576040519150601f19603f3d011682016040523d82523d6000602084013e61384a565b606091505b509150915081801561385b57508051155b61386457600080fd5b50505050505050565b60606001600160a01b0385167306012c8cf97bead5deae237070f9587f8e7a266d14156138bb576040516001600160a01b03841660248201526044810183905263a9059cbb90606401613582565b6001600160a01b03851673d03b517dfa5d14c3c7642d974ddc1b8b2c8e2d18141561373e576040516001600160a01b038416602482015260448101839052638b72a2ec90606401613582565b60606139168484600085613a3a565b949350505050565b6000807f7fffffffffffffffffffffffffffffff5d576e7357a4501ddfe92f46681b20a08311156139555750600090506003613a02565b8460ff16601b1415801561396d57508460ff16601c14155b1561397e5750600090506004613a02565b6040805160008082526020820180845289905260ff881692820192909252606081018690526080810185905260019060a0016020604051602081039080840390855afa1580156139d2573d6000803e3d6000fd5b5050604051601f1901519150506001600160a01b0381166139fb57600060019250925050613a02565b9150600090505b94509492505050565b6000806001600160ff1b03831660ff84901c601b01613a2c8782888561391e565b935093505050935093915050565b606082471015613a9b5760405162461bcd60e51b815260206004820152602660248201527f416464726573733a20696e73756666696369656e742062616c616e636520666f6044820152651c8818d85b1b60d21b6064820152608401610747565b843b613ae95760405162461bcd60e51b815260206004820152601d60248201527f416464726573733a2063616c6c20746f206e6f6e2d636f6e74726163740000006044820152606401610747565b600080866001600160a01b03168587604051613b059190614180565b60006040518083038185875af1925050503d8060008114613b42576040519150601f19603f3d011682016040523d82523d6000602084013e613b47565b606091505b5091509150613b57828286613b62565b979650505050505050565b60608315613b71575081611c5e565b825115613b815782518084602001fd5b8160405162461bcd60e51b81526004016107479190614332565b6040805161016081018252600080825260208201819052918101829052606081018290526080810182905260a0810182905260c0810182905260e08101829052610100810182905261012081018290529061014082015290565b828054613c01906145ee565b90600052602060002090601f016020900481019282613c235760008555613c69565b82601f10613c3c57805160ff1916838001178555613c69565b82800160010185558215613c69579182015b82811115613c69578251825591602001919060010190613c4e565b50613c75929150613c79565b5090565b5b80821115613c755760008155600101613c7a565b600082601f830112613c9e578081fd5b6040516040810181811067ffffffffffffffff82111715613cc157613cc161465a565b8060405250808385604086011115613cd7578384fd5b835b6002811015613d02578135613ced81614670565b83526020928301929190910190600101613cd9565b509195945050505050565b600082601f830112613d1d578081fd5b60405160c0810181811067ffffffffffffffff82111715613d4057613d4061465a565b604052808360c08101861015613d54578384fd5b835b6006811015613d02578135835260209283019290910190600101613d56565b600082601f830112613d85578081fd5b8135602067ffffffffffffffff821115613da157613da161465a565b8160051b613db08282016144e0565b838152828101908684018388018501891015613dca578687fd5b8693505b85841015613dec578035835260019390930192918401918401613dce565b50979650505050505050565b600082601f830112613e08578081fd5b813567ffffffffffffffff811115613e2257613e2261465a565b613e35601f8201601f19166020016144e0565b818152846020838601011115613e49578283fd5b816020850160208301379081016020019190915292915050565b600060208284031215613e74578081fd5b8135611c5e81614670565b600060208284031215613e90578081fd5b8151611c5e81614670565b60008060408385031215613ead578081fd5b8235613eb881614670565b91506020830135613ec881614670565b809150509250929050565b60008060008060808587031215613ee8578182fd5b8435613ef381614670565b93506020850135613f0381614670565b925060408501359150606085013567ffffffffffffffff811115613f25578182fd5b613f3187828801613df8565b91505092959194509250565b60008060408385031215613f4f578182fd5b8235613f5a81614670565b946020939093013593505050565b600080600060608486031215613f7c578283fd5b8335613f8781614670565b9250602084013591506040840135613f9e81614670565b809150509250925092565b6000806000806101408587031215613fbf578182fd5b613fc98686613c8e565b9350613fd88660408701613d0d565b9250610100850135613fe981614685565b915061012085013567ffffffffffffffff811115614005578182fd5b613f3187828801613d75565b600080600080600080610180878903121561402a578384fd5b6140348888613c8e565b95506140438860408901613d0d565b945061010087013561405481614685565b935061012087013567ffffffffffffffff80821115614071578384fd5b61407d8a838b01613d75565b9450610140890135915080821115614093578384fd5b506140a089828a01613df8565b92505061016087013590509295509295509295565b6000602082840312156140c6578081fd5b8151611c5e81614685565b6000602082840312156140e2578081fd5b5035919050565b6000602082840312156140fa578081fd5b81516001600160801b0381168114611c5e578182fd5b600060208284031215614121578081fd5b5051919050565b6005811061414657634e487b7160e01b600052602160045260246000fd5b9052565b815160009082906020808601845b8381101561417457815185529382019390820190600101614158565b50929695505050505050565b600082516141928184602087016145c2565b9190910192915050565b600080835482600182811c9150808316806141b857607f831692505b60208084108214156141d857634e487b7160e01b87526022600452602487fd5b8180156141ec57600181146141fd57614229565b60ff19861689528489019650614229565b60008a815260209020885b868110156142215781548b820152908501908301614208565b505084890196505b509498975050505050505050565b6001600160a01b038c811682528b1660208201526001600160801b038a8116604083015289811660608301528816608082015264ffffffffff87811660a0830152861660c082015284151560e082015283151561010082015282151561012082015261016081016142ac610140830184614128565b9c9b505050505050505050505050565b6001600160a01b039384168152919092166020820152604081019190915260600190565b6020808252825182820181905260009190848201906040850190845b81811015614318578351835292840192918401916001016142fc565b50909695505050505050565b60208101611d478284614128565b60208152600082518060208401526143518160408501602087016145c2565b601f01601f19169190910160400192915050565b6020808252602b908201527f496e697469616c697a61626c653a20636f6e7472616374206973206e6f74206960408201526a6e697469616c697a696e6760a81b606082015260800190565b6020808252601f908201527f5265656e7472616e637947756172643a207265656e7472616e742063616c6c00604082015260600190565b81516001600160a01b031681526101608101602083015161441360208401826001600160a01b03169052565b50604083015161442e60408401826001600160801b03169052565b50606083015161444960608401826001600160801b03169052565b50608083015161446460808401826001600160801b03169052565b5060a083015161447d60a084018264ffffffffff169052565b5060c083015161449660c084018264ffffffffff169052565b5060e08301516144aa60e084018215159052565b506101008381015115159083015261012080840151151590830152610140808401516144d882850182614128565b505092915050565b604051601f8201601f1916810167ffffffffffffffff811182821017156145095761450961465a565b604052919050565b60006001600160801b0380831681851680830382111561453357614533614644565b01949350505050565b6000821982111561454f5761454f614644565b500190565b60006001600160801b038083168185168183048111821515161561457a5761457a614644565b02949350505050565b60006001600160801b03838116908316818110156145a3576145a3614644565b039392505050565b6000828210156145bd576145bd614644565b500390565b60005b838110156145dd5781810151838201526020016145c5565b83811115610b825750506000910152565b600181811c9082168061460257607f821691505b6020821081141561462357634e487b7160e01b600052602260045260246000fd5b50919050565b600060001982141561463d5761463d614644565b5060010190565b634e487b7160e01b600052601160045260246000fd5b634e487b7160e01b600052604160045260246000fd5b6001600160a01b03811681146126bb57600080fd5b80151581146126bb57600080fdfea2646970667358221220b535526e791b35bc9e2f53ecf6aeac106cdd5fd3109acf2e7990fb847d365ba464736f6c63430008040033",
    "deployedBytecode": "",
    "linkReferences": {},
    "deployedLinkReferences": {}
}