{
    "_format": "hh-sol-artifact-1",
    "contractName": "ForwardEtherRouter",
    "sourceName": "contracts/forward/ForwardEtherRouter.sol",
    "abi": [
        {
            "inputs": [
                {
                    "internalType": "address",
                    "name": "_weth_",
                    "type": "address"
                }
            ],
            "stateMutability": "nonpayable",
            "type": "constructor"
        },
        {
            "inputs": [
                {
                    "internalType": "address",
                    "name": "_forward",
                    "type": "address"
                },
                {
                    "internalType": "uint256",
                    "name": "_orderId",
                    "type": "uint256"
                }
            ],
            "name": "cancelOrder",
            "outputs": [],
            "stateMutability": "nonpayable",
            "type": "function"
        },
        {
            "inputs": [
                {
                    "internalType": "address",
                    "name": "_forward1155",
                    "type": "address"
                },
                {
                    "internalType": "address",
                    "name": "_maker",
                    "type": "address"
                },
                {
                    "internalType": "uint256[6]",
                    "name": "_uints",
                    "type": "uint256[6]"
                },
                {
                    "internalType": "bool",
                    "name": "_isSeller",
                    "type": "bool"
                },
                {
                    "internalType": "uint256[]",
                    "name": "_ids",
                    "type": "uint256[]"
                },
                {
                    "internalType": "uint256[]",
                    "name": "_amounts",
                    "type": "uint256[]"
                }
            ],
            "name": "createOrder1155For",
            "outputs": [
                {
                    "internalType": "uint256",
                    "name": "orderId",
                    "type": "uint256"
                }
            ],
            "stateMutability": "payable",
            "type": "function"
        },
        {
            "inputs": [
                {
                    "internalType": "address",
                    "name": "_forward20",
                    "type": "address"
                },
                {
                    "internalType": "address",
                    "name": "_maker",
                    "type": "address"
                },
                {
                    "internalType": "uint256[6]",
                    "name": "_uints",
                    "type": "uint256[6]"
                },
                {
                    "internalType": "bool",
                    "name": "_isSeller",
                    "type": "bool"
                },
                {
                    "internalType": "uint256",
                    "name": "_underlyingAmount",
                    "type": "uint256"
                }
            ],
            "name": "createOrder20For",
            "outputs": [
                {
                    "internalType": "uint256",
                    "name": "orderId",
                    "type": "uint256"
                }
            ],
            "stateMutability": "payable",
            "type": "function"
        },
        {
            "inputs": [
                {
                    "internalType": "address",
                    "name": "_forward721",
                    "type": "address"
                },
                {
                    "internalType": "address",
                    "name": "_maker",
                    "type": "address"
                },
                {
                    "internalType": "uint256[6]",
                    "name": "_uints",
                    "type": "uint256[6]"
                },
                {
                    "internalType": "bool",
                    "name": "_isSeller",
                    "type": "bool"
                },
                {
                    "internalType": "uint256[]",
                    "name": "_tokenIds",
                    "type": "uint256[]"
                }
            ],
            "name": "createOrder721For",
            "outputs": [
                {
                    "internalType": "uint256",
                    "name": "orderId",
                    "type": "uint256"
                }
            ],
            "stateMutability": "payable",
            "type": "function"
        },
        {
            "inputs": [
                {
                    "internalType": "address",
                    "name": "_forward",
                    "type": "address"
                },
                {
                    "internalType": "address",
                    "name": "_deliverer",
                    "type": "address"
                },
                {
                    "internalType": "uint256",
                    "name": "_orderId",
                    "type": "uint256"
                }
            ],
            "name": "deliverFor",
            "outputs": [],
            "stateMutability": "payable",
            "type": "function"
        },
        {
            "inputs": [
                {
                    "internalType": "address",
                    "name": "_forward",
                    "type": "address"
                },
                {
                    "internalType": "uint256[]",
                    "name": "_orderIds",
                    "type": "uint256[]"
                }
            ],
            "name": "multiCancelOrder",
            "outputs": [],
            "stateMutability": "nonpayable",
            "type": "function"
        },
        {
            "inputs": [
                {
                    "internalType": "address",
                    "name": "_forward",
                    "type": "address"
                },
                {
                    "internalType": "address",
                    "name": "_deliverer",
                    "type": "address"
                },
                {
                    "internalType": "uint256[]",
                    "name": "_orderIds",
                    "type": "uint256[]"
                }
            ],
            "name": "multiDeliverFor",
            "outputs": [],
            "stateMutability": "payable",
            "type": "function"
        },
        {
            "inputs": [
                {
                    "internalType": "address",
                    "name": "_forward",
                    "type": "address"
                },
                {
                    "internalType": "uint256[]",
                    "name": "_orderIds",
                    "type": "uint256[]"
                }
            ],
            "name": "multiSettle",
            "outputs": [],
            "stateMutability": "nonpayable",
            "type": "function"
        },
        {
            "inputs": [
                {
                    "internalType": "address",
                    "name": "_forward",
                    "type": "address"
                },
                {
                    "internalType": "address",
                    "name": "_taker",
                    "type": "address"
                },
                {
                    "internalType": "uint256[]",
                    "name": "_orderIds",
                    "type": "uint256[]"
                }
            ],
            "name": "multiTakeOrderFor",
            "outputs": [],
            "stateMutability": "payable",
            "type": "function"
        },
        {
            "inputs": [
                {
                    "internalType": "address",
                    "name": "",
                    "type": "address"
                },
                {
                    "internalType": "address",
                    "name": "",
                    "type": "address"
                },
                {
                    "internalType": "uint256[]",
                    "name": "",
                    "type": "uint256[]"
                },
                {
                    "internalType": "uint256[]",
                    "name": "",
                    "type": "uint256[]"
                },
                {
                    "internalType": "bytes",
                    "name": "",
                    "type": "bytes"
                }
            ],
            "name": "onERC1155BatchReceived",
            "outputs": [
                {
                    "internalType": "bytes4",
                    "name": "",
                    "type": "bytes4"
                }
            ],
            "stateMutability": "nonpayable",
            "type": "function"
        },
        {
            "inputs": [
                {
                    "internalType": "address",
                    "name": "",
                    "type": "address"
                },
                {
                    "internalType": "address",
                    "name": "",
                    "type": "address"
                },
                {
                    "internalType": "uint256",
                    "name": "",
                    "type": "uint256"
                },
                {
                    "internalType": "uint256",
                    "name": "",
                    "type": "uint256"
                },
                {
                    "internalType": "bytes",
                    "name": "",
                    "type": "bytes"
                }
            ],
            "name": "onERC1155Received",
            "outputs": [
                {
                    "internalType": "bytes4",
                    "name": "",
                    "type": "bytes4"
                }
            ],
            "stateMutability": "nonpayable",
            "type": "function"
        },
        {
            "inputs": [
                {
                    "internalType": "address",
                    "name": "",
                    "type": "address"
                },
                {
                    "internalType": "address",
                    "name": "",
                    "type": "address"
                },
                {
                    "internalType": "uint256",
                    "name": "",
                    "type": "uint256"
                },
                {
                    "internalType": "bytes",
                    "name": "",
                    "type": "bytes"
                }
            ],
            "name": "onERC721Received",
            "outputs": [
                {
                    "internalType": "bytes4",
                    "name": "",
                    "type": "bytes4"
                }
            ],
            "stateMutability": "nonpayable",
            "type": "function"
        },
        {
            "inputs": [
                {
                    "internalType": "address",
                    "name": "_forward",
                    "type": "address"
                }
            ],
            "name": "ordersLength",
            "outputs": [
                {
                    "internalType": "uint256",
                    "name": "",
                    "type": "uint256"
                }
            ],
            "stateMutability": "view",
            "type": "function"
        },
        {
            "inputs": [
                {
                    "internalType": "address",
                    "name": "_forward",
                    "type": "address"
                },
                {
                    "internalType": "uint256",
                    "name": "_orderId",
                    "type": "uint256"
                }
            ],
            "name": "settle",
            "outputs": [],
            "stateMutability": "nonpayable",
            "type": "function"
        },
        {
            "inputs": [
                {
                    "internalType": "bytes4",
                    "name": "interfaceId",
                    "type": "bytes4"
                }
            ],
            "name": "supportsInterface",
            "outputs": [
                {
                    "internalType": "bool",
                    "name": "",
                    "type": "bool"
                }
            ],
            "stateMutability": "view",
            "type": "function"
        },
        {
            "inputs": [
                {
                    "internalType": "address",
                    "name": "_forward721",
                    "type": "address"
                },
                {
                    "internalType": "address[2]",
                    "name": "_addrs",
                    "type": "address[2]"
                },
                {
                    "internalType": "uint256[6]",
                    "name": "_uints",
                    "type": "uint256[6]"
                },
                {
                    "internalType": "bool",
                    "name": "_isSeller",
                    "type": "bool"
                },
                {
                    "internalType": "uint256[]",
                    "name": "_tokenIds",
                    "type": "uint256[]"
                },
                {
                    "internalType": "bytes",
                    "name": "_makerSig",
                    "type": "bytes"
                },
                {
                    "internalType": "bytes32",
                    "name": "_salt",
                    "type": "bytes32"
                }
            ],
            "name": "takeOffChainOrder721For",
            "outputs": [
                {
                    "internalType": "uint256",
                    "name": "orderId",
                    "type": "uint256"
                }
            ],
            "stateMutability": "payable",
            "type": "function"
        },
        {
            "inputs": [
                {
                    "internalType": "address",
                    "name": "_forward",
                    "type": "address"
                },
                {
                    "internalType": "address",
                    "name": "_taker",
                    "type": "address"
                },
                {
                    "internalType": "uint256",
                    "name": "_orderId",
                    "type": "uint256"
                }
            ],
            "name": "takeOrderFor",
            "outputs": [],
            "stateMutability": "payable",
            "type": "function"
        },
        {
            "inputs": [],
            "name": "weth",
            "outputs": [
                {
                    "internalType": "address",
                    "name": "",
                    "type": "address"
                }
            ],
            "stateMutability": "view",
            "type": "function"
        },
        {
            "stateMutability": "payable",
            "type": "receive"
        }
    ],
    "bytecode": "0x60806040523480156200001157600080fd5b5060405162002cdb38038062002cdb83398101604081905262000034916200005a565b600080546001600160a01b0319166001600160a01b03929092169190911790556200008a565b6000602082840312156200006c578081fd5b81516001600160a01b038116811462000083578182fd5b9392505050565b612c41806200009a6000396000f3fe60806040526004361061010d5760003560e01c806355e514531161009557806395629d1e1161006457806395629d1e146102bc578063bb7390e2146102cf578063bc197c81146102e2578063c7323c681461030e578063f23a6e611461032e57600080fd5b806355e51453146102635780636a206137146102765780636ce110ef1461029657806377f4e2d6146102a957600080fd5b80632ad601c8116100dc5780632ad601c8146101c75780633297d4f2146101f55780633fc8cef3146102085780634026bc22146102305780635281ab981461024357600080fd5b806301ffc9a714610119578063150b7a021461014e57806315afd409146101925780631ccaf8a9146101b457600080fd5b3661011457005b600080fd5b34801561012557600080fd5b506101396101343660046127a7565b61035a565b60405190151581526020015b60405180910390f35b34801561015a57600080fd5b50610179610169366004612544565b630a85bd0160e11b949350505050565b6040516001600160e01b03199091168152602001610145565b34801561019e57600080fd5b506101b26101ad366004612760565b610391565b005b6101b26101c2366004612504565b6103ef565b3480156101d357600080fd5b506101e76101e2366004612232565b610706565b604051908152602001610145565b6101e7610203366004612271565b610779565b34801561021457600080fd5b506000546040516001600160a01b039091168152602001610145565b6101e761023e366004612613565b610bb2565b34801561024f57600080fd5b506101b261025e366004612713565b610ff1565b6101e76102713660046122f8565b611040565b34801561028257600080fd5b506101b2610291366004612760565b6114b7565b6101b26102a4366004612504565b6114e4565b6101b26102b7366004612409565b6118d7565b6101e76102ca3660046123a4565b611ae5565b6101b26102dd366004612409565b611d39565b3480156102ee57600080fd5b506101796102fd366004612468565b63bc197c8160e01b95945050505050565b34801561031a57600080fd5b506101b2610329366004612713565b612028565b34801561033a57600080fd5b506101796103493660046125ad565b63f23a6e6160e01b95945050505050565b60006001600160e01b03198216630271189760e51b148061038b57506301ffc9a760e01b6001600160e01b03198316145b92915050565b6040516211bf0560eb1b8152600481018290526001600160a01b03831690638df82800906024015b600060405180830381600087803b1580156103d357600080fd5b505af11580156103e7573d6000803e3d6000fd5b505050505050565b60008054906101000a90046001600160a01b03166001600160a01b0316836001600160a01b0316638f76691a6040518163ffffffff1660e01b815260040160206040518083038186803b15801561044557600080fd5b505afa158015610459573d6000803e3d6000fd5b505050506040513d601f19601f8201168201806040525081019061047d9190612255565b6001600160a01b0316146104ac5760405162461bcd60e51b81526004016104a390612b04565b60405180910390fd5b341561051a5760008054906101000a90046001600160a01b03166001600160a01b031663d0e30db0346040518263ffffffff1660e01b81526004016000604051808303818588803b15801561050057600080fd5b505af1158015610514573d6000803e3d6000fd5b50505050505b604051630f1f8a7b60e31b81526001600160a01b038381166004830152602482018390528416906378fc53d890604401600060405180830381600087803b15801561056457600080fd5b505af1158015610578573d6000803e3d6000fd5b5050600080546040516370a0823160e01b81523060048201529193506001600160a01b031691506370a08231906024015b60206040518083038186803b1580156105c157600080fd5b505afa1580156105d5573d6000803e3d6000fd5b505050506040513d601f19601f820116820180604052508101906105f991906128ba565b1115610701576000546040516370a0823160e01b81523060048201526001600160a01b0390911690632e1a7d4d9082906370a082319060240160206040518083038186803b15801561064a57600080fd5b505afa15801561065e573d6000803e3d6000fd5b505050506040513d601f19601f8201168201806040525081019061068291906128ba565b6040518263ffffffff1660e01b81526004016106a091815260200190565b600060405180830381600087803b1580156106ba57600080fd5b505af11580156106ce573d6000803e3d6000fd5b50506040513392504780156108fc029250906000818181858888f193505050501580156106ff573d6000803e3d6000fd5b505b505050565b6000816001600160a01b031663be8acd3f6040518163ffffffff1660e01b815260040160206040518083038186803b15801561074157600080fd5b505afa158015610755573d6000803e3d6000fd5b505050506040513d601f19601f8201168201806040525081019061038b91906128ba565b60008054604080516347bb348d60e11b815290516001600160a01b0392831692891691638f76691a916004808301926020929190829003018186803b1580156107c157600080fd5b505afa1580156107d5573d6000803e3d6000fd5b505050506040513d601f19601f820116820180604052508101906107f99190612255565b6001600160a01b03161461081f5760405162461bcd60e51b81526004016104a390612b04565b60008054906101000a90046001600160a01b03166001600160a01b031663d0e30db0346040518263ffffffff1660e01b81526004016000604051808303818588803b15801561086d57600080fd5b505af1158015610881573d6000803e3d6000fd5b505060008054604051636eb1769f60e11b81523060048201526001600160a01b038c811660248301529295509116925063dd62ed3e915060440160206040518083038186803b1580156108d357600080fd5b505afa1580156108e7573d6000803e3d6000fd5b505050506040513d601f19601f8201168201806040525081019061090b91906128ba565b90508061099b5760005460405163095ea7b360e01b81526001600160a01b03898116600483015260001960248301529091169063095ea7b390604401602060405180830381600087803b15801561096157600080fd5b505af1158015610975573d6000803e3d6000fd5b505050506040513d601f19601f82011682018060405250810190610999919061278b565b505b6040516330a4a79360e11b81526001600160a01b038816906361494f26906109cd90899089908990899060040161292f565b602060405180830381600087803b1580156109e757600080fd5b505af11580156109fb573d6000803e3d6000fd5b505050506040513d601f19601f82011682018060405250810190610a1f91906128ba565b600080546040516370a0823160e01b815230600482015292945090916001600160a01b03909116906370a082319060240160206040518083038186803b158015610a6857600080fd5b505afa158015610a7c573d6000803e3d6000fd5b505050506040513d601f19601f82011682018060405250810190610aa091906128ba565b1115610ba8576000546040516370a0823160e01b81523060048201526001600160a01b0390911690632e1a7d4d9082906370a082319060240160206040518083038186803b158015610af157600080fd5b505afa158015610b05573d6000803e3d6000fd5b505050506040513d601f19601f82011682018060405250810190610b2991906128ba565b6040518263ffffffff1660e01b8152600401610b4791815260200190565b600060405180830381600087803b158015610b6157600080fd5b505af1158015610b75573d6000803e3d6000fd5b50506040513392504780156108fc029250906000818181858888f19350505050158015610ba6573d6000803e3d6000fd5b505b5095945050505050565b60008054604080516347bb348d60e11b815290516001600160a01b03928316928b1691638f76691a916004808301926020929190829003018186803b158015610bfa57600080fd5b505afa158015610c0e573d6000803e3d6000fd5b505050506040513d601f19601f82011682018060405250810190610c329190612255565b6001600160a01b031614610c585760405162461bcd60e51b81526004016104a390612b04565b60008054906101000a90046001600160a01b03166001600160a01b031663d0e30db0346040518263ffffffff1660e01b81526004016000604051808303818588803b158015610ca657600080fd5b505af1158015610cba573d6000803e3d6000fd5b505060008054604051636eb1769f60e11b81523060048201526001600160a01b038e811660248301529295509116925063dd62ed3e915060440160206040518083038186803b158015610d0c57600080fd5b505afa158015610d20573d6000803e3d6000fd5b505050506040513d601f19601f82011682018060405250810190610d4491906128ba565b905080610dd45760005460405163095ea7b360e01b81526001600160a01b038b8116600483015260001960248301529091169063095ea7b390604401602060405180830381600087803b158015610d9a57600080fd5b505af1158015610dae573d6000803e3d6000fd5b505050506040513d601f19601f82011682018060405250810190610dd2919061278b565b505b604051631466b3d760e01b81526001600160a01b038a1690631466b3d790610e0a908b908b908b908b908b908b906004016129fe565b602060405180830381600087803b158015610e2457600080fd5b505af1158015610e38573d6000803e3d6000fd5b505050506040513d601f19601f82011682018060405250810190610e5c91906128ba565b600080546040516370a0823160e01b815230600482015292945090916001600160a01b03909116906370a082319060240160206040518083038186803b158015610ea557600080fd5b505afa158015610eb9573d6000803e3d6000fd5b505050506040513d601f19601f82011682018060405250810190610edd91906128ba565b1115610fe5576000546040516370a0823160e01b81523060048201526001600160a01b0390911690632e1a7d4d9082906370a082319060240160206040518083038186803b158015610f2e57600080fd5b505afa158015610f42573d6000803e3d6000fd5b505050506040513d601f19601f82011682018060405250810190610f6691906128ba565b6040518263ffffffff1660e01b8152600401610f8491815260200190565b600060405180830381600087803b158015610f9e57600080fd5b505af1158015610fb2573d6000803e3d6000fd5b50506040513392504780156108fc029250906000818181858888f19350505050158015610fe3573d6000803e3d6000fd5b505b50979650505050505050565b60005b81518110156107015761102e8383838151811061102157634e487b7160e01b600052603260045260246000fd5b6020026020010151610391565b8061103881612ba8565b915050610ff4565b60008054604080516347bb348d60e11b815290516001600160a01b03928316928a1691638f76691a916004808301926020929190829003018186803b15801561108857600080fd5b505afa15801561109c573d6000803e3d6000fd5b505050506040513d601f19601f820116820180604052508101906110c09190612255565b6001600160a01b0316146110e65760405162461bcd60e51b81526004016104a390612b04565b81518351146111215760405162461bcd60e51b8152602060048201526007602482015266042d8cadccee8d60cb1b60448201526064016104a3565b60008054906101000a90046001600160a01b03166001600160a01b031663d0e30db0346040518263ffffffff1660e01b81526004016000604051808303818588803b15801561116f57600080fd5b505af1158015611183573d6000803e3d6000fd5b505060008054604051636eb1769f60e11b81523060048201526001600160a01b038d811660248301529295509116925063dd62ed3e915060440160206040518083038186803b1580156111d557600080fd5b505afa1580156111e9573d6000803e3d6000fd5b505050506040513d601f19601f8201168201806040525081019061120d91906128ba565b90508061129d5760005460405163095ea7b360e01b81526001600160a01b038a8116600483015260001960248301529091169063095ea7b390604401602060405180830381600087803b15801561126357600080fd5b505af1158015611277573d6000803e3d6000fd5b505050506040513d601f19601f8201168201806040525081019061129b919061278b565b505b6040516302ae78c160e01b81526001600160a01b038916906302ae78c1906112d1908a908a908a908a908a90600401612973565b602060405180830381600087803b1580156112eb57600080fd5b505af11580156112ff573d6000803e3d6000fd5b505050506040513d601f19601f8201168201806040525081019061132391906128ba565b600080546040516370a0823160e01b815230600482015292945090916001600160a01b03909116906370a082319060240160206040518083038186803b15801561136c57600080fd5b505afa158015611380573d6000803e3d6000fd5b505050506040513d601f19601f820116820180604052508101906113a491906128ba565b11156114ac576000546040516370a0823160e01b81523060048201526001600160a01b0390911690632e1a7d4d9082906370a082319060240160206040518083038186803b1580156113f557600080fd5b505afa158015611409573d6000803e3d6000fd5b505050506040513d601f19601f8201168201806040525081019061142d91906128ba565b6040518263ffffffff1660e01b815260040161144b91815260200190565b600060405180830381600087803b15801561146557600080fd5b505af1158015611479573d6000803e3d6000fd5b50506040513392504780156108fc029250906000818181858888f193505050501580156114aa573d6000803e3d6000fd5b505b509695505050505050565b60405163514fcac760e01b8152600481018290526001600160a01b0383169063514fcac7906024016103b9565b60008054906101000a90046001600160a01b03166001600160a01b0316836001600160a01b0316638f76691a6040518163ffffffff1660e01b815260040160206040518083038186803b15801561153a57600080fd5b505afa15801561154e573d6000803e3d6000fd5b505050506040513d601f19601f820116820180604052508101906115729190612255565b6001600160a01b0316146115985760405162461bcd60e51b81526004016104a390612b04565b34156116065760008054906101000a90046001600160a01b03166001600160a01b031663d0e30db0346040518263ffffffff1660e01b81526004016000604051808303818588803b1580156115ec57600080fd5b505af1158015611600573d6000803e3d6000fd5b50505050505b60405163d09ef24160e01b8152600481018290526000906001600160a01b0385169063d09ef241906024016101806040518083038186803b15801561164a57600080fd5b505afa15801561165e573d6000803e3d6000fd5b505050506040513d601f19601f8201168201806040525081019061168291906127cf565b905080610140015180156116ab575080602001516001600160a01b0316836001600160a01b0316145b806116d057508061014001511580156116d0575080516001600160a01b038481169116145b6116ec5760405162461bcd60e51b81526004016104a390612abb565b604051630383730960e41b81526001600160a01b03848116600483015260248201849052851690633837309090604401600060405180830381600087803b15801561173657600080fd5b505af115801561174a573d6000803e3d6000fd5b5050600080546040516370a0823160e01b81523060048201529193506001600160a01b031691506370a082319060240160206040518083038186803b15801561179257600080fd5b505afa1580156117a6573d6000803e3d6000fd5b505050506040513d601f19601f820116820180604052508101906117ca91906128ba565b11156106ff576000546040516370a0823160e01b81523060048201526001600160a01b0390911690632e1a7d4d9082906370a082319060240160206040518083038186803b15801561181b57600080fd5b505afa15801561182f573d6000803e3d6000fd5b505050506040513d601f19601f8201168201806040525081019061185391906128ba565b6040518263ffffffff1660e01b815260040161187191815260200190565b600060405180830381600087803b15801561188b57600080fd5b505af115801561189f573d6000803e3d6000fd5b50506040513392504780156108fc029250906000818181858888f193505050501580156118d0573d6000803e3d6000fd5b5050505050565b60008054906101000a90046001600160a01b03166001600160a01b0316836001600160a01b0316638f76691a6040518163ffffffff1660e01b815260040160206040518083038186803b15801561192d57600080fd5b505afa158015611941573d6000803e3d6000fd5b505050506040513d601f19601f820116820180604052508101906119659190612255565b6001600160a01b03161461198b5760405162461bcd60e51b81526004016104a390612b04565b34156119f95760008054906101000a90046001600160a01b03166001600160a01b031663d0e30db0346040518263ffffffff1660e01b81526004016000604051808303818588803b1580156119df57600080fd5b505af11580156119f3573d6000803e3d6000fd5b50505050505b60005b8151811015611ab357836001600160a01b03166378fc53d884848481518110611a3557634e487b7160e01b600052603260045260246000fd5b60200260200101516040518363ffffffff1660e01b8152600401611a6e9291906001600160a01b03929092168252602082015260400190565b600060405180830381600087803b158015611a8857600080fd5b505af1158015611a9c573d6000803e3d6000fd5b505050508080611aab90612ba8565b9150506119fc565b50600080546040516370a0823160e01b81523060048201526001600160a01b03909116906370a08231906024016105a9565b60008054604080516347bb348d60e11b815290516001600160a01b0392831692891691638f76691a916004808301926020929190829003018186803b158015611b2d57600080fd5b505afa158015611b41573d6000803e3d6000fd5b505050506040513d601f19601f82011682018060405250810190611b659190612255565b6001600160a01b031614611b8b5760405162461bcd60e51b81526004016104a390612b04565b60008054906101000a90046001600160a01b03166001600160a01b031663d0e30db0346040518263ffffffff1660e01b81526004016000604051808303818588803b158015611bd957600080fd5b505af1158015611bed573d6000803e3d6000fd5b505060008054604051636eb1769f60e11b81523060048201526001600160a01b038c811660248301529295509116925063dd62ed3e915060440160206040518083038186803b158015611c3f57600080fd5b505afa158015611c53573d6000803e3d6000fd5b505050506040513d601f19601f82011682018060405250810190611c7791906128ba565b905080611d075760005460405163095ea7b360e01b81526001600160a01b03898116600483015260001960248301529091169063095ea7b390604401602060405180830381600087803b158015611ccd57600080fd5b505af1158015611ce1573d6000803e3d6000fd5b505050506040513d601f19601f82011682018060405250810190611d05919061278b565b505b604051630673d09960e01b81526001600160a01b03881690630673d099906109cd9089908990899089906004016129cd565b60008054906101000a90046001600160a01b03166001600160a01b0316836001600160a01b0316638f76691a6040518163ffffffff1660e01b815260040160206040518083038186803b158015611d8f57600080fd5b505afa158015611da3573d6000803e3d6000fd5b505050506040513d601f19601f82011682018060405250810190611dc79190612255565b6001600160a01b031614611ded5760405162461bcd60e51b81526004016104a390612b04565b3415611e5b5760008054906101000a90046001600160a01b03166001600160a01b031663d0e30db0346040518263ffffffff1660e01b81526004016000604051808303818588803b158015611e4157600080fd5b505af1158015611e55573d6000803e3d6000fd5b50505050505b60005b8151811015611ab3576000846001600160a01b031663d09ef241848481518110611e9857634e487b7160e01b600052603260045260246000fd5b60200260200101516040518263ffffffff1660e01b8152600401611ebe91815260200190565b6101806040518083038186803b158015611ed757600080fd5b505afa158015611eeb573d6000803e3d6000fd5b505050506040513d601f19601f82011682018060405250810190611f0f91906127cf565b90508061014001518015611f38575080602001516001600160a01b0316846001600160a01b0316145b80611f5d5750806101400151158015611f5d575080516001600160a01b038581169116145b611f795760405162461bcd60e51b81526004016104a390612abb565b846001600160a01b0316633837309085858581518110611fa957634e487b7160e01b600052603260045260246000fd5b60200260200101516040518363ffffffff1660e01b8152600401611fe29291906001600160a01b03929092168252602082015260400190565b600060405180830381600087803b158015611ffc57600080fd5b505af1158015612010573d6000803e3d6000fd5b5050505050808061202090612ba8565b915050611e5e565b60005b8151811015610701576120658383838151811061205857634e487b7160e01b600052603260045260246000fd5b60200260200101516114b7565b8061206f81612ba8565b91505061202b565b805161208281612be5565b919050565b600082601f830112612097578081fd5b60405160c081018181106001600160401b03821117156120b9576120b9612bcf565b604052808360c081018610156120cd578384fd5b835b60068110156120ee5781358352602092830192909101906001016120cf565b509195945050505050565b600082601f830112612109578081fd5b813560206001600160401b0382111561212457612124612bcf565b8160051b612133828201612b78565b83815282810190868401838801850189101561214d578687fd5b8693505b85841015610fe5578035835260019390930192918401918401612151565b803561208281612bfd565b805161208281612bfd565b600082601f830112612195578081fd5b81356001600160401b038111156121ae576121ae612bcf565b6121c1601f8201601f1916602001612b78565b8181528460208386010111156121d5578283fd5b816020850160208301379081016020019190915292915050565b80516008811061208257600080fd5b80516fffffffffffffffffffffffffffffffff8116811461208257600080fd5b805163ffffffff8116811461208257600080fd5b600060208284031215612243578081fd5b813561224e81612be5565b9392505050565b600060208284031215612266578081fd5b815161224e81612be5565b60008060008060006101408688031215612289578081fd5b853561229481612be5565b945060208601356122a481612be5565b93506122b38760408801612087565b92506101008601356122c481612bfd565b91506101208601356001600160401b038111156122df578182fd5b6122eb888289016120f9565b9150509295509295909350565b6000806000806000806101608789031215612311578384fd5b863561231c81612be5565b9550602087013561232c81612be5565b945061233b8860408901612087565b935061010087013561234c81612bfd565b92506101208701356001600160401b0380821115612368578283fd5b6123748a838b016120f9565b935061014089013591508082111561238a578283fd5b5061239789828a016120f9565b9150509295509295509295565b600080600080600061014086880312156123bc578283fd5b85356123c781612be5565b945060208601356123d781612be5565b93506123e68760408801612087565b92506101008601356123f781612bfd565b94979396509194610120013592915050565b60008060006060848603121561241d578081fd5b833561242881612be5565b9250602084013561243881612be5565b915060408401356001600160401b03811115612452578182fd5b61245e868287016120f9565b9150509250925092565b600080600080600060a0868803121561247f578283fd5b853561248a81612be5565b9450602086013561249a81612be5565b935060408601356001600160401b03808211156124b5578485fd5b6124c189838a016120f9565b945060608801359150808211156124d6578283fd5b6124e289838a016120f9565b935060808801359150808211156124f7578283fd5b506122eb88828901612185565b600080600060608486031215612518578081fd5b833561252381612be5565b9250602084013561253381612be5565b929592945050506040919091013590565b60008060008060808587031215612559578182fd5b843561256481612be5565b9350602085013561257481612be5565b92506040850135915060608501356001600160401b03811115612595578182fd5b6125a187828801612185565b91505092959194509250565b600080600080600060a086880312156125c4578283fd5b85356125cf81612be5565b945060208601356125df81612be5565b9350604086013592506060860135915060808601356001600160401b03811115612607578182fd5b6122eb88828901612185565b60008060008060008060006101a0888a03121561262e578485fd5b873561263981612be5565b96506020603f89018a1361264b578586fd5b612653612b56565b80828b0160608c018d81111561266757898afd5b895b600281101561268f57823561267d81612be5565b85529385019391850191600101612669565b50829a5061269d8e82612087565b995050505050506126b1610120890161216f565b93506101408801356001600160401b03808211156126cd578283fd5b6126d98b838c016120f9565b94506101608a01359150808211156126ef578283fd5b506126fc8a828b01612185565b925050610180880135905092959891949750929550565b60008060408385031215612725578182fd5b823561273081612be5565b915060208301356001600160401b0381111561274a578182fd5b612756858286016120f9565b9150509250929050565b60008060408385031215612772578182fd5b823561277d81612be5565b946020939093013593505050565b60006020828403121561279c578081fd5b815161224e81612bfd565b6000602082840312156127b8578081fd5b81356001600160e01b03198116811461224e578182fd5b600061018082840312156127e1578081fd5b6127e9612b2d565b6127f283612077565b815261280060208401612077565b6020820152612811604084016121fe565b6040820152612822606084016121fe565b6060820152612833608084016121fe565b608082015261284460a0840161221e565b60a082015261285560c0840161221e565b60c082015261286660e0840161221e565b60e082015261010061287981850161217a565b9082015261012061288b84820161217a565b9082015261014061289d84820161217a565b908201526101606128af8482016121ef565b908201529392505050565b6000602082840312156128cb578081fd5b5051919050565b8060005b60068110156106ff5781518452602093840193909101906001016128d6565b6000815180845260208085019450808401835b8381101561292457815187529582019590820190600101612908565b509495945050505050565b6001600160a01b0385168152600061012061294d60208401876128d2565b84151560e084015280610100840152612968818401856128f5565b979650505050505050565b6001600160a01b0386168152600061014061299160208401886128d2565b85151560e0840152806101008401526129ac818401866128f5565b90508281036101208401526129c181856128f5565b98975050505050505050565b6001600160a01b038516815261012081016129eb60208301866128d2565b92151560e0820152610100015292915050565b60006101808289835b6002811015612a2f5781516001600160a01b0316835260209283019290910190600101612a07565b505050612a3f60408401896128d2565b86151561010084015280610120840152612a5b818401876128f5565b90508281036101408401528451808252825b81811015612a8957602081880181015184830182015201612a6d565b81811115612a9a5783602083850101525b50610160939093019390935250601f01601f19160160200195945050505050565b60208082526029908201527f73656c6c65722063616e20696e746572616374207769746820666f7277617264604082015268206469726563746c7960b81b606082015260800190565b6020808252600f908201526e0dac2e4ced2dc40dcdee840eecae8d608b1b604082015260600190565b60405161018081016001600160401b0381118282101715612b5057612b50612bcf565b60405290565b604080519081016001600160401b0381118282101715612b5057612b50612bcf565b604051601f8201601f191681016001600160401b0381118282101715612ba057612ba0612bcf565b604052919050565b6000600019821415612bc857634e487b7160e01b81526011600452602481fd5b5060010190565b634e487b7160e01b600052604160045260246000fd5b6001600160a01b0381168114612bfa57600080fd5b50565b8015158114612bfa57600080fdfea2646970667358221220372559ba860ee11379f65ba921a896f7c104bb449ddebcee1394e31e88d8710364736f6c63430008040033",
    "linkReferences": {},
    "deployedLinkReferences": {}
}