{
  "_format": "hh-sol-artifact-1",
  "contractName": "Forward20Upgradeable",
  "sourceName": "contracts/forward/Forward20Upgradeable.sol",
  "abi": [
    {
      "anonymous": false,
      "inputs": [
        {
          "indexed": false,
          "internalType": "uint256",
          "name": "orderId",
          "type": "uint256"
        }
      ],
      "name": "CancelOrder",
      "type": "event"
    },
    {
      "anonymous": false,
      "inputs": [
        {
          "indexed": false,
          "internalType": "uint256",
          "name": "orderId",
          "type": "uint256"
        }
      ],
      "name": "CreateOrder",
      "type": "event"
    },
    {
      "anonymous": false,
      "inputs": [
        {
          "indexed": false,
          "internalType": "uint256",
          "name": "orderId",
          "type": "uint256"
        }
      ],
      "name": "Delivery",
      "type": "event"
    },
    {
      "anonymous": false,
      "inputs": [
        {
          "indexed": false,
          "internalType": "uint256",
          "name": "orderId",
          "type": "uint256"
        }
      ],
      "name": "Settle",
      "type": "event"
    },
    {
      "anonymous": false,
      "inputs": [
        {
          "indexed": false,
          "internalType": "uint256",
          "name": "orderId",
          "type": "uint256"
        }
      ],
      "name": "TakeOrder",
      "type": "event"
    },
    {
      "inputs": [
        {
          "internalType": "address",
          "name": "_want",
          "type": "address"
        },
        {
          "internalType": "address",
          "name": "_margin",
          "type": "address"
        }
      ],
      "name": "__BaseForward__init",
      "outputs": [],
      "stateMutability": "nonpayable",
      "type": "function"
    },
    {
      "inputs": [
        {
          "internalType": "address",
          "name": "_want",
          "type": "address"
        },
        {
          "internalType": "uint256",
          "name": "_poolType",
          "type": "uint256"
        },
        {
          "internalType": "address",
          "name": "_margin",
          "type": "address"
        }
      ],
      "name": "__Forward20Upgradeable__init",
      "outputs": [],
      "stateMutability": "nonpayable",
      "type": "function"
    },
    {
      "inputs": [],
      "name": "available",
      "outputs": [
        {
          "internalType": "uint256",
          "name": "",
          "type": "uint256"
        }
      ],
      "stateMutability": "view",
      "type": "function"
    },
    {
      "inputs": [],
      "name": "balance",
      "outputs": [
        {
          "internalType": "uint256",
          "name": "",
          "type": "uint256"
        }
      ],
      "stateMutability": "view",
      "type": "function"
    },
    {
      "inputs": [],
      "name": "balanceSavingsInFVault",
      "outputs": [
        {
          "internalType": "uint256",
          "name": "",
          "type": "uint256"
        }
      ],
      "stateMutability": "view",
      "type": "function"
    },
    {
      "inputs": [
        {
          "internalType": "uint256",
          "name": "_orderId",
          "type": "uint256"
        }
      ],
      "name": "cancelOrder",
      "outputs": [],
      "stateMutability": "nonpayable",
      "type": "function"
    },
    {
      "inputs": [],
      "name": "cfee",
      "outputs": [
        {
          "internalType": "uint256",
          "name": "",
          "type": "uint256"
        }
      ],
      "stateMutability": "view",
      "type": "function"
    },
    {
      "inputs": [
        {
          "internalType": "uint256",
          "name": "_orderId",
          "type": "uint256"
        }
      ],
      "name": "checkOrderState",
      "outputs": [
        {
          "internalType": "enum BaseForwardUpgradeable.State",
          "name": "",
          "type": "uint8"
        }
      ],
      "stateMutability": "view",
      "type": "function"
    },
    {
      "inputs": [
        {
          "internalType": "address",
          "name": "_to",
          "type": "address"
        }
      ],
      "name": "collectFee",
      "outputs": [],
      "stateMutability": "nonpayable",
      "type": "function"
    },
    {
      "inputs": [
        {
          "internalType": "address",
          "name": "_creator",
          "type": "address"
        },
        {
          "internalType": "uint256",
          "name": "_underlyingAmount",
          "type": "uint256"
        },
        {
          "internalType": "uint256[]",
          "name": "_times",
          "type": "uint256[]"
        },
        {
          "internalType": "uint256[]",
          "name": "_prices",
          "type": "uint256[]"
        },
        {
          "internalType": "address[]",
          "name": "_takerWhiteList",
          "type": "address[]"
        },
        {
          "internalType": "bool",
          "name": "_deposit",
          "type": "bool"
        },
        {
          "internalType": "bool",
          "name": "_isSeller",
          "type": "bool"
        }
      ],
      "name": "createOrderFor",
      "outputs": [],
      "stateMutability": "nonpayable",
      "type": "function"
    },
    {
      "inputs": [
        {
          "internalType": "address",
          "name": "_deliverer",
          "type": "address"
        },
        {
          "internalType": "uint256",
          "name": "_orderId",
          "type": "uint256"
        }
      ],
      "name": "deliverFor",
      "outputs": [],
      "stateMutability": "nonpayable",
      "type": "function"
    },
    {
      "inputs": [],
      "name": "eth",
      "outputs": [
        {
          "internalType": "address",
          "name": "",
          "type": "address"
        }
      ],
      "stateMutability": "view",
      "type": "function"
    },
    {
      "inputs": [],
      "name": "fVault",
      "outputs": [
        {
          "internalType": "address",
          "name": "",
          "type": "address"
        }
      ],
      "stateMutability": "view",
      "type": "function"
    },
    {
      "inputs": [],
      "name": "factory",
      "outputs": [
        {
          "internalType": "address",
          "name": "",
          "type": "address"
        }
      ],
      "stateMutability": "view",
      "type": "function"
    },
    {
      "inputs": [
        {
          "internalType": "uint256",
          "name": "_orderId",
          "type": "uint256"
        }
      ],
      "name": "getBuyerAmountToDeliver",
      "outputs": [
        {
          "internalType": "uint256",
          "name": "price",
          "type": "uint256"
        }
      ],
      "stateMutability": "view",
      "type": "function"
    },
    {
      "inputs": [
        {
          "internalType": "uint256",
          "name": "_orderId",
          "type": "uint256"
        }
      ],
      "name": "getOrder",
      "outputs": [
        {
          "components": [
            {
              "internalType": "uint128",
              "name": "buyerMargin",
              "type": "uint128"
            },
            {
              "internalType": "uint128",
              "name": "sellerMargin",
              "type": "uint128"
            },
            {
              "internalType": "uint128",
              "name": "buyerShare",
              "type": "uint128"
            },
            {
              "internalType": "uint128",
              "name": "sellerShare",
              "type": "uint128"
            },
            {
              "internalType": "uint128",
              "name": "deliveryPrice",
              "type": "uint128"
            },
            {
              "internalType": "uint40",
              "name": "validTill",
              "type": "uint40"
            },
            {
              "internalType": "uint40",
              "name": "deliverStart",
              "type": "uint40"
            },
            {
              "internalType": "uint40",
              "name": "expireStart",
              "type": "uint40"
            },
            {
              "internalType": "address",
              "name": "buyer",
              "type": "address"
            },
            {
              "internalType": "address",
              "name": "seller",
              "type": "address"
            },
            {
              "internalType": "bool",
              "name": "buyerDelivered",
              "type": "bool"
            },
            {
              "internalType": "bool",
              "name": "sellerDelivered",
              "type": "bool"
            },
            {
              "internalType": "enum BaseForwardUpgradeable.State",
              "name": "state",
              "type": "uint8"
            },
            {
              "internalType": "address[]",
              "name": "takerWhiteList",
              "type": "address[]"
            }
          ],
          "internalType": "struct BaseForwardUpgradeable.Order",
          "name": "order",
          "type": "tuple"
        }
      ],
      "stateMutability": "view",
      "type": "function"
    },
    {
      "inputs": [],
      "name": "getPricePerFullShare",
      "outputs": [
        {
          "internalType": "uint256",
          "name": "",
          "type": "uint256"
        }
      ],
      "stateMutability": "view",
      "type": "function"
    },
    {
      "inputs": [],
      "name": "margin",
      "outputs": [
        {
          "internalType": "address",
          "name": "",
          "type": "address"
        }
      ],
      "stateMutability": "view",
      "type": "function"
    },
    {
      "inputs": [
        {
          "internalType": "uint256",
          "name": "",
          "type": "uint256"
        }
      ],
      "name": "orders",
      "outputs": [
        {
          "internalType": "uint128",
          "name": "buyerMargin",
          "type": "uint128"
        },
        {
          "internalType": "uint128",
          "name": "sellerMargin",
          "type": "uint128"
        },
        {
          "internalType": "uint128",
          "name": "buyerShare",
          "type": "uint128"
        },
        {
          "internalType": "uint128",
          "name": "sellerShare",
          "type": "uint128"
        },
        {
          "internalType": "uint128",
          "name": "deliveryPrice",
          "type": "uint128"
        },
        {
          "internalType": "uint40",
          "name": "validTill",
          "type": "uint40"
        },
        {
          "internalType": "uint40",
          "name": "deliverStart",
          "type": "uint40"
        },
        {
          "internalType": "uint40",
          "name": "expireStart",
          "type": "uint40"
        },
        {
          "internalType": "address",
          "name": "buyer",
          "type": "address"
        },
        {
          "internalType": "address",
          "name": "seller",
          "type": "address"
        },
        {
          "internalType": "bool",
          "name": "buyerDelivered",
          "type": "bool"
        },
        {
          "internalType": "bool",
          "name": "sellerDelivered",
          "type": "bool"
        },
        {
          "internalType": "enum BaseForwardUpgradeable.State",
          "name": "state",
          "type": "uint8"
        }
      ],
      "stateMutability": "view",
      "type": "function"
    },
    {
      "inputs": [],
      "name": "ordersLength",
      "outputs": [
        {
          "internalType": "uint256",
          "name": "",
          "type": "uint256"
        }
      ],
      "stateMutability": "view",
      "type": "function"
    },
    {
      "inputs": [],
      "name": "pause",
      "outputs": [],
      "stateMutability": "nonpayable",
      "type": "function"
    },
    {
      "inputs": [],
      "name": "paused",
      "outputs": [
        {
          "internalType": "bool",
          "name": "",
          "type": "bool"
        }
      ],
      "stateMutability": "view",
      "type": "function"
    },
    {
      "inputs": [],
      "name": "ratio",
      "outputs": [
        {
          "internalType": "uint256",
          "name": "",
          "type": "uint256"
        }
      ],
      "stateMutability": "view",
      "type": "function"
    },
    {
      "inputs": [
        {
          "internalType": "address",
          "name": "_fVault",
          "type": "address"
        }
      ],
      "name": "setForwardVault",
      "outputs": [],
      "stateMutability": "nonpayable",
      "type": "function"
    },
    {
      "inputs": [
        {
          "internalType": "uint256",
          "name": "_orderId",
          "type": "uint256"
        }
      ],
      "name": "settle",
      "outputs": [],
      "stateMutability": "nonpayable",
      "type": "function"
    },
    {
      "inputs": [
        {
          "internalType": "address",
          "name": "_taker",
          "type": "address"
        },
        {
          "internalType": "uint256",
          "name": "_orderId",
          "type": "uint256"
        }
      ],
      "name": "takeOrderFor",
      "outputs": [],
      "stateMutability": "nonpayable",
      "type": "function"
    },
    {
      "inputs": [
        {
          "internalType": "uint256",
          "name": "",
          "type": "uint256"
        }
      ],
      "name": "underlyingAssets",
      "outputs": [
        {
          "internalType": "uint256",
          "name": "",
          "type": "uint256"
        }
      ],
      "stateMutability": "view",
      "type": "function"
    },
    {
      "inputs": [],
      "name": "unpause",
      "outputs": [],
      "stateMutability": "nonpayable",
      "type": "function"
    },
    {
      "inputs": [],
      "name": "version",
      "outputs": [
        {
          "internalType": "string",
          "name": "",
          "type": "string"
        }
      ],
      "stateMutability": "view",
      "type": "function"
    },
    {
      "inputs": [],
      "name": "want",
      "outputs": [
        {
          "internalType": "address",
          "name": "",
          "type": "address"
        }
      ],
      "stateMutability": "view",
      "type": "function"
    },
    {
      "inputs": [
        {
          "internalType": "address",
          "name": "_token",
          "type": "address"
        },
        {
          "internalType": "address",
          "name": "_to",
          "type": "address"
        }
      ],
      "name": "withdrawOther",
      "outputs": [],
      "stateMutability": "nonpayable",
      "type": "function"
    }
  ],
  "bytecode": "0x608060405234801561001057600080fd5b50614561806100206000396000f3fe608060405234801561001057600080fd5b50600436106101e55760003560e01c806378fc53d81161010f578063a85c38ef116100a2578063c45a015511610071578063c45a015514610483578063d09ef2411461049c578063e16e2d66146104bc578063f2bfea62146104cf57600080fd5b8063a85c38ef1461039e578063b48985c81461045f578063b69ef8a814610472578063be8acd3f1461047a57600080fd5b80638d30a687116100de5780638d30a687146103525780638df82800146103655780638f76691a14610378578063a15e5fd91461038b57600080fd5b806378fc53d8146103115780637e9a152c146103245780638456cb59146103375780638c7c9e0c1461033f57600080fd5b8063514fcac71161018757806369b59e751161015657806369b59e75146102da57806371ca337d146102ed57806374525de0146102f657806377c7b8fc1461030957600080fd5b8063514fcac71461027c578063527811731461028f57806354fd4d50146102975780635c975abb146102bd57600080fd5b806338373090116101c357806338373090146102465780633b50c4d1146102595780633f4ba83a1461026c57806348a0d7541461027457600080fd5b80631045bfc1146101ea5780631f1fcd51146101ff5780633235029e1461022f575b600080fd5b6101fd6101f8366004613e80565b6104ef565b005b600154610212906001600160a01b031681565b6040516001600160a01b0390911681526020015b60405180910390f35b61023860055481565b604051908152602001610226565b6101fd610254366004613eb8565b610677565b610238610267366004614065565b6106f0565b6101fd610711565b610238610725565b6101fd61028a366004614065565b6107a6565b610238610819565b6040805180820182526004815263076312e360e41b602082015290516102269190614147565b6008546102ca9060ff1681565b6040519015158152602001610226565b6101fd6102e8366004613e48565b61094f565b61023860065481565b6101fd610304366004613ee3565b610a49565b610238610af8565b6101fd61031f366004613eb8565b610bb1565b610238610332366004614065565b610c24565b6101fd610ea3565b600454610212906001600160a01b031681565b6101fd610360366004613f24565b610eba565b6101fd610373366004614065565b610f33565b600254610212906001600160a01b031681565b6101fd610399366004613e48565b610fa8565b6104466103ac366004614065565b600960205260009081526040902080546001820154600283015460038401546004909401546001600160801b0380851695600160801b95869004821695858316958190048316949283169364ffffffffff918404821693600160a81b808204841694600160d01b909204909316926001600160a01b03918216929182169160ff600160a01b82048116928204811691600160b01b9004168d565b6040516102269d9c9b9a9998979695949392919061432d565b600354610212906001600160a01b031681565b6102386115b8565b61023860075481565b600054610212906201000090046001600160a01b031681565b6104af6104aa366004614065565b6115d3565b60405161022691906141e7565b6101fd6104ca366004613e80565b6117db565b6104e26104dd366004614065565b6119a2565b6040516102269190614139565b600054610100900460ff1680610508575060005460ff16155b61052d5760405162461bcd60e51b815260040161052490614199565b60405180910390fd5b600054610100900460ff1615801561054f576000805461ffff19166101011790555b6000805462010000600160b01b0319163362010000908102919091179182905560405163efb5f11360e01b81526001600160a01b038581166004830152919092041690819063efb5f1139060240160206040518083038186803b1580156105b557600080fd5b505afa1580156105c9573d6000803e3d6000fd5b505050506040513d601f19601f820116820180604052508101906105ed9190614049565b6106235760405162461bcd60e51b815260206004820152600760248201526610b6b0b933b4b760c91b6044820152606401610524565b50600180546001600160a01b038086166001600160a01b0319928316179092556002805492851692909116919091179055670de0b6b3a76400006006558015610672576000805461ff00191690555b505050565b61067f611ca4565b600461068a826119a2565b60078111156106a957634e487b7160e01b600052602160045260246000fd5b146106e25760405162461bcd60e51b81526020600482015260096024820152682164656c697665727960b81b6044820152606401610524565b6106ec8282611ce2565b5050565b600a818154811061070057600080fd5b600091825260209091200154905081565b6107196120c4565b6008805460ff19169055565b6002546040516370a0823160e01b81523060048201526000916001600160a01b0316906370a082319060240160206040518083038186803b15801561076957600080fd5b505afa15801561077d573d6000803e3d6000fd5b505050506040513d601f19601f820116820180604052508101906107a1919061407d565b905090565b6107ae611ca4565b60036107b9826119a2565b60078111156107d857634e487b7160e01b600052602160045260246000fd5b1461080d5760405162461bcd60e51b8152602060048201526005602482015264085919585960da1b6044820152606401610524565b6108168161210f565b50565b6003546000906001600160a01b031615610949576107a1670de0b6b3a7640000610943600360009054906101000a90046001600160a01b03166001600160a01b03166377c7b8fc6040518163ffffffff1660e01b815260040160206040518083038186803b15801561088a57600080fd5b505afa15801561089e573d6000803e3d6000fd5b505050506040513d601f19601f820116820180604052508101906108c2919061407d565b6003546040516370a0823160e01b81523060048201526001600160a01b03909116906370a082319060240160206040518083038186803b15801561090557600080fd5b505afa158015610919573d6000803e3d6000fd5b505050506040513d601f19601f8201168201806040525081019061093d919061407d565b906123dd565b906123f2565b50600090565b60008060029054906101000a90046001600160a01b03166001600160a01b031663c415b95c6040518163ffffffff1660e01b815260040160206040518083038186803b15801561099e57600080fd5b505afa1580156109b2573d6000803e3d6000fd5b505050506040513d601f19601f820116820180604052508101906109d69190613e64565b6000549091506201000090046001600160a01b0316331480610a005750336001600160a01b038216145b610a345760405162461bcd60e51b8152602060048201526005602482015264042c2eae8d60db1b6044820152606401610524565b610a40826005546123fe565b50506000600555565b600054610100900460ff1680610a62575060005460ff16155b610a7e5760405162461bcd60e51b815260040161052490614199565b600054610100900460ff16158015610aa0576000805461ffff19166101011790555b610aaa84836104ef565b82601414610ae05760405162461bcd60e51b815260206004820152600360248201526202132360ec1b6044820152606401610524565b8015610af2576000805461ff00191690555b50505050565b6003546000906001600160a01b031615610baa576107a1670de0b6b3a7640000610943600360009054906101000a90046001600160a01b03166001600160a01b03166377c7b8fc6040518163ffffffff1660e01b815260040160206040518083038186803b158015610b6957600080fd5b505afa158015610b7d573d6000803e3d6000fd5b505050506040513d601f19601f82011682018060405250810190610ba1919061407d565b600654906123dd565b5060065490565b610bb9611ca4565b6001610bc4826119a2565b6007811115610be357634e487b7160e01b600052602160045260246000fd5b14610c1a5760405162461bcd60e51b81526020600482015260076024820152662161637469766560c81b6044820152606401610524565b6106ec82826124e2565b600081815260096020908152604080832081516101c08101835281546001600160801b038082168352600160801b9182900481169583019590955260018301548086169483019490945292839004841660608201526002820154938416608082015264ffffffffff928404831660a0820152600160a81b808504841660c0830152600160d01b90940490921660e083015260038101546001600160a01b03908116610100840152600482015490811661012084015260ff600160a01b820481161515610140850152938104841615156101608401528493610180840191600160b01b9004166007811115610d2857634e487b7160e01b600052602160045260246000fd5b6007811115610d4757634e487b7160e01b600052602160045260246000fd5b815260200160058201805480602002602001604051908101604052809291908181526020018280548015610da457602002820191906000526020600020905b81546001600160a01b03168152600190910190602001808311610d86575b5050505050815250509050806101400151610e9d57600080546040805163ec2c65c160e01b8152815184936201000090046001600160a01b03169263ec2c65c19260048082019391829003018186803b158015610e0057600080fd5b505afa158015610e14573d6000803e3d6000fd5b505050506040513d601f19601f82011682018060405250810190610e389190614095565b915091506000610e668261094386608001516001600160801b031661093d86886128b190919063ffffffff16565b9050610e97610e90670de0b6b3a764000061094387604001516001600160801b031661093d610af8565b82906128bd565b94505050505b50919050565b610eab6120c4565b6008805460ff19166001179055565b610ec2611ca4565b818015610ecc5750805b15610ee757600154610ee7906001600160a01b0316876128c9565b610ef58786868686866128de565b5050600a80546001810182556000919091527fc65a7bb8d6351c1cf70c95a316cc6a92839c986682d98bc35f958f4883f9d2a8019390935550505050565b610f3b611ca4565b6005610f46826119a2565b6007811115610f6557634e487b7160e01b600052602160045260246000fd5b14610f9d5760405162461bcd60e51b815260206004820152600860248201526708595e1c1a5c995960c21b6044820152606401610524565b610816816001613163565b610fb06120c4565b6003546001600160a01b0316158015610fd157506001600160a01b03811615155b156110aa576000816001600160a01b0316631f1fcd516040518163ffffffff1660e01b815260040160206040518083038186803b15801561101157600080fd5b505afa158015611025573d6000803e3d6000fd5b505050506040513d601f19601f820116820180604052508101906110499190613e64565b6002549091506001600160a01b038083169116146110795760405162461bcd60e51b81526004016105249061417a565b61108e6001600160a01b0382168360006136ab565b6110a46001600160a01b038216836000196136ab565b50611596565b6003546001600160a01b0316158015906110cc57506001600160a01b03811615155b15611371576000816001600160a01b0316631f1fcd516040518163ffffffff1660e01b815260040160206040518083038186803b15801561110c57600080fd5b505afa158015611120573d6000803e3d6000fd5b505050506040513d601f19601f820116820180604052508101906111449190613e64565b6002549091506001600160a01b038083169116146111745760405162461bcd60e51b81526004016105249061417a565b6003546040516370a0823160e01b81523060048201526000916001600160a01b0316906370a082319060240160206040518083038186803b1580156111b857600080fd5b505afa1580156111cc573d6000803e3d6000fd5b505050506040513d601f19601f820116820180604052508101906111f0919061407d565b90506000808211611202576000611280565b600354604051632e1a7d4d60e01b8152600481018490526001600160a01b0390911690632e1a7d4d90602401602060405180830381600087803b15801561124857600080fd5b505af115801561125c573d6000803e3d6000fd5b505050506040513d601f19601f82011682018060405250810190611280919061407d565b60035490915061129e906001600160a01b03858116911660006136ab565b6112b36001600160a01b0384168560006136ab565b6112c96001600160a01b038416856000196136ab565b81156113695760405163b6b55f2560e01b8152600481018290526000906001600160a01b0386169063b6b55f2590602401602060405180830381600087803b15801561131457600080fd5b505af1158015611328573d6000803e3d6000fd5b505050506040513d601f19601f8201168201806040525081019061134c919061407d565b90506113648361094383670de0b6b3a76400006123dd565b600655505b505050611596565b6003546001600160a01b03161580159061139257506001600160a01b038116155b15611563576003546040516370a0823160e01b81523060048201526000916001600160a01b0316906370a082319060240160206040518083038186803b1580156113db57600080fd5b505afa1580156113ef573d6000803e3d6000fd5b505050506040513d601f19601f82011682018060405250810190611413919061407d565b905060008082116114255760006114a3565b600354604051632e1a7d4d60e01b8152600481018490526001600160a01b0390911690632e1a7d4d90602401602060405180830381600087803b15801561146b57600080fd5b505af115801561147f573d6000803e3d6000fd5b505050506040513d601f19601f820116820180604052508101906114a3919061407d565b60035460408051631f1fcd5160e01b8152905192935061153c926001600160a01b03909216916000918391631f1fcd5191600480820192602092909190829003018186803b1580156114f457600080fd5b505afa158015611508573d6000803e3d6000fd5b505050506040513d601f19601f8201168201806040525081019061152c9190613e64565b6001600160a01b031691906136ab565b811561155c576115588261094383670de0b6b3a76400006123dd565b6006555b5050611596565b60405162461bcd60e51b81526020600482015260086024820152676e6f6e73656e736560c01b6044820152606401610524565b600380546001600160a01b0319166001600160a01b0392909216919091179055565b60006107a16115c5610819565b6115cd610725565b906128b1565b61164a604080516101c081018252600080825260208201819052918101829052606081018290526080810182905260a0810182905260c0810182905260e081018290526101008101829052610120810182905261014081018290526101608101829052906101808201908152602001606081525090565b60008281526009602090815260409182902082516101c08101845281546001600160801b038082168352600160801b9182900481169483019490945260018301548085169583019590955293849004831660608201526002820154928316608082015264ffffffffff938304841660a0820152600160a81b808404851660c0830152600160d01b90930490931660e084015260038101546001600160a01b03908116610100850152600482015490811661012085015260ff600160a01b820481161515610140860152928104831615156101608501529091610180840191600160b01b900416600781111561174f57634e487b7160e01b600052602160045260246000fd5b600781111561176e57634e487b7160e01b600052602160045260246000fd5b8152602001600582018054806020026020016040519081016040528092919081815260200182805480156117cb57602002820191906000526020600020905b81546001600160a01b031681526001909101906020018083116117ad575b5050505050815250509050919050565b60008060029054906101000a90046001600160a01b03166001600160a01b031663c415b95c6040518163ffffffff1660e01b815260040160206040518083038186803b15801561182a57600080fd5b505afa15801561183e573d6000803e3d6000fd5b505050506040513d601f19601f820116820180604052508101906118629190613e64565b6000549091506201000090046001600160a01b031633148061188c5750336001600160a01b038216145b6118c05760405162461bcd60e51b8152602060048201526005602482015264042c2eae8d60db1b6044820152606401610524565b6118c983613802565b6004546001600160a01b0384811691161415611914576040516001600160a01b038316904780156108fc02916000818181858888f19350505050158015610af2573d6000803e3d6000fd5b6040516370a0823160e01b81523060048201526106729083906001600160a01b038616906370a082319060240160206040518083038186803b15801561195957600080fd5b505afa15801561196d573d6000803e3d6000fd5b505050506040513d601f19601f82011682018060405250810190611991919061407d565b6001600160a01b03861691906138c0565b600081815260096020908152604080832081516101c08101835281546001600160801b038082168352600160801b9182900481169583019590955260018301548086169483019490945292839004841660608201526002820154938416608082015264ffffffffff928404831660a0820152600160a81b808504841660c0830152600160d01b90940490921660e083015260038101546001600160a01b03908116610100840152600482015490811661012084015260ff600160a01b820481161515610140850152938104841615156101608401528493610180840191600160b01b9004166007811115611aa657634e487b7160e01b600052602160045260246000fd5b6007811115611ac557634e487b7160e01b600052602160045260246000fd5b815260200160058201805480602002602001604051908101604052809291908181526020018280548015611b2257602002820191906000526020600020905b81546001600160a01b03168152600190910190602001808311611b04575b50505050508152505090508060a0015164ffffffffff1660001415611b4a5750600092915050565b60078161018001516007811115611b7157634e487b7160e01b600052602160045260246000fd5b1415611b805750600792915050565b60a0810151429064ffffffffff168111611bd45760028261018001516007811115611bbb57634e487b7160e01b600052602160045260246000fd5b14611bca575060019392505050565b5060029392505050565b8160c0015164ffffffffff168111611c1c5760028261018001516007811115611c0d57634e487b7160e01b600052602160045260246000fd5b14611bca575060039392505050565b8160e0015164ffffffffff168111611c6e5760068261018001516007811115611c5557634e487b7160e01b600052602160045260246000fd5b14611c64575060049392505050565b5060069392505050565b60068261018001516007811115611c9557634e487b7160e01b600052602160045260246000fd5b14611c64575060059392505050565b60085460ff1615611ce05760405162461bcd60e51b81526020600482015260066024820152651c185d5cd95960d21b6044820152606401610524565b565b600081815260096020908152604080832081516101c08101835281546001600160801b038082168352600160801b9182900481169583019590955260018301548086169483019490945292839004841660608201526002820154938416608082015264ffffffffff928404831660a0820152600160a81b808504841660c0830152600160d01b90940490921660e083015260038101546001600160a01b03908116610100840152600482015490811661012084015260ff600160a01b8204811615156101408501529381048416151561016084015291929091610180840191600160b01b909104166007811115611de957634e487b7160e01b600052602160045260246000fd5b6007811115611e0857634e487b7160e01b600052602160045260246000fd5b815260200160058201805480602002602001604051908101604052809291908181526020018280548015611e6557602002820191906000526020600020905b81546001600160a01b03168152600190910190602001808311611e47575b50505050508152505090508061012001516001600160a01b0316836001600160a01b0316148015611e995750806101600151155b15611f0857611ea7826138f0565b60008281526009602052604090819020600401805460ff60a81b1916600160a81b179055517f87d76474b59c8a84b66fbd93991a1e3760b806cc4761ad4a08e39d96d4398f6a90611efb9084815260200190565b60405180910390a16120b9565b8061010001516001600160a01b0316836001600160a01b0316148015611f315750806101400151155b1561208357600080546040805163ec2c65c160e01b8152815184936201000090046001600160a01b03169263ec2c65c19260048082019391829003018186803b158015611f7d57600080fd5b505afa158015611f91573d6000803e3d6000fd5b505050506040513d601f19601f82011682018060405250810190611fb59190614095565b915091506000611fe38261094386608001516001600160801b031661093d86886128b190919063ffffffff16565b905061201e612017612010670de0b6b3a764000061094388604001516001600160801b031661093d610af8565b83906128bd565b6000613934565b5060008581526009602052604090819020600401805460ff60a01b1916600160a01b179055517f87d76474b59c8a84b66fbd93991a1e3760b806cc4761ad4a08e39d96d4398f6a906120739087815260200190565b60405180910390a15050506120b9565b60405162461bcd60e51b815260206004820152600b60248201526a64656c697665722062756760a81b6044820152606401610524565b610672826000613163565b6000546201000090046001600160a01b03163314611ce05760405162461bcd60e51b815260206004820152600860248201526721666163746f727960c01b6044820152606401610524565b600081815260096020908152604080832081516101c08101835281546001600160801b038082168352600160801b9182900481169583019590955260018301548086169483019490945292839004841660608201526002820154938416608082015264ffffffffff928404831660a0820152600160a81b808504841660c0830152600160d01b90940490921660e083015260038101546001600160a01b03908116610100840152600482015490811661012084015260ff600160a01b8204811615156101408501529381048416151561016084015291929091610180840191600160b01b90910416600781111561221657634e487b7160e01b600052602160045260246000fd5b600781111561223557634e487b7160e01b600052602160045260246000fd5b81526020016005820180548060200260200160405190810160405280929190818152602001828054801561229257602002820191906000526020600020905b81546001600160a01b03168152600190910190602001808311612274575b505050919092525050506101008101519091506001600160a01b0316156122eb576122e68161010001516122e1670de0b6b3a764000061094385604001516001600160801b031661093d610af8565b6123fe565b612381565b6101208101516001600160a01b0316156123475761232d8161012001516122e1670de0b6b3a764000061094385606001516001600160801b031661093d610af8565b806101600151156122e6576122e682826101200151613a02565b60405162461bcd60e51b815260206004820152600f60248201526e63616e63656c4f726465722062756760881b6044820152606401610524565b6000828152600960209081526040918290206004018054600760b01b60ff60b01b1990911617905590518381527f935c9ad2f1fda9d7eae0d2a512f1521cb7190ee06165414e722366a65975fb6b910160405180910390a15050565b60006123e9828461445f565b90505b92915050565b60006123e9828461443f565b6000612408610725565b9050818110801561242357506003546001600160a01b031615155b156124bf576003546001600160a01b0316632e1a7d4d61244384846128bd565b6040518263ffffffff1660e01b815260040161246191815260200190565b602060405180830381600087803b15801561247b57600080fd5b505af115801561248f573d6000803e3d6000fd5b505050506040513d601f19601f820116820180604052508101906124b3919061407d565b506124bc610725565b90505b808211156124cb578091505b600254610672906001600160a01b03168484613a43565b600081815260096020908152604080832081516101c08101835281546001600160801b038082168352600160801b9182900481169583019590955260018301548086169483019490945292839004841660608201526002820154938416608082015264ffffffffff928404831660a0820152600160a81b808504841660c0830152600160d01b90940490921660e083015260038101546001600160a01b03908116610100840152600482015490811661012084015260ff600160a01b8204811615156101408501529381048416151561016084015291929091610180840191600160b01b9091041660078111156125e957634e487b7160e01b600052602160045260246000fd5b600781111561260857634e487b7160e01b600052602160045260246000fd5b81526020016005820180548060200260200160405190810160405280929190818152602001828054801561266557602002820191906000526020600020905b81546001600160a01b03168152600190910190602001808311612647575b50505050508152505090506000816101a001515111156126c75761268e83826101a00151613a57565b6126c75760405162461bcd60e51b815260206004820152600a602482015269085dda1a5d195b1a5cdd60b21b6044820152606401610524565b600082815260096020526040812060040154612738906001600160a01b031615612708576000848152600960205260409020546001600160801b0316612728565b600084815260096020526040902054600160801b90046001600160801b03165b6001600160801b03166001613934565b6000848152600960205260409020600301549091506001600160a01b03166127af5760008381526009602052604090206003810180546001600160a01b0319166001600160a01b03871617905560010180546fffffffffffffffffffffffffffffffff19166001600160801b038316179055612853565b6000838152600960205260409020600401546001600160a01b031661281b5760008381526009602052604090206004810180546001600160a01b0387166001600160a01b031990911617905560010180546001600160801b03808416600160801b029116179055612853565b60405162461bcd60e51b815260206004820152600d60248201526c74616b654f726465722062756760981b6044820152606401610524565b6000838152600960209081526040918290206004018054600160b11b60ff60b01b1990911617905590518481527fa64977328523eb0f63a4533b049270f420fee1180e091714b7a91b5bc956f2ab910160405180910390a150505050565b60006123e98284614427565b60006123e9828461447e565b6106ec6001600160a01b038316333084613acb565b6001600160801b0380168460008151811061290957634e487b7160e01b600052603260045260246000fd5b602002602001015110801561294e57506001600160801b0380168460018151811061294457634e487b7160e01b600052603260045260246000fd5b6020026020010151105b801561298a57506001600160801b0380168460028151811061298057634e487b7160e01b600052603260045260246000fd5b6020026020010151105b6129c15760405162461bcd60e51b81526020600482015260086024820152676f766572666c6f7760c01b6044820152606401610524565b6001600160801b038016612a2e856002815181106129ef57634e487b7160e01b600052603260045260246000fd5b602002602001015186600181518110612a1857634e487b7160e01b600052603260045260246000fd5b60200260200101516128b190919063ffffffff16565b10612a725760405162461bcd60e51b815260206004820152601460248201527364656c69766572206d6179206f766572666c6f7760601b6044820152606401610524565b64ffffffffff8016612ac786600281518110612a9e57634e487b7160e01b600052603260045260246000fd5b602002602001015187600181518110612a1857634e487b7160e01b600052603260045260246000fd5b108015612b2d575084600181518110612af057634e487b7160e01b600052603260045260246000fd5b6020026020010151612b2b86600081518110612b1c57634e487b7160e01b600052603260045260246000fd5b60200260200101516115cd4290565b105b612b615760405162461bcd60e51b81526020600482015260056024820152642174696d6560d81b6044820152606401610524565b6000828015612b6e575081155b15612c4c57600080546040805163ec2c65c160e01b8152815184936201000090046001600160a01b03169263ec2c65c19260048082019391829003018186803b158015612bba57600080fd5b505afa158015612bce573d6000803e3d6000fd5b505050506040513d601f19601f82011682018060405250810190612bf29190614095565b91509150612c43612c3c826109438a600081518110612c2157634e487b7160e01b600052603260045260246000fd5b602002602001015161093d86886128b190919063ffffffff16565b6001613934565b92505050612cb5565b612cb282612c825785600181518110612c7557634e487b7160e01b600052603260045260246000fd5b6020026020010151612c3c565b85600281518110612ca357634e487b7160e01b600052603260045260246000fd5b60200260200101516001613934565b90505b6007805460009182612cc6836144c1565b919050559050604051806101c0016040528087600181518110612cf957634e487b7160e01b600052603260045260246000fd5b60200260200101516001600160801b0316815260200187600281518110612d3057634e487b7160e01b600052603260045260246000fd5b60200260200101516001600160801b0316815260200184612d515783612d54565b60005b6001600160801b0316815260200184612d6e576000612d70565b835b6001600160801b0316815260200187600081518110612d9f57634e487b7160e01b600052603260045260246000fd5b60200260200101516001600160801b03168152602001612dd989600081518110612b1c57634e487b7160e01b600052603260045260246000fd5b64ffffffffff16815260200188600181518110612e0657634e487b7160e01b600052603260045260246000fd5b602002602001015164ffffffffff168152602001612e6789600281518110612e3e57634e487b7160e01b600052603260045260246000fd5b60200260200101518a600181518110612a1857634e487b7160e01b600052603260045260246000fd5b64ffffffffff16815260200184612e7e5789612e81565b60005b6001600160a01b0316815260200184612e9b576000612e9d565b895b6001600160a01b03168152602001858015612eb6575084155b15158152602001858015612ec75750845b15158152602001600181526020016000604051908082528060200260200182016040528015612f00578160200160208202803683370190505b5090526000828152600960209081526040918290208351918401516001600160801b03928316600160801b91841682021782559284015160608501519083169083168402176001820155608084015160028201805460a087015160c088015160e0890151949096166001600160a81b03199283161764ffffffffff9182169097029690961769ffffffffffffffffffff60a81b1916600160a81b958716860264ffffffffff60d01b191617600160d01b96909316959095029190911790556101008401516003820180546001600160a01b0319166001600160a01b0392831617905561012085015160048301805461014088015161016089015193909416961695909517600160a01b921515929092029190911760ff60a81b19811691151590930290811784556101808501519193919261ffff60a81b191660ff60b01b1990911617600160b01b83600781111561306857634e487b7160e01b600052602160045260246000fd5b02179055506101a08201518051613089916005840191602090910190613d4f565b505085511590506131255760005b855181101561312357600960008381526020019081526020016000206005018682815181106130d657634e487b7160e01b600052603260045260246000fd5b60209081029190910181015182546001810184556000938452919092200180546001600160a01b0319166001600160a01b039092169190911790558061311b816144c1565b915050613097565b505b6040518181527f2f539bcf68b0eef24f9fef1ae5ad7dd5a37f80a2fab34f406ad2b92c779d6064906020015b60405180910390a15050505050505050565b600080546040805163ec2c65c160e01b8152815184936201000090046001600160a01b03169263ec2c65c19260048082019391829003018186803b1580156131aa57600080fd5b505afa1580156131be573d6000803e3d6000fd5b505050506040513d601f19601f820116820180604052508101906131e29190614095565b600086815260096020908152604080832081516101c08101835281546001600160801b038082168352600160801b9182900481169583019590955260018301548086169483019490945292839004841660608201526002820154938416608082015264ffffffffff928404831660a0820152600160a81b808504841660c0830152600160d01b90940490921660e083015260038101546001600160a01b03908116610100840152600482015490811661012084015260ff600160a01b820481161515610140850152938104841615156101608401529597509395509193919291610180840191600160b01b9091041660078111156132f057634e487b7160e01b600052602160045260246000fd5b600781111561330f57634e487b7160e01b600052602160045260246000fd5b81526020016005820180548060200260200160405190810160405280929190818152602001828054801561336c57602002820191906000526020600020905b81546001600160a01b0316815260019091019060200180831161334e575b5050505050815250509050806101600151801561338b57508061014001515b156135045761339f85826101000151613a02565b60006133c58361094384608001516001600160801b0316876123dd90919063ffffffff16565b905060006133ee670de0b6b3a764000061094385604001516001600160801b031661093d610af8565b905061341083608001516001600160801b0316836128b190919063ffffffff16565b81111561344a5761344a8361010001516122e18461344487608001516001600160801b0316866128bd90919063ffffffff16565b906128bd565b60006134868361344486608001516001600160801b03166115cd670de0b6b3a76400006109438a606001516001600160801b031661093d610af8565b9050613497846101200151826123fe565b6134ae6134a58460026123dd565b600554906128b1565b600555600088815260096020908152604091829020600401805460ff60b01b1916600360b11b17905590518981527f2a45eee61b61ef4932e2d79b32be61a1a538cbe00381faffb4d1cf3b1268c46b9101613151565b83156136a4578061016001516135a557600061353a8361094384602001516001600160801b0316876123dd90919063ffffffff16565b60055490915061354a90826128b1565b60055561010082015161359f906122e183613444670de0b6b3a7640000610943613572610af8565b61093d8a606001516001600160801b03168b604001516001600160801b03166128b190919063ffffffff16565b5061364b565b80610140015161364b5760006135d58361094384600001516001600160801b0316876123dd90919063ffffffff16565b6005549091506135e590826128b1565b60055561012082015161363a906122e183613444670de0b6b3a764000061094361360d610af8565b61093d8a604001516001600160801b03168b606001516001600160801b03166128b190919063ffffffff16565b61364986836101200151613a02565b505b6000858152600960209081526040918290206004018054600360b11b60ff60b01b1990911617905590518681527f2a45eee61b61ef4932e2d79b32be61a1a538cbe00381faffb4d1cf3b1268c46b910160405180910390a15b5050505050565b8015806137345750604051636eb1769f60e11b81523060048201526001600160a01b03838116602483015284169063dd62ed3e9060440160206040518083038186803b1580156136fa57600080fd5b505afa15801561370e573d6000803e3d6000fd5b505050506040513d601f19601f82011682018060405250810190613732919061407d565b155b61379f5760405162461bcd60e51b815260206004820152603660248201527f5361666545524332303a20617070726f76652066726f6d206e6f6e2d7a65726f60448201527520746f206e6f6e2d7a65726f20616c6c6f77616e636560501b6064820152608401610524565b6040516001600160a01b03831660248201526044810182905261067290849063095ea7b360e01b906064015b60408051601f198184030181529190526020810180516001600160e01b03166001600160e01b031990931692909217909152613b03565b6001546001600160a01b03828116911614156138305760405162461bcd60e51b81526004016105249061417a565b6002546001600160a01b03828116911614156138785760405162461bcd60e51b815260206004820152600760248201526610b6b0b933b4b760c91b6044820152606401610524565b6003546001600160a01b03828116911614156108165760405162461bcd60e51b8152602060048201526007602482015266085995985d5b1d60ca1b6044820152606401610524565b6040516001600160a01b03831660248201526044810182905261067290849063a9059cbb60e01b906064016137cb565b600154600a8054610816926001600160a01b031691908490811061392457634e487b7160e01b600052603260045260246000fd5b90600052602060002001546128c9565b60025460009061394d906001600160a01b0316846128c9565b600082801561396657506003546001600160a01b031615155b61398c57613987613975610af8565b61094386670de0b6b3a76400006123dd565b6139fa565b60065460035460405163b6b55f2560e01b8152600481018790526139fa929161094391670de0b6b3a7640000916001600160a01b03169063b6b55f2590602401602060405180830381600087803b1580156139e657600080fd5b505af1158015610919573d6000803e3d6000fd5b949350505050565b600154600a80546106ec926001600160a01b031691849186908110613a3757634e487b7160e01b600052603260045260246000fd5b90600052602060002001545b6106726001600160a01b03841683836138c0565b6000805b8251811015613ac157828181518110613a8457634e487b7160e01b600052603260045260246000fd5b60200260200101516001600160a01b0316846001600160a01b03161415613aaf5760019150506123ec565b80613ab9816144c1565b915050613a5b565b5060009392505050565b6040516001600160a01b0380851660248301528316604482015260648101829052610af29085906323b872dd60e01b906084016137cb565b6000613b58826040518060400160405280602081526020017f5361666545524332303a206c6f772d6c6576656c2063616c6c206661696c6564815250856001600160a01b0316613bd59092919063ffffffff16565b8051909150156106725780806020019051810190613b769190614049565b6106725760405162461bcd60e51b815260206004820152602a60248201527f5361666545524332303a204552433230206f7065726174696f6e20646964206e6044820152691bdd081cdd58d8d9595960b21b6064820152608401610524565b6060613be48484600085613bee565b90505b9392505050565b606082471015613c4f5760405162461bcd60e51b815260206004820152602660248201527f416464726573733a20696e73756666696369656e742062616c616e636520666f6044820152651c8818d85b1b60d21b6064820152608401610524565b843b613c9d5760405162461bcd60e51b815260206004820152601d60248201527f416464726573733a2063616c6c20746f206e6f6e2d636f6e74726163740000006044820152606401610524565b600080866001600160a01b03168587604051613cb9919061411d565b60006040518083038185875af1925050503d8060008114613cf6576040519150601f19603f3d011682016040523d82523d6000602084013e613cfb565b606091505b5091509150613d0b828286613d16565b979650505050505050565b60608315613d25575081613be7565b825115613d355782518084602001fd5b8160405162461bcd60e51b81526004016105249190614147565b828054828255906000526020600020908101928215613da4579160200282015b82811115613da457825182546001600160a01b0319166001600160a01b03909116178255602090920191600190910190613d6f565b50613db0929150613db4565b5090565b5b80821115613db05760008155600101613db5565b600082601f830112613dd9578081fd5b81356020613dee613de983614403565b6143d2565b80838252828201915082860187848660051b8901011115613e0d578586fd5b855b85811015613e2b57813584529284019290840190600101613e0f565b5090979650505050505050565b8035613e438161451d565b919050565b600060208284031215613e59578081fd5b8135613be781614508565b600060208284031215613e75578081fd5b8151613be781614508565b60008060408385031215613e92578081fd5b8235613e9d81614508565b91506020830135613ead81614508565b809150509250929050565b60008060408385031215613eca578182fd5b8235613ed581614508565b946020939093013593505050565b600080600060608486031215613ef7578081fd5b8335613f0281614508565b9250602084013591506040840135613f1981614508565b809150509250925092565b600080600080600080600060e0888a031215613f3e578283fd5b8735613f4981614508565b96506020888101359650604089013567ffffffffffffffff80821115613f6d578586fd5b613f798c838d01613dc9565b975060608b0135915080821115613f8e578586fd5b613f9a8c838d01613dc9565b965060808b0135915080821115613faf578586fd5b508901601f81018b13613fc0578485fd5b8035613fce613de982614403565b8082825284820191508484018e868560051b8701011115613fed578889fd5b8894505b8385101561401857803561400481614508565b835260019490940193918501918501613ff1565b50809750505050505061402d60a08901613e38565b915061403b60c08901613e38565b905092959891949750929550565b60006020828403121561405a578081fd5b8151613be78161451d565b600060208284031215614076578081fd5b5035919050565b60006020828403121561408e578081fd5b5051919050565b600080604083850312156140a7578182fd5b505080516020909101519092909150565b6000815180845260208085019450808401835b838110156140f05781516001600160a01b0316875295820195908201906001016140cb565b509495945050505050565b6008811061411957634e487b7160e01b600052602160045260246000fd5b9052565b6000825161412f818460208701614495565b9190910192915050565b602081016123ec82846140fb565b6020815260008251806020840152614166816040850160208701614495565b601f01601f19169190910160400192915050565b602080825260059082015264085dd85b9d60da1b604082015260600190565b6020808252602e908201527f496e697469616c697a61626c653a20636f6e747261637420697320616c72656160408201526d191e481a5b9a5d1a585b1a5e995960921b606082015260800190565b602081526142016020820183516001600160801b03169052565b6000602083015161421d60408401826001600160801b03169052565b5060408301516001600160801b03811660608401525060608301516001600160801b03811660808401525060808301516001600160801b03811660a08401525060a083015164ffffffffff811660c08401525060c083015164ffffffffff811660e08401525060e083015161010061429d8185018364ffffffffff169052565b84015190506101206142b9848201836001600160a01b03169052565b84015190506101406142d5848201836001600160a01b03169052565b84015190506101606142ea8482018315159052565b84015190506101806142ff8482018315159052565b84015190506101a0614313848201836140fb565b8401516101c08481015290506139fa6101e08401826140b8565b6001600160801b038e811682528d811660208301528c811660408301528b811660608301528a16608082015264ffffffffff89811660a0830152881660c08201526101a0810164ffffffffff881660e08301526001600160a01b0387166101008301526001600160a01b0386166101208301528415156101408301528315156101608301526143c06101808301846140fb565b9e9d5050505050505050505050505050565b604051601f8201601f1916810167ffffffffffffffff811182821017156143fb576143fb6144f2565b604052919050565b600067ffffffffffffffff82111561441d5761441d6144f2565b5060051b60200190565b6000821982111561443a5761443a6144dc565b500190565b60008261445a57634e487b7160e01b81526012600452602481fd5b500490565b6000816000190483118215151615614479576144796144dc565b500290565b600082821015614490576144906144dc565b500390565b60005b838110156144b0578181015183820152602001614498565b83811115610af25750506000910152565b60006000198214156144d5576144d56144dc565b5060010190565b634e487b7160e01b600052601160045260246000fd5b634e487b7160e01b600052604160045260246000fd5b6001600160a01b038116811461081657600080fd5b801515811461081657600080fdfea2646970667358221220518a6602ba450d74211658f576dded102a89cb7ceec7215f8f485e33ba7e8d4b64736f6c63430008040033",
  "linkReferences": {},
  "deployedLinkReferences": {}
}