{
    "_format": "hh-sol-artifact-1",
    "contractName": "Option721Upgradeable",
    "sourceName": "contracts/options/imp/Option721Upgradeable.sol",
    "abi": [
        {
            "anonymous": false,
            "inputs": [
                {
                    "indexed": false,
                    "internalType": "bytes32",
                    "name": "optionHash",
                    "type": "bytes32"
                }
            ],
            "name": "CancelOffchainOption",
            "type": "event"
        },
        {
            "anonymous": false,
            "inputs": [
                {
                    "indexed": false,
                    "internalType": "uint256",
                    "name": "optionId",
                    "type": "uint256"
                },
                {
                    "indexed": false,
                    "internalType": "address",
                    "name": "seller",
                    "type": "address"
                },
                {
                    "indexed": false,
                    "internalType": "address",
                    "name": "buyer",
                    "type": "address"
                },
                {
                    "indexed": false,
                    "internalType": "uint128",
                    "name": "premium",
                    "type": "uint128"
                }
            ],
            "name": "CreateAndTake",
            "type": "event"
        },
        {
            "anonymous": false,
            "inputs": [
                {
                    "indexed": false,
                    "internalType": "uint256",
                    "name": "optionId",
                    "type": "uint256"
                }
            ],
            "name": "Exercise",
            "type": "event"
        },
        {
            "anonymous": false,
            "inputs": [
                {
                    "indexed": true,
                    "internalType": "address",
                    "name": "previousOwner",
                    "type": "address"
                },
                {
                    "indexed": true,
                    "internalType": "address",
                    "name": "newOwner",
                    "type": "address"
                }
            ],
            "name": "OwnershipTransferred",
            "type": "event"
        },
        {
            "anonymous": false,
            "inputs": [
                {
                    "indexed": false,
                    "internalType": "uint256",
                    "name": "optionId",
                    "type": "uint256"
                }
            ],
            "name": "SellerDefault",
            "type": "event"
        },
        {
            "anonymous": false,
            "inputs": [
                {
                    "indexed": false,
                    "internalType": "uint256",
                    "name": "optionId",
                    "type": "uint256"
                },
                {
                    "indexed": false,
                    "internalType": "address",
                    "name": "maker",
                    "type": "address"
                },
                {
                    "indexed": false,
                    "internalType": "address",
                    "name": "taker",
                    "type": "address"
                },
                {
                    "indexed": false,
                    "internalType": "bytes32",
                    "name": "optionHash",
                    "type": "bytes32"
                },
                {
                    "indexed": false,
                    "internalType": "uint128",
                    "name": "premium",
                    "type": "uint128"
                }
            ],
            "name": "TakeOffChainOption",
            "type": "event"
        },
        {
            "anonymous": false,
            "inputs": [
                {
                    "indexed": true,
                    "internalType": "address",
                    "name": "implementation",
                    "type": "address"
                }
            ],
            "name": "Upgraded",
            "type": "event"
        },
        {
            "inputs": [],
            "name": "DOMAIN_SEPARATOR",
            "outputs": [
                {
                    "internalType": "bytes32",
                    "name": "",
                    "type": "bytes32"
                }
            ],
            "stateMutability": "view",
            "type": "function"
        },
        {
            "inputs": [],
            "name": "OFFCHAINOPTION_TYPEHASH",
            "outputs": [
                {
                    "internalType": "bytes32",
                    "name": "",
                    "type": "bytes32"
                }
            ],
            "stateMutability": "view",
            "type": "function"
        },
        {
            "inputs": [
                {
                    "internalType": "address",
                    "name": "_rightObligationImp",
                    "type": "address"
                },
                {
                    "internalType": "address",
                    "name": "_underlying",
                    "type": "address"
                },
                {
                    "internalType": "uint256",
                    "name": "_poolType",
                    "type": "uint256"
                },
                {
                    "internalType": "address",
                    "name": "_quote",
                    "type": "address"
                }
            ],
            "name": "__Option721Upgradeable__init",
            "outputs": [],
            "stateMutability": "nonpayable",
            "type": "function"
        },
        {
            "inputs": [],
            "name": "balance",
            "outputs": [
                {
                    "internalType": "uint256",
                    "name": "",
                    "type": "uint256"
                }
            ],
            "stateMutability": "view",
            "type": "function"
        },
        {
            "inputs": [
                {
                    "internalType": "address",
                    "name": "_maker",
                    "type": "address"
                },
                {
                    "internalType": "uint256[4]",
                    "name": "_uints",
                    "type": "uint256[4]"
                },
                {
                    "internalType": "bool[2]",
                    "name": "_bools",
                    "type": "bool[2]"
                },
                {
                    "internalType": "uint256[]",
                    "name": "_tokenIds",
                    "type": "uint256[]"
                },
                {
                    "internalType": "bytes",
                    "name": "_makerSig",
                    "type": "bytes"
                },
                {
                    "internalType": "bytes32",
                    "name": "_salt",
                    "type": "bytes32"
                }
            ],
            "name": "cancelOffchainOption",
            "outputs": [
                {
                    "internalType": "bytes32",
                    "name": "oh",
                    "type": "bytes32"
                }
            ],
            "stateMutability": "nonpayable",
            "type": "function"
        },
        {
            "inputs": [],
            "name": "cfee",
            "outputs": [
                {
                    "internalType": "uint256",
                    "name": "",
                    "type": "uint256"
                }
            ],
            "stateMutability": "view",
            "type": "function"
        },
        {
            "inputs": [
                {
                    "internalType": "uint256",
                    "name": "_optionId",
                    "type": "uint256"
                }
            ],
            "name": "checkOptionState",
            "outputs": [
                {
                    "internalType": "enum IBaseOption.State",
                    "name": "",
                    "type": "uint8"
                }
            ],
            "stateMutability": "view",
            "type": "function"
        },
        {
            "inputs": [],
            "name": "childImplementation",
            "outputs": [
                {
                    "internalType": "address",
                    "name": "",
                    "type": "address"
                }
            ],
            "stateMutability": "view",
            "type": "function"
        },
        {
            "inputs": [
                {
                    "internalType": "address",
                    "name": "_to",
                    "type": "address"
                }
            ],
            "name": "collectFee",
            "outputs": [],
            "stateMutability": "nonpayable",
            "type": "function"
        },
        {
            "inputs": [
                {
                    "internalType": "address[2]",
                    "name": "_addrs",
                    "type": "address[2]"
                },
                {
                    "internalType": "uint256[4]",
                    "name": "_uints",
                    "type": "uint256[4]"
                },
                {
                    "internalType": "bool",
                    "name": "_isCall",
                    "type": "bool"
                },
                {
                    "internalType": "uint256[]",
                    "name": "_tokenIds",
                    "type": "uint256[]"
                }
            ],
            "name": "createAndTakeFor",
            "outputs": [
                {
                    "internalType": "uint256",
                    "name": "optionId",
                    "type": "uint256"
                }
            ],
            "stateMutability": "payable",
            "type": "function"
        },
        {
            "inputs": [],
            "name": "eth",
            "outputs": [
                {
                    "internalType": "address",
                    "name": "",
                    "type": "address"
                }
            ],
            "stateMutability": "view",
            "type": "function"
        },
        {
            "inputs": [
                {
                    "internalType": "uint256",
                    "name": "_optionId",
                    "type": "uint256"
                }
            ],
            "name": "exercise",
            "outputs": [],
            "stateMutability": "payable",
            "type": "function"
        },
        {
            "inputs": [],
            "name": "factory",
            "outputs": [
                {
                    "internalType": "address",
                    "name": "",
                    "type": "address"
                }
            ],
            "stateMutability": "view",
            "type": "function"
        },
        {
            "inputs": [
                {
                    "internalType": "uint256",
                    "name": "_optionId",
                    "type": "uint256"
                }
            ],
            "name": "getOption",
            "outputs": [
                {
                    "components": [
                        {
                            "internalType": "address",
                            "name": "seller",
                            "type": "address"
                        },
                        {
                            "internalType": "address",
                            "name": "buyer",
                            "type": "address"
                        },
                        {
                            "internalType": "uint128",
                            "name": "strike",
                            "type": "uint128"
                        },
                        {
                            "internalType": "uint40",
                            "name": "expiration",
                            "type": "uint40"
                        },
                        {
                            "internalType": "enum IBaseOption.OptionType",
                            "name": "otype",
                            "type": "uint8"
                        },
                        {
                            "internalType": "enum IBaseOption.State",
                            "name": "state",
                            "type": "uint8"
                        }
                    ],
                    "internalType": "struct IBaseOption.OptionDeail",
                    "name": "option",
                    "type": "tuple"
                }
            ],
            "stateMutability": "view",
            "type": "function"
        },
        {
            "inputs": [
                {
                    "internalType": "bytes32",
                    "name": "",
                    "type": "bytes32"
                }
            ],
            "name": "known",
            "outputs": [
                {
                    "internalType": "bool",
                    "name": "",
                    "type": "bool"
                }
            ],
            "stateMutability": "view",
            "type": "function"
        },
        {
            "inputs": [
                {
                    "internalType": "address",
                    "name": "",
                    "type": "address"
                }
            ],
            "name": "launchpads",
            "outputs": [
                {
                    "internalType": "bool",
                    "name": "",
                    "type": "bool"
                }
            ],
            "stateMutability": "view",
            "type": "function"
        },
        {
            "inputs": [],
            "name": "name",
            "outputs": [
                {
                    "internalType": "string",
                    "name": "",
                    "type": "string"
                }
            ],
            "stateMutability": "view",
            "type": "function"
        },
        {
            "inputs": [],
            "name": "obligation",
            "outputs": [
                {
                    "internalType": "contract IRightObligation",
                    "name": "",
                    "type": "address"
                }
            ],
            "stateMutability": "view",
            "type": "function"
        },
        {
            "inputs": [
                {
                    "internalType": "address",
                    "name": "",
                    "type": "address"
                },
                {
                    "internalType": "address",
                    "name": "",
                    "type": "address"
                },
                {
                    "internalType": "uint256",
                    "name": "",
                    "type": "uint256"
                },
                {
                    "internalType": "bytes",
                    "name": "",
                    "type": "bytes"
                }
            ],
            "name": "onERC721Received",
            "outputs": [
                {
                    "internalType": "bytes4",
                    "name": "",
                    "type": "bytes4"
                }
            ],
            "stateMutability": "nonpayable",
            "type": "function"
        },
        {
            "inputs": [
                {
                    "internalType": "uint256",
                    "name": "",
                    "type": "uint256"
                }
            ],
            "name": "options",
            "outputs": [
                {
                    "internalType": "uint128",
                    "name": "strike",
                    "type": "uint128"
                },
                {
                    "internalType": "uint40",
                    "name": "expiration",
                    "type": "uint40"
                },
                {
                    "internalType": "enum IBaseOption.OptionType",
                    "name": "otype",
                    "type": "uint8"
                },
                {
                    "internalType": "enum IBaseOption.State",
                    "name": "state",
                    "type": "uint8"
                }
            ],
            "stateMutability": "view",
            "type": "function"
        },
        {
            "inputs": [],
            "name": "optionsLength",
            "outputs": [
                {
                    "internalType": "uint256",
                    "name": "",
                    "type": "uint256"
                }
            ],
            "stateMutability": "view",
            "type": "function"
        },
        {
            "inputs": [],
            "name": "owner",
            "outputs": [
                {
                    "internalType": "address",
                    "name": "",
                    "type": "address"
                }
            ],
            "stateMutability": "view",
            "type": "function"
        },
        {
            "inputs": [],
            "name": "pause",
            "outputs": [],
            "stateMutability": "nonpayable",
            "type": "function"
        },
        {
            "inputs": [],
            "name": "paused",
            "outputs": [
                {
                    "internalType": "bool",
                    "name": "",
                    "type": "bool"
                }
            ],
            "stateMutability": "view",
            "type": "function"
        },
        {
            "inputs": [],
            "name": "quote",
            "outputs": [
                {
                    "internalType": "address",
                    "name": "",
                    "type": "address"
                }
            ],
            "stateMutability": "view",
            "type": "function"
        },
        {
            "inputs": [],
            "name": "renounceOwnership",
            "outputs": [],
            "stateMutability": "nonpayable",
            "type": "function"
        },
        {
            "inputs": [],
            "name": "right",
            "outputs": [
                {
                    "internalType": "contract IRightObligation",
                    "name": "",
                    "type": "address"
                }
            ],
            "stateMutability": "view",
            "type": "function"
        },
        {
            "inputs": [
                {
                    "internalType": "uint256",
                    "name": "_optionId",
                    "type": "uint256"
                }
            ],
            "name": "sellerDefault",
            "outputs": [],
            "stateMutability": "payable",
            "type": "function"
        },
        {
            "inputs": [
                {
                    "internalType": "address[2]",
                    "name": "_addrs",
                    "type": "address[2]"
                },
                {
                    "internalType": "uint256[4]",
                    "name": "_uints",
                    "type": "uint256[4]"
                },
                {
                    "internalType": "bool[2]",
                    "name": "_bools",
                    "type": "bool[2]"
                },
                {
                    "internalType": "uint256[]",
                    "name": "_tokenIds",
                    "type": "uint256[]"
                },
                {
                    "internalType": "bytes",
                    "name": "_makerSig",
                    "type": "bytes"
                },
                {
                    "internalType": "bytes32",
                    "name": "_salt",
                    "type": "bytes32"
                }
            ],
            "name": "takeOffChainOptionFor",
            "outputs": [
                {
                    "internalType": "uint256",
                    "name": "optionId",
                    "type": "uint256"
                }
            ],
            "stateMutability": "payable",
            "type": "function"
        },
        {
            "inputs": [
                {
                    "internalType": "address",
                    "name": "_launchpad",
                    "type": "address"
                }
            ],
            "name": "toggleLaunchpad",
            "outputs": [],
            "stateMutability": "nonpayable",
            "type": "function"
        },
        {
            "inputs": [
                {
                    "internalType": "address",
                    "name": "_token",
                    "type": "address"
                },
                {
                    "internalType": "address",
                    "name": "_newOwner",
                    "type": "address"
                }
            ],
            "name": "transferOwnership",
            "outputs": [],
            "stateMutability": "nonpayable",
            "type": "function"
        },
        {
            "inputs": [
                {
                    "internalType": "address",
                    "name": "newOwner",
                    "type": "address"
                }
            ],
            "name": "transferOwnership",
            "outputs": [],
            "stateMutability": "nonpayable",
            "type": "function"
        },
        {
            "inputs": [],
            "name": "underlying",
            "outputs": [
                {
                    "internalType": "address",
                    "name": "",
                    "type": "address"
                }
            ],
            "stateMutability": "view",
            "type": "function"
        },
        {
            "inputs": [
                {
                    "internalType": "uint256",
                    "name": "_optionId",
                    "type": "uint256"
                }
            ],
            "name": "underlyingAssets",
            "outputs": [
                {
                    "internalType": "uint256[]",
                    "name": "",
                    "type": "uint256[]"
                }
            ],
            "stateMutability": "view",
            "type": "function"
        },
        {
            "inputs": [],
            "name": "unpause",
            "outputs": [],
            "stateMutability": "nonpayable",
            "type": "function"
        },
        {
            "inputs": [
                {
                    "internalType": "address",
                    "name": "newChildImplementation",
                    "type": "address"
                }
            ],
            "name": "upgradeChildTo",
            "outputs": [],
            "stateMutability": "nonpayable",
            "type": "function"
        },
        {
            "inputs": [],
            "name": "version",
            "outputs": [
                {
                    "internalType": "string",
                    "name": "",
                    "type": "string"
                }
            ],
            "stateMutability": "view",
            "type": "function"
        },
        {
            "inputs": [],
            "name": "weth",
            "outputs": [
                {
                    "internalType": "address",
                    "name": "",
                    "type": "address"
                }
            ],
            "stateMutability": "view",
            "type": "function"
        },
        {
            "inputs": [
                {
                    "internalType": "address",
                    "name": "_token",
                    "type": "address"
                },
                {
                    "internalType": "address",
                    "name": "_to",
                    "type": "address"
                }
            ],
            "name": "withdrawOther",
            "outputs": [],
            "stateMutability": "nonpayable",
            "type": "function"
        }
    ],
    "bytecode": "0x608060405234801561001057600080fd5b50615be880620000216000396000f3fe6080604052600436106200025f5760003560e01c8063715018a61162000147578063c45a015511620000b9578063e16e2d661162000078578063e16e2d661462000766578063eaa234f0146200078b578063f2fde38b14620007ad578063f519778e14620007d2578063ffe309be14620007f757600080fd5b8063c45a015514620006d8578063c55dd80114620006fa578063d8431e351462000712578063da5257161462000729578063dd8de791146200074157600080fd5b8063a4994bac1162000106578063a4994bac1462000639578063a92b3c83146200066d578063b07f0a411462000692578063b69ef8a814620006a9578063b720107c14620006c157600080fd5b8063715018a614620005a55780638456cb5914620005bd5780638c7c9e0c14620005d55780638da5cb5b14620005f7578063999b93af146200061757600080fd5b80633f4ba83a11620001e15780635e56c11511620001a05780635e56c115146200050a57806369b59e7514620005225780636d43542114620005475780636f307dc3146200056c57806370d0bb5b146200058e57600080fd5b80633f4ba83a146200042b5780633fc8cef31462000443578063409e2205146200046557806354fd4d5014620004d65780635c975abb14620004ee57600080fd5b80631f2a63c0116200022e5780631f2a63c014620003385780631f414f7f14620003735780633235029e14620003b85780633644e51514620003df5780633b50c4d114620003f757600080fd5b806306fdde031462000264578063150b7a0214620002945780631ce5e9a614620002dd5780631f1713fc1462000311575b600080fd5b3480156200027157600080fd5b506200027c6200082b565b6040516200028b919062004f86565b60405180910390f35b348015620002a157600080fd5b50620002c3620002b336600462004aa1565b630a85bd0160e11b949350505050565b6040516001600160e01b031990911681526020016200028b565b348015620002ea57600080fd5b5062000302620002fc36600462004d00565b620008c1565b6040516200028b919062005091565b3480156200031e57600080fd5b506200033662000330366004620049cd565b62000ca0565b005b3480156200034557600080fd5b50609e546200035a906001600160a01b031681565b6040516001600160a01b0390911681526020016200028b565b3480156200038057600080fd5b50620003a76200039236600462004d00565b60a66020526000908152604090205460ff1681565b60405190151581526020016200028b565b348015620003c557600080fd5b50620003d060a15481565b6040519081526020016200028b565b348015620003ec57600080fd5b50620003d060985481565b3480156200040457600080fd5b506200041c6200041636600462004d00565b62000d18565b6040516200028b919062004ebb565b3480156200043857600080fd5b506200033662000d7c565b3480156200045057600080fd5b50609d546200035a906001600160a01b031681565b3480156200047257600080fd5b50620004c46200048436600462004d00565b60a8602052600090815260409020546001600160801b0381169064ffffffffff600160801b8204169060ff600160a81b8204811691600160b01b90041684565b6040516200028b9493929190620050ff565b348015620004e357600080fd5b506200027c62000d92565b348015620004fb57600080fd5b5060a354620003a79060ff1681565b3480156200051757600080fd5b50620003d060995481565b3480156200052f57600080fd5b506200033662000541366004620049cd565b62000da1565b3480156200055457600080fd5b50620003366200056636600462004a0b565b62000e8c565b3480156200057957600080fd5b50609b546200035a906001600160a01b031681565b620003d06200059f36600462004c71565b62000ef7565b348015620005b257600080fd5b506200033662001276565b348015620005ca57600080fd5b5062000336620012b1565b348015620005e257600080fd5b5060a0546200035a906001600160a01b031681565b3480156200060457600080fd5b506065546001600160a01b03166200035a565b3480156200062457600080fd5b50609c546200035a906001600160a01b031681565b3480156200064657600080fd5b506200065e6200065836600462004d00565b620012ca565b6040516200028b919062004f76565b3480156200067a57600080fd5b50620003366200068c36600462004a48565b62001497565b62000336620006a336600462004d00565b620015c7565b348015620006b657600080fd5b50620003d062001674565b62000336620006d236600462004d00565b620016f9565b348015620006e557600080fd5b50609a546200035a906001600160a01b031681565b3480156200070757600080fd5b50620003d060a25481565b620003d06200072336600462004bc2565b620017a0565b3480156200073657600080fd5b506200035a62001f9e565b3480156200074e57600080fd5b506200033662000760366004620049cd565b62001fef565b3480156200077357600080fd5b50620003366200078536600462004a0b565b62002022565b3480156200079857600080fd5b50609f546200035a906001600160a01b031681565b348015620007ba57600080fd5b5062000336620007cc366004620049cd565b620021d6565b348015620007df57600080fd5b50620003d0620007f136600462004b13565b62002278565b3480156200080457600080fd5b50620003a762000816366004620049cd565b60a76020526000908152604090205460ff1681565b60a480546200083a9062005232565b80601f0160208091040260200160405190810160405280929190818152602001828054620008689062005232565b8015620008b95780601f106200088d57610100808354040283529160200191620008b9565b820191906000526020600020905b8154815290600101906020018083116200089b57829003601f168201915b505050505081565b620008cb62004687565b609e54604051634f558e7960e01b8152600481018490526001600160a01b0390911690634f558e799060240160206040518083038186803b1580156200091057600080fd5b505afa15801562000925573d6000803e3d6000fd5b505050506040513d601f19601f820116820180604052508101906200094b919062004ce1565b15620009e057609e546040516331a9108f60e11b8152600481018490526001600160a01b0390911690636352211e9060240160206040518083038186803b1580156200099657600080fd5b505afa158015620009ab573d6000803e3d6000fd5b505050506040513d601f19601f82011682018060405250810190620009d19190620049ec565b6001600160a01b031660208201525b609f54604051634f558e7960e01b8152600481018490526001600160a01b0390911690634f558e799060240160206040518083038186803b15801562000a2557600080fd5b505afa15801562000a3a573d6000803e3d6000fd5b505050506040513d601f19601f8201168201806040525081019062000a60919062004ce1565b1562000af257609f546040516331a9108f60e11b8152600481018490526001600160a01b0390911690636352211e9060240160206040518083038186803b15801562000aab57600080fd5b505afa15801562000ac0573d6000803e3d6000fd5b505050506040513d601f19601f8201168201806040525081019062000ae69190620049ec565b6001600160a01b031681525b600082815260a860209081526040808320815160808101835281546001600160801b0381168252600160801b810464ffffffffff1694820194909452929091830190600160a81b900460ff16600181111562000b5e57634e487b7160e01b600052602160045260246000fd5b600181111562000b7e57634e487b7160e01b600052602160045260246000fd5b81528154602090910190600160b01b900460ff16600481111562000bb257634e487b7160e01b600052602160045260246000fd5b600481111562000bd257634e487b7160e01b600052602160045260246000fd5b90525080516001600160801b0316604080850191909152602082015164ffffffffff1660608501528101519091506080830190600181111562000c2557634e487b7160e01b600052602160045260246000fd5b9081600181111562000c4757634e487b7160e01b600052602160045260246000fd5b905250606081015160a0830190600481111562000c7457634e487b7160e01b600052602160045260246000fd5b9081600481111562000c9657634e487b7160e01b600052602160045260246000fd5b8152505050919050565b6065546001600160a01b0316331462000cd65760405162461bcd60e51b815260040162000ccd9062004fbb565b60405180910390fd5b62000ce181620025d2565b6040516001600160a01b038216907fbc7cd75a20ee27fd9adebab32041f755214dbc6bffa90cc0225b39da2e5c2d3b90600090a250565b600081815260db602090815260409182902080548351818402810184019094528084526060939283018282801562000d7057602002820191906000526020600020905b81548152602001906001019080831162000d5b575b50505050509050919050565b62000d866200266a565b60a3805460ff19169055565b60a580546200083a9062005232565b609a54604080516331056e5760e21b815290516000926001600160a01b03169163c415b95c916004808301926020929190829003018186803b15801562000de757600080fd5b505afa15801562000dfc573d6000803e3d6000fd5b505050506040513d601f19601f8201168201806040525081019062000e229190620049ec565b609a549091506001600160a01b031633148062000e475750336001600160a01b038216145b62000e665760405162461bcd60e51b815260040162000ccd906200503b565b609c5460a15462000e83916001600160a01b0316908490620026b1565b5050600060a155565b62000e966200266a565b60405163f2fde38b60e01b81526001600160a01b03828116600483015283169063f2fde38b90602401600060405180830381600087803b15801562000eda57600080fd5b505af115801562000eef573d6000803e3d6000fd5b505050505050565b60006002600154141562000f1f5760405162461bcd60e51b815260040162000ccd906200505a565b600260015562000f2f33620026e7565b84516001600160a01b03161580159062000f55575060208501516001600160a01b031615155b62000f915760405162461bcd60e51b815260206004820152600b60248201526a216164647265737328302960a81b604482015260640162000ccd565b600062000f9f85856200273e565b905062000fad818462002808565b609a54602087015160405163087af11360e01b81526001600160801b0390911660048201529193506000916001600160a01b039091169063087af1139060240160206040518083038186803b1580156200100657600080fd5b505afa1580156200101b573d6000803e3d6000fd5b505050506040513d601f19601f8201168201806040525081019062001041919062004d19565b9050806001600160801b031660a16000828254620010609190620051a3565b909155505084156200107e576200107883336200289a565b620010a3565b609c548251620010a3916001600160a01b03169033906001600160801b031662002920565b609f5487516040516340c10f1960e01b81526001600160a01b03909216916340c10f1991620010d791879060040162004ea2565b600060405180830381600087803b158015620010f257600080fd5b505af115801562001107573d6000803e3d6000fd5b5050609c546200112c92506001600160a01b0316905033886001602002015162002920565b609c548751602088015162001162926001600160a01b031691906200115c906001600160801b03861690620051e9565b620026b1565b609e5460208801516040516340c10f1960e01b81526001600160a01b03909216916340c10f19916200119991879060040162004ea2565b600060405180830381600087803b158015620011b457600080fd5b505af1158015620011c9573d6000803e3d6000fd5b505050507fe0acdb2c46db242c6d690c172f809368d34046d9d93785ce84d95ebded357e8783886000600281106200121157634e487b7160e01b600052603260045260246000fd5b6020020151896001602002015189600160200201516040516200126094939291909384526001600160a01b039283166020850152911660408301526001600160801b0316606082015260800190565b60405180910390a1505060018055949350505050565b6065546001600160a01b03163314620012a35760405162461bcd60e51b815260040162000ccd9062004fbb565b620012af600062002a4b565b565b620012bb6200266a565b60a3805460ff19166001179055565b600081815260a860209081526040808320815160808101835281546001600160801b0381168252600160801b810464ffffffffff169482019490945284939092830190600160a81b900460ff1660018111156200133757634e487b7160e01b600052602160045260246000fd5b60018111156200135757634e487b7160e01b600052602160045260246000fd5b81528154602090910190600160b01b900460ff1660048111156200138b57634e487b7160e01b600052602160045260246000fd5b6004811115620013ab57634e487b7160e01b600052602160045260246000fd5b905250602081015190915064ffffffffff16620013cb5750600092915050565b6020810151429064ffffffffff16811162001421576003826060015160048111156200140757634e487b7160e01b600052602160045260246000fd5b1462001417575060019392505050565b5060039392505050565b6003826060015160048111156200144857634e487b7160e01b600052602160045260246000fd5b141580156200147c57506004826060015160048111156200147957634e487b7160e01b600052602160045260246000fd5b14155b156200148c575060029392505050565b506060015192915050565b600054610100900460ff16620014b45760005460ff1615620014b8565b303b155b6200151d5760405162461bcd60e51b815260206004820152602e60248201527f496e697469616c697a61626c653a20636f6e747261637420697320616c72656160448201526d191e481a5b9a5d1a585b1a5e995960921b606482015260840162000ccd565b600054610100900460ff1615801562001540576000805461ffff19166101011790555b6200154d85858462002a9d565b826102d114620015895760405162461bcd60e51b815260040162000ccd906020808252600490820152632137323160e01b604082015260600190565b7fef0e914e835f61aa70b75aa9eaea42366fdf5c718e3c6cdb732a01e4a2b58fc16099558015620015c0576000805461ff00191690555b5050505050565b60026001541415620015ed5760405162461bcd60e51b815260040162000ccd906200505a565b6002600155620015fc62002f17565b60016200160982620012ca565b60048111156200162957634e487b7160e01b600052602160045260246000fd5b14620016625760405162461bcd60e51b81526020600482015260076024820152662161637469766560c81b604482015260640162000ccd565b6200166d8162002f55565b5060018055565b609c546040516370a0823160e01b81523060048201526000916001600160a01b0316906370a082319060240160206040518083038186803b158015620016b957600080fd5b505afa158015620016ce573d6000803e3d6000fd5b505050506040513d601f19601f82011682018060405250810190620016f4919062004d42565b905090565b600260015414156200171f5760405162461bcd60e51b815260040162000ccd906200505a565b60026001556200172e62002f17565b60026200173b82620012ca565b60048111156200175b57634e487b7160e01b600052602160045260246000fd5b14620017955760405162461bcd60e51b815260206004820152600860248201526708595e1c1a5c995960c21b604482015260640162000ccd565b6200166d81620033c6565b600060026001541415620017c85760405162461bcd60e51b815260040162000ccd906200505a565b60026001558451600090620017df9088906200273e565b905060006040518061014001604052808a6000600281106200181157634e487b7160e01b600052603260045260246000fd5b60200201516001600160a01b031681526020018a6001600281106200184657634e487b7160e01b600052603260045260246000fd5b60200201516001600160a01b03168152602001896000600481106200187b57634e487b7160e01b600052603260045260246000fd5b60200201516001600160801b0316815260200189600160048110620018b057634e487b7160e01b600052603260045260246000fd5b60200201516001600160801b0316815260200189600260048110620018e557634e487b7160e01b600052603260045260246000fd5b602002015164ffffffffff168152602001896003600481106200191857634e487b7160e01b600052603260045260246000fd5b602002015164ffffffffff168152602001886000600281106200194b57634e487b7160e01b600052603260045260246000fd5b60200201516200195d57600162001960565b60005b60018111156200198057634e487b7160e01b600052602160045260246000fd5b81526020018860016020020151151581526020018581526020018781525090506000609854620019b08362003650565b60405161190160f01b60208201526022810192909252604282015260620160408051601f198184030181529181528151602092830120600081815260a690935291205490915060ff161562001a365760405162461bcd60e51b815260206004820152600b60248201526a3a30b5b2b71030b3b0b4b760a91b604482015260640162000ccd565b62001a428187620036c6565b6001600160a01b031682600001516001600160a01b031614801562001a70575081516001600160a01b031615155b62001aac5760405162461bcd60e51b815260206004820152600b60248201526a1cda59c81a5b9d985b1a5960aa1b604482015260640162000ccd565b42826080015164ffffffffff16101562001af35760405162461bcd60e51b8152602060048201526007602482015266195e1c1a5c995960ca1b604482015260640162000ccd565b600081815260a660205260409020805460ff1916600117905562001b18838862002808565b609a54606084015160405163087af11360e01b81526001600160801b0390911660048201529195506000916001600160a01b039091169063087af1139060240160206040518083038186803b15801562001b7157600080fd5b505afa15801562001b86573d6000803e3d6000fd5b505050506040513d601f19601f8201168201806040525081019062001bac919062004d19565b9050806001600160801b031660a1600082825462001bcb9190620051a3565b909155505060e08301511562001d7e5760008360c00151600181111562001c0257634e487b7160e01b600052602160045260246000fd5b141562001c1f5762001c198584600001516200289a565b62001c45565b609c548351855162001c45926001600160a01b031691906001600160801b031662002920565b609f5483516040516340c10f1960e01b81526001600160a01b03909216916340c10f199162001c7991899060040162004ea2565b600060405180830381600087803b15801562001c9457600080fd5b505af115801562001ca9573d6000803e3d6000fd5b5050609c54606086015162001cd793506001600160a01b03909116915033906001600160801b031662002920565b609c548351606085015162001d0d926001600160a01b0316919062001cfe908590620051be565b6001600160801b0316620026b1565b609e5460208401516040516340c10f1960e01b81526001600160a01b03909216916340c10f199162001d4491899060040162004ea2565b600060405180830381600087803b15801562001d5f57600080fd5b505af115801562001d74573d6000803e3d6000fd5b5050505062001f0c565b60008360c00151600181111562001da557634e487b7160e01b600052602160045260246000fd5b141562001dbe5762001db885336200289a565b62001de3565b609c54845162001de3916001600160a01b03169033906001600160801b031662002920565b609f5460208401516040516340c10f1960e01b81526001600160a01b03909216916340c10f199162001e1a91899060040162004ea2565b600060405180830381600087803b15801562001e3557600080fd5b505af115801562001e4a573d6000803e3d6000fd5b5050609c548551606087015162001e7994506001600160a01b039092169250906001600160801b031662002920565b609c546020840151606085015162001ea3926001600160a01b0316919062001cfe908590620051be565b609e5483516040516340c10f1960e01b81526001600160a01b03909216916340c10f199162001ed791899060040162004ea2565b600060405180830381600087803b15801562001ef257600080fd5b505af115801562001f07573d6000803e3d6000fd5b505050505b7fd84334bc9742882a513fb5f338e695d6f0e58bc083fe553be8f7130a0cdb8de6858460000151856020015185876060015160405162001f839594939291909485526001600160a01b03938416602086015291909216604084015260608301919091526001600160801b0316608082015260a00190565b60405180910390a15050600180555090979650505050505050565b60a35460009060ff161562001fdf5760405162461bcd60e51b81526020600482015260066024820152651c185d5cd95960d21b604482015260640162000ccd565b506097546001600160a01b031690565b62001ff96200266a565b6001600160a01b0316600090815260a760205260409020805460ff19811660ff90911615179055565b609a54604080516331056e5760e21b815290516000926001600160a01b03169163c415b95c916004808301926020929190829003018186803b1580156200206857600080fd5b505afa1580156200207d573d6000803e3d6000fd5b505050506040513d601f19601f82011682018060405250810190620020a39190620049ec565b609a549091506001600160a01b0316331480620020c85750336001600160a01b038216145b620020e75760405162461bcd60e51b815260040162000ccd906200503b565b620020f283620036db565b6001600160a01b0383166200213d576040516001600160a01b038316904780156108fc02916000818181858888f1935050505015801562002137573d6000803e3d6000fd5b50505050565b6040516370a0823160e01b8152306004820152620021d19083906001600160a01b038616906370a082319060240160206040518083038186803b1580156200218457600080fd5b505afa15801562002199573d6000803e3d6000fd5b505050506040513d601f19601f82011682018060405250810190620021bf919062004d42565b6001600160a01b038616919062003723565b505050565b6065546001600160a01b03163314620022035760405162461bcd60e51b815260040162000ccd9062004fbb565b6001600160a01b0381166200226a5760405162461bcd60e51b815260206004820152602660248201527f4f776e61626c653a206e6577206f776e657220697320746865207a65726f206160448201526564647265737360d01b606482015260840162000ccd565b620022758162002a4b565b50565b600060026001541415620022a05760405162461bcd60e51b815260040162000ccd906200505a565b600260015560408051610140810182526001600160a01b0389168152600060208201819052918101888360200201516001600160801b0316815260200188600160048110620022ff57634e487b7160e01b600052603260045260246000fd5b60200201516001600160801b03168152602001886002600481106200233457634e487b7160e01b600052603260045260246000fd5b602002015164ffffffffff168152602001886003600481106200236757634e487b7160e01b600052603260045260246000fd5b602002015164ffffffffff168152602001876000600281106200239a57634e487b7160e01b600052603260045260246000fd5b6020020151620023ac576001620023af565b60005b6001811115620023cf57634e487b7160e01b600052602160045260246000fd5b8152602001876001602002015115158152602001848152602001868152509050609854620023fd8262003650565b60405161190160f01b6020820152602281019290925260428201526062016040516020818303038152906040528051906020012091506200243f8285620036c6565b6001600160a01b0316886001600160a01b0316146200248f5760405162461bcd60e51b815260206004820152600b60248201526a1cda59c81a5b9d985b1a5960aa1b604482015260640162000ccd565b600082815260a6602052604090205460ff1615620024e45760405162461bcd60e51b81526020600482015260116024820152703430b9b41037b83a34b7b71035b737bbb760791b604482015260640162000ccd565b42816080015164ffffffffff1610156200252b5760405162461bcd60e51b8152602060048201526007602482015266195e1c1a5c995960ca1b604482015260640162000ccd565b80516001600160a01b031633146200256f5760405162461bcd60e51b815260206004820152600660248201526510b6b0b5b2b960d11b604482015260640162000ccd565b600082815260a6602052604090819020805460ff19166001179055517fa51b1d8b97a835409979ff278770905d086026ac81efffb93c389b0e9576af5e90620025bb9084815260200190565b60405180910390a150600180559695505050505050565b803b620026485760405162461bcd60e51b815260206004820152603960248201527f5570677261646561626c65426561636f6e3a206368696c6420696d706c656d6560448201527f6e746174696f6e206973206e6f74206120636f6e747261637400000000000000606482015260840162000ccd565b609780546001600160a01b0319166001600160a01b0392909216919091179055565b609a546001600160a01b03163314620012af5760405162461bcd60e51b815260206004820152600860248201526721666163746f727960c01b604482015260640162000ccd565b801580620026c657506001600160a01b038216155b15620026d157505050565b620021d16001600160a01b038416838362003723565b6001600160a01b038116600090815260a7602052604090205460ff16620022755760405162461bcd60e51b815260206004820152600a602482015269085b185d5b98da1c185960b21b604482015260640162000ccd565b62002748620046bd565b6040830151421115801562002764575060608301516040840151105b6200279a5760405162461bcd60e51b81526020600482015260056024820152642174696d6560d81b604482015260640162000ccd565b6040805160808101825284516001600160801b03168152606085015164ffffffffff16602082015290810183620027d3576001620027d6565b60005b6001811115620027f657634e487b7160e01b600052602160045260246000fd5b81526020016001905290505b92915050565b60006200281462002f17565b6200281f836200377d565b905060005b82518110156200289357600082815260db6020526040902083518490839081106200285f57634e487b7160e01b600052603260045260246000fd5b60209081029190910181015182546001810184556000938452919092200155806200288a816200526f565b91505062002824565b5092915050565b60005b600083815260db6020526040902054811015620021d157609b54600084815260db6020526040902080546200290b926001600160a01b031691859130919086908110620028fa57634e487b7160e01b600052603260045260246000fd5b90600052602060002001546200385c565b8062002917816200526f565b9150506200289d565b8015806200293557506001600160a01b038216155b156200294057505050565b609d546001600160a01b0384811691161480156200296657506001600160a01b03821633145b8015620029735750803410155b1562002a3457609d60009054906101000a90046001600160a01b03166001600160a01b031663d0e30db0826040518263ffffffff1660e01b81526004016000604051808303818588803b158015620029ca57600080fd5b505af1158015620029df573d6000803e3d6000fd5b505050505060008134620029f49190620051e9565b9050801562002137576040516001600160a01b0384169082156108fc029083906000818181858888f19350505050158015620015c0573d6000803e3d6000fd5b620021d16001600160a01b03841683308462003ba5565b606580546001600160a01b038381166001600160a01b0319831681179093556040519116919082907f8be0079c531659141344cd1fd0a4f28419497f9722a3daafe3b4186f6b6457e090600090a35050565b600054610100900460ff1662002ac75760405162461bcd60e51b815260040162000ccd9062004ff0565b62002ad28362003bc9565b609a80546001600160a01b031916339081179091556040516363f59fb560e11b81526001600160a01b0383166004820152819063c7eb3f6a9060240160206040518083038186803b15801562002b2757600080fd5b505afa15801562002b3c573d6000803e3d6000fd5b505050506040513d601f19601f8201168201806040525081019062002b62919062004ce1565b62002b995760405162461bcd60e51b81526020600482015260066024820152652171756f746560d01b604482015260640162000ccd565b609b80546001600160a01b038086166001600160a01b031992831617909255609c8054858416921691909117905560408051633fc8cef360e01b8152905191831691633fc8cef391600480820192602092909190829003018186803b15801562002c0257600080fd5b505afa15801562002c17573d6000803e3d6000fd5b505050506040513d601f19601f8201168201806040525081019062002c3d9190620049ec565b609d80546001600160a01b0319166001600160a01b039290921691909117905560408051808201909152600f8082526e27b832b72630b7321027b83a34b7b760891b602090920191825262002c959160a491620046de565b50604080518082019091526003808252620312e360ec1b602090920191825262002cc29160a591620046de565b5062002ccd62003c08565b609855604051309062002ce0906200476d565b6001600160a01b039091168152604060208201819052600090820152606001604051809103906000f08015801562002d1c573d6000803e3d6000fd5b50609e80546001600160a01b0319166001600160a01b0392831690811790915560405163d89fe78960e01b815260806004820152601c60848201527f4f70656e4c616e64204f7074696f6e20526967687420546f6b656e200000000060a482015260c06024820152600660c48201526552696768745f60d01b60e4820152848316604482015291851660648301529063d89fe7899061010401600060405180830381600087803b15801562002dd057600080fd5b505af115801562002de5573d6000803e3d6000fd5b505050503060405162002df8906200476d565b6001600160a01b039091168152604060208201819052600090820152606001604051809103906000f08015801562002e34573d6000803e3d6000fd5b50609f80546001600160a01b0319166001600160a01b0392831690811790915560405163d89fe78960e01b815260806004820152602160848201527f4f70656e4c616e64204f7074696f6e204f626c69676174696f6e20546f6b656e60a4820152600160fd1b60c482015260e06024820152600b60e48201526a4f626c69676174696f6e5f60a81b610104820152848316604482015291851660648301529063d89fe7899061012401600060405180830381600087803b15801562002ef857600080fd5b505af115801562002f0d573d6000803e3d6000fd5b5050505050505050565b60a35460ff1615620012af5760405162461bcd60e51b81526020600482015260066024820152651c185d5cd95960d21b604482015260640162000ccd565b609e5460405163430c208160e01b81526001600160a01b039091169063430c20819062002f89903390859060040162004ea2565b60206040518083038186803b15801562002fa257600080fd5b505afa15801562002fb7573d6000803e3d6000fd5b505050506040513d601f19601f8201168201806040525081019062002fdd919062004ce1565b62002ffc5760405162461bcd60e51b815260040162000ccd906200503b565b609e546040516331a9108f60e11b8152600481018390526000916001600160a01b031690636352211e9060240160206040518083038186803b1580156200304257600080fd5b505afa15801562003057573d6000803e3d6000fd5b505050506040513d601f19601f820116820180604052508101906200307d9190620049ec565b609f546040516331a9108f60e11b8152600481018590529192506000916001600160a01b0390911690636352211e9060240160206040518083038186803b158015620030c857600080fd5b505afa158015620030dd573d6000803e3d6000fd5b505050506040513d601f19601f82011682018060405250810190620031039190620049ec565b600084815260a860209081526040808320815160808101835281546001600160801b0381168252600160801b810464ffffffffff16948201949094529495509293929190830190600160a81b900460ff1660018111156200317457634e487b7160e01b600052602160045260246000fd5b60018111156200319457634e487b7160e01b600052602160045260246000fd5b81528154602090910190600160b01b900460ff166004811115620031c857634e487b7160e01b600052602160045260246000fd5b6004811115620031e857634e487b7160e01b600052602160045260246000fd5b905250600085815260a86020526040808220805460ff60b01b1916600360b01b1790558201519192509060018111156200323257634e487b7160e01b600052602160045260246000fd5b14156200327257609c54815162003260916001600160a01b031690339085906001600160801b031662003ca5565b6200326c848462003ddb565b620032a4565b6200327f84338462003ea7565b609c548151620032a4916001600160a01b03169085906001600160801b0316620026b1565b600084815260a86020526040908190208054600360b01b60ff60b01b19909116179055609e549051630852cd8d60e31b8152600481018690526001600160a01b03909116906342966c6890602401600060405180830381600087803b1580156200330d57600080fd5b505af115801562003322573d6000803e3d6000fd5b5050609f54604051630852cd8d60e31b8152600481018890526001600160a01b0390911692506342966c689150602401600060405180830381600087803b1580156200336d57600080fd5b505af115801562003382573d6000803e3d6000fd5b505050507fa2a53c7cb82eeb7994ccbbab71bea210cd63cfeb7823972fb5b6a49c3b0e1d4c84604051620033b891815260200190565b60405180910390a150505050565b600081815260a860205260408120805460ff60b01b1916600160b21b1790819055600160a81b900460ff1660018111156200341157634e487b7160e01b600052602160045260246000fd5b1415620034ab57609f546040516331a9108f60e11b815260048101839052620034a59183916001600160a01b0390911690636352211e9060240160206040518083038186803b1580156200346457600080fd5b505afa15801562003479573d6000803e3d6000fd5b505050506040513d601f19601f820116820180604052508101906200349f9190620049ec565b62003ddb565b62003553565b609c54609f546040516331a9108f60e11b81526004810184905262003553926001600160a01b03908116921690636352211e9060240160206040518083038186803b158015620034fa57600080fd5b505afa1580156200350f573d6000803e3d6000fd5b505050506040513d601f19601f82011682018060405250810190620035359190620049ec565b600084815260a860205260409020546001600160801b0316620026b1565b609e54604051630852cd8d60e31b8152600481018390526001600160a01b03909116906342966c6890602401600060405180830381600087803b1580156200359a57600080fd5b505af1158015620035af573d6000803e3d6000fd5b5050609f54604051630852cd8d60e31b8152600481018590526001600160a01b0390911692506342966c689150602401600060405180830381600087803b158015620035fa57600080fd5b505af11580156200360f573d6000803e3d6000fd5b505050507f689bfcdb77fbc00ca0bc2edfc67256e51405d145c1b645df64b58f3e28809308816040516200364591815260200190565b60405180910390a150565b600060995482600001518360400151846060015185608001518660a001518760c001518860e001518961010001516200368e8b610120015162003f1c565b604051602001620036a99a9998979695949392919062004f01565b604051602081830303815290604052805190602001209050919050565b6000620036d4838362003f31565b9392505050565b609c546001600160a01b0382811691161415620022755760405162461bcd60e51b815260206004820152600560248201526471756f746560d81b604482015260640162000ccd565b620021d18363a9059cbb60e01b84846040516024016200374592919062004ea2565b60408051601f198184030181529190526020810180516001600160e01b03166001600160e01b03199093169290921790915262003f59565b60a280546000918262003790836200526f565b90915550600081815260a86020908152604091829020855181549287015164ffffffffff16600160801b026001600160a81b03199093166001600160801b0390911617919091178082559185015192935084929091829060ff60a81b1916600160a81b8360018111156200381457634e487b7160e01b600052602160045260246000fd5b021790555060608201518154829060ff60b01b1916600160b01b8360048111156200384f57634e487b7160e01b600052602160045260246000fd5b0217905550905050919050565b60606001600160a01b0385167306012c8cf97bead5deae237070f9587f8e7a266d1415620038d4576323b872dd848484604051602401620038a09392919062004e7e565b6040516020818303038152906040529060e01b6020820180516001600160e01b038381831617835250505050905062003b1f565b6001600160a01b03851673d03b517dfa5d14c3c7642d974ddc1b8b2c8e2d18141562003a6a57600080866001600160a01b03166358178168856040516024016200392091815260200190565b6040516020818303038152906040529060e01b6020820180516001600160e01b0383818316178352505050506040516200395b919062004dbd565b600060405180830381855afa9150503d806000811462003998576040519150601f19603f3d011682016040523d82523d6000602084013e6200399d565b606091505b5091509150600081806020019051810190620039ba9190620049ec565b9050828015620039db5750866001600160a01b0316816001600160a01b0316145b62003a1a5760405162461bcd60e51b815260206004820152600e60248201526d383ab636103737ba1037bbb732b960911b604482015260640162000ccd565b638264fe988560405160240162003a3391815260200190565b6040516020818303038152906040529060e01b6020820180516001600160e01b038381831617835250505050935050505062003b1f565b6001600160a01b0385167379986af15539de2db9a5086382daeda917a9cf0c148062003ab257506001600160a01b038516732a46f2ffd99e19a89476e2f62270e0a35bbf0756145b1562003ad4576323b872dd848484604051602401620038a09392919062004e7e565b6342842e0e84848460405160240162003af09392919062004e7e565b6040516020818303038152906040529060e01b6020820180516001600160e01b03838183161783525050505090505b600080866001600160a01b03168360405162003b3c919062004dbd565b6000604051808303816000865af19150503d806000811462003b7b576040519150601f19603f3d011682016040523d82523d6000602084013e62003b80565b606091505b509150915081801562003b9257508051155b62003b9c57600080fd5b50505050505050565b62002137846323b872dd60e01b858585604051602401620037459392919062004e7e565b600054610100900460ff1662003bf35760405162461bcd60e51b815260040162000ccd9062004ff0565b62003bfd62004032565b6200227581620025d2565b60007f8b73c3c69bb8fe3d512ecc4cf759cc79239f7b179b0ffacaa9a75d522b39400f60a460405162003c3c919062004ddb565b604051809103902060a560405162003c55919062004ddb565b604051809103902062003c654690565b604080516020810195909552840192909252606083015260808201523060a082015260c00160405160208183030381529060405280519060200120905090565b8062003cb15762002137565b609d546001600160a01b03858116911614801562003cd757506001600160a01b03831633145b801562003ce45750803410155b1562003dc457609d60009054906101000a90046001600160a01b03166001600160a01b031663d0e30db0826040518263ffffffff1660e01b81526004016000604051808303818588803b15801562003d3b57600080fd5b505af115801562003d50573d6000803e3d6000fd5b50505050506000813462003d659190620051e9565b9050801562003da7576040516001600160a01b0385169082156108fc029083906000818181858888f1935050505015801562003da5573d6000803e3d6000fd5b505b62003dbd6001600160a01b038616848462003723565b5062002137565b620021376001600160a01b03851684848462003ba5565b6001600160a01b03811662003e215760405162461bcd60e51b815260206004820152600b60248201526a746f20697320656d70747960a81b604482015260640162000ccd565b60005b600083815260db6020526040902054811015620021d157609b54600084815260db60205260409020805462003e92926001600160a01b03169130918691908690811062003e8157634e487b7160e01b600052603260045260246000fd5b906000526020600020015462004070565b8062003e9e816200526f565b91505062003e24565b60005b600084815260db60205260409020548110156200213757609b54600085815260db60205260409020805462003f07926001600160a01b031691869186919086908110620028fa57634e487b7160e01b600052603260045260246000fd5b8062003f13816200526f565b91505062003eaa565b600081604051602001620036a9919062004d85565b600080600062003f428585620040f2565b9150915062003f51816200416a565b509392505050565b600062003fb0826040518060400160405280602081526020017f5361666545524332303a206c6f772d6c6576656c2063616c6c206661696c6564815250856001600160a01b0316620043799092919063ffffffff16565b805190915015620021d1578080602001905181019062003fd1919062004ce1565b620021d15760405162461bcd60e51b815260206004820152602a60248201527f5361666545524332303a204552433230206f7065726174696f6e20646964206e6044820152691bdd081cdd58d8d9595960b21b606482015260840162000ccd565b600054610100900460ff166200405c5760405162461bcd60e51b815260040162000ccd9062004ff0565b6200406662004392565b620012af620043bc565b60606001600160a01b0385167306012c8cf97bead5deae237070f9587f8e7a266d1415620040b25763a9059cbb8383604051602401620038a092919062004ea2565b6001600160a01b03851673d03b517dfa5d14c3c7642d974ddc1b8b2c8e2d18141562003a6a57638b72a2ec8383604051602401620038a092919062004ea2565b6000808251604114156200412d5760208301516040840151606085015160001a6200412087828585620043f1565b9450945050505062004163565b8251604014156200415b57602083015160408401516200414f868383620044e6565b93509350505062004163565b506000905060025b9250929050565b60008160048111156200418d57634e487b7160e01b600052602160045260246000fd5b1415620041975750565b6001816004811115620041ba57634e487b7160e01b600052602160045260246000fd5b14156200420a5760405162461bcd60e51b815260206004820152601860248201527f45434453413a20696e76616c6964207369676e61747572650000000000000000604482015260640162000ccd565b60028160048111156200422d57634e487b7160e01b600052602160045260246000fd5b14156200427d5760405162461bcd60e51b815260206004820152601f60248201527f45434453413a20696e76616c6964207369676e6174757265206c656e67746800604482015260640162000ccd565b6003816004811115620042a057634e487b7160e01b600052602160045260246000fd5b1415620042fb5760405162461bcd60e51b815260206004820152602260248201527f45434453413a20696e76616c6964207369676e6174757265202773272076616c604482015261756560f01b606482015260840162000ccd565b60048160048111156200431e57634e487b7160e01b600052602160045260246000fd5b1415620022755760405162461bcd60e51b815260206004820152602260248201527f45434453413a20696e76616c6964207369676e6174757265202776272076616c604482015261756560f01b606482015260840162000ccd565b60606200438a848460008562004517565b949350505050565b600054610100900460ff16620012af5760405162461bcd60e51b815260040162000ccd9062004ff0565b600054610100900460ff16620043e65760405162461bcd60e51b815260040162000ccd9062004ff0565b620012af3362002a4b565b6000807f7fffffffffffffffffffffffffffffff5d576e7357a4501ddfe92f46681b20a08311156200442a5750600090506003620044dd565b8460ff16601b141580156200444357508460ff16601c14155b15620044565750600090506004620044dd565b6040805160008082526020820180845289905260ff881692820192909252606081018690526080810185905260019060a0016020604051602081039080840390855afa158015620044ab573d6000803e3d6000fd5b5050604051601f1901519150506001600160a01b038116620044d657600060019250925050620044dd565b9150600090505b94509492505050565b6000806001600160ff1b03831660ff84901c601b016200450987828885620043f1565b935093505050935093915050565b6060824710156200457a5760405162461bcd60e51b815260206004820152602660248201527f416464726573733a20696e73756666696369656e742062616c616e636520666f6044820152651c8818d85b1b60d21b606482015260840162000ccd565b843b620045ca5760405162461bcd60e51b815260206004820152601d60248201527f416464726573733a2063616c6c20746f206e6f6e2d636f6e7472616374000000604482015260640162000ccd565b600080866001600160a01b03168587604051620045e8919062004dbd565b60006040518083038185875af1925050503d806000811462004627576040519150601f19603f3d011682016040523d82523d6000602084013e6200462c565b606091505b50915091506200463e82828662004649565b979650505050505050565b606083156200465a575081620036d4565b8251156200466b5782518084602001fd5b8160405162461bcd60e51b815260040162000ccd919062004f86565b6040805160c081018252600080825260208201819052918101829052606081018290529060808201905b81526020016000905290565b604080516080810182526000808252602082018190529091820190620046b1565b828054620046ec9062005232565b90600052602060002090601f0160209004810192826200471057600085556200475b565b82601f106200472b57805160ff19168380011785556200475b565b828001600101855582156200475b579182015b828111156200475b5782518255916020019190600101906200473e565b50620047699291506200477b565b5090565b6108be80620052f583390190565b5b808211156200476957600081556001016200477c565b600082601f830112620047a3578081fd5b620047ad62005143565b808385604086011115620047bf578384fd5b835b6002811015620047ee578135620047d881620052cf565b84526020938401939190910190600101620047c1565b509095945050505050565b600082601f8301126200480a578081fd5b6200481462005143565b80838560408601111562004826578384fd5b835b6002811015620047ee5781356200483f81620052e5565b8452602093840193919091019060010162004828565b600082601f83011262004866578081fd5b6040516080810181811067ffffffffffffffff821117156200488c576200488c620052b9565b604052808360808101861015620048a1578384fd5b835b6004811015620048c4578135835260209283019290910190600101620048a3565b509195945050505050565b600082601f830112620048e0578081fd5b8135602067ffffffffffffffff821115620048ff57620048ff620052b9565b8160051b620049108282016200516f565b8381528281019086840183880185018910156200492b578687fd5b8693505b858410156200494f5780358352600193909301929184019184016200492f565b50979650505050505050565b600082601f8301126200496c578081fd5b813567ffffffffffffffff811115620049895762004989620052b9565b6200499e601f8201601f19166020016200516f565b818152846020838601011115620049b3578283fd5b816020850160208301379081016020019190915292915050565b600060208284031215620049df578081fd5b8135620036d481620052cf565b600060208284031215620049fe578081fd5b8151620036d481620052cf565b6000806040838503121562004a1e578081fd5b823562004a2b81620052cf565b9150602083013562004a3d81620052cf565b809150509250929050565b6000806000806080858703121562004a5e578182fd5b843562004a6b81620052cf565b9350602085013562004a7d81620052cf565b925060408501359150606085013562004a9681620052cf565b939692955090935050565b6000806000806080858703121562004ab7578182fd5b843562004ac481620052cf565b9350602085013562004ad681620052cf565b925060408501359150606085013567ffffffffffffffff81111562004af9578182fd5b62004b07878288016200495b565b91505092959194509250565b600080600080600080610140878903121562004b2d578384fd5b863562004b3a81620052cf565b955062004b4b886020890162004855565b945062004b5c8860a08901620047f9565b935060e087013567ffffffffffffffff8082111562004b79578384fd5b62004b878a838b01620048cf565b945061010089013591508082111562004b9e578384fd5b5062004bad89828a016200495b565b92505061012087013590509295509295509295565b600080600080600080610160878903121562004bdc578384fd5b62004be8888862004792565b955062004bf9886040890162004855565b945062004c0a8860c08901620047f9565b935061010087013567ffffffffffffffff8082111562004c28578384fd5b62004c368a838b01620048cf565b945061012089013591508082111562004c4d578384fd5b5062004c5c89828a016200495b565b92505061014087013590509295509295509295565b600080600080610100858703121562004c88578182fd5b62004c94868662004792565b935062004ca5866040870162004855565b925060c085013562004cb781620052e5565b915060e085013567ffffffffffffffff81111562004cd3578182fd5b62004b0787828801620048cf565b60006020828403121562004cf3578081fd5b8151620036d481620052e5565b60006020828403121562004d12578081fd5b5035919050565b60006020828403121562004d2b578081fd5b81516001600160801b0381168114620036d4578182fd5b60006020828403121562004d54578081fd5b5051919050565b6002811062004d6e5762004d6e620052a3565b9052565b6005811062004d6e5762004d6e620052a3565b815160009082906020808601845b8381101562004db15781518552938201939082019060010162004d93565b50929695505050505050565b6000825162004dd181846020870162005203565b9190910192915050565b600080835482600182811c91508083168062004df857607f831692505b602080841082141562004e1957634e487b7160e01b87526022600452602487fd5b81801562004e30576001811462004e425762004e70565b60ff1986168952848901965062004e70565b60008a815260209020885b8681101562004e685781548b82015290850190830162004e4d565b505084890196505b509498975050505050505050565b6001600160a01b039384168152919092166020820152604081019190915260600190565b6001600160a01b03929092168252602082015260400190565b6020808252825182820181905260009190848201906040850190845b8181101562004ef55783518352928401929184019160010162004ed7565b50909695505050505050565b8a81526001600160a01b038a1660208201526001600160801b0389811660408301528816606082015264ffffffffff8781166080830152861660a0820152610140810162004f5360c083018762004d5b565b93151560e082015261010081019290925261012090910152979650505050505050565b6020810162002802828462004d72565b602081526000825180602084015262004fa781604085016020870162005203565b601f01601f19169190910160400192915050565b6020808252818101527f4f776e61626c653a2063616c6c6572206973206e6f7420746865206f776e6572604082015260600190565b6020808252602b908201527f496e697469616c697a61626c653a20636f6e7472616374206973206e6f74206960408201526a6e697469616c697a696e6760a81b606082015260800190565b602080825260059082015264042c2eae8d60db1b604082015260600190565b6020808252601f908201527f5265656e7472616e637947756172643a207265656e7472616e742063616c6c00604082015260600190565b81516001600160a01b039081168252602080840151909116908201526040808301516001600160801b03169082015260608083015164ffffffffff169082015260808083015160c0830191620050ea9084018262004d5b565b5060a08301516200289360a084018262004d72565b6001600160801b038516815264ffffffffff84166020820152608081016200512b604083018562004d5b565b6200513a606083018462004d72565b95945050505050565b6040805190810167ffffffffffffffff81118282101715620051695762005169620052b9565b60405290565b604051601f8201601f1916810167ffffffffffffffff811182821017156200519b576200519b620052b9565b604052919050565b60008219821115620051b957620051b96200528d565b500190565b60006001600160801b0383811690831681811015620051e157620051e16200528d565b039392505050565b600082821015620051fe57620051fe6200528d565b500390565b60005b838110156200522057818101518382015260200162005206565b83811115620021375750506000910152565b600181811c908216806200524757607f821691505b602082108114156200526957634e487b7160e01b600052602260045260246000fd5b50919050565b60006000198214156200528657620052866200528d565b5060010190565b634e487b7160e01b600052601160045260246000fd5b634e487b7160e01b600052602160045260246000fd5b634e487b7160e01b600052604160045260246000fd5b6001600160a01b03811681146200227557600080fd5b80151581146200227557600080fdfe60806040526040516108be3803806108be8339810160408190526100229161041c565b61004d60017fa3f0ad74e5423aebfd80d3ef4346578335a9a72aeaee59ff6cb3582b35133d51610527565b60008051602061087d8339815191521461007757634e487b7160e01b600052600160045260246000fd5b6100818282610088565b505061058c565b61009b8261024360201b6100291760201c565b6100fa5760405162461bcd60e51b815260206004820152602560248201527f426561636f6e50726f78793a20626561636f6e206973206e6f74206120636f6e6044820152641d1c9858dd60da1b60648201526084015b60405180910390fd5b61017d826001600160a01b031663da5257166040518163ffffffff1660e01b815260040160206040518083038186803b15801561013657600080fd5b505afa15801561014a573d6000803e3d6000fd5b505050506040513d601f19601f8201168201806040525081019061016e9190610402565b61024360201b6100291760201c565b6101ef5760405162461bcd60e51b815260206004820152603460248201527f426561636f6e50726f78793a20626561636f6e20696d706c656d656e7461746960448201527f6f6e206973206e6f74206120636f6e747261637400000000000000000000000060648201526084016100f1565b60008051602061087d83398151915282815581511561023e5761023c610213610249565b8360405180606001604052806021815260200161089d602191396102d660201b61002f1760201c565b505b505050565b3b151590565b600061026160008051602061087d8339815191525490565b6001600160a01b031663da5257166040518163ffffffff1660e01b815260040160206040518083038186803b15801561029957600080fd5b505afa1580156102ad573d6000803e3d6000fd5b505050506040513d601f19601f820116820180604052508101906102d19190610402565b905090565b6060833b6103355760405162461bcd60e51b815260206004820152602660248201527f416464726573733a2064656c65676174652063616c6c20746f206e6f6e2d636f6044820152651b9d1c9858dd60d21b60648201526084016100f1565b600080856001600160a01b03168560405161035091906104d8565b600060405180830381855af49150503d806000811461038b576040519150601f19603f3d011682016040523d82523d6000602084013e610390565b606091505b5090925090506103a18282866103ad565b925050505b9392505050565b606083156103bc5750816103a6565b8251156103cc5782518084602001fd5b8160405162461bcd60e51b81526004016100f191906104f4565b80516001600160a01b03811681146103fd57600080fd5b919050565b600060208284031215610413578081fd5b6103a6826103e6565b6000806040838503121561042e578081fd5b610437836103e6565b60208401519092506001600160401b0380821115610453578283fd5b818501915085601f830112610466578283fd5b81518181111561047857610478610576565b604051601f8201601f19908116603f011681019083821181831017156104a0576104a0610576565b816040528281528860208487010111156104b8578586fd5b6104c983602083016020880161054a565b80955050505050509250929050565b600082516104ea81846020870161054a565b9190910192915050565b602081526000825180602084015261051381604085016020870161054a565b601f01601f19169190910160400192915050565b60008282101561054557634e487b7160e01b81526011600452602481fd5b500390565b60005b8381101561056557818101518382015260200161054d565b8381111561023c5750506000910152565b634e487b7160e01b600052604160045260246000fd5b6102e28061059b6000396000f3fe60806040523661001357610011610017565b005b6100115b61002761002261010a565b6101a9565b565b3b151590565b6060833b6100935760405162461bcd60e51b815260206004820152602660248201527f416464726573733a2064656c65676174652063616c6c20746f206e6f6e2d636f6044820152651b9d1c9858dd60d21b60648201526084015b60405180910390fd5b600080856001600160a01b0316856040516100ae919061022d565b600060405180830381855af49150503d80600081146100e9576040519150601f19603f3d011682016040523d82523d6000602084013e6100ee565b606091505b50915091506100fe8282866101cd565b925050505b9392505050565b60006101347fa3f0ad74e5423aebfd80d3ef4346578335a9a72aeaee59ff6cb3582b35133d505490565b6001600160a01b031663da5257166040518163ffffffff1660e01b815260040160206040518083038186803b15801561016c57600080fd5b505afa158015610180573d6000803e3d6000fd5b505050506040513d601f19601f820116820180604052508101906101a49190610206565b905090565b3660008037600080366000845af43d6000803e8080156101c8573d6000f35b3d6000fd5b606083156101dc575081610103565b8251156101ec5782518084602001fd5b8160405162461bcd60e51b815260040161008a9190610249565b600060208284031215610217578081fd5b81516001600160a01b0381168114610103578182fd5b6000825161023f81846020870161027c565b9190910192915050565b602081526000825180602084015261026881604085016020870161027c565b601f01601f19169190910160400192915050565b60005b8381101561029757818101518382015260200161027f565b838111156102a6576000848401525b5050505056fea2646970667358221220e471528e4f5a6236832cb6c3b3edbdec8cdc13f4415d7c8a9f274e676fbc503e64736f6c63430008040033a3f0ad74e5423aebfd80d3ef4346578335a9a72aeaee59ff6cb3582b35133d50426561636f6e50726f78793a2066756e6374696f6e2063616c6c206661696c6564a26469706673582212205ce8e58035a3d4f3ad4df8c8e0dae2d11e28dc9c533c4d3c6f19bb4eb7feb7b264736f6c63430008040033",
    "deployedBytecode": "",
    "linkReferences": {},
    "deployedLinkReferences": {}
}